{
  "contractName": "AdaptiveStakingPolicy",
  "abi": [
    {
      "inputs": [
        {
          "internalType": "address",
          "name": "_stakingContract",
          "type": "address"
        },
        {
          "internalType": "uint256",
          "name": "minimumMultiplier",
          "type": "uint256"
        },
        {
          "internalType": "uint256",
          "name": "_stakeaheadTime",
          "type": "uint256"
        },
        {
          "internalType": "bool",
          "name": "_useCliff",
          "type": "bool"
        }
      ],
      "payable": false,
      "stateMutability": "nonpayable",
      "type": "constructor"
    },
    {
      "constant": true,
      "inputs": [
        {
          "internalType": "uint256",
          "name": "_now",
          "type": "uint256"
        },
        {
          "internalType": "uint256",
          "name": "grantedAmount",
          "type": "uint256"
        },
        {
          "internalType": "uint256",
          "name": "duration",
          "type": "uint256"
        },
        {
          "internalType": "uint256",
          "name": "start",
          "type": "uint256"
        },
        {
          "internalType": "uint256",
          "name": "cliff",
          "type": "uint256"
        },
        {
          "internalType": "uint256",
          "name": "withdrawn",
          "type": "uint256"
        }
      ],
      "name": "getStakeableAmount",
      "outputs": [
        {
          "internalType": "uint256",
          "name": "",
          "type": "uint256"
        }
      ],
      "payable": false,
      "stateMutability": "view",
      "type": "function"
    }
  ],
  "bytecode": "0x608060405234801561001057600080fd5b506040516107363803806107368339818101604052608081101561003357600080fd5b81019080805190602001909291908051906020019092919080519060200190929190805190602001909291905050506100f9838573ffffffffffffffffffffffffffffffffffffffff1663ec5ffac26040518163ffffffff1660e01b815260040160206040518083038186803b1580156100ac57600080fd5b505afa1580156100c0573d6000803e3d6000fd5b505050506040513d60208110156100d657600080fd5b810190808051906020019092919050505061012960201b6102ab1790919060201c565b6000819055508160018190555080600260006101000a81548160ff021916908315150217905550505050506101af565b60008083141561013c57600090506101a9565b600082840290508284828161014d57fe5b04146101a4576040517f08c379a00000000000000000000000000000000000000000000000000000000081526004018080602001828103825260218152602001806107156021913960400191505060405180910390fd5b809150505b92915050565b610557806101be6000396000f3fe608060405234801561001057600080fd5b506004361061002b5760003560e01c8063dab4093514610030575b600080fd5b61008e600480360360c081101561004657600080fd5b810190808035906020019092919080359060200190929190803590602001909291908035906020019092919080359060200190929190803590602001909291905050506100a4565b6040518082815260200191505060405180910390f35b6000806100f0878787600260009054906101000a900460ff166100c85760006100ca565b875b6100df6001548e61015d90919063ffffffff16565b6101e590949392919063ffffffff16565b90506000610107848961026190919063ffffffff16565b9050600061011e858461026190919063ffffffff16565b905060005482101561013557819350505050610153565b60005481101561014c576000549350505050610153565b8093505050505b9695505050505050565b6000808284019050838110156101db576040517f08c379a000000000000000000000000000000000000000000000000000000000815260040180806020018281038252601b8152602001807f536166654d6174683a206164646974696f6e206f766572666c6f77000000000081525060200191505060405180910390fd5b8091505092915050565b600080828710905080156101fd576000915050610258565b6000610212858961026190919063ffffffff16565b90506000868210159050801561022d57879350505050610258565b61025287610244848b6102ab90919063ffffffff16565b61033190919063ffffffff16565b93505050505b95945050505050565b60006102a383836040518060400160405280601e81526020017f536166654d6174683a207375627472616374696f6e206f766572666c6f77000081525061037b565b905092915050565b6000808314156102be576000905061032b565b60008284029050828482816102cf57fe5b0414610326576040517f08c379a00000000000000000000000000000000000000000000000000000000081526004018080602001828103825260218152602001806105026021913960400191505060405180910390fd5b809150505b92915050565b600061037383836040518060400160405280601a81526020017f536166654d6174683a206469766973696f6e206279207a65726f00000000000081525061043b565b905092915050565b6000838311158290610428576040517f08c379a00000000000000000000000000000000000000000000000000000000081526004018080602001828103825283818151815260200191508051906020019080838360005b838110156103ed5780820151818401526020810190506103d2565b50505050905090810190601f16801561041a5780820380516001836020036101000a031916815260200191505b509250505060405180910390fd5b5060008385039050809150509392505050565b600080831182906104e7576040517f08c379a00000000000000000000000000000000000000000000000000000000081526004018080602001828103825283818151815260200191508051906020019080838360005b838110156104ac578082015181840152602081019050610491565b50505050905090810190601f1680156104d95780820380516001836020036101000a031916815260200191505b509250505060405180910390fd5b5060008385816104f357fe5b04905080915050939250505056fe536166654d6174683a206d756c7469706c69636174696f6e206f766572666c6f77a265627a7a7231582087252559ce2cad7a3ba0e00f5c164372494fba7f7cf96e2c39125da1d848d73364736f6c63430005110032536166654d6174683a206d756c7469706c69636174696f6e206f766572666c6f77",
  "source": "pragma solidity 0.5.17;\n\nimport \"openzeppelin-solidity/contracts/math/SafeMath.sol\";\nimport \"./libraries/grant/UnlockingSchedule.sol\";\nimport \"./GrantStakingPolicy.sol\";\nimport \"./TokenStaking.sol\";\n\n/// @title AdaptiveStakingPolicy\n/// @notice A staking policy which allows the grantee\n/// to always stake a certain multiple of the defined minimum stake,\n/// or the unlocked amount at a specified time in the future,\n/// if it is greater.\n///\n/// When creating a policy,\n/// the minimum stake multiplier and stakeahead time can be customized,\n/// and whether the cliff is considered in the stakeahead\n/// can also be chosen.\ncontract AdaptiveStakingPolicy is GrantStakingPolicy {\n    using SafeMath for uint256;\n    using UnlockingSchedule for uint256;\n    uint256 minimumStake;\n    uint256 stakeaheadTime;\n    bool useCliff;\n\n    constructor(\n        // Address of the staking contract,\n        // from which the minimum stake is fetched at the time of creation.\n        address _stakingContract,\n        // Multiplier for the minimum stake;\n        // with a minimumMultiplier = 5\n        // the policy permits staking 5 times the minimum stake.\n        // If the multiplier is 0,\n        // only the unlocked amount,\n        // including stakeahead if applicable,\n        // can be staked.\n        uint256 minimumMultiplier,\n        // Stakeahead time in seconds;\n        // the policy permits staking the amount that will be unlocked\n        // `stakeaheadTime` seconds in the future.\n        // For example, on a 12-month grant\n        // a stakeahead time of 7,884,000 (3 months in seconds)\n        // means that 25% of the grant will be unlocked within the stakeahead\n        // and thus be stakeable on top of the unlocked amount.\n        // On a 24-month grant the same stakeahead results in\n        // 12.5% of the grant being added to the unlocked amount.\n        // With a stakeahead of 0,\n        // only the unlocked amount can be staked.\n        uint256 _stakeaheadTime,\n        // Whether the cliff is used when calculating stakeahead.\n        // If `useCliff = true`,\n        // a 12-month grant with a 6-month cliff and 3-month stakeahead\n        // will only permit the minimum until 3 months,\n        // when the current time plus stakeahead reaches the cliff.\n        // If the cliff is not used,\n        // the grantee could instead stake 25% right away.\n        bool _useCliff\n    ) public {\n        minimumStake = TokenStaking(_stakingContract).minimumStake().mul(\n            minimumMultiplier\n        );\n        stakeaheadTime = _stakeaheadTime;\n        useCliff = _useCliff;\n    }\n\n    function getStakeableAmount(\n        uint256 _now,\n        uint256 grantedAmount,\n        uint256 duration,\n        uint256 start,\n        uint256 cliff,\n        uint256 withdrawn\n    ) public view returns (uint256) {\n        uint256 unlocked =\n            _now.add(stakeaheadTime).getUnlockedAmount(\n                grantedAmount,\n                duration,\n                start,\n                (useCliff ? cliff : 0)\n            );\n        uint256 remainingInGrant = grantedAmount.sub(withdrawn);\n        uint256 unlockedInGrant = unlocked.sub(withdrawn);\n\n        // Less than minimum stake remaining\n        //   -> may stake what is remaining in grant\n        if (remainingInGrant < minimumStake) {\n            return remainingInGrant;\n        }\n        // At least minimum stake remaining in grant,\n        // but unlocked amount is less than the minimum stake\n        //   -> may stake the minimum stake\n        if (unlockedInGrant < minimumStake) {\n            return minimumStake;\n        }\n        // More than minimum stake unlocked in grant\n        //   -> may stake the unlocked amount\n        return unlockedInGrant;\n    }\n}\n",
  "sourcePath": "/home/runner/work/keep-core/keep-core/solidity-v1/contracts/AdaptiveStakingPolicy.sol",
  "compiler": {
    "name": "solc",
    "version": "0.5.17+commit.d19bba13.Emscripten.clang"
  },
  "schemaVersion": "3.3.4",
  "updatedAt": "2021-11-26T17:03:20.071Z",
  "devdoc": {
    "methods": {},
    "title": "AdaptiveStakingPolicy"
  },
  "userdoc": {
    "methods": {},
    "notice": "A staking policy which allows the grantee to always stake a certain multiple of the defined minimum stake, or the unlocked amount at a specified time in the future, if it is greater.  /// When creating a policy, the minimum stake multiplier and stakeahead time can be customized, and whether the cliff is considered in the stakeahead can also be chosen."
  }
}