{
  "contractName": "BeaconBackportRewards",
  "abi": [
    {
      "inputs": [
        {
          "internalType": "address",
          "name": "_token",
          "type": "address"
        },
        {
          "internalType": "address",
          "name": "_operatorContract",
          "type": "address"
        },
        {
          "internalType": "address",
          "name": "_stakingContract",
          "type": "address"
        }
      ],
      "payable": false,
      "stateMutability": "nonpayable",
      "type": "constructor"
    },
    {
      "anonymous": false,
      "inputs": [
        {
          "indexed": true,
          "internalType": "address",
          "name": "previousOwner",
          "type": "address"
        },
        {
          "indexed": true,
          "internalType": "address",
          "name": "newOwner",
          "type": "address"
        }
      ],
      "name": "OwnershipTransferred",
      "type": "event"
    },
    {
      "anonymous": false,
      "inputs": [
        {
          "indexed": false,
          "internalType": "bytes32",
          "name": "keep",
          "type": "bytes32"
        },
        {
          "indexed": false,
          "internalType": "uint256",
          "name": "amount",
          "type": "uint256"
        }
      ],
      "name": "RewardReceived",
      "type": "event"
    },
    {
      "anonymous": false,
      "inputs": [
        {
          "indexed": false,
          "internalType": "uint256",
          "name": "amountTransferred",
          "type": "uint256"
        }
      ],
      "name": "UpgradeFinalized",
      "type": "event"
    },
    {
      "anonymous": false,
      "inputs": [
        {
          "indexed": false,
          "internalType": "address",
          "name": "newRewardsContract",
          "type": "address"
        }
      ],
      "name": "UpgradeInitiated",
      "type": "event"
    },
    {
      "constant": false,
      "inputs": [
        {
          "internalType": "uint256",
          "name": "interval",
          "type": "uint256"
        }
      ],
      "name": "allocateRewards",
      "outputs": [],
      "payable": false,
      "stateMutability": "nonpayable",
      "type": "function"
    },
    {
      "constant": true,
      "inputs": [],
      "name": "dispensedRewards",
      "outputs": [
        {
          "internalType": "uint256",
          "name": "",
          "type": "uint256"
        }
      ],
      "payable": false,
      "stateMutability": "view",
      "type": "function"
    },
    {
      "constant": true,
      "inputs": [
        {
          "internalType": "bytes32",
          "name": "_keep",
          "type": "bytes32"
        }
      ],
      "name": "eligibleButTerminated",
      "outputs": [
        {
          "internalType": "bool",
          "name": "",
          "type": "bool"
        }
      ],
      "payable": false,
      "stateMutability": "view",
      "type": "function"
    },
    {
      "constant": true,
      "inputs": [
        {
          "internalType": "bytes32",
          "name": "_keep",
          "type": "bytes32"
        }
      ],
      "name": "eligibleForReward",
      "outputs": [
        {
          "internalType": "bool",
          "name": "",
          "type": "bool"
        }
      ],
      "payable": false,
      "stateMutability": "view",
      "type": "function"
    },
    {
      "constant": true,
      "inputs": [
        {
          "internalType": "uint256",
          "name": "interval",
          "type": "uint256"
        }
      ],
      "name": "endOf",
      "outputs": [
        {
          "internalType": "uint256",
          "name": "",
          "type": "uint256"
        }
      ],
      "payable": false,
      "stateMutability": "view",
      "type": "function"
    },
    {
      "constant": false,
      "inputs": [],
      "name": "finalizeRewardsUpgrade",
      "outputs": [],
      "payable": false,
      "stateMutability": "nonpayable",
      "type": "function"
    },
    {
      "constant": true,
      "inputs": [],
      "name": "firstIntervalStart",
      "outputs": [
        {
          "internalType": "uint256",
          "name": "",
          "type": "uint256"
        }
      ],
      "payable": false,
      "stateMutability": "view",
      "type": "function"
    },
    {
      "constant": true,
      "inputs": [],
      "name": "funded",
      "outputs": [
        {
          "internalType": "bool",
          "name": "",
          "type": "bool"
        }
      ],
      "payable": false,
      "stateMutability": "view",
      "type": "function"
    },
    {
      "constant": true,
      "inputs": [
        {
          "internalType": "uint256",
          "name": "interval",
          "type": "uint256"
        }
      ],
      "name": "getAllocatedRewards",
      "outputs": [
        {
          "internalType": "uint256",
          "name": "",
          "type": "uint256"
        }
      ],
      "payable": false,
      "stateMutability": "view",
      "type": "function"
    },
    {
      "constant": true,
      "inputs": [],
      "name": "getIntervalCount",
      "outputs": [
        {
          "internalType": "uint256",
          "name": "",
          "type": "uint256"
        }
      ],
      "payable": false,
      "stateMutability": "view",
      "type": "function"
    },
    {
      "constant": true,
      "inputs": [
        {
          "internalType": "uint256",
          "name": "interval",
          "type": "uint256"
        }
      ],
      "name": "getIntervalWeight",
      "outputs": [
        {
          "internalType": "uint256",
          "name": "",
          "type": "uint256"
        }
      ],
      "payable": false,
      "stateMutability": "view",
      "type": "function"
    },
    {
      "constant": false,
      "inputs": [
        {
          "internalType": "address",
          "name": "_newRewardsContract",
          "type": "address"
        }
      ],
      "name": "initiateRewardsUpgrade",
      "outputs": [],
      "payable": false,
      "stateMutability": "nonpayable",
      "type": "function"
    },
    {
      "constant": true,
      "inputs": [
        {
          "internalType": "uint256",
          "name": "",
          "type": "uint256"
        }
      ],
      "name": "intervalKeepsProcessed",
      "outputs": [
        {
          "internalType": "uint256",
          "name": "",
          "type": "uint256"
        }
      ],
      "payable": false,
      "stateMutability": "view",
      "type": "function"
    },
    {
      "constant": true,
      "inputs": [
        {
          "internalType": "uint256",
          "name": "timestamp",
          "type": "uint256"
        }
      ],
      "name": "intervalOf",
      "outputs": [
        {
          "internalType": "uint256",
          "name": "",
          "type": "uint256"
        }
      ],
      "payable": false,
      "stateMutability": "view",
      "type": "function"
    },
    {
      "constant": true,
      "inputs": [
        {
          "internalType": "uint256",
          "name": "",
          "type": "uint256"
        }
      ],
      "name": "intervalWeights",
      "outputs": [
        {
          "internalType": "uint256",
          "name": "",
          "type": "uint256"
        }
      ],
      "payable": false,
      "stateMutability": "view",
      "type": "function"
    },
    {
      "constant": true,
      "inputs": [
        {
          "internalType": "uint256",
          "name": "interval",
          "type": "uint256"
        }
      ],
      "name": "isAllocated",
      "outputs": [
        {
          "internalType": "bool",
          "name": "",
          "type": "bool"
        }
      ],
      "payable": false,
      "stateMutability": "view",
      "type": "function"
    },
    {
      "constant": true,
      "inputs": [
        {
          "internalType": "uint256",
          "name": "interval",
          "type": "uint256"
        }
      ],
      "name": "isFinished",
      "outputs": [
        {
          "internalType": "bool",
          "name": "",
          "type": "bool"
        }
      ],
      "payable": false,
      "stateMutability": "view",
      "type": "function"
    },
    {
      "constant": true,
      "inputs": [],
      "name": "isOwner",
      "outputs": [
        {
          "internalType": "bool",
          "name": "",
          "type": "bool"
        }
      ],
      "payable": false,
      "stateMutability": "view",
      "type": "function"
    },
    {
      "constant": false,
      "inputs": [
        {
          "internalType": "uint256",
          "name": "interval",
          "type": "uint256"
        }
      ],
      "name": "keepsInInterval",
      "outputs": [
        {
          "internalType": "uint256",
          "name": "",
          "type": "uint256"
        }
      ],
      "payable": false,
      "stateMutability": "nonpayable",
      "type": "function"
    },
    {
      "constant": false,
      "inputs": [],
      "name": "markAsFunded",
      "outputs": [],
      "payable": false,
      "stateMutability": "nonpayable",
      "type": "function"
    },
    {
      "constant": true,
      "inputs": [],
      "name": "minimumKeepsPerInterval",
      "outputs": [
        {
          "internalType": "uint256",
          "name": "",
          "type": "uint256"
        }
      ],
      "payable": false,
      "stateMutability": "view",
      "type": "function"
    },
    {
      "constant": true,
      "inputs": [],
      "name": "newRewardsContract",
      "outputs": [
        {
          "internalType": "address",
          "name": "",
          "type": "address"
        }
      ],
      "payable": false,
      "stateMutability": "view",
      "type": "function"
    },
    {
      "constant": true,
      "inputs": [],
      "name": "owner",
      "outputs": [
        {
          "internalType": "address",
          "name": "",
          "type": "address"
        }
      ],
      "payable": false,
      "stateMutability": "view",
      "type": "function"
    },
    {
      "constant": false,
      "inputs": [
        {
          "internalType": "address",
          "name": "_from",
          "type": "address"
        },
        {
          "internalType": "uint256",
          "name": "_value",
          "type": "uint256"
        },
        {
          "internalType": "address",
          "name": "_token",
          "type": "address"
        },
        {
          "internalType": "bytes",
          "name": "",
          "type": "bytes"
        }
      ],
      "name": "receiveApproval",
      "outputs": [],
      "payable": false,
      "stateMutability": "nonpayable",
      "type": "function"
    },
    {
      "constant": false,
      "inputs": [
        {
          "internalType": "bytes32[]",
          "name": "keepIdentifiers",
          "type": "bytes32[]"
        }
      ],
      "name": "receiveRewards",
      "outputs": [],
      "payable": false,
      "stateMutability": "nonpayable",
      "type": "function"
    },
    {
      "constant": false,
      "inputs": [],
      "name": "renounceOwnership",
      "outputs": [],
      "payable": false,
      "stateMutability": "nonpayable",
      "type": "function"
    },
    {
      "constant": false,
      "inputs": [
        {
          "internalType": "bytes32",
          "name": "keepIdentifier",
          "type": "bytes32"
        }
      ],
      "name": "reportTermination",
      "outputs": [],
      "payable": false,
      "stateMutability": "nonpayable",
      "type": "function"
    },
    {
      "constant": false,
      "inputs": [
        {
          "internalType": "bytes32[]",
          "name": "keepIdentifiers",
          "type": "bytes32[]"
        }
      ],
      "name": "reportTerminations",
      "outputs": [],
      "payable": false,
      "stateMutability": "nonpayable",
      "type": "function"
    },
    {
      "constant": true,
      "inputs": [
        {
          "internalType": "bytes32",
          "name": "_keep",
          "type": "bytes32"
        }
      ],
      "name": "rewardClaimed",
      "outputs": [
        {
          "internalType": "bool",
          "name": "",
          "type": "bool"
        }
      ],
      "payable": false,
      "stateMutability": "view",
      "type": "function"
    },
    {
      "constant": true,
      "inputs": [
        {
          "internalType": "uint256",
          "name": "interval",
          "type": "uint256"
        }
      ],
      "name": "startOf",
      "outputs": [
        {
          "internalType": "uint256",
          "name": "",
          "type": "uint256"
        }
      ],
      "payable": false,
      "stateMutability": "view",
      "type": "function"
    },
    {
      "constant": true,
      "inputs": [],
      "name": "termLength",
      "outputs": [
        {
          "internalType": "uint256",
          "name": "",
          "type": "uint256"
        }
      ],
      "payable": false,
      "stateMutability": "view",
      "type": "function"
    },
    {
      "constant": true,
      "inputs": [],
      "name": "token",
      "outputs": [
        {
          "internalType": "contract KeepToken",
          "name": "",
          "type": "address"
        }
      ],
      "payable": false,
      "stateMutability": "view",
      "type": "function"
    },
    {
      "constant": true,
      "inputs": [],
      "name": "totalRewards",
      "outputs": [
        {
          "internalType": "uint256",
          "name": "",
          "type": "uint256"
        }
      ],
      "payable": false,
      "stateMutability": "view",
      "type": "function"
    },
    {
      "constant": false,
      "inputs": [
        {
          "internalType": "address",
          "name": "newOwner",
          "type": "address"
        }
      ],
      "name": "transferOwnership",
      "outputs": [],
      "payable": false,
      "stateMutability": "nonpayable",
      "type": "function"
    },
    {
      "constant": true,
      "inputs": [],
      "name": "unallocatedRewards",
      "outputs": [
        {
          "internalType": "uint256",
          "name": "",
          "type": "uint256"
        }
      ],
      "payable": false,
      "stateMutability": "view",
      "type": "function"
    },
    {
      "constant": true,
      "inputs": [],
      "name": "upgradeFinalizedTimestamp",
      "outputs": [
        {
          "internalType": "uint256",
          "name": "",
          "type": "uint256"
        }
      ],
      "payable": false,
      "stateMutability": "view",
      "type": "function"
    },
    {
      "constant": true,
      "inputs": [],
      "name": "upgradeInitiatedTimestamp",
      "outputs": [
        {
          "internalType": "uint256",
          "name": "",
          "type": "uint256"
        }
      ],
      "payable": false,
      "stateMutability": "view",
      "type": "function"
    },
    {
      "constant": false,
      "inputs": [
        {
          "internalType": "bytes32",
          "name": "keepIdentifier",
          "type": "bytes32"
        }
      ],
      "name": "receiveReward",
      "outputs": [],
      "payable": false,
      "stateMutability": "nonpayable",
      "type": "function"
    },
    {
      "constant": false,
      "inputs": [
        {
          "internalType": "uint256",
          "name": "groupIndex",
          "type": "uint256"
        }
      ],
      "name": "receiveReward",
      "outputs": [],
      "payable": false,
      "stateMutability": "nonpayable",
      "type": "function"
    }
  ],
  "bytecode": "0x60806040526000600d60006101000a81548160ff0219169083151502179055506040518060200160405280606460ff16815250601190600162000044929190620002ce565b503480156200005257600080fd5b5060405162003b8338038062003b83833981810160405260608110156200007857600080fd5b8101908080519060200190929190805190602001909291908051906020019092919050505082635eb895806011805480602002602001604051908101604052809291908181526020018280548015620000f157602002820191906000526020600020905b815481526020019060010190808311620000dc575b505050505062b34c0060036200010c620002c660201b60201c565b6000806101000a81548173ffffffffffffffffffffffffffffffffffffffff021916908373ffffffffffffffffffffffffffffffffffffffff1602179055506000809054906101000a900473ffffffffffffffffffffffffffffffffffffffff1673ffffffffffffffffffffffffffffffffffffffff16600073ffffffffffffffffffffffffffffffffffffffff167f8be0079c531659141344cd1fd0a4f28419497f9722a3daafe3b4186f6b6457e060405160405180910390a384600160006101000a81548173ffffffffffffffffffffffffffffffffffffffff021916908373ffffffffffffffffffffffffffffffffffffffff1602179055508360088190555082600290805190602001906200022792919062000325565b508160038190555080600481905550505050505081601260006101000a81548173ffffffffffffffffffffffffffffffffffffffff021916908373ffffffffffffffffffffffffffffffffffffffff16021790555080601360006101000a81548173ffffffffffffffffffffffffffffffffffffffff021916908373ffffffffffffffffffffffffffffffffffffffff1602179055505050506200039f565b600033905090565b82805482825590600052602060002090810192821562000312579160200282015b8281111562000311578251829060ff16905591602001919060010190620002ef565b5b50905062000321919062000377565b5090565b82805482825590600052602060002090810192821562000364579160200282015b828111156200036357825182559160200191906001019062000346565b5b50905062000373919062000377565b5090565b6200039c91905b80821115620003985760008160009055506001016200037e565b5090565b90565b6137d480620003af6000396000f3fe608060405234801561001057600080fd5b506004361061023d5760003560e01c806392672b351161013b578063c70cee6a116100b8578063e27000e71161007c578063e27000e714610ab3578063e8ba650914610abd578063f2fde38b14610b03578063f3a504f214610b47578063fc0c546a14610b695761023d565b8063c70cee6a146109cf578063ce21d8cf146109ed578063ce2830ad14610a31578063ce2b3e3c14610a77578063e1fcd5e814610a955761023d565b8063ae10d5ea116100ff578063ae10d5ea14610899578063aeae364d146108c7578063b369af7114610909578063b41e7f471461094b578063b965933e1461098d5761023d565b806392672b351461071d578063951315261461075f57806395aeca481461077d57806397a1e4341461079b578063ab7239c0146107e15761023d565b806345016312116101c957806381b83c331161018d57806381b83c331461053457806386d954c01461057e5780638da5cb5b146105ac5780638f32d59b146105f65780638f4ffcb1146106185761023d565b806345016312146103e457806368ec9c421461049c5780636a823878146104ca578063715018a61461050c57806379b18cd1146105165761023d565b8063183affa111610210578063183affa1146102f657806328fc33c7146103145780632b6fdc7e1461034257806335c9ef711461036057806336544951146103a25761023d565b80630a1bb1b1146102425780630da8882f146102885780630e15561a1461029257806312f57063146102b0575b600080fd5b61026e6004803603602081101561025857600080fd5b8101908080359060200190929190505050610bb3565b604051808215151515815260200191505060405180910390f35b610290610bc9565b005b61029a610c60565b6040518082815260200191505060405180910390f35b6102dc600480360360208110156102c657600080fd5b8101908080359060200190929190505050610c66565b604051808215151515815260200191505060405180910390f35b6102fe610c9b565b6040518082815260200191505060405180910390f35b6103406004803603602081101561032a57600080fd5b8101908080359060200190929190505050610ca8565b005b61034a610ea5565b6040518082815260200191505060405180910390f35b61038c6004803603602081101561037657600080fd5b8101908080359060200190929190505050610eab565b6040518082815260200191505060405180910390f35b6103ce600480360360208110156103b857600080fd5b8101908080359060200190929190505050610f46565b6040518082815260200191505060405180910390f35b61049a600480360360208110156103fa57600080fd5b810190808035906020019064010000000081111561041757600080fd5b82018360208201111561042957600080fd5b8035906020019184602083028401116401000000008311171561044b57600080fd5b919080806020026020016040519081016040528093929190818152602001838360200280828437600081840152601f19601f820116905080830192505050505050509192919290505050610f9c565b005b6104c8600480360360208110156104b257600080fd5b8101908080359060200190929190505050610fd8565b005b6104f6600480360360208110156104e057600080fd5b810190808035906020019092919050505061115e565b6040518082815260200191505060405180910390f35b610514611176565b005b61051e6112af565b6040518082815260200191505060405180910390f35b61053c6112b5565b604051808273ffffffffffffffffffffffffffffffffffffffff1673ffffffffffffffffffffffffffffffffffffffff16815260200191505060405180910390f35b6105aa6004803603602081101561059457600080fd5b81019080803590602001909291905050506112db565b005b6105b4611461565b604051808273ffffffffffffffffffffffffffffffffffffffff1673ffffffffffffffffffffffffffffffffffffffff16815260200191505060405180910390f35b6105fe61148a565b604051808215151515815260200191505060405180910390f35b61071b6004803603608081101561062e57600080fd5b81019080803573ffffffffffffffffffffffffffffffffffffffff16906020019092919080359060200190929190803573ffffffffffffffffffffffffffffffffffffffff1690602001909291908035906020019064010000000081111561069557600080fd5b8201836020820111156106a757600080fd5b803590602001918460018302840111640100000000831117156106c957600080fd5b91908080601f016020809104026020016040519081016040528093929190818152602001838380828437600081840152601f19601f8201169050808301925050505050505091929192905050506114e8565b005b6107496004803603602081101561073357600080fd5b81019080803590602001909291905050506117ad565b6040518082815260200191505060405180910390f35b6107676117ce565b6040518082815260200191505060405180910390f35b6107856117d4565b6040518082815260200191505060405180910390f35b6107c7600480360360208110156107b157600080fd5b81019080803590602001909291905050506117da565b604051808215151515815260200191505060405180910390f35b610897600480360360208110156107f757600080fd5b810190808035906020019064010000000081111561081457600080fd5b82018360208201111561082657600080fd5b8035906020019184602083028401116401000000008311171561084857600080fd5b919080806020026020016040519081016040528093929190818152602001838360200280828437600081840152601f19601f8201169050808301925050505050505091929192905050506117fd565b005b6108c5600480360360208110156108af57600080fd5b8101908080359060200190929190505050611839565b005b6108f3600480360360208110156108dd57600080fd5b8101908080359060200190929190505050611848565b6040518082815260200191505060405180910390f35b6109356004803603602081101561091f57600080fd5b8101908080359060200190929190505050611874565b6040518082815260200191505060405180910390f35b6109776004803603602081101561096157600080fd5b81019080803590602001909291905050506118d1565b6040518082815260200191505060405180910390f35b6109b9600480360360208110156109a357600080fd5b8101908080359060200190929190505050611903565b6040518082815260200191505060405180910390f35b6109d7611928565b6040518082815260200191505060405180910390f35b610a2f60048036036020811015610a0357600080fd5b81019080803573ffffffffffffffffffffffffffffffffffffffff16906020019092919050505061192e565b005b610a5d60048036036020811015610a4757600080fd5b8101908080359060200190929190505050611a78565b604051808215151515815260200191505060405180910390f35b610a7f611aa2565b6040518082815260200191505060405180910390f35b610a9d611aa8565b6040518082815260200191505060405180910390f35b610abb611aae565b005b610ae960048036036020811015610ad357600080fd5b8101908080359060200190929190505050611ec1565b604051808215151515815260200191505060405180910390f35b610b4560048036036020811015610b1957600080fd5b81019080803573ffffffffffffffffffffffffffffffffffffffff169060200190929190505050611ed6565b005b610b4f611f5c565b604051808215151515815260200191505060405180910390f35b610b71611f6f565b604051808273ffffffffffffffffffffffffffffffffffffffff1673ffffffffffffffffffffffffffffffffffffffff16815260200191505060405180910390f35b6000806009805490509050808310915050919050565b610bd161148a565b610c43576040517f08c379a00000000000000000000000000000000000000000000000000000000081526004018080602001828103825260208152602001807f4f776e61626c653a2063616c6c6572206973206e6f7420746865206f776e657281525060200191505060405180910390fd5b6001600d60006101000a81548160ff021916908315150217905550565b60055481565b6000610c7182611f95565b8015610c825750610c8182611fa5565b5b8015610c945750610c9282611a78565b155b9050919050565b6000600280549050905090565b80610cb281611ec1565b610d24576040517f08c379a00000000000000000000000000000000000000000000000000000000081526004018080602001828103825260198152602001807f496e74657276616c206861736e277420656e646564207965740000000000000081525060200191505060405180910390fd5b600d60009054906101000a900460ff16610da6576040517f08c379a00000000000000000000000000000000000000000000000000000000081526004018080602001828103825260208152602001807f436f6e747261637420686173206e6f74206265656e2066756e6465642079657481525060200191505060405180910390fd5b6000600980549050905080831015610e26576040517f08c379a000000000000000000000000000000000000000000000000000000000815260040180806020018281038252601a8152602001807f496e74657276616c20616c726561647920616c6c6f636174656400000000000081525060200191505060405180910390fd5b80831115610e4b57610e4a610e45600185611fb090919063ffffffff16565b610ca8565b5b6000610e5684611ffa565b9050610e6d81600654611fb090919063ffffffff16565b600681905550600981908060018154018082558091505090600182039060005260206000200160009091929091909150555050505050565b60065481565b60006009805490508210610f27576040517f08c379a000000000000000000000000000000000000000000000000000000000815260040180806020018281038252601a8152602001807f496e74657276616c206e6f7420616c6c6f63617465642079657400000000000081525060200191505060405180910390fd5b60098281548110610f3457fe5b90600052602060002001549050919050565b6000600280549050821015610f745760028281548110610f6257fe5b90600052602060002001549050610f97565b600260016002805490500381548110610f8957fe5b906000526020600020015490505b919050565b60008090505b8151811015610fd457610fc7828281518110610fba57fe5b6020026020010151610fd8565b8080600101915050610fa2565b5050565b80610fe281611f95565b611054576040517f08c379a000000000000000000000000000000000000000000000000000000000815260040180806020018281038252601e8152602001807f4b656570206e6f74207265636f676e697a656420627920666163746f7279000081525060200191505060405180910390fd5b8161105e81611a78565b156110d1576040517f08c379a00000000000000000000000000000000000000000000000000000000081526004018080602001828103825260178152602001807f5265776172647320616c726561647920636c61696d656400000000000000000081525060200191505060405180910390fd5b826110db81611fa5565b61114d576040517f08c379a00000000000000000000000000000000000000000000000000000000081526004018080602001828103825260128152602001807f4b656570206973206e6f7420636c6f736564000000000000000000000000000081525060200191505060405180910390fd5b61115860018561207d565b50505050565b600c6020528060005260406000206000915090505481565b61117e61148a565b6111f0576040517f08c379a00000000000000000000000000000000000000000000000000000000081526004018080602001828103825260208152602001807f4f776e61626c653a2063616c6c6572206973206e6f7420746865206f776e657281525060200191505060405180910390fd5b600073ffffffffffffffffffffffffffffffffffffffff166000809054906101000a900473ffffffffffffffffffffffffffffffffffffffff1673ffffffffffffffffffffffffffffffffffffffff167f8be0079c531659141344cd1fd0a4f28419497f9722a3daafe3b4186f6b6457e060405160405180910390a360008060006101000a81548173ffffffffffffffffffffffffffffffffffffffff021916908373ffffffffffffffffffffffffffffffffffffffff160217905550565b60035481565b601060009054906101000a900473ffffffffffffffffffffffffffffffffffffffff1681565b806112e581611f95565b611357576040517f08c379a000000000000000000000000000000000000000000000000000000000815260040180806020018281038252601e8152602001807f4b656570206e6f74207265636f676e697a656420627920666163746f7279000081525060200191505060405180910390fd5b8161136181611a78565b156113d4576040517f08c379a00000000000000000000000000000000000000000000000000000000081526004018080602001828103825260178152602001807f5265776172647320616c726561647920636c61696d656400000000000000000081525060200191505060405180910390fd5b826113de816121da565b611450576040517f08c379a00000000000000000000000000000000000000000000000000000000081526004018080602001828103825260168152602001807f4b656570206973206e6f74207465726d696e617465640000000000000000000081525060200191505060405180910390fd5b61145b60008561207d565b50505050565b60008060009054906101000a900473ffffffffffffffffffffffffffffffffffffffff16905090565b60008060009054906101000a900473ffffffffffffffffffffffffffffffffffffffff1673ffffffffffffffffffffffffffffffffffffffff166114cc6121e4565b73ffffffffffffffffffffffffffffffffffffffff1614905090565b600160009054906101000a900473ffffffffffffffffffffffffffffffffffffffff1673ffffffffffffffffffffffffffffffffffffffff168273ffffffffffffffffffffffffffffffffffffffff16146115ab576040517f08c379a00000000000000000000000000000000000000000000000000000000081526004018080602001828103825260118152602001807f556e737570706f7274656420746f6b656e00000000000000000000000000000081525060200191505060405180910390fd5b6115fa843085600160009054906101000a900473ffffffffffffffffffffffffffffffffffffffff1673ffffffffffffffffffffffffffffffffffffffff166121ec909392919063ffffffff16565b6000600160009054906101000a900473ffffffffffffffffffffffffffffffffffffffff1673ffffffffffffffffffffffffffffffffffffffff166370a08231306040518263ffffffff1660e01b8152600401808273ffffffffffffffffffffffffffffffffffffffff1673ffffffffffffffffffffffffffffffffffffffff16815260200191505060206040518083038186803b15801561169b57600080fd5b505afa1580156116af573d6000803e3d6000fd5b505050506040513d60208110156116c557600080fd5b8101908080519060200190929190505050905060006116f1600754600554611fb090919063ffffffff16565b905080821015611769576040517f08c379a000000000000000000000000000000000000000000000000000000000815260040180806020018281038252601f8152602001807f52657761726420636f6e747261637420686173206c6f737420746f6b656e730081525060200191505060405180910390fd5b600061177e8284611fb090919063ffffffff16565b9050611795816005546122f290919063ffffffff16565b6005819055506117a48161237a565b50505050505050565b600281815481106117ba57fe5b906000526020600020016000915090505481565b600e5481565b60085481565b60006117e582611f95565b80156117f657506117f5826121da565b5b9050919050565b60008090505b81518110156118355761182882828151811061181b57fe5b60200260200101516112db565b8080600101915050611803565b5050565b6118458160001b610fd8565b50565b600061186d61185683612550565b61185f84612587565b611fb090919063ffffffff16565b9050919050565b60008060085490506000600354905081841015611896576000925050506118cc565b60006118ab8386611fb090919063ffffffff16565b905060006118c2838361267390919063ffffffff16565b9050809450505050505b919050565b60006118fc6118eb600354846126bd90919063ffffffff16565b6008546122f290919063ffffffff16565b9050919050565b600061192161191c6001846122f290919063ffffffff16565b6118d1565b9050919050565b60045481565b61193661148a565b6119a8576040517f08c379a00000000000000000000000000000000000000000000000000000000081526004018080602001828103825260208152602001807f4f776e61626c653a2063616c6c6572206973206e6f7420746865206f776e657281525060200191505060405180910390fd5b42600e8190555080601060006101000a81548173ffffffffffffffffffffffffffffffffffffffff021916908373ffffffffffffffffffffffffffffffffffffffff1602179055507f4508cb0974b8dda93dec7c130aa186db2705fcee58bc00d1334726761835aca1601060009054906101000a900473ffffffffffffffffffffffffffffffffffffffff16604051808273ffffffffffffffffffffffffffffffffffffffff1673ffffffffffffffffffffffffffffffffffffffff16815260200191505060405180910390a150565b6000600a600083815260200190815260200160002060009054906101000a900460ff169050919050565b600f5481565b60075481565b611ab661148a565b611b28576040517f08c379a00000000000000000000000000000000000000000000000000000000081526004018080602001828103825260208152602001807f4f776e61626c653a2063616c6c6572206973206e6f7420746865206f776e657281525060200191505060405180910390fd5b6000600e541415611ba1576040517f08c379a00000000000000000000000000000000000000000000000000000000081526004018080602001828103825260158152602001807f55706772616465206e6f7420696e69746961746564000000000000000000000081525060200191505060405180910390fd5b6000611bac42611874565b90506000611bbb600e54611874565b9050808211611c15576040517f08c379a000000000000000000000000000000000000000000000000000000000815260040180806020018281038252603c815260200180613764603c913960400191505060405180910390fd5b611c31611c2c600184611fb090919063ffffffff16565b610bb3565b611c5257611c51611c4c600184611fb090919063ffffffff16565b610ca8565b5b60006006549050611c6e81600554611fb090919063ffffffff16565b60058190555060006006819055507f89f5b857dbf5a32a4fa55162349dc1146850c9b76ff05bedf3a47b3f14095c0a816040518082815260200191505060405180910390a16000600160009054906101000a900473ffffffffffffffffffffffffffffffffffffffff1673ffffffffffffffffffffffffffffffffffffffff1663cae9ca51601060009054906101000a900473ffffffffffffffffffffffffffffffffffffffff1684604051806020016040528060008152506040518463ffffffff1660e01b8152600401808473ffffffffffffffffffffffffffffffffffffffff1673ffffffffffffffffffffffffffffffffffffffff16815260200183815260200180602001828103825283818151815260200191508051906020019080838360005b83811015611dae578082015181840152602081019050611d93565b50505050905090810190601f168015611ddb5780820380516001836020036101000a031916815260200191505b50945050505050602060405180830381600087803b158015611dfc57600080fd5b505af1158015611e10573d6000803e3d6000fd5b505050506040513d6020811015611e2657600080fd5b8101908080519060200190929190505050905080611eac576040517f08c379a000000000000000000000000000000000000000000000000000000000815260040180806020018281038252601b8152602001807f557067726164652066696e616c697a6174696f6e206661696c6564000000000081525060200191505060405180910390fd5b6000600e8190555042600f8190555050505050565b6000611ecc82611903565b4210159050919050565b611ede61148a565b611f50576040517f08c379a00000000000000000000000000000000000000000000000000000000081526004018080602001828103825260208152602001807f4f776e61626c653a2063616c6c6572206973206e6f7420746865206f776e657281525060200191505060405180910390fd5b611f5981612743565b50565b600d60009054906101000a900460ff1681565b600160009054906101000a900473ffffffffffffffffffffffffffffffffffffffff1681565b60008160001c6003119050919050565b600060019050919050565b6000611ff283836040518060400160405280601e81526020017f536166654d6174683a207375627472616374696f6e206f766572666c6f770000815250612887565b905092915050565b60008061200683612947565b9050600081141561201b576000915050612078565b600061202684611848565b905060006120368260045461298b565b9050600081141561204d5760009350505050612078565b6120728161206484866126bd90919063ffffffff16565b61267390919063ffffffff16565b93505050505b919050565b6000612088826129a5565b9050600061209582611874565b90506120a081610bb3565b6120ae576120ad81610ca8565b5b6000600982815481106120bd57fe5b9060005260206000200154905060006120d583611848565b905060006120ec828461267390919063ffffffff16565b90506001600a600088815260200190815260200160002060006101000a81548160ff0219169083151502179055506121416001600c6000878152602001908152602001600020546122f290919063ffffffff16565b600c60008681526020019081526020016000208190555086156121c757612173816007546122f290919063ffffffff16565b60078190555061218386826129b8565b7ff8fcbb083cc485f0dc726d4235dbec7c9c5c03af58254f3536275035772161708682604051808381526020018281526020019250505060405180910390a16121d1565b6121d08161237a565b5b50505050505050565b6000809050919050565b600033905090565b6122ec848573ffffffffffffffffffffffffffffffffffffffff166323b872dd905060e01b858585604051602401808473ffffffffffffffffffffffffffffffffffffffff1673ffffffffffffffffffffffffffffffffffffffff1681526020018373ffffffffffffffffffffffffffffffffffffffff1673ffffffffffffffffffffffffffffffffffffffff1681526020018281526020019350505050604051602081830303815290604052907bffffffffffffffffffffffffffffffffffffffffffffffffffffffff19166020820180517bffffffffffffffffffffffffffffffffffffffffffffffffffffffff8381831617835250505050612fc9565b50505050565b600080828401905083811015612370576040517f08c379a000000000000000000000000000000000000000000000000000000000815260040180806020018281038252601b8152602001807f536166654d6174683a206164646974696f6e206f766572666c6f77000000000081525060200191505060405180910390fd5b8091505092915050565b6000600f5414612531576000600160009054906101000a900473ffffffffffffffffffffffffffffffffffffffff1673ffffffffffffffffffffffffffffffffffffffff1663cae9ca51601060009054906101000a900473ffffffffffffffffffffffffffffffffffffffff1684604051806020016040528060008152506040518463ffffffff1660e01b8152600401808473ffffffffffffffffffffffffffffffffffffffff1673ffffffffffffffffffffffffffffffffffffffff16815260200183815260200180602001828103825283818151815260200191508051906020019080838360005b8381101561247f578082015181840152602081019050612464565b50505050905090810190601f1680156124ac5780820380516001836020036101000a031916815260200191505b50945050505050602060405180830381600087803b1580156124cd57600080fd5b505af11580156124e1573d6000803e3d6000fd5b505050506040513d60208110156124f757600080fd5b810190808051906020019092919050505090508061252b57612524826006546122f290919063ffffffff16565b6006819055505b5061254d565b612546816006546122f290919063ffffffff16565b6006819055505b50565b6000808214156125635760009050612582565b61257f61257a600184611fb090919063ffffffff16565b612587565b90505b919050565b60008161259381611ec1565b612605576040517f08c379a00000000000000000000000000000000000000000000000000000000081526004018080602001828103825260198152602001807f496e74657276616c206861736e277420656e646564207965740000000000000081525060200191505060405180910390fd5b6000600b6000858152602001908152602001600020549050600081141561266557600061263961263486611903565b613214565b90506000811461265c5780600b6000878152602001908152602001600020819055505b80935050612669565b8092505b8292505050919050565b60006126b583836040518060400160405280601a81526020017f536166654d6174683a206469766973696f6e206279207a65726f000000000000815250613334565b905092915050565b6000808314156126d0576000905061273d565b60008284029050828482816126e157fe5b0414612738576040517f08c379a00000000000000000000000000000000000000000000000000000000081526004018080602001828103825260218152602001806137196021913960400191505060405180910390fd5b809150505b92915050565b600073ffffffffffffffffffffffffffffffffffffffff168173ffffffffffffffffffffffffffffffffffffffff1614156127c9576040517f08c379a00000000000000000000000000000000000000000000000000000000081526004018080602001828103825260268152602001806136f36026913960400191505060405180910390fd5b8073ffffffffffffffffffffffffffffffffffffffff166000809054906101000a900473ffffffffffffffffffffffffffffffffffffffff1673ffffffffffffffffffffffffffffffffffffffff167f8be0079c531659141344cd1fd0a4f28419497f9722a3daafe3b4186f6b6457e060405160405180910390a3806000806101000a81548173ffffffffffffffffffffffffffffffffffffffff021916908373ffffffffffffffffffffffffffffffffffffffff16021790555050565b6000838311158290612934576040517f08c379a00000000000000000000000000000000000000000000000000000000081526004018080602001828103825283818151815260200191508051906020019080838360005b838110156128f95780820151818401526020810190506128de565b50505050905090810190601f1680156129265780820380516001836020036101000a031916815260200191505b509250505060405180910390fd5b5060008385039050809150509392505050565b6000806006549050600061295a84610f46565b9050612982606461297483856126bd90919063ffffffff16565b61267390919063ffffffff16565b92505050919050565b60008183101561299b578161299d565b825b905092915050565b60006129b160006118d1565b9050919050565b6060601260009054906101000a900473ffffffffffffffffffffffffffffffffffffffff1673ffffffffffffffffffffffffffffffffffffffff1663ef7c8f9c8460001c6040518263ffffffff1660e01b81526004018082815260200191505060006040518083038186803b158015612a3057600080fd5b505afa158015612a44573d6000803e3d6000fd5b505050506040513d6000823e3d601f19601f820116820180604052506020811015612a6e57600080fd5b8101908080516040519392919084640100000000821115612a8e57600080fd5b83820191506020820185811115612aa457600080fd5b8251866001820283011164010000000082111715612ac157600080fd5b8083526020830192505050908051906020019080838360005b83811015612af5578082015181840152602081019050612ada565b50505050905090810190601f168015612b225780820380516001836020036101000a031916815260200191505b5060405250505090506060601260009054906101000a900473ffffffffffffffffffffffffffffffffffffffff1673ffffffffffffffffffffffffffffffffffffffff1663d12f5e69836040518263ffffffff1660e01b81526004018080602001828103825283818151815260200191508051906020019080838360005b83811015612bbb578082015181840152602081019050612ba0565b50505050905090810190601f168015612be85780820380516001836020036101000a031916815260200191505b509250505060006040518083038186803b158015612c0557600080fd5b505afa158015612c19573d6000803e3d6000fd5b505050506040513d6000823e3d601f19601f820116820180604052506020811015612c4357600080fd5b8101908080516040519392919084640100000000821115612c6357600080fd5b83820191506020820185811115612c7957600080fd5b8251866020820283011164010000000082111715612c9657600080fd5b8083526020830192505050908051906020019060200280838360005b83811015612ccd578082015181840152602081019050612cb2565b5050505090500160405250505090506000815190506000612cf7828661267390919063ffffffff16565b90506000811115612e5b5760008090505b60018303811015612e5957612e4c601360009054906101000a900473ffffffffffffffffffffffffffffffffffffffff1673ffffffffffffffffffffffffffffffffffffffff1663ba7bffd3868481518110612d6057fe5b60200260200101516040518263ffffffff1660e01b8152600401808273ffffffffffffffffffffffffffffffffffffffff1673ffffffffffffffffffffffffffffffffffffffff16815260200191505060206040518083038186803b158015612dc857600080fd5b505afa158015612ddc573d6000803e3d6000fd5b505050506040513d6020811015612df257600080fd5b810190808051906020019092919050505083600160009054906101000a900473ffffffffffffffffffffffffffffffffffffffff1673ffffffffffffffffffffffffffffffffffffffff166133fa9092919063ffffffff16565b8080600101915050612d08565b505b6000612e7083876134cb90919063ffffffff16565b9050612fc0601360009054906101000a900473ffffffffffffffffffffffffffffffffffffffff1673ffffffffffffffffffffffffffffffffffffffff1663ba7bffd3866001870381518110612ec257fe5b60200260200101516040518263ffffffff1660e01b8152600401808273ffffffffffffffffffffffffffffffffffffffff1673ffffffffffffffffffffffffffffffffffffffff16815260200191505060206040518083038186803b158015612f2a57600080fd5b505afa158015612f3e573d6000803e3d6000fd5b505050506040513d6020811015612f5457600080fd5b8101908080519060200190929190505050612f7883856122f290919063ffffffff16565b600160009054906101000a900473ffffffffffffffffffffffffffffffffffffffff1673ffffffffffffffffffffffffffffffffffffffff166133fa9092919063ffffffff16565b50505050505050565b612fe88273ffffffffffffffffffffffffffffffffffffffff16613515565b61305a576040517f08c379a000000000000000000000000000000000000000000000000000000000815260040180806020018281038252601f8152602001807f5361666545524332303a2063616c6c20746f206e6f6e2d636f6e74726163740081525060200191505060405180910390fd5b600060608373ffffffffffffffffffffffffffffffffffffffff16836040518082805190602001908083835b602083106130a95780518252602082019150602081019050602083039250613086565b6001836020036101000a0380198251168184511680821785525050505050509050019150506000604051808303816000865af19150503d806000811461310b576040519150601f19603f3d011682016040523d82523d6000602084013e613110565b606091505b509150915081613188576040517f08c379a00000000000000000000000000000000000000000000000000000000081526004018080602001828103825260208152602001807f5361666545524332303a206c6f772d6c6576656c2063616c6c206661696c656481525060200191505060405180910390fd5b60008151111561320e578080602001905160208110156131a757600080fd5b810190808051906020019092919050505061320d576040517f08c379a000000000000000000000000000000000000000000000000000000000815260040180806020018281038252602a81526020018061373a602a913960400191505060405180910390fd5b5b50505050565b60004282111561328c576040517f08c379a00000000000000000000000000000000000000000000000000000000081526004018080602001828103825260198152602001807f696e74657276616c206861736e277420656e646564207965740000000000000081525060200191505060405180910390fd5b6000613296613560565b905060008114156132ab57600091505061332f565b600080905060006132c36132be83613569565b6129a5565b90508481106132d8576000935050505061332f565b60006132ee600185611fb090919063ffffffff16565b905060006133036132fe83613569565b6129a5565b90508681101561331a57849550505050505061332f565b613327848484848b613576565b955050505050505b919050565b600080831182906133e0576040517f08c379a00000000000000000000000000000000000000000000000000000000081526004018080602001828103825283818151815260200191508051906020019080838360005b838110156133a557808201518184015260208101905061338a565b50505050905090810190601f1680156133d25780820380516001836020036101000a031916815260200191505b509250505060405180910390fd5b5060008385816133ec57fe5b049050809150509392505050565b6134c6838473ffffffffffffffffffffffffffffffffffffffff1663a9059cbb905060e01b8484604051602401808373ffffffffffffffffffffffffffffffffffffffff1673ffffffffffffffffffffffffffffffffffffffff16815260200182815260200192505050604051602081830303815290604052907bffffffffffffffffffffffffffffffffffffffffffffffffffffffff19166020820180517bffffffffffffffffffffffffffffffffffffffffffffffffffffffff8381831617835250505050612fc9565b505050565b600061350d83836040518060400160405280601881526020017f536166654d6174683a206d6f64756c6f206279207a65726f0000000000000000815250613631565b905092915050565b60008060007fc5d2460186f7233c927e7db2dcc703c0e500b653ca82273b7bfad8045d85a47060001b9050833f91506000801b82141580156135575750808214155b92505050919050565b60006003905090565b60008160001b9050919050565b60008086905060008690506000869050600086905060006135a08584611fb090919063ffffffff16565b90505b60018111156136205760006135d46135c560028461267390919063ffffffff16565b876122f290919063ffffffff16565b905060006135e96135e483613569565b6129a5565b90508881106135fd57819450809350613604565b8196508095505b6136178786611fb090919063ffffffff16565b925050506135a3565b829550505050505095945050505050565b60008083141582906136de576040517f08c379a00000000000000000000000000000000000000000000000000000000081526004018080602001828103825283818151815260200191508051906020019080838360005b838110156136a3578082015181840152602081019050613688565b50505050905090810190601f1680156136d05780820380516001836020036101000a031916815260200191505b509250505060405180910390fd5b508284816136e857fe5b069050939250505056fe4f776e61626c653a206e6577206f776e657220697320746865207a65726f2061646472657373536166654d6174683a206d756c7469706c69636174696f6e206f766572666c6f775361666545524332303a204552433230206f7065726174696f6e20646964206e6f742073756363656564496e74657276616c2061742077686963682074686520757067726164652077617320696e69746961746564206861736e277420656e64656420796574a265627a7a72315820b83ad258ad9e6dfb2d74169a1e6be0e28b6cfef240f9a6cd4991de9f8eba293e64736f6c63430005110032",
  "source": "/**\n     \n   \n                            \n                             \n                           \n                           \n                          \n     \n     \n\n                           Trust math, not hardware.\n*/\n\npragma solidity ^0.5.17;\n\nimport \"./Rewards.sol\";\nimport \"./KeepRandomBeaconOperator.sol\";\nimport \"./TokenStaking.sol\";\n\n/// @title KEEP Random Beacon Signer Subsidy Rewards for the May release.\n/// @notice Contract distributing KEEP rewards to Random Beacon signers from\n/// May KeepRandomBeaconOperator contract:\n/// https://etherscan.io/address/0x70F2202D85a4F0Cad36e978976f84E982920A624\n///\n/// We use a separate contract for those rewards as the previous version of\n/// KeepRandomBeaconOperator did not have all the functions BeaconRewards uses.\n///\n/// Groups from May release of KeepRandomBeaconOperator contract can claim their\n/// rewards at any time.\ncontract BeaconBackportRewards is Rewards {\n    // Beacon genesis date, 2020-05-11, is the interval start.\n    // https://etherscan.io/tx/0x5c0387a2402be57dae95d5f5c3745afb3a770462df13fceccf3967a1eecf6136\n    uint256 internal constant beaconIntervalStart = 1589155200;\n\n    // We are going to have one interval, with a weight of 100%.\n    uint256[] internal beaconIntervalWeight = [100];\n\n    // 136 days between the genesis of the old and the new random beacon\n    // contract versions:\n    // https://etherscan.io/tx/0x5c0387a2402be57dae95d5f5c3745afb3a770462df13fceccf3967a1eecf6136\n    // https://etherscan.io/tx/0xe2e8ab5631473a3d7d8122ce4853c38f5cc7d3dcbfab3607f6b27a7ef3b86da2\n    uint256 internal constant beaconTermLength = 136 days;\n\n    // There were three beacon groups created during those 135 days:\n    // 0x2e490c9c6d822341a23a2c37c203cff8530345ce59c8f3d218cd7f2a21bf5ac51c6f...827,\n    // 0x065d0e58684df0fc3fad2155e07fb1861b521679f267e440028ec1237a8be58e0e2f...49f,\n    // 0x118e601ef5f594cd29053ee47490edbaae895109704af19d57114c4a77fa73041d44...652.\n    //\n    // We hardcode this number because the previous KeepRandomBeaconOperator\n    // contract version had no easy way to get the number of all groups created.\n    uint256 internal constant numberOfCreatedGroups = 3;\n\n    // We allocate all rewards to those groups.\n    uint256 internal constant minimumBeaconGroupsPerInterval =\n        numberOfCreatedGroups;\n\n    KeepRandomBeaconOperator operatorContract;\n    TokenStaking tokenStaking;\n\n    constructor(\n        address _token,\n        address _operatorContract,\n        address _stakingContract\n    )\n        public\n        Rewards(\n            _token,\n            beaconIntervalStart,\n            beaconIntervalWeight,\n            beaconTermLength,\n            minimumBeaconGroupsPerInterval\n        )\n    {\n        operatorContract = KeepRandomBeaconOperator(_operatorContract);\n        tokenStaking = TokenStaking(_stakingContract);\n    }\n\n    /// @notice Sends the reward for a group to the group member beneficiaries.\n    /// @param groupIndex Index of the group to receive a reward.\n    function receiveReward(uint256 groupIndex) public {\n        receiveReward(bytes32(groupIndex));\n    }\n\n    function _getKeepCount() internal view returns (uint256) {\n        return numberOfCreatedGroups;\n    }\n\n    function _getKeepAtIndex(uint256 i) internal view returns (bytes32) {\n        return bytes32(i);\n    }\n\n    function _getCreationTime(bytes32) internal view returns (uint256) {\n        // Assign each group to the starting timestamp of its interval\n        return startOf(0);\n    }\n\n    function _isClosed(bytes32) internal view returns (bool) {\n        // All groups within the eligible range are considered happily closed.\n        return true;\n    }\n\n    function _isTerminated(bytes32 groupIndexBytes)\n        internal\n        view\n        returns (bool)\n    {\n        return false;\n    }\n\n    function _recognizedByFactory(bytes32 groupIndexBytes)\n        internal\n        view\n        returns (bool)\n    {\n        return numberOfCreatedGroups > uint256(groupIndexBytes);\n    }\n\n    function _distributeReward(bytes32 groupIndexBytes, uint256 _value)\n        internal\n    {\n        bytes memory groupPubkey =\n            operatorContract.getGroupPublicKey(uint256(groupIndexBytes));\n        address[] memory members =\n            operatorContract.getGroupMembers(groupPubkey);\n\n        uint256 memberCount = members.length;\n        uint256 dividend = _value.div(memberCount);\n\n        // Only pay other members if dividend is nonzero.\n        if (dividend > 0) {\n            for (uint256 i = 0; i < memberCount - 1; i++) {\n                token.safeTransfer(\n                    tokenStaking.beneficiaryOf(members[i]),\n                    dividend\n                );\n            }\n        }\n\n        // Transfer of dividend for the last member. Remainder might be equal to\n        // zero in case of even distribution or some small number.\n        uint256 remainder = _value.mod(memberCount);\n        token.safeTransfer(\n            tokenStaking.beneficiaryOf(members[memberCount - 1]),\n            dividend.add(remainder)\n        );\n    }\n}\n",
  "sourcePath": "/home/runner/work/keep-core/keep-core/solidity-v1/contracts/BeaconBackportRewards.sol",
  "compiler": {
    "name": "solc",
    "version": "0.5.17+commit.d19bba13.Emscripten.clang"
  },
  "schemaVersion": "3.3.4",
  "updatedAt": "2021-11-26T17:03:20.078Z",
  "devdoc": {
    "methods": {
      "allocateRewards(uint256)": {
        "details": "The given interval must be finished and unallocated. To allocate rewards correctly, any earlier intervals that are still unallocated will be allocated before the given interval. With reasonable interval lengths this should not pose a problem, and if allocating a later interval results in an out-of-gas issue, forcing the allocation of an earlier interval should fix it.",
        "params": {
          "interval": "The interval to allocate."
        }
      },
      "eligibleButTerminated(bytes32)": {
        "params": {
          "_keep": "The keep to check."
        },
        "return": "True if the keep is terminated, false otherwise"
      },
      "eligibleForReward(bytes32)": {
        "details": "Keeps that close dishonorably or early are not eligible for rewards.",
        "params": {
          "_keep": "The keep to check."
        },
        "return": "True if the keep is eligible, false otherwise"
      },
      "endOf(uint256)": {
        "details": "The end of an interval is exclusive; a keep created at the timestamp `endOf(i)` is in interval `i+1`.",
        "params": {
          "interval": "The interval whose end is queried."
        },
        "return": "The end timestamp of the interval."
      },
      "getAllocatedRewards(uint256)": {
        "details": "This function returns correct results for any allocated interval. Dividing the allocated rewards by the number of keeps in the interval will give the correct reward for a keep in the interval. However, if a keep in the interval is terminated its reward will be returned to the pool of unallocated tokens. This will not be reflected in the return value of this function.",
        "params": {
          "interval": "A previously allocated interval."
        },
        "return": "The total number of tokens allocated for keeps in the interval."
      },
      "getIntervalCount()": {
        "return": "The number of explicitly specified intervals."
      },
      "getIntervalWeight(uint256)": {
        "params": {
          "interval": "The interval."
        },
        "return": "The percentage weight of the interval."
      },
      "initiateRewardsUpgrade(address)": {
        "params": {
          "_newRewardsContract": "The address of a new rewards contract."
        }
      },
      "intervalOf(uint256)": {
        "details": "If the timestamp is before `firstIntervalStart`, the interval is 0.",
        "params": {
          "timestamp": "The timestamp whose interval is queried."
        },
        "return": "The interval of the timestamp."
      },
      "isAllocated(uint256)": {
        "params": {
          "interval": "The interval."
        },
        "return": "Whether the interval has been allocated yet."
      },
      "isFinished(uint256)": {
        "params": {
          "interval": "The interval."
        },
        "return": "Whether the interval is finished."
      },
      "isOwner()": {
        "details": "Returns true if the caller is the current owner."
      },
      "keepsInInterval(uint256)": {
        "params": {
          "interval": "The interval."
        },
        "return": "Number of keeps created in the interval."
      },
      "owner()": {
        "details": "Returns the address of the current owner."
      },
      "receiveApproval(address,uint256,address,bytes)": {
        "details": "Adds the received amount of tokens to `totalRewards` and `unallocatedRewards`. May be called at any time, even after allocating some intervals. If the contract has been upgraded, the funding will be transferred to the new contract instead. Changes to `unallocatedRewards` will take effect on subsequent interval allocations. Intended to be used with `approveAndCall`. If the reward contract has received tokens outside `approveAndCall`, this collects them as well. The following invariant should hold right after calling this function: token.balanceOf(address(this)) == totalRewards.sub(dispensedRewards).",
        "params": {
          "_from": "The original sender of the tokens. Must have approved at least `_value` tokens for the rewards contract.",
          "_token": "The token to fund the rewards in. Must match the one specified in the rewards contract.",
          "_value": "The amount of tokens to fund."
        }
      },
      "receiveReward(bytes32)": {
        "params": {
          "keepIdentifier": "A unique identifier for the keep, e.g. address or number converted to a `bytes32`."
        }
      },
      "receiveReward(uint256)": {
        "params": {
          "groupIndex": "Index of the group to receive a reward."
        }
      },
      "receiveRewards(bytes32[])": {
        "params": {
          "keepIdentifiers": "An array of keep identifiers."
        }
      },
      "renounceOwnership()": {
        "details": "Leaves the contract without owner. It will not be possible to call `onlyOwner` functions anymore. Can only be called by the current owner.     * NOTE: Renouncing ownership will leave the contract without an owner, thereby removing any functionality that is only available to the owner."
      },
      "reportTermination(bytes32)": {
        "params": {
          "keepIdentifier": "The terminated keep."
        }
      },
      "reportTerminations(bytes32[])": {
        "params": {
          "keepIdentifiers": "An array of keep identifiers."
        }
      },
      "rewardClaimed(bytes32)": {
        "params": {
          "_keep": "The identifier of the keep."
        },
        "return": "True if rewards have been paid out for the keep, or its termination has been reported. False otherwise."
      },
      "startOf(uint256)": {
        "details": "The start of an interval is inclusive; a keep created at the timestamp `startOf(i)` is in interval `i`.",
        "params": {
          "interval": "The interval whose start is queried."
        },
        "return": "The start timestamp of the interval."
      },
      "transferOwnership(address)": {
        "details": "Transfers ownership of the contract to a new account (`newOwner`). Can only be called by the current owner."
      }
    },
    "title": "KEEP Random Beacon Signer Subsidy Rewards for the May release."
  },
  "userdoc": {
    "methods": {
      "allocateRewards(uint256)": {
        "notice": "Allocate rewards for unallocated intervals up to and including the given interval."
      },
      "eligibleButTerminated(bytes32)": {
        "notice": "Checks if a keep is terminated and thus its rewards can be returned to the unallocated pool."
      },
      "eligibleForReward(bytes32)": {
        "notice": "Checks if a keep is eligible to receive rewards."
      },
      "endOf(uint256)": {
        "notice": "Return the timestamp corresponding to the end of the interval."
      },
      "finalizeRewardsUpgrade()": {
        "notice": "Finalizes the process of upgrading to another rewards contract by allocating all past intervals and then, transferring the not-yet-allocated tokens to a new rewards contract. Can be called only when the interval during which the upgrade was initiated ended. Before finalizing the upgrade, make sure all terminated groups are reported."
      },
      "getAllocatedRewards(uint256)": {
        "notice": "Get the total amount of tokens allocated for all keeps in the specified interval."
      },
      "getIntervalCount()": {
        "notice": "Get the number of intervals with explicitly specified weights. All subsequent intervals will have an implicit weight of 100."
      },
      "getIntervalWeight(uint256)": {
        "notice": "Return the percentage of remaining unallocated rewards that is to be allocated to the specified interval."
      },
      "initiateRewardsUpgrade(address)": {
        "notice": "Initiates the process of upgrading to another rewards contract."
      },
      "intervalOf(uint256)": {
        "notice": "Return the interval number the provided timestamp falls within."
      },
      "isAllocated(uint256)": {
        "notice": "Return whether the specified interval has been allocated."
      },
      "isFinished(uint256)": {
        "notice": "Return whether the given interval is finished."
      },
      "keepsInInterval(uint256)": {
        "notice": "Return the number of keeps created in the specified interval."
      },
      "receiveApproval(address,uint256,address,bytes)": {
        "notice": "Funds the rewards contract."
      },
      "receiveReward(bytes32)": {
        "notice": "Sends the reward for a keep to the keep members."
      },
      "receiveReward(uint256)": {
        "notice": "Sends the reward for a group to the group member beneficiaries."
      },
      "receiveRewards(bytes32[])": {
        "notice": "Stakers can receive KEEP rewards from multiple keeps of their choice in one transaction to reduce total cost comparing to single calls for rewards. It is a caller responsibility to determine the cost and consumed gas when receiving rewards from multiple keeps."
      },
      "reportTermination(bytes32)": {
        "notice": "Report that the keep was terminated, and return its allocated rewards to the unallocated pool."
      },
      "reportTerminations(bytes32[])": {
        "notice": "Report about the terminated keeps in batch. All the allocated rewards in these keeps will be returned to the unallocated pool."
      },
      "rewardClaimed(bytes32)": {
        "notice": "Return whether the given keep has already claimed rewards or had its rewards reallocated due to termination."
      },
      "startOf(uint256)": {
        "notice": "Return the timestamp corresponding to the start of the interval."
      }
    },
    "notice": "Contract distributing KEEP rewards to Random Beacon signers from May KeepRandomBeaconOperator contract: https://etherscan.io/address/0x70F2202D85a4F0Cad36e978976f84E982920A624  /// We use a separate contract for those rewards as the previous version of KeepRandomBeaconOperator did not have all the functions BeaconRewards uses.  /// Groups from May release of KeepRandomBeaconOperator contract can claim their rewards at any time."
  }
}