{
  "contractName": "BLS",
  "abi": [
    {
      "constant": true,
      "inputs": [
        {
          "internalType": "bytes",
          "name": "message",
          "type": "bytes"
        },
        {
          "internalType": "uint256",
          "name": "secretKey",
          "type": "uint256"
        }
      ],
      "name": "sign",
      "outputs": [
        {
          "internalType": "bytes",
          "name": "",
          "type": "bytes"
        }
      ],
      "payable": false,
      "stateMutability": "view",
      "type": "function"
    },
    {
      "constant": true,
      "inputs": [
        {
          "internalType": "bytes",
          "name": "publicKey",
          "type": "bytes"
        },
        {
          "internalType": "bytes",
          "name": "message",
          "type": "bytes"
        },
        {
          "internalType": "bytes",
          "name": "signature",
          "type": "bytes"
        }
      ],
      "name": "verify",
      "outputs": [
        {
          "internalType": "bool",
          "name": "",
          "type": "bool"
        }
      ],
      "payable": false,
      "stateMutability": "view",
      "type": "function"
    },
    {
      "constant": true,
      "inputs": [
        {
          "internalType": "bytes",
          "name": "publicKey",
          "type": "bytes"
        },
        {
          "internalType": "bytes",
          "name": "message",
          "type": "bytes"
        },
        {
          "internalType": "bytes",
          "name": "signature",
          "type": "bytes"
        }
      ],
      "name": "verifyBytes",
      "outputs": [
        {
          "internalType": "bool",
          "name": "",
          "type": "bool"
        }
      ],
      "payable": false,
      "stateMutability": "view",
      "type": "function"
    }
  ],
  "bytecode": "0x610f9d610026600b82828239805160001a60731461001957fe5b30600052607381538281f3fe730000000000000000000000000000000000000000301460806040526004361061004b5760003560e01c8063afef5d3314610050578063de8f50a11461018e578063e71b17c41461038f575b600080fd5b6101136004803603604081101561006657600080fd5b810190808035906020019064010000000081111561008357600080fd5b82018360208201111561009557600080fd5b803590602001918460018302840111640100000000831117156100b757600080fd5b91908080601f016020809104026020016040519081016040528093929190818152602001838380828437600081840152601f19601f82011690508083019250505050505050919291929080359060200190929190505050610590565b6040518080602001828103825283818151815260200191508051906020019080838360005b83811015610153578082015181840152602081019050610138565b50505050905090810190601f1680156101805780820380516001836020036101000a031916815260200191505b509250505060405180910390f35b610375600480360360608110156101a457600080fd5b81019080803590602001906401000000008111156101c157600080fd5b8201836020820111156101d357600080fd5b803590602001918460018302840111640100000000831117156101f557600080fd5b91908080601f016020809104026020016040519081016040528093929190818152602001838380828437600081840152601f19601f8201169050808301925050505050505091929192908035906020019064010000000081111561025857600080fd5b82018360208201111561026a57600080fd5b8035906020019184600183028401116401000000008311171561028c57600080fd5b91908080601f016020809104026020016040519081016040528093929190818152602001838380828437600081840152601f19601f820116905080830192505050505050509192919290803590602001906401000000008111156102ef57600080fd5b82018360208201111561030157600080fd5b8035906020019184600183028401116401000000008311171561032357600080fd5b91908080601f016020809104026020016040519081016040528093929190818152602001838380828437600081840152601f19601f8201169050808301925050505050505091929192905050506105cc565b604051808215151515815260200191505060405180910390f35b610576600480360360608110156103a557600080fd5b81019080803590602001906401000000008111156103c257600080fd5b8201836020820111156103d457600080fd5b803590602001918460018302840111640100000000831117156103f657600080fd5b91908080601f016020809104026020016040519081016040528093929190818152602001838380828437600081840152601f19601f8201169050808301925050505050505091929192908035906020019064010000000081111561045957600080fd5b82018360208201111561046b57600080fd5b8035906020019184600183028401116401000000008311171561048d57600080fd5b91908080601f016020809104026020016040519081016040528093929190818152602001838380828437600081840152601f19601f820116905080830192505050505050509192919290803590602001906401000000008111156104f057600080fd5b82018360208201111561050257600080fd5b8035906020019184600183028401116401000000008311171561052457600080fd5b91908080601f016020809104026020016040519081016040528093929190818152602001838380828437600081840152601f19601f820116905080830192505050505050509192919290505050610633565b604051808215151515815260200191505060405180910390f35b606061059a610f0e565b6105a38461066b565b90506105ad610f0e565b6105b78285610797565b90506105c2816107d2565b9250505092915050565b60006105d6610f0e565b6105df8361083a565b905061062960405180604001604052808360000151815260200183602001516106066108ee565b03815250610612610916565b61061b8761083a565b610624896109e0565b610ac9565b9150509392505050565b600061063d610f0e565b6106468461066b565b90506060610653826107d2565b90506106608682866105cc565b925050509392505050565b610673610f0e565b60006002836040518082805190602001908083835b602083106106ab5780518252602082019150602081019050602083039250610688565b6001836020036101000a038019825116818451168082178552505050505050905001915050602060405180830381855afa1580156106ed573d6000803e3d6000fd5b5050506040513d602081101561070257600080fd5b8101908080519060200190929190505050905060007f30644e72e131a029b85045b68181585d97816a916871ca8d3c208c16d87cfd478260001c8161074357fe5b06905060005b60011561078e5761075982610b78565b90506000811115610783576040518060400160405280838152602001828152509350505050610792565b600182019150610749565b5050505b919050565b61079f610f0e565b60405183518152602084015160208201528260408201526040826060836007600019fa6107cb57600080fd5b5092915050565b606080604080519080825280601f01601f1916602001820160405280156108085781602001600182028038833980820191505090505b5090506000836000015160001b90506000846020015160001b9050816020840152806040840152829350505050919050565b610842610f0e565b60408251146108b9576040517f08c379a00000000000000000000000000000000000000000000000000000000081526004018080602001828103825260178152602001807f496e76616c6964204731206279746573206c656e67746800000000000000000081525060200191505060405180910390fd5b600080602084015191506040840151905060405180604001604052808360001c81526020018260001c81525092505050919050565b60007f30644e72e131a029b85045b68181585d97816a916871ca8d3c208c16d87cfd47905090565b61091e610f28565b604051806040016040528060405180604001604052807f198e9393920d483a7260bfb731fb5d25f1aa493335a9e71297e485b7aef312c281526020017f1800deef121f1e76426a00665e5c4479674322d4f75edadd46debd5cd992f6ed815250815260200160405180604001604052807f090689d0585ff075ec9e99ad690c3395bc4b313370b38ef355acdadcd122975b81526020017f12c85ea5db8c6deb4aab71808dcb408fe3d1e7690c43d37b4ce6cc0166fa7daa815250815250905090565b6109e8610f28565b6080825114610a5f576040517f08c379a00000000000000000000000000000000000000000000000000000000081526004018080602001828103825260178152602001807f496e76616c6964204732206279746573206c656e67746800000000000000000081525060200191505060405180910390fd5b6000806000806020860151935060408601519250606086015191506080860151905060405180604001604052806040518060400160405280878152602001868152508152602001604051806040016040528085815260200184815250815250945050505050919050565b60008060405160208101875181526020880151602082015286518051604083015260208101516060830152602088015180516080840152602081015160a0840152875160c0840152602088015160e0840152865180516101008501526020810151610120850152602088015180516101408601526020810151610160860152602086610180876008600019fa610b5e57600080fd5b855196505050505050506000811415915050949350505050565b6000610bee7f30644e72e131a029b85045b68181585d97816a916871ca8d3c208c16d87cfd47806003610bd760037f30644e72e131a029b85045b68181585d97816a916871ca8d3c208c16d87cfd4788610bf59092919063ffffffff16565b0181610bdf57fe5b06610c4390919063ffffffff16565b9050919050565b60006040516020810160208152602080820152602060408201528560608201528460808201528360a082015260208260c0836005600019fa610c3657600080fd5b8151925050509392505050565b60006001610c518484610e24565b14610c5f5760009050610e1e565b6000831415610c715760009050610e1e565b600360048381610c7d57fe5b061415610ca357610c9c8360046001850181610c9557fe5b0484610bf5565b9050610e1e565b600060018303905060008090505b600060028381610cbd57fe5b061415610cdc5760028281610cce57fe5b049150600181019050610cb1565b6000600290505b7fffffffffffffffffffffffffffffffffffffffffffffffffffffffffffffffff610d0e8287610e24565b14610d1e57600181019050610ce3565b6000610d388760026001870181610d3157fe5b0488610bf5565b90506000610d47888689610bf5565b90506000610d5684878a610bf5565b905060008590506000809050600080905060008590505b600115610e135785905060009150600091505b83821015610db1576001811415610d9657610db1565b610da28160028e610bf5565b90508180600101925050610d80565b6000821415610dcc57869a5050505050505050505050610e1e565b610ddf8560018487030360020a8e610bf5565b92508b83840281610dec57fe5b0694508b83880281610dfa57fe5b0696508b85870281610e0857fe5b069550819350610d6d565b505050505050505050505b92915050565b600080610e3f8460026001860381610e3857fe5b0485610bf5565b90506000811480610e505750600181145b15610e5e5780915050610f08565b60018303811415610e92577fffffffffffffffffffffffffffffffffffffffffffffffffffffffffffffffff915050610f08565b6000610f06576040517f08c379a000000000000000000000000000000000000000000000000000000000815260040180806020018281038252601d8152602001807f4661696c656420746f2063616c63756c617465206c6567656e6472652e00000081525060200191505060405180910390fd5b505b92915050565b604051806040016040528060008152602001600081525090565b6040518060400160405280610f3b610f4e565b8152602001610f48610f4e565b81525090565b60405180604001604052806000815260200160008152509056fea265627a7a723158202610dc28e975fb027cf2c1ac985ae2b791ad8271d103fe6aaaa61b88d2d7c89a64736f6c63430005110032",
  "source": "pragma solidity 0.5.17;\n\nimport \"./AltBn128.sol\";\n\n/**\n * @title BLS signatures verification\n * @dev Library for verification of 2-pairing-check BLS signatures, including\n * basic, aggregated, or reconstructed threshold BLS signatures, generated\n * using the AltBn128 curve.\n */\nlibrary BLS {\n    /**\n     * @dev Creates a signature over message using the provided secret key.\n     */\n    function sign(bytes memory message, uint256 secretKey)\n        public\n        view\n        returns (bytes memory)\n    {\n        AltBn128.G1Point memory p_1 = AltBn128.g1HashToPoint(message);\n        AltBn128.G1Point memory p_2 = AltBn128.scalarMultiply(p_1, secretKey);\n\n        return AltBn128.g1Marshal(p_2);\n    }\n\n    /**\n     * @dev Verify performs the pairing operation to check if the signature\n     * is correct for the provided message and the corresponding public key.\n     * Public key must be a valid point on G2 curve in an uncompressed format.\n     * Message must be a valid point on G1 curve in an uncompressed format.\n     * Signature must be a valid point on G1 curve in an uncompressed format.\n     */\n    function verify(\n        bytes memory publicKey,\n        bytes memory message,\n        bytes memory signature\n    ) public view returns (bool) {\n        AltBn128.G1Point memory _signature = AltBn128.g1Unmarshal(signature);\n\n        return\n            AltBn128.pairing(\n                AltBn128.G1Point(_signature.x, AltBn128.getP() - _signature.y),\n                AltBn128.g2(),\n                AltBn128.g1Unmarshal(message),\n                AltBn128.g2Unmarshal(publicKey)\n            );\n    }\n\n    /**\n     * @dev VerifyBytes wraps the functionality of BLS.verify, but hashes a message\n     * to a point on G1 and marshal to bytes first to allow raw bytes verification.\n     */\n    function verifyBytes(\n        bytes memory publicKey,\n        bytes memory message,\n        bytes memory signature\n    ) public view returns (bool) {\n        AltBn128.G1Point memory point = AltBn128.g1HashToPoint(message);\n        bytes memory messageAsPoint = AltBn128.g1Marshal(point);\n\n        return verify(publicKey, messageAsPoint, signature);\n    }\n}\n",
  "sourcePath": "/home/runner/work/keep-core/keep-core/solidity-v1/contracts/cryptography/BLS.sol",
  "compiler": {
    "name": "solc",
    "version": "0.5.17+commit.d19bba13.Emscripten.clang"
  },
  "schemaVersion": "3.3.4",
  "updatedAt": "2021-11-26T17:03:20.280Z",
  "devdoc": {
    "details": "Library for verification of 2-pairing-check BLS signatures, including basic, aggregated, or reconstructed threshold BLS signatures, generated using the AltBn128 curve.",
    "methods": {
      "sign(bytes,uint256)": {
        "details": "Creates a signature over message using the provided secret key."
      },
      "verify(bytes,bytes,bytes)": {
        "details": "Verify performs the pairing operation to check if the signature is correct for the provided message and the corresponding public key. Public key must be a valid point on G2 curve in an uncompressed format. Message must be a valid point on G1 curve in an uncompressed format. Signature must be a valid point on G1 curve in an uncompressed format."
      },
      "verifyBytes(bytes,bytes,bytes)": {
        "details": "VerifyBytes wraps the functionality of BLS.verify, but hashes a message to a point on G1 and marshal to bytes first to allow raw bytes verification."
      }
    },
    "title": "BLS signatures verification"
  },
  "userdoc": {
    "methods": {}
  }
}