{
  "contractName": "CallbackContract",
  "abi": [
    {
      "constant": false,
      "inputs": [
        {
          "internalType": "uint256",
          "name": "entry",
          "type": "uint256"
        }
      ],
      "name": "__beaconCallback",
      "outputs": [],
      "payable": false,
      "stateMutability": "nonpayable",
      "type": "function"
    },
    {
      "constant": true,
      "inputs": [],
      "name": "lastEntry",
      "outputs": [
        {
          "internalType": "uint256",
          "name": "",
          "type": "uint256"
        }
      ],
      "payable": false,
      "stateMutability": "view",
      "type": "function"
    }
  ],
  "bytecode": "0x608060405234801561001057600080fd5b5060c68061001f6000396000f3fe6080604052348015600f57600080fd5b506004361060325760003560e01c8063356e0728146037578063ffa2f8c3146062575b600080fd5b606060048036036020811015604b57600080fd5b8101908080359060200190929190505050607e565b005b60686088565b6040518082815260200191505060405180910390f35b8060008190555050565b6000805490509056fea265627a7a72315820dd92208c396bca84283932c4f94e4d2b902ee0cf6bf87db2216609e94b149bb164736f6c63430005110032",
  "source": "pragma solidity 0.5.17;\n\nimport \"../IRandomBeacon.sol\";\n\n/**\n * @title CallbackContract\n * @dev Example callback contract for Random Beacon.\n */\ncontract CallbackContract is IRandomBeaconConsumer {\n    uint256 internal _lastEntry;\n\n    function __beaconCallback(uint256 entry) public {\n        _lastEntry = entry;\n    }\n\n    function lastEntry() public view returns (uint256) {\n        return _lastEntry;\n    }\n}\n",
  "sourcePath": "/home/runner/work/keep-core/keep-core/solidity-v1/contracts/examples/CallbackContract.sol",
  "compiler": {
    "name": "solc",
    "version": "0.5.17+commit.d19bba13.Emscripten.clang"
  },
  "schemaVersion": "3.3.4",
  "updatedAt": "2021-11-26T17:03:20.281Z",
  "devdoc": {
    "details": "Example callback contract for Random Beacon.",
    "methods": {},
    "title": "CallbackContract"
  },
  "userdoc": {
    "methods": {}
  }
}