{
  "contractName": "DelayFactor",
  "abi": [
    {
      "constant": true,
      "inputs": [
        {
          "internalType": "uint256",
          "name": "currentRequestStartBlock",
          "type": "uint256"
        },
        {
          "internalType": "uint256",
          "name": "relayEntryTimeout",
          "type": "uint256"
        }
      ],
      "name": "calculate",
      "outputs": [
        {
          "internalType": "uint256",
          "name": "delayFactor",
          "type": "uint256"
        }
      ],
      "payable": false,
      "stateMutability": "view",
      "type": "function"
    }
  ],
  "bytecode": "0x6104dd610026600b82828239805160001a60731461001957fe5b30600052607381538281f3fe73000000000000000000000000000000000000000030146080604052600436106100355760003560e01c80638dfa43631461003a575b600080fd5b6100706004803603604081101561005057600080fd5b810190808035906020019092919080359060200190929190505050610086565b6040518082815260200191505060405180910390f35b600080662386f26fc10000905060006100bb60016100ad868861015f90919063ffffffff16565b61015f90919063ffffffff16565b905060006100d360018761015f90919063ffffffff16565b90506000814311156100e557436100e7565b815b905060006100fe82856101e790919063ffffffff16565b9050600061011584866101e790919063ffffffff16565b9050610151866002610142846101348b8861023190919063ffffffff16565b6102b790919063ffffffff16565b0a6102b790919063ffffffff16565b965050505050505092915050565b6000808284019050838110156101dd576040517f08c379a000000000000000000000000000000000000000000000000000000000815260040180806020018281038252601b8152602001807f536166654d6174683a206164646974696f6e206f766572666c6f77000000000081525060200191505060405180910390fd5b8091505092915050565b600061022983836040518060400160405280601e81526020017f536166654d6174683a207375627472616374696f6e206f766572666c6f770000815250610301565b905092915050565b60008083141561024457600090506102b1565b600082840290508284828161025557fe5b04146102ac576040517f08c379a00000000000000000000000000000000000000000000000000000000081526004018080602001828103825260218152602001806104886021913960400191505060405180910390fd5b809150505b92915050565b60006102f983836040518060400160405280601a81526020017f536166654d6174683a206469766973696f6e206279207a65726f0000000000008152506103c1565b905092915050565b60008383111582906103ae576040517f08c379a00000000000000000000000000000000000000000000000000000000081526004018080602001828103825283818151815260200191508051906020019080838360005b83811015610373578082015181840152602081019050610358565b50505050905090810190601f1680156103a05780820380516001836020036101000a031916815260200191505b509250505060405180910390fd5b5060008385039050809150509392505050565b6000808311829061046d576040517f08c379a00000000000000000000000000000000000000000000000000000000081526004018080602001828103825283818151815260200191508051906020019080838360005b83811015610432578082015181840152602081019050610417565b50505050905090810190601f16801561045f5780820380516001836020036101000a031916815260200191505b509250505060405180910390fd5b50600083858161047957fe5b04905080915050939250505056fe536166654d6174683a206d756c7469706c69636174696f6e206f766572666c6f77a265627a7a7231582043e128c78d0c1bbb44eaaa1dd47ec048cd10d1ae90e392e06c3ad51e70ab245164736f6c63430005110032",
  "source": "pragma solidity 0.5.17;\n\nimport \"openzeppelin-solidity/contracts/math/SafeMath.sol\";\n\nlibrary DelayFactor {\n    using SafeMath for uint256;\n\n    /// @notice Gets delay factor for rewards calculation.\n    /// @return Integer representing floating-point number with 16 decimals places.\n    function calculate(\n        uint256 currentRequestStartBlock,\n        uint256 relayEntryTimeout\n    ) public view returns (uint256 delayFactor) {\n        uint256 decimals = 1e16; // Adding 16 decimals to perform float division.\n\n        // T_deadline is the earliest block when no submissions are accepted\n        // and an entry timed out. The last block the entry can be published in is\n        //     currentRequestStartBlock + relayEntryTimeout\n        // and submission are no longer accepted from block\n        //     currentRequestStartBlock + relayEntryTimeout + 1.\n        uint256 deadlineBlock =\n            currentRequestStartBlock.add(relayEntryTimeout).add(1);\n\n        // T_begin is the earliest block the result can be published in.\n        // Relay entry can be generated instantly after relay request is\n        // registered on-chain so a new entry can be published at the next\n        // block the earliest.\n        uint256 submissionStartBlock = currentRequestStartBlock.add(1);\n\n        // Use submissionStartBlock block as entryReceivedBlock if entry submitted earlier than expected.\n        uint256 entryReceivedBlock =\n            block.number <= submissionStartBlock\n                ? submissionStartBlock\n                : block.number;\n\n        // T_remaining = T_deadline - T_received\n        uint256 remainingBlocks = deadlineBlock.sub(entryReceivedBlock);\n\n        // T_deadline - T_begin\n        uint256 submissionWindow = deadlineBlock.sub(submissionStartBlock);\n\n        // delay factor = [ T_remaining / (T_deadline - T_begin)]^2\n        //\n        // Since we add 16 decimal places to perform float division, we do:\n        // delay factor = [ T_temaining * decimals / (T_deadline - T_begin)]^2 / decimals =\n        //    = [T_remaining / (T_deadline - T_begin) ]^2 * decimals\n        delayFactor = ((remainingBlocks.mul(decimals).div(submissionWindow))**2)\n            .div(decimals);\n    }\n}\n",
  "sourcePath": "/home/runner/work/keep-core/keep-core/solidity-v1/contracts/libraries/operator/DelayFactor.sol",
  "compiler": {
    "name": "solc",
    "version": "0.5.17+commit.d19bba13.Emscripten.clang"
  },
  "schemaVersion": "3.3.4",
  "updatedAt": "2021-11-26T17:03:20.309Z",
  "devdoc": {
    "methods": {
      "calculate(uint256,uint256)": {
        "return": "Integer representing floating-point number with 16 decimals places."
      }
    }
  },
  "userdoc": {
    "methods": {
      "calculate(uint256,uint256)": {
        "notice": "Gets delay factor for rewards calculation."
      }
    }
  }
}