{
  "contractName": "GrantStakingStub",
  "abi": [
    {
      "constant": true,
      "inputs": [
        {
          "internalType": "address",
          "name": "operator",
          "type": "address"
        }
      ],
      "name": "hasGrantDelegated",
      "outputs": [
        {
          "internalType": "bool",
          "name": "",
          "type": "bool"
        }
      ],
      "payable": false,
      "stateMutability": "view",
      "type": "function"
    },
    {
      "constant": false,
      "inputs": [
        {
          "internalType": "address",
          "name": "operator",
          "type": "address"
        },
        {
          "internalType": "uint256",
          "name": "grantId",
          "type": "uint256"
        }
      ],
      "name": "setGrantForOperator",
      "outputs": [],
      "payable": false,
      "stateMutability": "nonpayable",
      "type": "function"
    },
    {
      "constant": true,
      "inputs": [
        {
          "internalType": "address",
          "name": "operator",
          "type": "address"
        }
      ],
      "name": "getGrantForOperator",
      "outputs": [
        {
          "internalType": "uint256",
          "name": "",
          "type": "uint256"
        }
      ],
      "payable": false,
      "stateMutability": "view",
      "type": "function"
    }
  ],
  "bytecode": "0x608060405234801561001057600080fd5b506103b9806100206000396000f3fe608060405234801561001057600080fd5b50600436106100415760003560e01c8063555d2a6614610046578063559f3b1d1461009457806362bbabed146100f0575b600080fd5b6100926004803603604081101561005c57600080fd5b81019080803573ffffffffffffffffffffffffffffffffffffffff16906020019092919080359060200190929190505050610148565b005b6100d6600480360360208110156100aa57600080fd5b81019080803573ffffffffffffffffffffffffffffffffffffffff1690602001909291905050506101f2565b604051808215151515815260200191505060405180910390f35b6101326004803603602081101561010657600080fd5b81019080803573ffffffffffffffffffffffffffffffffffffffff1690602001909291905050506102bb565b6040518082815260200191505060405180910390f35b600073__GrantStaking__________________________633cdd1d12909184846040518463ffffffff1660e01b8152600401808481526020018373ffffffffffffffffffffffffffffffffffffffff1673ffffffffffffffffffffffffffffffffffffffff168152602001828152602001935050505060006040518083038186803b1580156101d657600080fd5b505af41580156101ea573d6000803e3d6000fd5b505050505050565b60008073__GrantStaking__________________________63ae4ae2db9091846040518363ffffffff1660e01b8152600401808381526020018273ffffffffffffffffffffffffffffffffffffffff1673ffffffffffffffffffffffffffffffffffffffff1681526020019250505060206040518083038186803b15801561027957600080fd5b505af415801561028d573d6000803e3d6000fd5b505050506040513d60208110156102a357600080fd5b81019080805190602001909291905050509050919050565b60008073__GrantStaking__________________________63548756ca9091846040518363ffffffff1660e01b8152600401808381526020018273ffffffffffffffffffffffffffffffffffffffff1673ffffffffffffffffffffffffffffffffffffffff1681526020019250505060206040518083038186803b15801561034257600080fd5b505af4158015610356573d6000803e3d6000fd5b505050506040513d602081101561036c57600080fd5b8101908080519060200190929190505050905091905056fea265627a7a723158203c3d389d9dccdcab4c49a6e8bb1ea48b8a5e5378f1413cafe3c030823f6ffba164736f6c63430005110032",
  "source": "pragma solidity 0.5.17;\n\nimport \"../libraries/staking/GrantStaking.sol\";\n\ncontract GrantStakingStub {\n    using GrantStaking for GrantStaking.Storage;\n    GrantStaking.Storage grantStaking;\n\n    function hasGrantDelegated(address operator) public view returns (bool) {\n        return grantStaking.hasGrantDelegated(operator);\n    }\n\n    function setGrantForOperator(address operator, uint256 grantId) public {\n        grantStaking.setGrantForOperator(operator, grantId);\n    }\n\n    function getGrantForOperator(address operator)\n        public\n        view\n        returns (uint256)\n    {\n        return grantStaking.getGrantForOperator(operator);\n    }\n}\n",
  "sourcePath": "/home/runner/work/keep-core/keep-core/solidity-v1/contracts/stubs/GrantStakingStub.sol",
  "compiler": {
    "name": "solc",
    "version": "0.5.17+commit.d19bba13.Emscripten.clang"
  },
  "schemaVersion": "3.3.4",
  "updatedAt": "2021-11-26T17:03:20.349Z",
  "devdoc": {
    "methods": {}
  },
  "userdoc": {
    "methods": {}
  }
}