{
  "contractName": "GroupsExpirationStub",
  "abi": [
    {
      "inputs": [],
      "payable": false,
      "stateMutability": "nonpayable",
      "type": "constructor"
    },
    {
      "constant": false,
      "inputs": [
        {
          "internalType": "bytes",
          "name": "groupPubKey",
          "type": "bytes"
        }
      ],
      "name": "addGroup",
      "outputs": [],
      "payable": false,
      "stateMutability": "nonpayable",
      "type": "function"
    },
    {
      "constant": true,
      "inputs": [
        {
          "internalType": "uint256",
          "name": "groupIndex",
          "type": "uint256"
        }
      ],
      "name": "getGroupRegistrationBlockHeight",
      "outputs": [
        {
          "internalType": "uint256",
          "name": "",
          "type": "uint256"
        }
      ],
      "payable": false,
      "stateMutability": "view",
      "type": "function"
    },
    {
      "constant": true,
      "inputs": [
        {
          "internalType": "uint256",
          "name": "groupIndex",
          "type": "uint256"
        }
      ],
      "name": "getGroupPublicKey",
      "outputs": [
        {
          "internalType": "bytes",
          "name": "",
          "type": "bytes"
        }
      ],
      "payable": false,
      "stateMutability": "view",
      "type": "function"
    },
    {
      "constant": false,
      "inputs": [
        {
          "internalType": "uint256",
          "name": "seed",
          "type": "uint256"
        }
      ],
      "name": "selectGroup",
      "outputs": [
        {
          "internalType": "uint256",
          "name": "",
          "type": "uint256"
        }
      ],
      "payable": false,
      "stateMutability": "nonpayable",
      "type": "function"
    },
    {
      "constant": true,
      "inputs": [
        {
          "internalType": "bytes",
          "name": "groupPubKey",
          "type": "bytes"
        }
      ],
      "name": "isStaleGroup",
      "outputs": [
        {
          "internalType": "bool",
          "name": "",
          "type": "bool"
        }
      ],
      "payable": false,
      "stateMutability": "view",
      "type": "function"
    },
    {
      "constant": true,
      "inputs": [],
      "name": "numberOfGroups",
      "outputs": [
        {
          "internalType": "uint256",
          "name": "",
          "type": "uint256"
        }
      ],
      "payable": false,
      "stateMutability": "view",
      "type": "function"
    }
  ],
  "bytecode": "0x608060405234801561001057600080fd5b5060146000800181905550600a600060010181905550610834806100356000396000f3fe608060405234801561001057600080fd5b50600436106100625760003560e01c8063089070a1146100675780632d6f8f31146100a95780635ac862d21461017c57806366c579a2146101be578063bf95249614610279578063ef7c8f9c14610297575b600080fd5b6100936004803603602081101561007d57600080fd5b810190808035906020019092919050505061033e565b6040518082815260200191505060405180910390f35b610162600480360360208110156100bf57600080fd5b81019080803590602001906401000000008111156100dc57600080fd5b8201836020820111156100ee57600080fd5b8035906020019184600183028401116401000000008311171561011057600080fd5b91908080601f016020809104026020016040519081016040528093929190818152602001838380828437600081840152601f19601f820116905080830192505050505050509192919290505050610368565b604051808215151515815260200191505060405180910390f35b6101a86004803603602081101561019257600080fd5b810190808035906020019092919050505061046a565b6040518082815260200191505060405180910390f35b610277600480360360208110156101d457600080fd5b81019080803590602001906401000000008111156101f157600080fd5b82018360208201111561020357600080fd5b8035906020019184600183028401116401000000008311171561022557600080fd5b91908080601f016020809104026020016040519081016040528093929190818152602001838380828437600081840152601f19601f820116905080830192505050505050509192919290505050610507565b005b6102816105e1565b6040518082815260200191505060405180910390f35b6102c3600480360360208110156102ad57600080fd5b81019080803590602001909291905050506105f2565b6040518080602001828103825283818151815260200191508051906020019080838360005b838110156103035780820151818401526020810190506102e8565b50505050905090810190601f1680156103305780820380516001836020036101000a031916815260200191505b509250505060405180910390f35b600080600301828154811061034f57fe5b9060005260206000209060030201600101549050919050565b60008073__Groups________________________________63cc9b37c29091846040518363ffffffff1660e01b81526004018083815260200180602001828103825283818151815260200191508051906020019080838360005b838110156103dd5780820151818401526020810190506103c2565b50505050905090810190601f16801561040a5780820380516001836020036101000a031916815260200191505b50935050505060206040518083038186803b15801561042857600080fd5b505af415801561043c573d6000803e3d6000fd5b505050506040513d602081101561045257600080fd5b81019080805190602001909291905050509050919050565b60008073__Groups________________________________6337ed6ace9091846040518363ffffffff1660e01b8152600401808381526020018281526020019250505060206040518083038186803b1580156104c557600080fd5b505af41580156104d9573d6000803e3d6000fd5b505050506040513d60208110156104ef57600080fd5b81019080805190602001909291905050509050919050565b600073__Groups________________________________634a1a55fa9091836040518363ffffffff1660e01b81526004018083815260200180602001828103825283818151815260200191508051906020019080838360005b8381101561057b578082015181840152602081019050610560565b50505050905090810190601f1680156105a85780820380516001836020036101000a031916815260200191505b50935050505060006040518083038186803b1580156105c657600080fd5b505af41580156105da573d6000803e3d6000fd5b5050505050565b60006105ed60006106b5565b905090565b60606000600301828154811061060457fe5b90600052602060002090600302016000018054600181600116156101000203166002900480601f0160208091040260200160405190810160405280929190818152602001828054600181600116156101000203166002900480156106a95780601f1061067e576101008083540402835291602001916106a9565b820191906000526020600020905b81548152906001019060200180831161068c57829003601f168201915b50505050509050919050565b60006106ee82600401805490506106e0846008015485600301805490506106f590919063ffffffff16565b6106f590919063ffffffff16565b9050919050565b600061073783836040518060400160405280601e81526020017f536166654d6174683a207375627472616374696f6e206f766572666c6f77000081525061073f565b905092915050565b60008383111582906107ec576040517f08c379a00000000000000000000000000000000000000000000000000000000081526004018080602001828103825283818151815260200191508051906020019080838360005b838110156107b1578082015181840152602081019050610796565b50505050905090810190601f1680156107de5780820380516001836020036101000a031916815260200191505b509250505060405180910390fd5b506000838503905080915050939250505056fea265627a7a72315820e6f4fad81bca0d4d0f2fa881d4b863bec38476239abdc80d2686c643c378771a64736f6c63430005110032",
  "source": "pragma solidity 0.5.17;\nimport \"../libraries/operator/Groups.sol\";\n\ncontract GroupsExpirationStub {\n    using Groups for Groups.Storage;\n    Groups.Storage groups;\n\n    constructor() public {\n        groups.groupActiveTime = 20;\n        groups.relayEntryTimeout = 10;\n    }\n\n    function addGroup(bytes memory groupPubKey) public {\n        groups.addGroup(groupPubKey);\n    }\n\n    function getGroupRegistrationBlockHeight(uint256 groupIndex)\n        public\n        view\n        returns (uint256)\n    {\n        return groups.groups[groupIndex].registrationBlockHeight;\n    }\n\n    function getGroupPublicKey(uint256 groupIndex)\n        public\n        view\n        returns (bytes memory)\n    {\n        return groups.groups[groupIndex].groupPubKey;\n    }\n\n    function selectGroup(uint256 seed) public returns (uint256) {\n        return groups.selectGroup(seed);\n    }\n\n    function isStaleGroup(bytes memory groupPubKey) public view returns (bool) {\n        return groups.isStaleGroup(groupPubKey);\n    }\n\n    function numberOfGroups() public view returns (uint256) {\n        return groups.numberOfGroups();\n    }\n}\n",
  "sourcePath": "/home/runner/work/keep-core/keep-core/solidity-v1/contracts/stubs/GroupsExpirationStub.sol",
  "compiler": {
    "name": "solc",
    "version": "0.5.17+commit.d19bba13.Emscripten.clang"
  },
  "schemaVersion": "3.3.4",
  "updatedAt": "2021-11-26T17:03:20.350Z",
  "devdoc": {
    "methods": {}
  },
  "userdoc": {
    "methods": {}
  }
}