{
  "contractName": "GroupsTerminationStub",
  "abi": [
    {
      "inputs": [],
      "payable": false,
      "stateMutability": "nonpayable",
      "type": "constructor"
    },
    {
      "constant": false,
      "inputs": [
        {
          "internalType": "bytes",
          "name": "groupPubKey",
          "type": "bytes"
        }
      ],
      "name": "addGroup",
      "outputs": [],
      "payable": false,
      "stateMutability": "nonpayable",
      "type": "function"
    },
    {
      "constant": false,
      "inputs": [
        {
          "internalType": "uint256",
          "name": "groupsCount",
          "type": "uint256"
        }
      ],
      "name": "registerNewGroups",
      "outputs": [],
      "payable": false,
      "stateMutability": "nonpayable",
      "type": "function"
    },
    {
      "constant": false,
      "inputs": [
        {
          "internalType": "uint256",
          "name": "groupIndex",
          "type": "uint256"
        }
      ],
      "name": "terminateGroup",
      "outputs": [],
      "payable": false,
      "stateMutability": "nonpayable",
      "type": "function"
    },
    {
      "constant": false,
      "inputs": [
        {
          "internalType": "uint256",
          "name": "seed",
          "type": "uint256"
        }
      ],
      "name": "selectGroup",
      "outputs": [
        {
          "internalType": "uint256",
          "name": "",
          "type": "uint256"
        }
      ],
      "payable": false,
      "stateMutability": "nonpayable",
      "type": "function"
    }
  ],
  "bytecode": "0x608060405234801561001057600080fd5b50600560008001819055506104f48061002a6000396000f3fe608060405234801561001057600080fd5b506004361061004c5760003560e01c8063026b77d4146100515780635ac862d21461007f57806366c579a2146100c1578063ef931cbc1461017c575b600080fd5b61007d6004803603602081101561006757600080fd5b81019080803590602001909291905050506101aa565b005b6100ab6004803603602081101561009557600080fd5b810190808035906020019092919050505061021f565b6040518082815260200191505060405180910390f35b61017a600480360360208110156100d757600080fd5b81019080803590602001906401000000008111156100f457600080fd5b82018360208201111561010657600080fd5b8035906020019184600183028401116401000000008311171561012857600080fd5b91908080601f016020809104026020016040519081016040528093929190818152602001838380828437600081840152601f19601f8201169050808301925050505050505091929192905050506102bc565b005b6101a86004803603602081101561019257600080fd5b8101908080359060200190929190505050610396565b005b600073__Groups________________________________6321ad44379091836040518363ffffffff1660e01b8152600401808381526020018281526020019250505060006040518083038186803b15801561020457600080fd5b505af4158015610218573d6000803e3d6000fd5b5050505050565b60008073__Groups________________________________6337ed6ace9091846040518363ffffffff1660e01b8152600401808381526020018281526020019250505060206040518083038186803b15801561027a57600080fd5b505af415801561028e573d6000803e3d6000fd5b505050506040513d60208110156102a457600080fd5b81019080805190602001909291905050509050919050565b600073__Groups________________________________634a1a55fa9091836040518363ffffffff1660e01b81526004018083815260200180602001828103825283818151815260200191508051906020019080838360005b83811015610330578082015181840152602081019050610315565b50505050905090810190601f16801561035d5780820380516001836020036101000a031916815260200191505b50935050505060006040518083038186803b15801561037b57600080fd5b505af415801561038f573d6000803e3d6000fd5b5050505050565b6000600190505b8181116104bb57600073__Groups________________________________634a1a55fa9091836040519080825280601f01601f1916602001820160405280156103f55781602001600182028038833980820191505090505b506040518363ffffffff1660e01b81526004018083815260200180602001828103825283818151815260200191508051906020019080838360005b8381101561044b578082015181840152602081019050610430565b50505050905090810190601f1680156104785780820380516001836020036101000a031916815260200191505b50935050505060006040518083038186803b15801561049657600080fd5b505af41580156104aa573d6000803e3d6000fd5b50505050808060010191505061039d565b505056fea265627a7a72315820a83517cb523d6b727ff8337b13795c35352ef88761e462e5d65ba40019859d5164736f6c63430005110032",
  "source": "pragma solidity 0.5.17;\nimport \"../libraries/operator/Groups.sol\";\n\ncontract GroupsTerminationStub {\n    using Groups for Groups.Storage;\n    Groups.Storage groups;\n\n    constructor() public {\n        groups.groupActiveTime = 5;\n    }\n\n    function addGroup(bytes memory groupPubKey) public {\n        groups.addGroup(groupPubKey);\n    }\n\n    function registerNewGroups(uint256 groupsCount) public {\n        for (uint256 i = 1; i <= groupsCount; i++) {\n            groups.addGroup(new bytes(i));\n        }\n    }\n\n    function terminateGroup(uint256 groupIndex) public {\n        groups.terminateGroup(groupIndex);\n    }\n\n    function selectGroup(uint256 seed) public returns (uint256) {\n        return groups.selectGroup(seed);\n    }\n}\n",
  "sourcePath": "/home/runner/work/keep-core/keep-core/solidity-v1/contracts/stubs/GroupsTerminationStub.sol",
  "compiler": {
    "name": "solc",
    "version": "0.5.17+commit.d19bba13.Emscripten.clang"
  },
  "schemaVersion": "3.3.4",
  "updatedAt": "2021-11-26T17:03:20.352Z",
  "devdoc": {
    "methods": {}
  },
  "userdoc": {
    "methods": {}
  }
}