{
  "contractName": "GroupSelectionStub",
  "abi": [
    {
      "inputs": [
        {
          "internalType": "uint256",
          "name": "groupSize",
          "type": "uint256"
        }
      ],
      "payable": false,
      "stateMutability": "nonpayable",
      "type": "constructor"
    },
    {
      "constant": false,
      "inputs": [
        {
          "internalType": "uint64",
          "name": "newTicketValue",
          "type": "uint64"
        }
      ],
      "name": "addTicket",
      "outputs": [],
      "payable": false,
      "stateMutability": "nonpayable",
      "type": "function"
    },
    {
      "constant": true,
      "inputs": [],
      "name": "getTickets",
      "outputs": [
        {
          "internalType": "uint64[]",
          "name": "",
          "type": "uint64[]"
        }
      ],
      "payable": false,
      "stateMutability": "view",
      "type": "function"
    },
    {
      "constant": true,
      "inputs": [],
      "name": "getTail",
      "outputs": [
        {
          "internalType": "uint256",
          "name": "",
          "type": "uint256"
        }
      ],
      "payable": false,
      "stateMutability": "view",
      "type": "function"
    },
    {
      "constant": true,
      "inputs": [
        {
          "internalType": "uint256",
          "name": "higherTicketValueIndex",
          "type": "uint256"
        }
      ],
      "name": "getPreviousTicketIndex",
      "outputs": [
        {
          "internalType": "uint256",
          "name": "",
          "type": "uint256"
        }
      ],
      "payable": false,
      "stateMutability": "view",
      "type": "function"
    }
  ],
  "bytecode": "0x608060405234801561001057600080fd5b50604051610f1c380380610f1c8339818101604052602081101561003357600080fd5b81019080805190602001909291905050508060006009018190555050610ebe8061005e6000396000f3fe608060405234801561001057600080fd5b506004361061004c5760003560e01c806315814d861461005157806348f964c7146100935780634ed02622146100cb578063f8cdfbf81461012a575b600080fd5b61007d6004803603602081101561006757600080fd5b8101908080359060200190929190505050610148565b6040518082815260200191505060405180910390f35b6100c9600480360360208110156100a957600080fd5b81019080803567ffffffffffffffff1690602001909291905050506101bc565b005b6100d36101d3565b6040518080602001828103825283818151815260200191508051906020019060200280838360005b838110156101165780820151818401526020810190506100fb565b505050509050019250505060405180910390f35b610132610261565b6040518082815260200191505060405180910390f35b6000806007018281546001816001161561010002031660029004811061016a57fe5b8154600116156101895790600052602060002090602091828204019190065b9054901a7f01000000000000000000000000000000000000000000000000000000000000000260f81c60ff169050919050565b6101d081600061026d90919063ffffffff16565b50565b60606000800180548060200260200160405190810160405280929190818152602001828054801561025757602002820191906000526020600020906000905b82829054906101000a900467ffffffffffffffff1667ffffffffffffffff16815260200190600801906020826007010492830192600103820291508084116102125790505b5050505050905090565b60008060080154905090565b6060610278836109b2565b905060606102868483610ae2565b90508360090154846000018054905010156106535760008460000180549050141561030b578360000183908060018154018082558091505090600182039060005260206000209060049182820401919006600802909192909190916101000a81548167ffffffffffffffff021916908367ffffffffffffffff160217905550506105f0565b8360000184600801548154811061031e57fe5b90600052602060002090600491828204019190066008029054906101000a900467ffffffffffffffff1667ffffffffffffffff168367ffffffffffffffff1611156103fd578360000183908060018154018082558091505090600182039060005260206000209060049182820401919006600802909192909190916101000a81548167ffffffffffffffff021916908367ffffffffffffffff160217905550506000846008015490506001856000018054905003856008018190555080838660080154815181106103eb57fe5b602002602001018181525050506105ef565b836000018160008151811061040e57fe5b60200260200101518154811061042057fe5b90600052602060002090600491828204019190066008029054906101000a900467ffffffffffffffff1667ffffffffffffffff168367ffffffffffffffff161015610529578360000183908060018154018082558091505090600182039060005260206000209060049182820401919006600802909192909190916101000a81548167ffffffffffffffff021916908367ffffffffffffffff160217905550506001846000018054905003826001866000018054905003815181106104e157fe5b6020026020010181815250506001846000018054905003828260008151811061050657fe5b60200260200101518151811061051857fe5b6020026020010181815250506105ee565b8360000183908060018154018082558091505090600182039060005260206000209060049182820401919006600802909192909190916101000a81548167ffffffffffffffff021916908367ffffffffffffffff160217905550506000610591858584610bcf565b905082818151811061059f57fe5b6020026020010151836001876000018054905003815181106105bd57fe5b60200260200101818152505060018560000180549050038382815181106105e057fe5b602002602001018181525050505b5b5b338460010160008567ffffffffffffffff16815260200190815260200160002060006101000a81548173ffffffffffffffffffffffffffffffffffffffff021916908373ffffffffffffffffffffffffffffffffffffffff1602179055506109a2565b8360000184600801548154811061066657fe5b90600052602060002090600491828204019190066008029054906101000a900467ffffffffffffffff1667ffffffffffffffff168367ffffffffffffffff1610156109a1576000846000018560080154815481106106c057fe5b90600052602060002090600491828204019190066008029054906101000a900467ffffffffffffffff1667ffffffffffffffff169050846000018260008151811061070757fe5b60200260200101518154811061071957fe5b90600052602060002090600491828204019190066008029054906101000a900467ffffffffffffffff1667ffffffffffffffff168467ffffffffffffffff16101561082a57838560000186600801548154811061077257fe5b90600052602060002090600491828204019190066008026101000a81548167ffffffffffffffff021916908367ffffffffffffffff1602179055506000838660080154815181106107bf57fe5b60200260200101519050856008015484846000815181106107dc57fe5b6020026020010151815181106107ee57fe5b60200260200101818152505085600801548487600801548151811061080f57fe5b60200260200101818152505080866008018190555050610909565b6000610837868685610bcf565b9050848660000187600801548154811061084d57fe5b90600052602060002090600491828204019190066008026101000a81548167ffffffffffffffff021916908367ffffffffffffffff16021790555085600801548114610907576000848760080154815181106108a557fe5b602002602001015190508482815181106108bb57fe5b6020026020010151858860080154815181106108d357fe5b60200260200101818152505086600801548583815181106108f057fe5b602002602001018181525050808760080181905550505b505b84600101600082815260200190815260200160002060006101000a81549073ffffffffffffffffffffffffffffffffffffffff0219169055338560010160008667ffffffffffffffff16815260200190815260200160002060006101000a81548173ffffffffffffffffffffffffffffffffffffffff021916908373ffffffffffffffffffffffffffffffffffffffff160217905550505b5b6109ac8483610d1e565b50505050565b606080826007018054600181600116156101000203166002900480601f016020809104026020016040519081016040528092919081815260200182805460018160011615610100020316600290048015610a4d5780601f10610a2257610100808354040283529160200191610a4d565b820191906000526020600020905b815481529060010190602001808311610a3057829003601f168201915b505050505090508260090154604051908082528060200260200182016040528015610a875781602001602082028038833980820191505090505b50915060008090505b8151811015610adb57818181518110610aa557fe5b602001015160f81c60f81b60f81c60ff16838281518110610ac257fe5b6020026020010181815250508080600101915050610a90565b5050919050565b6060808360000180549050604051908082528060200260200182016040528015610b1b5781602001602082028038833980820191505090505b509050600081511115610bc557836008015481600186600001805490500381518110610b4357fe5b602002602001018181525050600181511115610bc4576000600185600001805490500390505b6000811115610bc25783828281518110610b7f57fe5b602002602001015181518110610b9157fe5b6020026020010151826001830381518110610ba857fe5b602002602001018181525050808060019003915050610b69565b505b5b8091505092915050565b6000806000905060006001845103905060008090505b818311610cfd576001828401901c905086600001858281518110610c0557fe5b602002602001015181548110610c1757fe5b90600052602060002090600491828204019190066008029054906101000a900467ffffffffffffffff1667ffffffffffffffff168667ffffffffffffffff161015610c6757600181039150610cf8565b86600001858281518110610c7757fe5b602002602001015181548110610c8957fe5b90600052602060002090600491828204019190066008029054906101000a900467ffffffffffffffff1667ffffffffffffffff168667ffffffffffffffff161115610cd957600181019250610cf7565b848181518110610ce557fe5b60200260200101519350505050610d17565b5b610be5565b848381518110610d0957fe5b602002602001015193505050505b9392505050565b606081516040519080825280601f01601f191660200182016040528015610d545781602001600182028038833980820191505090505b50905060008090505b8151811015610dc557828181518110610d7257fe5b602002602001015160f81b828281518110610d8957fe5b60200101907effffffffffffffffffffffffffffffffffffffffffffffffffffffffffffff1916908160001a9053508080600101915050610d5d565b5080836007019080519060200190610dde929190610de4565b50505050565b828054600181600116156101000203166002900490600052602060002090601f016020900481019282601f10610e2557805160ff1916838001178555610e53565b82800160010185558215610e53579182015b82811115610e52578251825591602001919060010190610e37565b5b509050610e609190610e64565b5090565b610e8691905b80821115610e82576000816000905550600101610e6a565b5090565b9056fea265627a7a7231582038a94a65ac7dc4f81f03f7b08605aeefd085fcefeaf94c073e6d894a2aa7a31a64736f6c63430005110032",
  "source": "pragma solidity 0.5.17;\nimport \"../libraries/operator/GroupSelection.sol\";\n\ncontract GroupSelectionStub {\n    using GroupSelection for GroupSelection.Storage;\n    GroupSelection.Storage groupSelection;\n\n    constructor(uint256 groupSize) public {\n        groupSelection.groupSize = groupSize;\n    }\n\n    function addTicket(uint64 newTicketValue) public {\n        groupSelection.addTicket(newTicketValue);\n    }\n\n    /**\n     * @dev Gets submitted group candidate tickets so far.\n     */\n    function getTickets() public view returns (uint64[] memory) {\n        return groupSelection.tickets;\n    }\n\n    /**\n     * @dev Gets an index of the highest ticket value (tail).\n     */\n    function getTail() public view returns (uint256) {\n        return groupSelection.tail;\n    }\n\n    /**\n     * @dev Gets an index of a ticket that a higherTicketValueIndex points to.\n     * Ex. tickets[23, 5, 65]\n     * getPreviousTicketIndex(2) = 0\n     */\n    function getPreviousTicketIndex(uint256 higherTicketValueIndex)\n        public\n        view\n        returns (uint256)\n    {\n        return\n            uint256(\n                uint8(\n                    groupSelection.previousTicketIndices[higherTicketValueIndex]\n                )\n            );\n    }\n}\n",
  "sourcePath": "/home/runner/work/keep-core/keep-core/solidity-v1/contracts/stubs/GroupsSelectionStub.sol",
  "compiler": {
    "name": "solc",
    "version": "0.5.17+commit.d19bba13.Emscripten.clang"
  },
  "schemaVersion": "3.3.4",
  "updatedAt": "2021-11-26T17:03:20.351Z",
  "devdoc": {
    "methods": {
      "getPreviousTicketIndex(uint256)": {
        "details": "Gets an index of a ticket that a higherTicketValueIndex points to. Ex. tickets[23, 5, 65] getPreviousTicketIndex(2) = 0"
      },
      "getTail()": {
        "details": "Gets an index of the highest ticket value (tail)."
      },
      "getTickets()": {
        "details": "Gets submitted group candidate tickets so far."
      }
    }
  },
  "userdoc": {
    "methods": {}
  }
}