{
  "contractName": "KeepRandomBeaconOperatorStub",
  "abi": [
    {
      "inputs": [
        {
          "internalType": "address",
          "name": "_serviceContract",
          "type": "address"
        },
        {
          "internalType": "address",
          "name": "_stakingContract",
          "type": "address"
        },
        {
          "internalType": "address",
          "name": "_registryContract",
          "type": "address"
        },
        {
          "internalType": "address",
          "name": "_gasPriceOracle",
          "type": "address"
        }
      ],
      "payable": false,
      "stateMutability": "nonpayable",
      "type": "constructor"
    },
    {
      "anonymous": false,
      "inputs": [
        {
          "indexed": false,
          "internalType": "uint256",
          "name": "memberIndex",
          "type": "uint256"
        },
        {
          "indexed": false,
          "internalType": "bytes",
          "name": "groupPubKey",
          "type": "bytes"
        },
        {
          "indexed": false,
          "internalType": "bytes",
          "name": "misbehaved",
          "type": "bytes"
        }
      ],
      "name": "DkgResultSubmittedEvent",
      "type": "event"
    },
    {
      "anonymous": false,
      "inputs": [
        {
          "indexed": true,
          "internalType": "address",
          "name": "beneficiary",
          "type": "address"
        },
        {
          "indexed": false,
          "internalType": "address",
          "name": "operator",
          "type": "address"
        },
        {
          "indexed": false,
          "internalType": "uint256",
          "name": "amount",
          "type": "uint256"
        },
        {
          "indexed": false,
          "internalType": "uint256",
          "name": "groupIndex",
          "type": "uint256"
        }
      ],
      "name": "GroupMemberRewardsWithdrawn",
      "type": "event"
    },
    {
      "anonymous": false,
      "inputs": [
        {
          "indexed": false,
          "internalType": "uint256",
          "name": "newEntry",
          "type": "uint256"
        }
      ],
      "name": "GroupSelectionStarted",
      "type": "event"
    },
    {
      "anonymous": false,
      "inputs": [
        {
          "indexed": false,
          "internalType": "bytes",
          "name": "groupPubKey",
          "type": "bytes"
        }
      ],
      "name": "OnGroupRegistered",
      "type": "event"
    },
    {
      "anonymous": false,
      "inputs": [
        {
          "indexed": false,
          "internalType": "bytes",
          "name": "previousEntry",
          "type": "bytes"
        },
        {
          "indexed": false,
          "internalType": "bytes",
          "name": "groupPublicKey",
          "type": "bytes"
        }
      ],
      "name": "RelayEntryRequested",
      "type": "event"
    },
    {
      "anonymous": false,
      "inputs": [],
      "name": "RelayEntrySubmitted",
      "type": "event"
    },
    {
      "anonymous": false,
      "inputs": [
        {
          "indexed": true,
          "internalType": "uint256",
          "name": "groupIndex",
          "type": "uint256"
        }
      ],
      "name": "RelayEntryTimeoutReported",
      "type": "event"
    },
    {
      "anonymous": false,
      "inputs": [
        {
          "indexed": true,
          "internalType": "uint256",
          "name": "groupIndex",
          "type": "uint256"
        }
      ],
      "name": "UnauthorizedSigningReported",
      "type": "event"
    },
    {
      "constant": false,
      "inputs": [
        {
          "internalType": "address",
          "name": "serviceContract",
          "type": "address"
        }
      ],
      "name": "addServiceContract",
      "outputs": [],
      "payable": false,
      "stateMutability": "nonpayable",
      "type": "function"
    },
    {
      "constant": false,
      "inputs": [
        {
          "internalType": "uint256",
          "name": "_newEntry",
          "type": "uint256"
        },
        {
          "internalType": "address payable",
          "name": "submitter",
          "type": "address"
        }
      ],
      "name": "createGroup",
      "outputs": [],
      "payable": true,
      "stateMutability": "payable",
      "type": "function"
    },
    {
      "constant": true,
      "inputs": [],
      "name": "currentRequestGroupIndex",
      "outputs": [
        {
          "internalType": "uint256",
          "name": "",
          "type": "uint256"
        }
      ],
      "payable": false,
      "stateMutability": "view",
      "type": "function"
    },
    {
      "constant": true,
      "inputs": [],
      "name": "currentRequestPreviousEntry",
      "outputs": [
        {
          "internalType": "bytes",
          "name": "",
          "type": "bytes"
        }
      ],
      "payable": false,
      "stateMutability": "view",
      "type": "function"
    },
    {
      "constant": true,
      "inputs": [],
      "name": "currentRequestStartBlock",
      "outputs": [
        {
          "internalType": "uint256",
          "name": "",
          "type": "uint256"
        }
      ],
      "payable": false,
      "stateMutability": "view",
      "type": "function"
    },
    {
      "constant": true,
      "inputs": [],
      "name": "dkgGasEstimate",
      "outputs": [
        {
          "internalType": "uint256",
          "name": "",
          "type": "uint256"
        }
      ],
      "payable": false,
      "stateMutability": "view",
      "type": "function"
    },
    {
      "constant": true,
      "inputs": [],
      "name": "dkgSubmitterReimbursementFee",
      "outputs": [
        {
          "internalType": "uint256",
          "name": "",
          "type": "uint256"
        }
      ],
      "payable": false,
      "stateMutability": "view",
      "type": "function"
    },
    {
      "constant": true,
      "inputs": [],
      "name": "entryVerificationFee",
      "outputs": [
        {
          "internalType": "uint256",
          "name": "",
          "type": "uint256"
        }
      ],
      "payable": false,
      "stateMutability": "view",
      "type": "function"
    },
    {
      "constant": true,
      "inputs": [],
      "name": "entryVerificationGasEstimate",
      "outputs": [
        {
          "internalType": "uint256",
          "name": "",
          "type": "uint256"
        }
      ],
      "payable": false,
      "stateMutability": "view",
      "type": "function"
    },
    {
      "constant": true,
      "inputs": [],
      "name": "gasPriceCeiling",
      "outputs": [
        {
          "internalType": "uint256",
          "name": "",
          "type": "uint256"
        }
      ],
      "payable": false,
      "stateMutability": "view",
      "type": "function"
    },
    {
      "constant": false,
      "inputs": [],
      "name": "genesis",
      "outputs": [],
      "payable": true,
      "stateMutability": "payable",
      "type": "function"
    },
    {
      "constant": true,
      "inputs": [],
      "name": "getFirstActiveGroupIndex",
      "outputs": [
        {
          "internalType": "uint256",
          "name": "",
          "type": "uint256"
        }
      ],
      "payable": false,
      "stateMutability": "view",
      "type": "function"
    },
    {
      "constant": true,
      "inputs": [
        {
          "internalType": "bytes",
          "name": "groupPubKey",
          "type": "bytes"
        }
      ],
      "name": "getGroupMemberRewards",
      "outputs": [
        {
          "internalType": "uint256",
          "name": "",
          "type": "uint256"
        }
      ],
      "payable": false,
      "stateMutability": "view",
      "type": "function"
    },
    {
      "constant": true,
      "inputs": [
        {
          "internalType": "bytes",
          "name": "groupPubKey",
          "type": "bytes"
        }
      ],
      "name": "getGroupMembers",
      "outputs": [
        {
          "internalType": "address[]",
          "name": "members",
          "type": "address[]"
        }
      ],
      "payable": false,
      "stateMutability": "view",
      "type": "function"
    },
    {
      "constant": true,
      "inputs": [
        {
          "internalType": "uint256",
          "name": "groupIndex",
          "type": "uint256"
        }
      ],
      "name": "getGroupRegistrationTime",
      "outputs": [
        {
          "internalType": "uint256",
          "name": "",
          "type": "uint256"
        }
      ],
      "payable": false,
      "stateMutability": "view",
      "type": "function"
    },
    {
      "constant": true,
      "inputs": [],
      "name": "getNumberOfCreatedGroups",
      "outputs": [
        {
          "internalType": "uint256",
          "name": "",
          "type": "uint256"
        }
      ],
      "payable": false,
      "stateMutability": "view",
      "type": "function"
    },
    {
      "constant": true,
      "inputs": [],
      "name": "groupCreationFee",
      "outputs": [
        {
          "internalType": "uint256",
          "name": "",
          "type": "uint256"
        }
      ],
      "payable": false,
      "stateMutability": "view",
      "type": "function"
    },
    {
      "constant": true,
      "inputs": [],
      "name": "groupMemberBaseReward",
      "outputs": [
        {
          "internalType": "uint256",
          "name": "",
          "type": "uint256"
        }
      ],
      "payable": false,
      "stateMutability": "view",
      "type": "function"
    },
    {
      "constant": true,
      "inputs": [],
      "name": "groupProfitFee",
      "outputs": [
        {
          "internalType": "uint256",
          "name": "",
          "type": "uint256"
        }
      ],
      "payable": false,
      "stateMutability": "view",
      "type": "function"
    },
    {
      "constant": true,
      "inputs": [],
      "name": "groupSelectionGasEstimate",
      "outputs": [
        {
          "internalType": "uint256",
          "name": "",
          "type": "uint256"
        }
      ],
      "payable": false,
      "stateMutability": "view",
      "type": "function"
    },
    {
      "constant": true,
      "inputs": [],
      "name": "groupSize",
      "outputs": [
        {
          "internalType": "uint256",
          "name": "",
          "type": "uint256"
        }
      ],
      "payable": false,
      "stateMutability": "view",
      "type": "function"
    },
    {
      "constant": true,
      "inputs": [],
      "name": "groupThreshold",
      "outputs": [
        {
          "internalType": "uint256",
          "name": "",
          "type": "uint256"
        }
      ],
      "payable": false,
      "stateMutability": "view",
      "type": "function"
    },
    {
      "constant": true,
      "inputs": [
        {
          "internalType": "address",
          "name": "staker",
          "type": "address"
        }
      ],
      "name": "hasMinimumStake",
      "outputs": [
        {
          "internalType": "bool",
          "name": "",
          "type": "bool"
        }
      ],
      "payable": false,
      "stateMutability": "view",
      "type": "function"
    },
    {
      "constant": true,
      "inputs": [
        {
          "internalType": "address",
          "name": "operator",
          "type": "address"
        },
        {
          "internalType": "uint256",
          "name": "groupIndex",
          "type": "uint256"
        }
      ],
      "name": "hasWithdrawnRewards",
      "outputs": [
        {
          "internalType": "bool",
          "name": "",
          "type": "bool"
        }
      ],
      "payable": false,
      "stateMutability": "view",
      "type": "function"
    },
    {
      "constant": true,
      "inputs": [],
      "name": "isEntryInProgress",
      "outputs": [
        {
          "internalType": "bool",
          "name": "",
          "type": "bool"
        }
      ],
      "payable": false,
      "stateMutability": "view",
      "type": "function"
    },
    {
      "constant": true,
      "inputs": [
        {
          "internalType": "bytes",
          "name": "groupPubKey",
          "type": "bytes"
        }
      ],
      "name": "isGroupRegistered",
      "outputs": [
        {
          "internalType": "bool",
          "name": "",
          "type": "bool"
        }
      ],
      "payable": false,
      "stateMutability": "view",
      "type": "function"
    },
    {
      "constant": true,
      "inputs": [],
      "name": "isGroupSelectionPossible",
      "outputs": [
        {
          "internalType": "bool",
          "name": "",
          "type": "bool"
        }
      ],
      "payable": false,
      "stateMutability": "view",
      "type": "function"
    },
    {
      "constant": true,
      "inputs": [
        {
          "internalType": "uint256",
          "name": "groupIndex",
          "type": "uint256"
        }
      ],
      "name": "isGroupTerminated",
      "outputs": [
        {
          "internalType": "bool",
          "name": "",
          "type": "bool"
        }
      ],
      "payable": false,
      "stateMutability": "view",
      "type": "function"
    },
    {
      "constant": true,
      "inputs": [
        {
          "internalType": "bytes",
          "name": "groupPubKey",
          "type": "bytes"
        }
      ],
      "name": "isStaleGroup",
      "outputs": [
        {
          "internalType": "bool",
          "name": "",
          "type": "bool"
        }
      ],
      "payable": false,
      "stateMutability": "view",
      "type": "function"
    },
    {
      "constant": true,
      "inputs": [],
      "name": "numberOfGroups",
      "outputs": [
        {
          "internalType": "uint256",
          "name": "",
          "type": "uint256"
        }
      ],
      "payable": false,
      "stateMutability": "view",
      "type": "function"
    },
    {
      "constant": false,
      "inputs": [],
      "name": "refreshGasPrice",
      "outputs": [],
      "payable": false,
      "stateMutability": "nonpayable",
      "type": "function"
    },
    {
      "constant": false,
      "inputs": [
        {
          "internalType": "bytes",
          "name": "_groupSignature",
          "type": "bytes"
        }
      ],
      "name": "relayEntry",
      "outputs": [],
      "payable": false,
      "stateMutability": "nonpayable",
      "type": "function"
    },
    {
      "constant": true,
      "inputs": [],
      "name": "relayEntryTimeout",
      "outputs": [
        {
          "internalType": "uint256",
          "name": "",
          "type": "uint256"
        }
      ],
      "payable": false,
      "stateMutability": "view",
      "type": "function"
    },
    {
      "constant": false,
      "inputs": [],
      "name": "reportRelayEntryTimeout",
      "outputs": [],
      "payable": false,
      "stateMutability": "nonpayable",
      "type": "function"
    },
    {
      "constant": false,
      "inputs": [
        {
          "internalType": "uint256",
          "name": "groupIndex",
          "type": "uint256"
        },
        {
          "internalType": "bytes",
          "name": "signedMsgSender",
          "type": "bytes"
        }
      ],
      "name": "reportUnauthorizedSigning",
      "outputs": [],
      "payable": false,
      "stateMutability": "nonpayable",
      "type": "function"
    },
    {
      "constant": true,
      "inputs": [],
      "name": "resultPublicationBlockStep",
      "outputs": [
        {
          "internalType": "uint256",
          "name": "",
          "type": "uint256"
        }
      ],
      "payable": false,
      "stateMutability": "view",
      "type": "function"
    },
    {
      "constant": true,
      "inputs": [],
      "name": "selectedParticipants",
      "outputs": [
        {
          "internalType": "address[]",
          "name": "",
          "type": "address[]"
        }
      ],
      "payable": false,
      "stateMutability": "view",
      "type": "function"
    },
    {
      "constant": false,
      "inputs": [
        {
          "internalType": "uint256",
          "name": "requestId",
          "type": "uint256"
        },
        {
          "internalType": "bytes",
          "name": "previousEntry",
          "type": "bytes"
        }
      ],
      "name": "sign",
      "outputs": [],
      "payable": true,
      "stateMutability": "payable",
      "type": "function"
    },
    {
      "constant": false,
      "inputs": [
        {
          "internalType": "uint256",
          "name": "submitterMemberIndex",
          "type": "uint256"
        },
        {
          "internalType": "bytes",
          "name": "groupPubKey",
          "type": "bytes"
        },
        {
          "internalType": "bytes",
          "name": "misbehaved",
          "type": "bytes"
        },
        {
          "internalType": "bytes",
          "name": "signatures",
          "type": "bytes"
        },
        {
          "internalType": "uint256[]",
          "name": "signingMembersIndexes",
          "type": "uint256[]"
        }
      ],
      "name": "submitDkgResult",
      "outputs": [],
      "payable": false,
      "stateMutability": "nonpayable",
      "type": "function"
    },
    {
      "constant": false,
      "inputs": [
        {
          "internalType": "bytes32",
          "name": "ticket",
          "type": "bytes32"
        }
      ],
      "name": "submitTicket",
      "outputs": [],
      "payable": false,
      "stateMutability": "nonpayable",
      "type": "function"
    },
    {
      "constant": true,
      "inputs": [],
      "name": "submittedTickets",
      "outputs": [
        {
          "internalType": "uint64[]",
          "name": "",
          "type": "uint64[]"
        }
      ],
      "payable": false,
      "stateMutability": "view",
      "type": "function"
    },
    {
      "constant": true,
      "inputs": [],
      "name": "ticketSubmissionTimeout",
      "outputs": [
        {
          "internalType": "uint256",
          "name": "",
          "type": "uint256"
        }
      ],
      "payable": false,
      "stateMutability": "view",
      "type": "function"
    },
    {
      "constant": false,
      "inputs": [
        {
          "internalType": "address",
          "name": "operator",
          "type": "address"
        },
        {
          "internalType": "uint256",
          "name": "groupIndex",
          "type": "uint256"
        }
      ],
      "name": "withdrawGroupMemberRewards",
      "outputs": [],
      "payable": false,
      "stateMutability": "nonpayable",
      "type": "function"
    },
    {
      "constant": false,
      "inputs": [
        {
          "internalType": "bytes",
          "name": "groupPublicKey",
          "type": "bytes"
        }
      ],
      "name": "registerNewGroup",
      "outputs": [],
      "payable": false,
      "stateMutability": "nonpayable",
      "type": "function"
    },
    {
      "constant": false,
      "inputs": [
        {
          "internalType": "bytes",
          "name": "groupPublicKey",
          "type": "bytes"
        },
        {
          "internalType": "address[]",
          "name": "members",
          "type": "address[]"
        }
      ],
      "name": "setGroupMembers",
      "outputs": [],
      "payable": false,
      "stateMutability": "nonpayable",
      "type": "function"
    },
    {
      "constant": true,
      "inputs": [],
      "name": "getGroupSelectionRelayEntry",
      "outputs": [
        {
          "internalType": "uint256",
          "name": "",
          "type": "uint256"
        }
      ],
      "payable": false,
      "stateMutability": "view",
      "type": "function"
    },
    {
      "constant": true,
      "inputs": [],
      "name": "getTicketSubmissionStartBlock",
      "outputs": [
        {
          "internalType": "uint256",
          "name": "",
          "type": "uint256"
        }
      ],
      "payable": false,
      "stateMutability": "view",
      "type": "function"
    },
    {
      "constant": true,
      "inputs": [
        {
          "internalType": "uint256",
          "name": "groupIndex",
          "type": "uint256"
        }
      ],
      "name": "getGroupPublicKey",
      "outputs": [
        {
          "internalType": "bytes",
          "name": "",
          "type": "bytes"
        }
      ],
      "payable": false,
      "stateMutability": "view",
      "type": "function"
    },
    {
      "constant": true,
      "inputs": [],
      "name": "timeDKG",
      "outputs": [
        {
          "internalType": "uint256",
          "name": "",
          "type": "uint256"
        }
      ],
      "payable": false,
      "stateMutability": "view",
      "type": "function"
    }
  ],
  "bytecode": "0x608060405266038d7ea4c68000601d55640df8475800601e556040601f556021602055600660215562000045602154601f54620002f560201b6200499d1790919060201c565b602255620445c0602355621a8ce060245562030d406025553480156200006a57600080fd5b506040516200605b3803806200605b833981810160405260808110156200009057600080fd5b810190808051906020019092919080519060200190929190805190602001909291908051906020019092919050505083838383600160008190555060198490806001815401808255809150509060018203906000526020600020016000909192909190916101000a81548173ffffffffffffffffffffffffffffffffffffffff021916908373ffffffffffffffffffffffffffffffffffffffff1602179055505082601b60006101000a81548173ffffffffffffffffffffffffffffffffffffffff021916908373ffffffffffffffffffffffffffffffffffffffff16021790555081601a60006101000a81548173ffffffffffffffffffffffffffffffffffffffff021916908373ffffffffffffffffffffffffffffffffffffffff16021790555080601c60006101000a81548173ffffffffffffffffffffffffffffffffffffffff021916908373ffffffffffffffffffffffffffffffffffffffff160217905550601b60009054906101000a900473ffffffffffffffffffffffffffffffffffffffff16600b60090160006101000a81548173ffffffffffffffffffffffffffffffffffffffff021916908373ffffffffffffffffffffffffffffffffffffffff16021790555062013b00600b60000181905550602254600b60010181905550604e600160030181905550601f546001600901819055506048601560000181905550602154601560010181905550601f546015600201819055506002602054601f540381620002be57fe5b046020540160156003018190555050505050600a602281905550604560016003018190555060036021819055505050505062000380565b6000808314156200030a57600090506200037a565b60008284029050828482816200031c57fe5b041462000375576040517f08c379a00000000000000000000000000000000000000000000000000000000081526004018080602001828103825260218152602001806200603a6021913960400191505060405180910390fd5b809150505b92915050565b615caa80620003906000396000f3fe6080604052600436106102ad5760003560e01c80637760c6c711610175578063bf952496116100dc578063d12f5e6911610095578063eb9488d31161006f578063eb9488d314611564578063ef7c8f9c1461158f578063fdd18b1314611643578063fe6e693a1461166e576102ad565b8063d12f5e691461134a578063e1f4d63214611467578063e581ff7414611492576102ad565b8063bf95249614611239578063c300d05814611264578063c44389461461128f578063c45751cd146112ba578063c96e71fb146112d1578063c98622fb1461131f576102ad565b80639b3d270a1161012e5780639b3d270a14610f705780639dabee4414611035578063a7f0b3de14611111578063ac374f4b1461111b578063b1c77c8f146111e3578063b99f0c431461120e576102ad565b80637760c6c714610e1057806379f9fb7e14610e615780637d7d7dd914610e8c578063885c020414610eb75780638a3a3da814610f0a5780638e9e56a514610f45576102ad565b8063517471a91161021957806363b635ea116101d257806363b635ea1461097057806365298c641461099b5780636dcc64f814610af75780636e5636e414610b225780637031b7ff14610b5157806373f1daab14610b7c576102ad565b8063517471a91461076657806352d3afe8146107915780635c1c0710146107bc5780635ec60d6114610825578063618c2656146108745780636262d54e14610904576102ad565b806324f173131161026b57806324f17313146105375780632d6f8f311461056257806336985b5a1461064257806336c857171461066d578063376f7a11146106985780633926c28e1461070b576102ad565b80623bf87e146102b257806309da3938146102dd5780630b19991f146103a55780631c524ac2146104115780631ed74070146104f157806321a8f86c14610508575b600080fd5b3480156102be57600080fd5b506102c7611699565b6040518082815260200191505060405180910390f35b3480156102e957600080fd5b506103a36004803603602081101561030057600080fd5b810190808035906020019064010000000081111561031d57600080fd5b82018360208201111561032f57600080fd5b8035906020019184600183028401116401000000008311171561035157600080fd5b91908080601f016020809104026020016040519081016040528093929190818152602001838380828437600081840152601f19601f82011690508083019250505050505050919291929050505061169f565b005b3480156103b157600080fd5b506103ba611779565b6040518080602001828103825283818151815260200191508051906020019060200280838360005b838110156103fd5780820151818401526020810190506103e2565b505050509050019250505060405180910390f35b34801561041d57600080fd5b506104d76004803603602081101561043457600080fd5b810190808035906020019064010000000081111561045157600080fd5b82018360208201111561046357600080fd5b8035906020019184600183028401116401000000008311171561048557600080fd5b91908080601f016020809104026020016040519081016040528093929190818152602001838380828437600081840152601f19601f8201169050808301925050505050505091929192905050506118a7565b604051808215151515815260200191505060405180910390f35b3480156104fd57600080fd5b506105066118c4565b005b34801561051457600080fd5b5061051d611ad5565b604051808215151515815260200191505060405180910390f35b34801561054357600080fd5b5061054c611b21565b6040518082815260200191505060405180910390f35b34801561056e57600080fd5b506106286004803603602081101561058557600080fd5b81019080803590602001906401000000008111156105a257600080fd5b8201836020820111156105b457600080fd5b803590602001918460018302840111640100000000831117156105d657600080fd5b91908080601f016020809104026020016040519081016040528093929190818152602001838380828437600081840152601f19601f820116905080830192505050505050509192919290505050611b27565b604051808215151515815260200191505060405180910390f35b34801561064e57600080fd5b50610657611c2a565b6040518082815260200191505060405180910390f35b34801561067957600080fd5b50610682611c37565b6040518082815260200191505060405180910390f35b3480156106a457600080fd5b506106f1600480360360408110156106bb57600080fd5b81019080803573ffffffffffffffffffffffffffffffffffffffff16906020019092919080359060200190929190505050611c3d565b604051808215151515815260200191505060405180910390f35b34801561071757600080fd5b506107646004803603604081101561072e57600080fd5b81019080803573ffffffffffffffffffffffffffffffffffffffff16906020019092919080359060200190929190505050611d10565b005b34801561077257600080fd5b5061077b61211d565b6040518082815260200191505060405180910390f35b34801561079d57600080fd5b506107a661213b565b6040518082815260200191505060405180910390f35b3480156107c857600080fd5b5061080b600480360360208110156107df57600080fd5b81019080803573ffffffffffffffffffffffffffffffffffffffff169060200190929190505050612148565b604051808215151515815260200191505060405180910390f35b34801561083157600080fd5b5061085e6004803603602081101561084857600080fd5b810190808035906020019092919050505061225f565b6040518082815260200191505060405180910390f35b34801561088057600080fd5b506108896122fd565b6040518080602001828103825283818151815260200191508051906020019080838360005b838110156108c95780820151818401526020810190506108ae565b50505050905090810190601f1680156108f65780820380516001836020036101000a031916815260200191505b509250505060405180910390f35b34801561091057600080fd5b5061091961239b565b6040518080602001828103825283818151815260200191508051906020019060200280838360005b8381101561095c578082015181840152602081019050610941565b505050509050019250505060405180910390f35b34801561097c57600080fd5b5061098561242a565b6040518082815260200191505060405180910390f35b3480156109a757600080fd5b50610af5600480360360408110156109be57600080fd5b81019080803590602001906401000000008111156109db57600080fd5b8201836020820111156109ed57600080fd5b80359060200191846001830284011164010000000083111715610a0f57600080fd5b91908080601f016020809104026020016040519081016040528093929190818152602001838380828437600081840152601f19601f82011690508083019250505050505050919291929080359060200190640100000000811115610a7257600080fd5b820183602082011115610a8457600080fd5b80359060200191846020830284011164010000000083111715610aa657600080fd5b919080806020026020016040519081016040528093929190818152602001838360200280828437600081840152601f19601f820116905080830192505050505050509192919290505050612430565b005b348015610b0357600080fd5b50610b0c612568565b6040518082815260200191505060405180910390f35b348015610b2e57600080fd5b50610b3761256e565b604051808215151515815260200191505060405180910390f35b348015610b5d57600080fd5b50610b6661257b565b6040518082815260200191505060405180910390f35b348015610b8857600080fd5b50610e0e600480360360a0811015610b9f57600080fd5b810190808035906020019092919080359060200190640100000000811115610bc657600080fd5b820183602082011115610bd857600080fd5b80359060200191846001830284011164010000000083111715610bfa57600080fd5b91908080601f016020809104026020016040519081016040528093929190818152602001838380828437600081840152601f19601f82011690508083019250505050505050919291929080359060200190640100000000811115610c5d57600080fd5b820183602082011115610c6f57600080fd5b80359060200191846001830284011164010000000083111715610c9157600080fd5b91908080601f016020809104026020016040519081016040528093929190818152602001838380828437600081840152601f19601f82011690508083019250505050505050919291929080359060200190640100000000811115610cf457600080fd5b820183602082011115610d0657600080fd5b80359060200191846001830284011164010000000083111715610d2857600080fd5b91908080601f016020809104026020016040519081016040528093929190818152602001838380828437600081840152601f19601f82011690508083019250505050505050919291929080359060200190640100000000811115610d8b57600080fd5b820183602082011115610d9d57600080fd5b80359060200191846020830284011164010000000083111715610dbf57600080fd5b919080806020026020016040519081016040528093929190818152602001838360200280828437600081840152601f19601f820116905080830192505050505050509192919290505050612581565b005b348015610e1c57600080fd5b50610e5f60048036036020811015610e3357600080fd5b81019080803573ffffffffffffffffffffffffffffffffffffffff169060200190929190505050612c69565b005b348015610e6d57600080fd5b50610e76612e4c565b6040518082815260200191505060405180910390f35b348015610e9857600080fd5b50610ea1612e52565b6040518082815260200191505060405180910390f35b348015610ec357600080fd5b50610ef060048036036020811015610eda57600080fd5b8101908080359060200190929190505050612e58565b604051808215151515815260200191505060405180910390f35b348015610f1657600080fd5b50610f4360048036036020811015610f2d57600080fd5b8101908080359060200190929190505050612e75565b005b348015610f5157600080fd5b50610f5a61301c565b6040518082815260200191505060405180910390f35b61103360048036036040811015610f8657600080fd5b810190808035906020019092919080359060200190640100000000811115610fad57600080fd5b820183602082011115610fbf57600080fd5b80359060200191846001830284011164010000000083111715610fe157600080fd5b91908080601f016020809104026020016040519081016040528093929190818152602001838380828437600081840152601f19601f820116905080830192505050505050509192919290505050613022565b005b34801561104157600080fd5b506110fb6004803603602081101561105857600080fd5b810190808035906020019064010000000081111561107557600080fd5b82018360208201111561108757600080fd5b803590602001918460018302840111640100000000831117156110a957600080fd5b91908080601f016020809104026020016040519081016040528093929190818152602001838380828437600081840152601f19601f8201169050808301925050505050505091929192905050506131f2565b6040518082815260200191505060405180910390f35b611119613268565b005b34801561112757600080fd5b506111e16004803603602081101561113e57600080fd5b810190808035906020019064010000000081111561115b57600080fd5b82018360208201111561116d57600080fd5b8035906020019184600183028401116401000000008311171561118f57600080fd5b91908080601f016020809104026020016040519081016040528093929190818152602001838380828437600081840152601f19601f820116905080830192505050505050509192919290505050613475565b005b3480156111ef57600080fd5b506111f8613db4565b6040518082815260200191505060405180910390f35b34801561121a57600080fd5b50611223613dba565b6040518082815260200191505060405180910390f35b34801561124557600080fd5b5061124e613dc0565b6040518082815260200191505060405180910390f35b34801561127057600080fd5b50611279613dd1565b6040518082815260200191505060405180910390f35b34801561129b57600080fd5b506112a4613e03565b6040518082815260200191505060405180910390f35b3480156112c657600080fd5b506112cf613e21565b005b61131d600480360360408110156112e757600080fd5b8101908080359060200190929190803573ffffffffffffffffffffffffffffffffffffffff169060200190929190505050613ecc565b005b34801561132b57600080fd5b506113346141ed565b6040518082815260200191505060405180910390f35b34801561135657600080fd5b506114106004803603602081101561136d57600080fd5b810190808035906020019064010000000081111561138a57600080fd5b82018360208201111561139c57600080fd5b803590602001918460018302840111640100000000831117156113be57600080fd5b91908080601f016020809104026020016040519081016040528093929190818152602001838380828437600081840152601f19601f8201169050808301925050505050505091929192905050506141fa565b6040518080602001828103825283818151815260200191508051906020019060200280838360005b83811015611453578082015181840152602081019050611438565b505050509050019250505060405180910390f35b34801561147357600080fd5b5061147c614397565b6040518082815260200191505060405180910390f35b34801561149e57600080fd5b50611562600480360360408110156114b557600080fd5b8101908080359060200190929190803590602001906401000000008111156114dc57600080fd5b8201836020820111156114ee57600080fd5b8035906020019184600183028401116401000000008311171561151057600080fd5b91908080601f016020809104026020016040519081016040528093929190818152602001838380828437600081840152601f19601f82011690508083019250505050505050919291929050505061439d565b005b34801561157057600080fd5b50611579614557565b6040518082815260200191505060405180910390f35b34801561159b57600080fd5b506115c8600480360360208110156115b257600080fd5b8101908080359060200190929190505050614564565b6040518080602001828103825283818151815260200191508051906020019080838360005b838110156116085780820151818401526020810190506115ed565b50505050905090810190601f1680156116355780820380516001836020036101000a031916815260200191505b509250505060405180910390f35b34801561164f57600080fd5b50611658614627565b6040518082815260200191505060405180910390f35b34801561167a57600080fd5b50611683614637565b6040518082815260200191505060405180910390f35b60245481565b600b73__Groups________________________________634a1a55fa9091836040518363ffffffff1660e01b81526004018083815260200180602001828103825283818151815260200191508051906020019080838360005b838110156117135780820151818401526020810190506116f8565b50505050905090810190601f1680156117405780820380516001836020036101000a031916815260200191505b50935050505060006040518083038186803b15801561175e57600080fd5b505af4158015611772573d6000803e3d6000fd5b5050505050565b6060600173__GroupSelection________________________63a3c6b2b390916040518263ffffffff1660e01b81526004018082815260200191505060006040518083038186803b1580156117cd57600080fd5b505af41580156117e1573d6000803e3d6000fd5b505050506040513d6000823e3d601f19601f82011682018060405250602081101561180b57600080fd5b810190808051604051939291908464010000000082111561182b57600080fd5b8382019150602082018581111561184157600080fd5b825186602082028301116401000000008211171561185e57600080fd5b8083526020830192505050908051906020019060200280838360005b8381101561189557808201518184015260208101905061187a565b50505050905001604052505050905090565b60006118bd82600b61464490919063ffffffff16565b9050919050565b6118cc6146bc565b61193e576040517f08c379a00000000000000000000000000000000000000000000000000000000081526004018080602001828103825260168152602001807f456e74727920646964206e6f742074696d65206f75740000000000000000000081525060200191505060405180910390fd5b600b73__Groups________________________________63a24940029091602a54601f546040518463ffffffff1660e01b815260040180848152602001838152602001828152602001935050505060006040518083038186803b1580156119a457600080fd5b505af41580156119b8573d6000803e3d6000fd5b50505050600060298190555060006119ce613dc0565b1115611aa457611aa3602854602b8054600181600116156101000203166002900480601f016020809104026020016040519081016040528092919081815260200182805460018160011615610100020316600290048015611a705780601f10611a4557610100808354040283529160200191611a70565b820191906000526020600020905b815481529060010190602001808311611a5357829003601f168201915b5050505050602e60009054906101000a900473ffffffffffffffffffffffffffffffffffffffff16602c54602d546146da565b5b602a547f6675fe3ae219641aa4ec9e58867bd7af88bf03caf819d8858f3ddf4cc635eed260405160405180910390a2565b6000600160050160009054906101000a900460ff16611af75760019050611b1e565b6000602154601f540260156000015460016003015460016004015401010190508043119150505b90565b60255481565b6000600b73__Groups________________________________63cc9b37c29091846040518363ffffffff1660e01b81526004018083815260200180602001828103825283818151815260200191508051906020019080838360005b83811015611b9d578082015181840152602081019050611b82565b50505050905090810190601f168015611bca5780820380516001836020036101000a031916815260200191505b50935050505060206040518083038186803b158015611be857600080fd5b505af4158015611bfc573d6000803e3d6000fd5b505050506040513d6020811015611c1257600080fd5b81019080805190602001909291905050509050919050565b6000600160020154905090565b60215481565b6000600b73__Groups________________________________634a37cba2909185856040518463ffffffff1660e01b8152600401808481526020018373ffffffffffffffffffffffffffffffffffffffff1673ffffffffffffffffffffffffffffffffffffffff168152602001828152602001935050505060206040518083038186803b158015611ccd57600080fd5b505af4158015611ce1573d6000803e3d6000fd5b505050506040513d6020811015611cf757600080fd5b8101908080519060200190929190505050905092915050565b600160008082825401925050819055506000805490506000600b73__Groups________________________________6319818cd3909186866040518463ffffffff1660e01b8152600401808481526020018373ffffffffffffffffffffffffffffffffffffffff1673ffffffffffffffffffffffffffffffffffffffff168152602001828152602001935050505060206040518083038186803b158015611db657600080fd5b505af4158015611dca573d6000803e3d6000fd5b505050506040513d6020811015611de057600080fd5b810190808051906020019092919050505090506000601b60009054906101000a900473ffffffffffffffffffffffffffffffffffffffff1673ffffffffffffffffffffffffffffffffffffffff1663ba7bffd3866040518263ffffffff1660e01b8152600401808273ffffffffffffffffffffffffffffffffffffffff1673ffffffffffffffffffffffffffffffffffffffff16815260200191505060206040518083038186803b158015611e9457600080fd5b505afa158015611ea8573d6000803e3d6000fd5b505050506040513d6020811015611ebe57600080fd5b810190808051906020019092919050505073ffffffffffffffffffffffffffffffffffffffff168260405180600001905060006040518083038185875af1925050503d8060008114611f2c576040519150601f19603f3d011682016040523d82523d6000602084013e611f31565b606091505b50509050801561209f57601b60009054906101000a900473ffffffffffffffffffffffffffffffffffffffff1673ffffffffffffffffffffffffffffffffffffffff1663ba7bffd3866040518263ffffffff1660e01b8152600401808273ffffffffffffffffffffffffffffffffffffffff1673ffffffffffffffffffffffffffffffffffffffff16815260200191505060206040518083038186803b158015611fda57600080fd5b505afa158015611fee573d6000803e3d6000fd5b505050506040513d602081101561200457600080fd5b810190808051906020019092919050505073ffffffffffffffffffffffffffffffffffffffff167fd2d1d8bb9db82c3480418ddcddf25a021102ad139edec2a62b274595d408a88d868487604051808473ffffffffffffffffffffffffffffffffffffffff1673ffffffffffffffffffffffffffffffffffffffff168152602001838152602001828152602001935050505060405180910390a25b50506000548114612118576040517f08c379a000000000000000000000000000000000000000000000000000000000815260040180806020018281038252601f8152602001807f5265656e7472616e637947756172643a207265656e7472616e742063616c6c0081525060200191505060405180910390fd5b505050565b6000612136601e5460235461499d90919063ffffffff16565b905090565b6000600160040154905090565b6000601b60009054906101000a900473ffffffffffffffffffffffffffffffffffffffff1673ffffffffffffffffffffffffffffffffffffffff166310a63ec083306040518363ffffffff1660e01b8152600401808373ffffffffffffffffffffffffffffffffffffffff1673ffffffffffffffffffffffffffffffffffffffff1681526020018273ffffffffffffffffffffffffffffffffffffffff1673ffffffffffffffffffffffffffffffffffffffff1681526020019250505060206040518083038186803b15801561221d57600080fd5b505afa158015612231573d6000803e3d6000fd5b505050506040513d602081101561224757600080fd5b81019080805190602001909291905050509050919050565b6000600b73__Groups________________________________634732bd3b9091846040518363ffffffff1660e01b8152600401808381526020018281526020019250505060206040518083038186803b1580156122bb57600080fd5b505af41580156122cf573d6000803e3d6000fd5b505050506040513d60208110156122e557600080fd5b81019080805190602001909291905050509050919050565b602b8054600181600116156101000203166002900480601f0160208091040260200160405190810160405280929190818152602001828054600181600116156101000203166002900480156123935780601f1061236857610100808354040283529160200191612393565b820191906000526020600020905b81548152906001019060200180831161237657829003601f168201915b505050505081565b6060600160000180548060200260200160405190810160405280929190818152602001828054801561242057602002820191906000526020600020906000905b82829054906101000a900467ffffffffffffffff1667ffffffffffffffff16815260200190600801906020826007010492830192600103820291508084116123db5790505b5050505050905090565b601f5481565b600b73__Groups________________________________63e130bd67909184846040518463ffffffff1660e01b815260040180848152602001806020018060200180602001848103845286818151815260200191508051906020019080838360005b838110156124ad578082015181840152602081019050612492565b50505050905090810190601f1680156124da5780820380516001836020036101000a031916815260200191505b50848103835285818151815260200191508051906020019060200280838360005b838110156125165780820151818401526020810190506124fb565b50505050905001848103825260008152602001602001965050505050505060006040518083038186803b15801561254c57600080fd5b505af4158015612560573d6000803e3d6000fd5b505050505050565b60205481565b6000806029541415905090565b602a5481565b6001600080828254019250508190555060008054905060606125a1611779565b9050601573__DKGResultVerification_________________63da0a16899091898989898988600160030154600160040154016040518963ffffffff1660e01b815260040180898152602001888152602001806020018060200180602001806020018060200187815260200186810386528c818151815260200191508051906020019080838360005b8381101561264557808201518184015260208101905061262a565b50505050905090810190601f1680156126725780820380516001836020036101000a031916815260200191505b5086810385528b818151815260200191508051906020019080838360005b838110156126ab578082015181840152602081019050612690565b50505050905090810190601f1680156126d85780820380516001836020036101000a031916815260200191505b5086810384528a818151815260200191508051906020019080838360005b838110156127115780820151818401526020810190506126f6565b50505050905090810190601f16801561273e5780820380516001836020036101000a031916815260200191505b50868103835289818151815260200191508051906020019060200280838360005b8381101561277a57808201518184015260208101905061275f565b50505050905001868103825288818151815260200191508051906020019060200280838360005b838110156127bc5780820151818401526020810190506127a1565b505050509050019d505050505050505050505050505060006040518083038186803b1580156127ea57600080fd5b505af41580156127fe573d6000803e3d6000fd5b50505050600b73__Groups________________________________63e130bd6790918884896040518563ffffffff1660e01b815260040180858152602001806020018060200180602001848103845287818151815260200191508051906020019080838360005b83811015612880578082015181840152602081019050612865565b50505050905090810190601f1680156128ad5780820380516001836020036101000a031916815260200191505b50848103835286818151815260200191508051906020019060200280838360005b838110156128e95780820151818401526020810190506128ce565b50505050905001848103825285818151815260200191508051906020019080838360005b8381101561292857808201518184015260208101905061290d565b50505050905090810190601f1680156129555780820380516001836020036101000a031916815260200191505b5097505050505050505060006040518083038186803b15801561297757600080fd5b505af415801561298b573d6000803e3d6000fd5b50505050600b73__Groups________________________________634a1a55fa9091886040518363ffffffff1660e01b81526004018083815260200180602001828103825283818151815260200191508051906020019080838360005b83811015612a035780820151818401526020810190506129e8565b50505050905090810190601f168015612a305780820380516001836020036101000a031916815260200191505b50935050505060006040518083038186803b158015612a4e57600080fd5b505af4158015612a62573d6000803e3d6000fd5b50505050612a6e614a23565b7fd1d71346ed0f1479c55b14e7c48b084207a7e1bcd9abe4f22d425ec23a518a1f878787604051808481526020018060200180602001838103835285818151815260200191508051906020019080838360005b83811015612adc578082015181840152602081019050612ac1565b50505050905090810190601f168015612b095780820380516001836020036101000a031916815260200191505b50838103825284818151815260200191508051906020019080838360005b83811015612b42578082015181840152602081019050612b27565b50505050905090810190601f168015612b6f5780820380516001836020036101000a031916815260200191505b509550505050505060405180910390a1600173__GroupSelection________________________63a4b15bac90916040518263ffffffff1660e01b81526004018082815260200191505060006040518083038186803b158015612bd157600080fd5b505af4158015612be5573d6000803e3d6000fd5b50505050506000548114612c61576040517f08c379a000000000000000000000000000000000000000000000000000000000815260040180806020018281038252601f8152602001807f5265656e7472616e637947756172643a207265656e7472616e742063616c6c0081525060200191505060405180910390fd5b505050505050565b3373ffffffffffffffffffffffffffffffffffffffff16601a60009054906101000a900473ffffffffffffffffffffffffffffffffffffffff1673ffffffffffffffffffffffffffffffffffffffff16636557eccf306040518263ffffffff1660e01b8152600401808273ffffffffffffffffffffffffffffffffffffffff1673ffffffffffffffffffffffffffffffffffffffff16815260200191505060206040518083038186803b158015612d1f57600080fd5b505afa158015612d33573d6000803e3d6000fd5b505050506040513d6020811015612d4957600080fd5b810190808051906020019092919050505073ffffffffffffffffffffffffffffffffffffffff1614612de3576040517f08c379a000000000000000000000000000000000000000000000000000000000815260040180806020018281038252600e8152602001807f4e6f7420617574686f72697a656400000000000000000000000000000000000081525060200191505060405180910390fd5b60198190806001815401808255809150509060018203906000526020600020016000909192909190916101000a81548173ffffffffffffffffffffffffffffffffffffffff021916908373ffffffffffffffffffffffffffffffffffffffff1602179055505050565b60235481565b601d5481565b6000612e6e82600b614cce90919063ffffffff16565b9050919050565b6000612f9c600160060154601b60009054906101000a900473ffffffffffffffffffffffffffffffffffffffff1673ffffffffffffffffffffffffffffffffffffffff1663afff33ef33306040518363ffffffff1660e01b8152600401808373ffffffffffffffffffffffffffffffffffffffff1673ffffffffffffffffffffffffffffffffffffffff1681526020018273ffffffffffffffffffffffffffffffffffffffff1673ffffffffffffffffffffffffffffffffffffffff1681526020019250505060206040518083038186803b158015612f5357600080fd5b505afa158015612f67573d6000803e3d6000fd5b505050506040513d6020811015612f7d57600080fd5b8101908080519060200190929190505050614d0690919063ffffffff16565b9050600173__GroupSelection________________________63fb6ed49c909184846040518463ffffffff1660e01b815260040180848152602001838152602001828152602001935050505060006040518083038186803b15801561300057600080fd5b505af4158015613014573d6000803e3d6000fd5b505050505050565b60295481565b6130bb3360198054806020026020016040519081016040528092919081815260200182805480156130a857602002820191906000526020600020905b8160009054906101000a900473ffffffffffffffffffffffffffffffffffffffff1673ffffffffffffffffffffffffffffffffffffffff168152602001906001019080831161305e575b5050505050614d5090919063ffffffff16565b61312d576040517f08c379a00000000000000000000000000000000000000000000000000000000081526004018080602001828103825260208152602001807f43616c6c6572206973206e6f742061207365727669636520636f6e747261637481525060200191505060405180910390fd5b600061315061313a61211d565b613142613e03565b614dcb90919063ffffffff16565b9050803410156131c8576040517f08c379a000000000000000000000000000000000000000000000000000000000815260040180806020018281038252601a8152602001807f496e73756666696369656e74206e657720656e7472792066656500000000000081525060200191505060405180910390fd5b60006131dd8234614e5390919063ffffffff16565b90506131ec84843385856146da565b50505050565b6000600b600601826040518082805190602001908083835b6020831061322d578051825260208201915060208101905060208303925061320a565b6001836020036101000a0380198251168184511680821785525050505050509050019150509081526020016040518091039020549050919050565b600b73__Groups________________________________63fff0da7590916040518263ffffffff1660e01b81526004018082815260200191505060006040518083038186803b1580156132ba57600080fd5b505af41580156132ce573d6000803e3d6000fd5b5050505060006132dc613dc0565b1461334f576040517f08c379a000000000000000000000000000000000000000000000000000000000815260040180806020018281038252600c8152602001807f47726f757073206578697374000000000000000000000000000000000000000081525060200191505060405180910390fd5b600173__GroupSelection________________________63a4b15bac90916040518263ffffffff1660e01b81526004018082815260200191505060006040518083038186803b1580156133a157600080fd5b505af41580156133b5573d6000803e3d6000fd5b5050505060196133d46001601980549050614e5390919063ffffffff16565b815481106133de57fe5b9060005260206000200160009054906101000a900473ffffffffffffffffffffffffffffffffffffffff16602760006101000a81548173ffffffffffffffffffffffffffffffffffffffff021916908373ffffffffffffffffffffffffffffffffffffffff1602179055506134737f4574c8c75d6e88acd28f7e467dac97b5c60c3838d9dad993900bdf402152228e34614e9d565b565b6001600080828254019250508190555060008054905061349361256e565b613505576040517f08c379a00000000000000000000000000000000000000000000000000000000081526004018080602001828103825260138152602001807f456e74727920776173207375626d69747465640000000000000000000000000081525060200191505060405180910390fd5b61350d6146bc565b15613580576040517f08c379a000000000000000000000000000000000000000000000000000000000815260040180806020018281038252600f8152602001807f456e7472792074696d6564206f7574000000000000000000000000000000000081525060200191505060405180910390fd5b6060613598602a54600b6151a290919063ffffffff16565b905073__BLS___________________________________63de8f50a182602b866040518463ffffffff1660e01b815260040180806020018060200180602001848103845287818151815260200191508051906020019080838360005b8381101561360f5780820151818401526020810190506135f4565b50505050905090810190601f16801561363c5780820380516001836020036101000a031916815260200191505b508481038352868181546001816001161561010002031660029004815260200191508054600181600116156101000203166002900480156136be5780601f10613693576101008083540402835291602001916136be565b820191906000526020600020905b8154815290600101906020018083116136a157829003601f168201915b5050848103825285818151815260200191508051906020019080838360005b838110156136f85780820151818401526020810190506136dd565b50505050905090810190601f1680156137255780820380516001836020036101000a031916815260200191505b50965050505050505060206040518083038186803b15801561374657600080fd5b505af415801561375a573d6000803e3d6000fd5b505050506040513d602081101561377057600080fd5b81019080805190602001909291905050506137f3576040517f08c379a00000000000000000000000000000000000000000000000000000000081526004018080602001828103825260118152602001807f496e76616c6964207369676e617475726500000000000000000000000000000081525060200191505060405180910390fd5b7f8711cae111460cf9bde0d890f0dc09abcb8851e39bf020f406e53e86394cdbd760405160405180910390a1602e60009054906101000a900473ffffffffffffffffffffffffffffffffffffffff1673ffffffffffffffffffffffffffffffffffffffff1661386f619c40602554614dcb90919063ffffffff16565b602854853360405160240180848152602001806020018373ffffffffffffffffffffffffffffffffffffffff1673ffffffffffffffffffffffffffffffffffffffff168152602001828103825284818151815260200191508051906020019080838360005b838110156138ef5780820151818401526020810190506138d4565b50505050905090810190601f16801561391c5780820380516001836020036101000a031916815260200191505b509450505050506040516020818303038152906040527fef7284e3000000000000000000000000000000000000000000000000000000007bffffffffffffffffffffffffffffffffffffffffffffffffffffffff19166020820180517bffffffffffffffffffffffffffffffffffffffffffffffffffffffff83818316178352505050506040518082805190602001908083835b602083106139d357805182526020820191506020810190506020830392506139b0565b6001836020036101000a03801982511681845116808217855250505050505090500191505060006040518083038160008787f1925050503d8060008114613a36576040519150601f19603f3d011682016040523d82523d6000602084013e613a3b565b606091505b5050506000602d541115613a5d57613a5c838051906020012060001c615265565b5b6000806000613a6a6156e6565b925092509250613a868484600b6158a39092919063ffffffff16565b601b60009054906101000a900473ffffffffffffffffffffffffffffffffffffffff1673ffffffffffffffffffffffffffffffffffffffff1663ba7bffd3336040518263ffffffff1660e01b8152600401808273ffffffffffffffffffffffffffffffffffffffff1673ffffffffffffffffffffffffffffffffffffffff16815260200191505060206040518083038186803b158015613b2557600080fd5b505afa158015613b39573d6000803e3d6000fd5b505050506040513d6020811015613b4f57600080fd5b810190808051906020019092919050505073ffffffffffffffffffffffffffffffffffffffff168260405180600001905060006040518083038185875af1925050503d8060008114613bbd576040519150601f19603f3d011682016040523d82523d6000602084013e613bc2565b606091505b5050506000811115613d2d57602e60009054906101000a900473ffffffffffffffffffffffffffffffffffffffff1673ffffffffffffffffffffffffffffffffffffffff166188b8826040516024016040516020818303038152906040527f11e816ee000000000000000000000000000000000000000000000000000000007bffffffffffffffffffffffffffffffffffffffffffffffffffffffff19166020820180517bffffffffffffffffffffffffffffffffffffffffffffffffffffffff83818316178352505050506040518082805190602001908083835b60208310613cc15780518252602082019150602081019050602083039250613c9e565b6001836020036101000a038019825116818451168082178552505050505050905001915050600060405180830381858888f193505050503d8060008114613d24576040519150601f19603f3d011682016040523d82523d6000602084013e613d29565b606091505b5050505b6000602981905550505050506000548114613db0576040517f08c379a000000000000000000000000000000000000000000000000000000000815260040180806020018281038252601f8152602001807f5265656e7472616e637947756172643a207265656e7472616e742063616c6c0081525060200191505060405180910390fd5b5050565b60265481565b60225481565b6000613dcc600b615995565b905090565b6000613dfe601e54613df0602554602454614dcb90919063ffffffff16565b61499d90919063ffffffff16565b905090565b6000613e1c601f54601d5461499d90919063ffffffff16565b905090565b601c60009054906101000a900473ffffffffffffffffffffffffffffffffffffffff1673ffffffffffffffffffffffffffffffffffffffff1663fe173b976040518163ffffffff1660e01b815260040160206040518083038186803b158015613e8957600080fd5b505afa158015613e9d573d6000803e3d6000fd5b505050506040513d6020811015613eb357600080fd5b8101908080519060200190929190505050601e81905550565b613f65336019805480602002602001604051908101604052809291908181526020018280548015613f5257602002820191906000526020600020905b8160009054906101000a900473ffffffffffffffffffffffffffffffffffffffff1673ffffffffffffffffffffffffffffffffffffffff1681526020019060010190808311613f08575b5050505050614d5090919063ffffffff16565b613fd7576040517f08c379a00000000000000000000000000000000000000000000000000000000081526004018080602001828103825260208152602001807f43616c6c6572206973206e6f742061207365727669636520636f6e747261637481525060200191505060405180910390fd5b6000613ff0601e5460255461499d90919063ffffffff16565b905033602760006101000a81548173ffffffffffffffffffffffffffffffffffffffff021916908373ffffffffffffffffffffffffffffffffffffffff16021790555061404f8361404a8334614e5390919063ffffffff16565b614e9d565b6000601b60009054906101000a900473ffffffffffffffffffffffffffffffffffffffff1673ffffffffffffffffffffffffffffffffffffffff1663ba7bffd3846040518263ffffffff1660e01b8152600401808273ffffffffffffffffffffffffffffffffffffffff1673ffffffffffffffffffffffffffffffffffffffff16815260200191505060206040518083038186803b1580156140f057600080fd5b505afa158015614104573d6000803e3d6000fd5b505050506040513d602081101561411a57600080fd5b810190808051906020019092919050505073ffffffffffffffffffffffffffffffffffffffff168260405180600001905060006040518083038185875af1925050503d8060008114614188576040519150601f19603f3d011682016040523d82523d6000602084013e61418d565b606091505b50509050806141e7576040517f08c379a0000000000000000000000000000000000000000000000000000000008152600401808060200182810382526024815260200180615c526024913960400191505060405180910390fd5b50505050565b6000600160030154905090565b6060600b73__Groups________________________________63dc2627039091846040518363ffffffff1660e01b81526004018083815260200180602001828103825283818151815260200191508051906020019080838360005b83811015614270578082015181840152602081019050614255565b50505050905090810190601f16801561429d5780820380516001836020036101000a031916815260200191505b50935050505060006040518083038186803b1580156142bb57600080fd5b505af41580156142cf573d6000803e3d6000fd5b505050506040513d6000823e3d601f19601f8201168201806040525060208110156142f957600080fd5b810190808051604051939291908464010000000082111561431957600080fd5b8382019150602082018581111561432f57600080fd5b825186602082028301116401000000008211171561434c57600080fd5b8083526020830192505050908051906020019060200280838360005b83811015614383578082015181840152602081019050614368565b505050509050016040525050509050919050565b601e5481565b600b73__Groups________________________________6320bc286690918484601b60009054906101000a900473ffffffffffffffffffffffffffffffffffffffff1673ffffffffffffffffffffffffffffffffffffffff1663ec5ffac26040518163ffffffff1660e01b815260040160206040518083038186803b15801561442557600080fd5b505afa158015614439573d6000803e3d6000fd5b505050506040513d602081101561444f57600080fd5b81019080805190602001909291905050506040518563ffffffff1660e01b81526004018085815260200184815260200180602001838152602001828103825284818151815260200191508051906020019080838360005b838110156144c15780820151818401526020810190506144a6565b50505050905090810190601f1680156144ee5780820380516001836020036101000a031916815260200191505b509550505050505060006040518083038186803b15801561450e57600080fd5b505af4158015614522573d6000803e3d6000fd5b50505050817f6124f28ae7240a98a8ad3410bcd1f3bb0a113fc9834d5bd16426f9e1bd698fde60405160405180910390a25050565b6000600b60080154905090565b6060600b600301828154811061457657fe5b90600052602060002090600302016000018054600181600116156101000203166002900480601f01602080910402602001604051908101604052809291908181526020018280546001816001161561010002031660029004801561461b5780601f106145f05761010080835404028352916020019161461b565b820191906000526020600020905b8154815290600101906020018083116145fe57829003601f168201915b50505050509050919050565b6000600b60030180549050905090565b6000601560000154905090565b60008083600201836040518082805190602001908083835b6020831061467f578051825260208201915060208101905060208303925061465c565b6001836020036101000a03801982511681845116808217855250505050505090500191505090815260200160405180910390205411905092915050565b600080602954141580156146d557506022546029540143115b905090565b6146e261256e565b15614755576040517f08c379a000000000000000000000000000000000000000000000000000000000815260040180806020018281038252600e8152602001807f426561636f6e206973206275737900000000000000000000000000000000000081525060200191505060405180910390fd5b6000600b73__Groups________________________________6337ed6ace9091878051906020012060001c6040518363ffffffff1660e01b8152600401808381526020018281526020019250505060206040518083038186803b1580156147bb57600080fd5b505af41580156147cf573d6000803e3d6000fd5b505050506040513d60208110156147e557600080fd5b81019080805190602001909291905050509050856028819055504360298190555082602c8190555081602d8190555080602a8190555084602b9080519060200190614831929190615b8b565b5083602e60006101000a81548173ffffffffffffffffffffffffffffffffffffffff021916908373ffffffffffffffffffffffffffffffffffffffff160217905550606061488982600b6151a290919063ffffffff16565b90507ff3a8bf09e4f9146a48f9b91226985ac8d83d971beb4fc9ffdc569790e85a97e48682604051808060200180602001838103835285818151815260200191508051906020019080838360005b838110156148f25780820151818401526020810190506148d7565b50505050905090810190601f16801561491f5780820380516001836020036101000a031916815260200191505b50838103825284818151815260200191508051906020019080838360005b8381101561495857808201518184015260208101905061493d565b50505050905090810190601f1680156149855780820380516001836020036101000a031916815260200191505b5094505050505060405180910390a150505050505050565b6000808314156149b05760009050614a1d565b60008284029050828482816149c157fe5b0414614a18576040517f08c379a0000000000000000000000000000000000000000000000000000000008152600401808060200182810382526021815260200180615c316021913960400191505060405180910390fd5b809150505b92915050565b6000601e54905060003a118015614a3b5750601e543a105b15614a44573a90505b6000614a5b8260245461499d90919063ffffffff16565b90506000601b60009054906101000a900473ffffffffffffffffffffffffffffffffffffffff1673ffffffffffffffffffffffffffffffffffffffff1663ba7bffd3336040518263ffffffff1660e01b8152600401808273ffffffffffffffffffffffffffffffffffffffff1673ffffffffffffffffffffffffffffffffffffffff16815260200191505060206040518083038186803b158015614afe57600080fd5b505afa158015614b12573d6000803e3d6000fd5b505050506040513d6020811015614b2857600080fd5b81019080805190602001909291905050509050602654821015614c55576000614b5c83602654614e5390919063ffffffff16565b905060006026819055508173ffffffffffffffffffffffffffffffffffffffff168360405180600001905060006040518083038185875af1925050503d8060008114614bc4576040519150601f19603f3d011682016040523d82523d6000602084013e614bc9565b606091505b505050602760009054906101000a900473ffffffffffffffffffffffffffffffffffffffff1673ffffffffffffffffffffffffffffffffffffffff16634611b648826040518263ffffffff1660e01b81526004016000604051808303818588803b158015614c3657600080fd5b505af1158015614c4a573d6000803e3d6000fd5b505050505050614cc9565b602654915060006026819055508073ffffffffffffffffffffffffffffffffffffffff168260405180600001905060006040518083038185875af1925050503d8060008114614cc0576040519150601f19603f3d011682016040523d82523d6000602084013e614cc5565b606091505b5050505b505050565b6000826003018281548110614cdf57fe5b906000526020600020906003020160020160009054906101000a900460ff16905092915050565b6000614d4883836040518060400160405280601a81526020017f536166654d6174683a206469766973696f6e206279207a65726f0000000000008152506159d5565b905092915050565b600080600090505b8351811015614dbf57838181518110614d6d57fe5b602002602001015173ffffffffffffffffffffffffffffffffffffffff168373ffffffffffffffffffffffffffffffffffffffff161415614db2576001915050614dc5565b8080600101915050614d58565b50600090505b92915050565b600080828401905083811015614e49576040517f08c379a000000000000000000000000000000000000000000000000000000000815260040180806020018281038252601b8152602001807f536166654d6174683a206164646974696f6e206f766572666c6f77000000000081525060200191505060405180910390fd5b8091505092915050565b6000614e9583836040518060400160405280601e81526020017f536166654d6174683a207375627472616374696f6e206f766572666c6f770000815250615a9b565b905092915050565b614eb4602454601e5461499d90919063ffffffff16565b811015614f29576040517f08c379a00000000000000000000000000000000000000000000000000000000081526004018080602001828103825260148152602001807f496e73756666696369656e7420444b472066656500000000000000000000000081525060200191505060405180910390fd5b614f31611ad5565b614fa3576040517f08c379a000000000000000000000000000000000000000000000000000000000815260040180806020018281038252601b8152602001807f47726f75702073656c656374696f6e20696e2070726f6772657373000000000081525060200191505060405180910390fd5b6000602654111561504257600060265490506000602681905550602760009054906101000a900473ffffffffffffffffffffffffffffffffffffffff1673ffffffffffffffffffffffffffffffffffffffff16634611b648826040518263ffffffff1660e01b81526004016000604051808303818588803b15801561502757600080fd5b505af115801561503b573d6000803e3d6000fd5b5050505050505b601b60009054906101000a900473ffffffffffffffffffffffffffffffffffffffff1673ffffffffffffffffffffffffffffffffffffffff1663ec5ffac26040518163ffffffff1660e01b815260040160206040518083038186803b1580156150aa57600080fd5b505afa1580156150be573d6000803e3d6000fd5b505050506040513d60208110156150d457600080fd5b8101908080519060200190929190505050600160060181905550600173__GroupSelection________________________6352f9b3b99091846040518363ffffffff1660e01b8152600401808381526020018281526020019250505060006040518083038186803b15801561514857600080fd5b505af415801561515c573d6000803e3d6000fd5b505050507f0769b89b6dbd96af3cdebccc7b68ce1e4ae748abc3e6b19a73b8b58460c57a94826040518082815260200191505060405180910390a1806026819055505050565b60608260030182815481106151b357fe5b90600052602060002090600302016000018054600181600116156101000203166002900480601f0160208091040260200160405190810160405280929190818152602001828054600181600116156101000203166002900480156152585780601f1061522d57610100808354040283529160200191615258565b820191906000526020600020905b81548152906001019060200180831161523b57829003601f168201915b5050505050905092915050565b600061527e601e54602d54614d0690919063ffffffff16565b9050621e848081116152905780615295565b621e84805b90506060602e60009054906101000a900473ffffffffffffffffffffffffffffffffffffffff1673ffffffffffffffffffffffffffffffffffffffff16619c40602854604051602401808281526020019150506040516020818303038152906040527f0fda9ce4000000000000000000000000000000000000000000000000000000007bffffffffffffffffffffffffffffffffffffffffffffffffffffffff19166020820180517bffffffffffffffffffffffffffffffffffffffffffffffffffffffff83818316178352505050506040518082805190602001908083835b602083106153985780518252602082019150602081019050602083039250615375565b6001836020036101000a03801982511681845116808217855250505050505090500191505060006040518083038160008787f1925050503d80600081146153fb576040519150601f19603f3d011682016040523d82523d6000602084013e615400565b606091505b5090508091505060005a9050602e60009054906101000a900473ffffffffffffffffffffffffffffffffffffffff1673ffffffffffffffffffffffffffffffffffffffff16836028548660405160240180838152602001828152602001925050506040516020818303038152906040527ffc3fcec7000000000000000000000000000000000000000000000000000000007bffffffffffffffffffffffffffffffffffffffffffffffffffffffff19166020820180517bffffffffffffffffffffffffffffffffffffffffffffffffffffffff83818316178352505050506040518082805190602001908083835b6020831061551157805182526020820191506020810190506020830392506154ee565b6001836020036101000a03801982511681845116808217855250505050505090500191505060006040518083038160008787f1925050503d8060008114615574576040519150601f19603f3d011682016040523d82523d6000602084013e615579565b606091505b50505060005a905060006155968284614e5390919063ffffffff16565b905073__Reimbursements________________________6346a50089601b60009054906101000a900473ffffffffffffffffffffffffffffffffffffffff16601e548885602d548a6040518763ffffffff1660e01b8152600401808773ffffffffffffffffffffffffffffffffffffffff1673ffffffffffffffffffffffffffffffffffffffff16815260200186815260200185815260200184815260200183815260200180602001828103825283818151815260200191508051906020019080838360005b8381101561567757808201518184015260208101905061565c565b50505050905090810190601f1680156156a45780820380516001836020036101000a031916815260200191505b5097505050505050505060006040518083038186803b1580156156c657600080fd5b505af41580156156da573d6000803e3d6000fd5b50505050505050505050565b600080600080662386f26fc100009050600073__DelayFactor___________________________638dfa43636029546022546040518363ffffffff1660e01b8152600401808381526020018281526020019250505060206040518083038186803b15801561575357600080fd5b505af4158015615767573d6000803e3d6000fd5b505050506040513d602081101561577d57600080fd5b810190808051906020019092919050505090506157b7826157a983601d5461499d90919063ffffffff16565b614d0690919063ffffffff16565b945060006157e26157d18385614e5390919063ffffffff16565b601d5461499d90919063ffffffff16565b90506000615820846158126005615804601f548761499d90919063ffffffff16565b615b5b90919063ffffffff16565b614d0690919063ffffffff16565b9050600061584061582f613e03565b602c54614e5390919063ffffffff16565b90506158558282614dcb90919063ffffffff16565b965061589782615889615873601f548c61499d90919063ffffffff16565b61587b613e03565b614e5390919063ffffffff16565b614e5390919063ffffffff16565b95505050505050909192565b6159218184600601846040518082805190602001908083835b602083106158df57805182526020820191506020810190506020830392506158bc565b6001836020036101000a038019825116818451168082178552505050505050905001915050908152602001604051809103902054614dcb90919063ffffffff16565b83600601836040518082805190602001908083835b602083106159595780518252602082019150602081019050602083039250615936565b6001836020036101000a038019825116818451168082178552505050505050905001915050908152602001604051809103902081905550505050565b60006159ce82600401805490506159c084600801548560030180549050614e5390919063ffffffff16565b614e5390919063ffffffff16565b9050919050565b60008083118290615a81576040517f08c379a00000000000000000000000000000000000000000000000000000000081526004018080602001828103825283818151815260200191508051906020019080838360005b83811015615a46578082015181840152602081019050615a2b565b50505050905090810190601f168015615a735780820380516001836020036101000a031916815260200191505b509250505060405180910390fd5b506000838581615a8d57fe5b049050809150509392505050565b6000838311158290615b48576040517f08c379a00000000000000000000000000000000000000000000000000000000081526004018080602001828103825283818151815260200191508051906020019080838360005b83811015615b0d578082015181840152602081019050615af2565b50505050905090810190601f168015615b3a5780820380516001836020036101000a031916815260200191505b509250505060405180910390fd5b5060008385039050809150509392505050565b6000615b836064615b75848661499d90919063ffffffff16565b614d0690919063ffffffff16565b905092915050565b828054600181600116156101000203166002900490600052602060002090601f016020900481019282601f10615bcc57805160ff1916838001178555615bfa565b82800160010185558215615bfa579182015b82811115615bf9578251825591602001919060010190615bde565b5b509050615c079190615c0b565b5090565b615c2d91905b80821115615c29576000816000905550600101615c11565b5090565b9056fe536166654d6174683a206d756c7469706c69636174696f6e206f766572666c6f7747726f75702073656c656374696f6e207265696d62757273656d656e74206661696c6564a265627a7a7231582071fc1140b9dbdf3c8201d25ce216f150bf990d39e0f230ff7915f299c747ac4164736f6c63430005110032536166654d6174683a206d756c7469706c69636174696f6e206f766572666c6f77",
  "source": "pragma solidity 0.5.17;\n\nimport \"../KeepRandomBeaconOperator.sol\";\n\n/**\n * @title KeepRandomBeaconOperatorStub\n * @dev A simplified Random Beacon operator contract to help local development.\n */\ncontract KeepRandomBeaconOperatorStub is KeepRandomBeaconOperator {\n    constructor(\n        address _serviceContract,\n        address _stakingContract,\n        address _registryContract,\n        address _gasPriceOracle\n    )\n        public\n        KeepRandomBeaconOperator(\n            _serviceContract,\n            _stakingContract,\n            _registryContract,\n            _gasPriceOracle\n        )\n    {\n        relayEntryTimeout = 10;\n        groupSelection.ticketSubmissionTimeout = 69;\n        resultPublicationBlockStep = 3;\n    }\n\n    function registerNewGroup(bytes memory groupPublicKey) public {\n        groups.addGroup(groupPublicKey);\n    }\n\n    function setGroupMembers(\n        bytes memory groupPublicKey,\n        address[] memory members\n    ) public {\n        groups.setGroupMembers(groupPublicKey, members, hex\"\");\n    }\n\n    function getGroupSelectionRelayEntry() public view returns (uint256) {\n        return groupSelection.seed;\n    }\n\n    function getTicketSubmissionStartBlock() public view returns (uint256) {\n        return groupSelection.ticketSubmissionStartBlock;\n    }\n\n    function getGroupPublicKey(uint256 groupIndex)\n        public\n        view\n        returns (bytes memory)\n    {\n        return groups.groups[groupIndex].groupPubKey;\n    }\n\n    function timeDKG() public view returns (uint256) {\n        return dkgResultVerification.timeDKG;\n    }\n}\n",
  "sourcePath": "/home/runner/work/keep-core/keep-core/solidity-v1/contracts/stubs/KeepRandomBeaconOperatorStub.sol",
  "compiler": {
    "name": "solc",
    "version": "0.5.17+commit.d19bba13.Emscripten.clang"
  },
  "schemaVersion": "3.3.4",
  "updatedAt": "2021-11-26T17:03:20.383Z",
  "devdoc": {
    "details": "A simplified Random Beacon operator contract to help local development.",
    "methods": {
      "addServiceContract(address)": {
        "params": {
          "serviceContract": "Address of the service contract."
        }
      },
      "createGroup(uint256,address)": {
        "params": {
          "_newEntry": "New random beacon value that stakers will use to generate their tickets.",
          "submitter": "Operator of this contract."
        }
      },
      "hasMinimumStake(address)": {
        "params": {
          "staker": "Staker's address"
        },
        "return": "True if has enough active stake to participate in the network, false otherwise."
      },
      "numberOfGroups()": {
        "details": "Even if numberOfGroups() > 0, it is still possible requesting for a new relay entry will revert with \"no active groups\" failure message. This function returns the number of active groups as they are currently marked on-chain. However, during relay request, before group selection, we run group expiration and it may happen that some groups seen as active turns out to be expired."
      },
      "relayEntry(bytes)": {
        "params": {
          "_groupSignature": "Group BLS signature over the concatenation of the previous entry and seed."
        }
      },
      "sign(uint256,bytes)": {
        "params": {
          "previousEntry": "Previous relay entry",
          "requestId": "Request Id trackable by service contract"
        }
      },
      "submitDkgResult(uint256,bytes,bytes,bytes,uint256[])": {
        "params": {
          "groupPubKey": "Generated candidate group public key",
          "misbehaved": "Bytes array of misbehaved (disqualified or inactive) group members indexes in ascending order; Indexes reflect positions of members in the group as outputted by the group selection protocol.",
          "signatures": "Concatenation of signatures from members supporting the result.",
          "signingMembersIndexes": "Indices of members corresponding to each signature.",
          "submitterMemberIndex": "Claimed submitter candidate group member index"
        }
      },
      "submitTicket(bytes32)": {
        "params": {
          "ticket": "Bytes representation of a ticket that holds the following: - ticketValue: first 8 bytes of a result of keccak256 cryptography hash   function on the combination of the group selection seed (previous   beacon output), staker-specific value (address) and virtual staker index. - stakerValue: a staker-specific value which is the address of the staker. - virtualStakerIndex: 4-bytes number within a range of 1 to staker's weight;   has to be unique for all tickets submitted by the given staker for the   current candidate group selection."
        }
      },
      "withdrawGroupMemberRewards(address,uint256)": {
        "params": {
          "groupIndex": "Group index",
          "operator": "Operator address"
        }
      }
    },
    "title": "KeepRandomBeaconOperatorStub"
  },
  "userdoc": {
    "methods": {
      "addServiceContract(address)": {
        "notice": "Adds service contract"
      },
      "createGroup(uint256,address)": {
        "notice": "Triggers the selection process of a new candidate group."
      },
      "entryVerificationFee()": {
        "notice": "Returns fee for entry verification in wei. Does not include group profit fee, DKG contribution or callback fee."
      },
      "genesis()": {
        "notice": "Triggers group selection if there are no active groups."
      },
      "getFirstActiveGroupIndex()": {
        "notice": "Gets the index of the first active group."
      },
      "getGroupMemberRewards(bytes)": {
        "notice": "Returns accumulated group member rewards for provided group."
      },
      "getGroupMembers(bytes)": {
        "notice": "Returns members of the given group by group public key."
      },
      "groupCreationFee()": {
        "notice": "Returns fee for group creation in wei. Includes the cost of DKG and the cost of triggering group selection."
      },
      "groupProfitFee()": {
        "notice": "Gets group profit fee expressed in wei."
      },
      "hasMinimumStake(address)": {
        "notice": "Checks if the specified account has enough active stake to become network operator and that this contract has been authorized for potential slashing.     /// Having the required minimum of active stake makes the operator eligible to join the network. If the active stake is not currently undelegating, operator is also eligible for work selection. "
      },
      "hasWithdrawnRewards(address,uint256)": {
        "notice": "Return whether the given operator has withdrawn their rewards from the given group."
      },
      "isEntryInProgress()": {
        "notice": "Returns true if generation of a new relay entry is currently in progress."
      },
      "isGroupRegistered(bytes)": {
        "notice": "Checks if group with the given public key is registered."
      },
      "isGroupSelectionPossible()": {
        "notice": "Checks if it is possible to fire a new group selection. Triggering new group selection is only possible when there is no pending group selection or when the pending group selection timed out."
      },
      "isStaleGroup(bytes)": {
        "notice": "Checks if a group with the given public key is a stale group. Stale group is an expired group which is no longer performing any operations. It is important to understand that an expired group may still perform some operations for which it was selected when it was still active. We consider a group to be stale when it's expired and when its expiration time and potentially executed operation timeout are both in the past."
      },
      "numberOfGroups()": {
        "notice": "Gets the number of active groups as currently marked in the contract. This is the state from when the expired groups were last updated without accounting for recent expirations. "
      },
      "refreshGasPrice()": {
        "notice": "Pulls the most recent gas price from gas price oracle."
      },
      "relayEntry(bytes)": {
        "notice": "Creates a new relay entry and stores the associated data on the chain."
      },
      "reportRelayEntryTimeout()": {
        "notice": "Function used to inform about the fact the currently ongoing new relay entry generation operation timed out. As a result, the group which was supposed to produce a new relay entry is immediately terminated and a new group is selected to produce a new relay entry. All members of the group are punished by seizing minimum stake of their tokens. The submitter of the transaction is rewarded with a tattletale reward which is limited to min(1, 20 / group_size) of the maximum tattletale reward."
      },
      "reportUnauthorizedSigning(uint256,bytes)": {
        "notice": "Reports unauthorized signing for the provided group. Must provide a valid signature of the tattletale address as a message. Successful signature verification means the private key has been leaked and all group members should be punished by seizingtheir tokens. The submitter of this proof is rewarded with 5% of the total seized amount scaled by the reward adjustment parameter and the rest 95% is burned."
      },
      "selectedParticipants()": {
        "notice": "Gets selected participants in ascending order of their tickets."
      },
      "sign(uint256,bytes)": {
        "notice": "Creates a request to generate a new relay entry, which will include a random number (by signing the previous entry's random number)."
      },
      "submitDkgResult(uint256,bytes,bytes,bytes,uint256[])": {
        "notice": "Submits result of DKG protocol. It is on-chain part of phase 14 of the protocol."
      },
      "submitTicket(bytes32)": {
        "notice": "Submits ticket to request to participate in a new candidate group."
      },
      "submittedTickets()": {
        "notice": "Gets the submitted group candidate tickets so far."
      },
      "ticketSubmissionTimeout()": {
        "notice": "Gets the timeout in blocks after which group candidate ticket submission is finished."
      },
      "withdrawGroupMemberRewards(address,uint256)": {
        "notice": "Withdraws accumulated group member rewards for operator using the provided group index. Once the accumulated reward is withdrawn from the selected group, the operator is flagged as withdrawn. Rewards can be withdrawn only from stale group."
      }
    }
  }
}