{
  "contractName": "KeepTokenGeyser",
  "abi": [
    {
      "inputs": [
        {
          "internalType": "contract IERC20",
          "name": "_stakingToken",
          "type": "address"
        },
        {
          "internalType": "contract KeepToken",
          "name": "_distributionToken",
          "type": "address"
        },
        {
          "internalType": "uint256",
          "name": "_maxUnlockSchedules",
          "type": "uint256"
        },
        {
          "internalType": "uint256",
          "name": "_startBonus",
          "type": "uint256"
        },
        {
          "internalType": "uint256",
          "name": "_bonusPeriodSec",
          "type": "uint256"
        },
        {
          "internalType": "uint256",
          "name": "_initialSharesPerToken",
          "type": "uint256"
        },
        {
          "internalType": "uint256",
          "name": "_durationSec",
          "type": "uint256"
        }
      ],
      "payable": false,
      "stateMutability": "nonpayable",
      "type": "constructor"
    },
    {
      "anonymous": false,
      "inputs": [
        {
          "indexed": false,
          "internalType": "uint256",
          "name": "oldDurationSec",
          "type": "uint256"
        },
        {
          "indexed": false,
          "internalType": "uint256",
          "name": "newDurationSec",
          "type": "uint256"
        }
      ],
      "name": "DurationSecUpdated",
      "type": "event"
    },
    {
      "anonymous": false,
      "inputs": [
        {
          "indexed": true,
          "internalType": "address",
          "name": "previousOwner",
          "type": "address"
        },
        {
          "indexed": true,
          "internalType": "address",
          "name": "newOwner",
          "type": "address"
        }
      ],
      "name": "OwnershipTransferred",
      "type": "event"
    },
    {
      "anonymous": false,
      "inputs": [
        {
          "indexed": false,
          "internalType": "address",
          "name": "oldRewardDistribution",
          "type": "address"
        },
        {
          "indexed": false,
          "internalType": "address",
          "name": "newRewardDistribution",
          "type": "address"
        }
      ],
      "name": "RewardDistributionRoleTransferred",
      "type": "event"
    },
    {
      "anonymous": false,
      "inputs": [
        {
          "indexed": true,
          "internalType": "address",
          "name": "user",
          "type": "address"
        },
        {
          "indexed": false,
          "internalType": "uint256",
          "name": "amount",
          "type": "uint256"
        },
        {
          "indexed": false,
          "internalType": "uint256",
          "name": "total",
          "type": "uint256"
        },
        {
          "indexed": false,
          "internalType": "bytes",
          "name": "data",
          "type": "bytes"
        }
      ],
      "name": "Staked",
      "type": "event"
    },
    {
      "anonymous": false,
      "inputs": [
        {
          "indexed": true,
          "internalType": "address",
          "name": "user",
          "type": "address"
        },
        {
          "indexed": false,
          "internalType": "uint256",
          "name": "amount",
          "type": "uint256"
        }
      ],
      "name": "TokensClaimed",
      "type": "event"
    },
    {
      "anonymous": false,
      "inputs": [
        {
          "indexed": false,
          "internalType": "uint256",
          "name": "amount",
          "type": "uint256"
        },
        {
          "indexed": false,
          "internalType": "uint256",
          "name": "durationSec",
          "type": "uint256"
        },
        {
          "indexed": false,
          "internalType": "uint256",
          "name": "total",
          "type": "uint256"
        }
      ],
      "name": "TokensLocked",
      "type": "event"
    },
    {
      "anonymous": false,
      "inputs": [
        {
          "indexed": false,
          "internalType": "uint256",
          "name": "amount",
          "type": "uint256"
        },
        {
          "indexed": false,
          "internalType": "uint256",
          "name": "total",
          "type": "uint256"
        }
      ],
      "name": "TokensUnlocked",
      "type": "event"
    },
    {
      "anonymous": false,
      "inputs": [
        {
          "indexed": true,
          "internalType": "address",
          "name": "user",
          "type": "address"
        },
        {
          "indexed": false,
          "internalType": "uint256",
          "name": "amount",
          "type": "uint256"
        },
        {
          "indexed": false,
          "internalType": "uint256",
          "name": "total",
          "type": "uint256"
        },
        {
          "indexed": false,
          "internalType": "bytes",
          "name": "data",
          "type": "bytes"
        }
      ],
      "name": "Unstaked",
      "type": "event"
    },
    {
      "constant": true,
      "inputs": [],
      "name": "BONUS_DECIMALS",
      "outputs": [
        {
          "internalType": "uint256",
          "name": "",
          "type": "uint256"
        }
      ],
      "payable": false,
      "stateMutability": "view",
      "type": "function"
    },
    {
      "constant": true,
      "inputs": [],
      "name": "bonusPeriodSec",
      "outputs": [
        {
          "internalType": "uint256",
          "name": "",
          "type": "uint256"
        }
      ],
      "payable": false,
      "stateMutability": "view",
      "type": "function"
    },
    {
      "constant": true,
      "inputs": [],
      "name": "durationSec",
      "outputs": [
        {
          "internalType": "uint256",
          "name": "",
          "type": "uint256"
        }
      ],
      "payable": false,
      "stateMutability": "view",
      "type": "function"
    },
    {
      "constant": true,
      "inputs": [],
      "name": "getDistributionToken",
      "outputs": [
        {
          "internalType": "contract IERC20",
          "name": "",
          "type": "address"
        }
      ],
      "payable": false,
      "stateMutability": "view",
      "type": "function"
    },
    {
      "constant": true,
      "inputs": [],
      "name": "getStakingToken",
      "outputs": [
        {
          "internalType": "contract IERC20",
          "name": "",
          "type": "address"
        }
      ],
      "payable": false,
      "stateMutability": "view",
      "type": "function"
    },
    {
      "constant": true,
      "inputs": [],
      "name": "isOwner",
      "outputs": [
        {
          "internalType": "bool",
          "name": "",
          "type": "bool"
        }
      ],
      "payable": false,
      "stateMutability": "view",
      "type": "function"
    },
    {
      "constant": false,
      "inputs": [
        {
          "internalType": "uint256",
          "name": "amount",
          "type": "uint256"
        },
        {
          "internalType": "uint256",
          "name": "durationSec",
          "type": "uint256"
        }
      ],
      "name": "lockTokens",
      "outputs": [],
      "payable": false,
      "stateMutability": "nonpayable",
      "type": "function"
    },
    {
      "constant": true,
      "inputs": [],
      "name": "owner",
      "outputs": [
        {
          "internalType": "address",
          "name": "",
          "type": "address"
        }
      ],
      "payable": false,
      "stateMutability": "view",
      "type": "function"
    },
    {
      "constant": false,
      "inputs": [],
      "name": "renounceOwnership",
      "outputs": [],
      "payable": false,
      "stateMutability": "nonpayable",
      "type": "function"
    },
    {
      "constant": false,
      "inputs": [
        {
          "internalType": "address",
          "name": "tokenToRescue",
          "type": "address"
        },
        {
          "internalType": "address",
          "name": "to",
          "type": "address"
        },
        {
          "internalType": "uint256",
          "name": "amount",
          "type": "uint256"
        }
      ],
      "name": "rescueFundsFromStakingPool",
      "outputs": [
        {
          "internalType": "bool",
          "name": "",
          "type": "bool"
        }
      ],
      "payable": false,
      "stateMutability": "nonpayable",
      "type": "function"
    },
    {
      "constant": true,
      "inputs": [],
      "name": "rewardDistribution",
      "outputs": [
        {
          "internalType": "address",
          "name": "",
          "type": "address"
        }
      ],
      "payable": false,
      "stateMutability": "view",
      "type": "function"
    },
    {
      "constant": false,
      "inputs": [
        {
          "internalType": "address",
          "name": "newRewardDistribution",
          "type": "address"
        }
      ],
      "name": "setRewardDistribution",
      "outputs": [],
      "payable": false,
      "stateMutability": "nonpayable",
      "type": "function"
    },
    {
      "constant": false,
      "inputs": [
        {
          "internalType": "uint256",
          "name": "amount",
          "type": "uint256"
        },
        {
          "internalType": "bytes",
          "name": "data",
          "type": "bytes"
        }
      ],
      "name": "stake",
      "outputs": [],
      "payable": false,
      "stateMutability": "nonpayable",
      "type": "function"
    },
    {
      "constant": false,
      "inputs": [
        {
          "internalType": "address",
          "name": "user",
          "type": "address"
        },
        {
          "internalType": "uint256",
          "name": "amount",
          "type": "uint256"
        },
        {
          "internalType": "bytes",
          "name": "data",
          "type": "bytes"
        }
      ],
      "name": "stakeFor",
      "outputs": [],
      "payable": false,
      "stateMutability": "nonpayable",
      "type": "function"
    },
    {
      "constant": true,
      "inputs": [],
      "name": "startBonus",
      "outputs": [
        {
          "internalType": "uint256",
          "name": "",
          "type": "uint256"
        }
      ],
      "payable": false,
      "stateMutability": "view",
      "type": "function"
    },
    {
      "constant": true,
      "inputs": [],
      "name": "supportsHistory",
      "outputs": [
        {
          "internalType": "bool",
          "name": "",
          "type": "bool"
        }
      ],
      "payable": false,
      "stateMutability": "pure",
      "type": "function"
    },
    {
      "constant": true,
      "inputs": [],
      "name": "token",
      "outputs": [
        {
          "internalType": "address",
          "name": "",
          "type": "address"
        }
      ],
      "payable": false,
      "stateMutability": "view",
      "type": "function"
    },
    {
      "constant": true,
      "inputs": [],
      "name": "totalLocked",
      "outputs": [
        {
          "internalType": "uint256",
          "name": "",
          "type": "uint256"
        }
      ],
      "payable": false,
      "stateMutability": "view",
      "type": "function"
    },
    {
      "constant": true,
      "inputs": [],
      "name": "totalLockedShares",
      "outputs": [
        {
          "internalType": "uint256",
          "name": "",
          "type": "uint256"
        }
      ],
      "payable": false,
      "stateMutability": "view",
      "type": "function"
    },
    {
      "constant": true,
      "inputs": [],
      "name": "totalStaked",
      "outputs": [
        {
          "internalType": "uint256",
          "name": "",
          "type": "uint256"
        }
      ],
      "payable": false,
      "stateMutability": "view",
      "type": "function"
    },
    {
      "constant": true,
      "inputs": [
        {
          "internalType": "address",
          "name": "addr",
          "type": "address"
        }
      ],
      "name": "totalStakedFor",
      "outputs": [
        {
          "internalType": "uint256",
          "name": "",
          "type": "uint256"
        }
      ],
      "payable": false,
      "stateMutability": "view",
      "type": "function"
    },
    {
      "constant": true,
      "inputs": [],
      "name": "totalStakingShares",
      "outputs": [
        {
          "internalType": "uint256",
          "name": "",
          "type": "uint256"
        }
      ],
      "payable": false,
      "stateMutability": "view",
      "type": "function"
    },
    {
      "constant": true,
      "inputs": [],
      "name": "totalUnlocked",
      "outputs": [
        {
          "internalType": "uint256",
          "name": "",
          "type": "uint256"
        }
      ],
      "payable": false,
      "stateMutability": "view",
      "type": "function"
    },
    {
      "constant": false,
      "inputs": [
        {
          "internalType": "address",
          "name": "newOwner",
          "type": "address"
        }
      ],
      "name": "transferOwnership",
      "outputs": [],
      "payable": false,
      "stateMutability": "nonpayable",
      "type": "function"
    },
    {
      "constant": true,
      "inputs": [],
      "name": "unlockScheduleCount",
      "outputs": [
        {
          "internalType": "uint256",
          "name": "",
          "type": "uint256"
        }
      ],
      "payable": false,
      "stateMutability": "view",
      "type": "function"
    },
    {
      "constant": true,
      "inputs": [
        {
          "internalType": "uint256",
          "name": "",
          "type": "uint256"
        }
      ],
      "name": "unlockSchedules",
      "outputs": [
        {
          "internalType": "uint256",
          "name": "initialLockedShares",
          "type": "uint256"
        },
        {
          "internalType": "uint256",
          "name": "unlockedShares",
          "type": "uint256"
        },
        {
          "internalType": "uint256",
          "name": "lastUnlockTimestampSec",
          "type": "uint256"
        },
        {
          "internalType": "uint256",
          "name": "endAtSec",
          "type": "uint256"
        },
        {
          "internalType": "uint256",
          "name": "durationSec",
          "type": "uint256"
        }
      ],
      "payable": false,
      "stateMutability": "view",
      "type": "function"
    },
    {
      "constant": false,
      "inputs": [],
      "name": "unlockTokens",
      "outputs": [
        {
          "internalType": "uint256",
          "name": "",
          "type": "uint256"
        }
      ],
      "payable": false,
      "stateMutability": "nonpayable",
      "type": "function"
    },
    {
      "constant": false,
      "inputs": [
        {
          "internalType": "uint256",
          "name": "amount",
          "type": "uint256"
        },
        {
          "internalType": "bytes",
          "name": "data",
          "type": "bytes"
        }
      ],
      "name": "unstake",
      "outputs": [],
      "payable": false,
      "stateMutability": "nonpayable",
      "type": "function"
    },
    {
      "constant": false,
      "inputs": [
        {
          "internalType": "uint256",
          "name": "amount",
          "type": "uint256"
        }
      ],
      "name": "unstakeQuery",
      "outputs": [
        {
          "internalType": "uint256",
          "name": "",
          "type": "uint256"
        }
      ],
      "payable": false,
      "stateMutability": "nonpayable",
      "type": "function"
    },
    {
      "constant": false,
      "inputs": [],
      "name": "updateAccounting",
      "outputs": [
        {
          "internalType": "uint256",
          "name": "",
          "type": "uint256"
        },
        {
          "internalType": "uint256",
          "name": "",
          "type": "uint256"
        },
        {
          "internalType": "uint256",
          "name": "",
          "type": "uint256"
        },
        {
          "internalType": "uint256",
          "name": "",
          "type": "uint256"
        },
        {
          "internalType": "uint256",
          "name": "",
          "type": "uint256"
        },
        {
          "internalType": "uint256",
          "name": "",
          "type": "uint256"
        }
      ],
      "payable": false,
      "stateMutability": "nonpayable",
      "type": "function"
    },
    {
      "constant": false,
      "inputs": [
        {
          "internalType": "address",
          "name": "_from",
          "type": "address"
        },
        {
          "internalType": "uint256",
          "name": "_value",
          "type": "uint256"
        },
        {
          "internalType": "address",
          "name": "_token",
          "type": "address"
        },
        {
          "internalType": "bytes",
          "name": "_extraData",
          "type": "bytes"
        }
      ],
      "name": "receiveApproval",
      "outputs": [],
      "payable": false,
      "stateMutability": "nonpayable",
      "type": "function"
    },
    {
      "constant": false,
      "inputs": [
        {
          "internalType": "uint256",
          "name": "_newDurationSec",
          "type": "uint256"
        }
      ],
      "name": "setDurationSec",
      "outputs": [],
      "payable": false,
      "stateMutability": "nonpayable",
      "type": "function"
    }
  ],
  "bytecode": "0x60806040526000600555600060065560006007556000600855600060095542600a556000600b556000600c553480156200003857600080fd5b5060405162004ada38038062004ada833981810160405260e08110156200005e57600080fd5b8101908080519060200190929190805190602001909291908051906020019092919080519060200190929190805190602001909291908051906020019092919080519060200190929190505050868686868686620000c16200050160201b60201c565b6000806101000a81548173ffffffffffffffffffffffffffffffffffffffff021916908373ffffffffffffffffffffffffffffffffffffffff1602179055506000809054906101000a900473ffffffffffffffffffffffffffffffffffffffff1673ffffffffffffffffffffffffffffffffffffffff16600073ffffffffffffffffffffffffffffffffffffffff167f8be0079c531659141344cd1fd0a4f28419497f9722a3daafe3b4186f6b6457e060405160405180910390a36002600a0a831115620001db576040517f08c379a000000000000000000000000000000000000000000000000000000000815260040180806020018281038252602181526020018062004a6e6021913960400191505060405180910390fd5b600082141562000237576040517f08c379a000000000000000000000000000000000000000000000000000000000815260040180806020018281038252602181526020018062004ab96021913960400191505060405180910390fd5b6000811162000292576040517f08c379a000000000000000000000000000000000000000000000000000000000815260040180806020018281038252602a81526020018062004a8f602a913960400191505060405180910390fd5b85604051620002a19062000532565b808273ffffffffffffffffffffffffffffffffffffffff1673ffffffffffffffffffffffffffffffffffffffff168152602001915050604051809103906000f080158015620002f4573d6000803e3d6000fd5b50600160006101000a81548173ffffffffffffffffffffffffffffffffffffffff021916908373ffffffffffffffffffffffffffffffffffffffff16021790555084604051620003449062000532565b808273ffffffffffffffffffffffffffffffffffffffff1673ffffffffffffffffffffffffffffffffffffffff168152602001915050604051809103906000f08015801562000397573d6000803e3d6000fd5b50600260006101000a81548173ffffffffffffffffffffffffffffffffffffffff021916908373ffffffffffffffffffffffffffffffffffffffff16021790555084604051620003e79062000532565b808273ffffffffffffffffffffffffffffffffffffffff1673ffffffffffffffffffffffffffffffffffffffff168152602001915050604051809103906000f0801580156200043a573d6000803e3d6000fd5b50600360006101000a81548173ffffffffffffffffffffffffffffffffffffffff021916908373ffffffffffffffffffffffffffffffffffffffff160217905550826005819055508160068190555083600b8190555080600c81905550620004a76200050960201b60201c565b600460006101000a81548173ffffffffffffffffffffffffffffffffffffffff021916908373ffffffffffffffffffffffffffffffffffffffff160217905550505050505050806010819055505050505050505062000540565b600033905090565b60008060009054906101000a900473ffffffffffffffffffffffffffffffffffffffff16905090565b610c828062003dec83390190565b61389c80620005506000396000f3fe608060405234801561001057600080fd5b50600436106101f05760003560e01c8063715018a61161010f5780638f4ffcb1116100a2578063c8fd6ed011610071578063c8fd6ed0146108e9578063f2fde38b1461096c578063f968f493146109b0578063fc0c546a146109ce576101f0565b80638f4ffcb1146107a05780639f9106d114610863578063a779d080146108ad578063c7ae2007146108cb576101f0565b806386805dd1116100de57806386805dd1146106ba57806389158d8e146106fc5780638da5cb5b146107345780638f32d59b1461077e576101f0565b8063715018a6146106565780637c6aa6f414610660578063817b1cd21461067e57806381c39bec1461069c576101f0565b8063494347e7116101875780635a72bbef116101565780635a72bbef146105325780635c94bcb2146105b85780637033e4a61461061657806370c6a17e14610638576101f0565b8063494347e71461045d5780634b341aed1461049e5780634c2a178a146104f65780635689141214610514576101f0565b8063101114cf116101c3578063101114cf1461038d5780631dc27fde146103d757806322c12b84146103f557806338b45fde1461043f576101f0565b80630611e1fd146101f55780630d68b761146102235780630e89439b146102675780630ef96356146102ea575b600080fd5b6102216004803603602081101561020b57600080fd5b8101908080359060200190929190505050610a18565b005b6102656004803603602081101561023957600080fd5b81019080803573ffffffffffffffffffffffffffffffffffffffff169060200190929190505050610b36565b005b6102e86004803603604081101561027d57600080fd5b8101908080359060200190929190803590602001906401000000008111156102a457600080fd5b8201836020820111156102b657600080fd5b803590602001918460018302840111640100000000831117156102d857600080fd5b9091929391929390505050610d33565b005b61038b6004803603606081101561030057600080fd5b81019080803573ffffffffffffffffffffffffffffffffffffffff169060200190929190803590602001909291908035906020019064010000000081111561034757600080fd5b82018360208201111561035957600080fd5b8035906020019184600183028401116401000000008311171561037b57600080fd5b9091929391929390505050610d43565b005b610395610dce565b604051808273ffffffffffffffffffffffffffffffffffffffff1673ffffffffffffffffffffffffffffffffffffffff16815260200191505060405180910390f35b6103df610df4565b6040518082815260200191505060405180910390f35b6103fd610df9565b604051808273ffffffffffffffffffffffffffffffffffffffff1673ffffffffffffffffffffffffffffffffffffffff16815260200191505060405180910390f35b61044761101c565b6040518082815260200191505060405180910390f35b610465611022565b60405180878152602001868152602001858152602001848152602001838152602001828152602001965050505050505060405180910390f35b6104e0600480360360208110156104b457600080fd5b81019080803573ffffffffffffffffffffffffffffffffffffffff169060200190929190505050611198565b6040518082815260200191505060405180910390f35b6104fe611222565b6040518082815260200191505060405180910390f35b61051c611228565b6040518082815260200191505060405180910390f35b61059e6004803603606081101561054857600080fd5b81019080803573ffffffffffffffffffffffffffffffffffffffff169060200190929190803573ffffffffffffffffffffffffffffffffffffffff169060200190929190803590602001909291905050506112d2565b604051808215151515815260200191505060405180910390f35b6105e4600480360360208110156105ce57600080fd5b810190808035906020019092919050505061146f565b604051808681526020018581526020018481526020018381526020018281526020019550505050505060405180910390f35b61061e6114b2565b604051808215151515815260200191505060405180910390f35b6106406114ba565b6040518082815260200191505060405180910390f35b61065e6114c0565b005b6106686115f9565b6040518082815260200191505060405180910390f35b6106866115ff565b6040518082815260200191505060405180910390f35b6106a46116a9565b6040518082815260200191505060405180910390f35b6106e6600480360360208110156106d057600080fd5b81019080803590602001909291905050506116af565b6040518082815260200191505060405180910390f35b6107326004803603604081101561071257600080fd5b8101908080359060200190929190803590602001909291905050506116c1565b005b61073c611b51565b604051808273ffffffffffffffffffffffffffffffffffffffff1673ffffffffffffffffffffffffffffffffffffffff16815260200191505060405180910390f35b610786611b7a565b604051808215151515815260200191505060405180910390f35b610861600480360360808110156107b657600080fd5b81019080803573ffffffffffffffffffffffffffffffffffffffff16906020019092919080359060200190929190803573ffffffffffffffffffffffffffffffffffffffff1690602001909291908035906020019064010000000081111561081d57600080fd5b82018360208201111561082f57600080fd5b8035906020019184600183028401116401000000008311171561085157600080fd5b9091929391929390505050611bd8565b005b61086b611c76565b604051808273ffffffffffffffffffffffffffffffffffffffff1673ffffffffffffffffffffffffffffffffffffffff16815260200191505060405180910390f35b6108b5611d20565b6040518082815260200191505060405180910390f35b6108d3611dca565b6040518082815260200191505060405180910390f35b61096a600480360360408110156108ff57600080fd5b81019080803590602001909291908035906020019064010000000081111561092657600080fd5b82018360208201111561093857600080fd5b8035906020019184600183028401116401000000008311171561095a57600080fd5b9091929391929390505050611dd7565b005b6109ae6004803603602081101561098257600080fd5b81019080803573ffffffffffffffffffffffffffffffffffffffff169060200190929190505050611de6565b005b6109b8611e6c565b6040518082815260200191505060405180910390f35b6109d66120ce565b604051808273ffffffffffffffffffffffffffffffffffffffff1673ffffffffffffffffffffffffffffffffffffffff16815260200191505060405180910390f35b610a20611b7a565b610a92576040517f08c379a00000000000000000000000000000000000000000000000000000000081526004018080602001828103825260208152602001807f4f776e61626c653a2063616c6c6572206973206e6f7420746865206f776e657281525060200191505060405180910390fd5b60008111610aeb576040517f08c379a00000000000000000000000000000000000000000000000000000000081526004018080602001828103825260288152602001806138106028913960400191505060405180910390fd5b7f0bbad1f9a9c966e9a1483fb95cafe4ce711c97e92885db3b08fec5da54de2d4760105482604051808381526020018281526020019250505060405180910390a18060108190555050565b610b3e611b7a565b610bb0576040517f08c379a00000000000000000000000000000000000000000000000000000000081526004018080602001828103825260208152602001807f4f776e61626c653a2063616c6c6572206973206e6f7420746865206f776e657281525060200191505060405180910390fd5b600073ffffffffffffffffffffffffffffffffffffffff168173ffffffffffffffffffffffffffffffffffffffff161415610c36576040517f08c379a000000000000000000000000000000000000000000000000000000000815260040180806020018281038252602b8152602001806137bc602b913960400191505060405180910390fd5b7f840b9fc77a9405c32398a96e7edbf3be477e284a1f66fe9482c82b359a4baf23600460009054906101000a900473ffffffffffffffffffffffffffffffffffffffff1682604051808373ffffffffffffffffffffffffffffffffffffffff1673ffffffffffffffffffffffffffffffffffffffff1681526020018273ffffffffffffffffffffffffffffffffffffffff1673ffffffffffffffffffffffffffffffffffffffff1681526020019250505060405180910390a180600460006101000a81548173ffffffffffffffffffffffffffffffffffffffff021916908373ffffffffffffffffffffffffffffffffffffffff16021790555050565b610d3e3333856120dd565b505050565b610d4b611b7a565b610dbd576040517f08c379a00000000000000000000000000000000000000000000000000000000081526004018080602001828103825260208152602001807f4f776e61626c653a2063616c6c6572206973206e6f7420746865206f776e657281525060200191505060405180910390fd5b610dc83385856120dd565b50505050565b600460009054906101000a900473ffffffffffffffffffffffffffffffffffffffff1681565b600281565b6000600360009054906101000a900473ffffffffffffffffffffffffffffffffffffffff1673ffffffffffffffffffffffffffffffffffffffff1663fc0c546a6040518163ffffffff1660e01b815260040160206040518083038186803b158015610e6357600080fd5b505afa158015610e77573d6000803e3d6000fd5b505050506040513d6020811015610e8d57600080fd5b810190808051906020019092919050505073ffffffffffffffffffffffffffffffffffffffff16600260009054906101000a900473ffffffffffffffffffffffffffffffffffffffff1673ffffffffffffffffffffffffffffffffffffffff1663fc0c546a6040518163ffffffff1660e01b815260040160206040518083038186803b158015610f1c57600080fd5b505afa158015610f30573d6000803e3d6000fd5b505050506040513d6020811015610f4657600080fd5b810190808051906020019092919050505073ffffffffffffffffffffffffffffffffffffffff1614610f7457fe5b600260009054906101000a900473ffffffffffffffffffffffffffffffffffffffff1673ffffffffffffffffffffffffffffffffffffffff1663fc0c546a6040518163ffffffff1660e01b815260040160206040518083038186803b158015610fdc57600080fd5b505afa158015610ff0573d6000803e3d6000fd5b505050506040513d602081101561100657600080fd5b8101908080519060200190929190505050905090565b60055481565b600080600080600080611033611e6c565b50600061105f600854611051600a544261269690919063ffffffff16565b6126e090919063ffffffff16565b90506110768160095461276690919063ffffffff16565b60098190555042600a819055506000600d60003373ffffffffffffffffffffffffffffffffffffffff1673ffffffffffffffffffffffffffffffffffffffff168152602001908152602001600020905060006110f582600001546110e784600201544261269690919063ffffffff16565b6126e090919063ffffffff16565b905061110e81836001015461276690919063ffffffff16565b826001018190555042826002018190555060008060095411611131576000611164565b6111636009546111558560010154611147611d20565b6126e090919063ffffffff16565b6127ee90919063ffffffff16565b5b905061116e611228565b611176611d20565b8460010154600954844299509950995099509950995050505050909192939495565b600080600854116111aa57600061121b565b61121a60085461120c600d60008673ffffffffffffffffffffffffffffffffffffffff1673ffffffffffffffffffffffffffffffffffffffff168152602001908152602001600020600001546111fe6115ff565b6126e090919063ffffffff16565b6127ee90919063ffffffff16565b5b9050919050565b60105481565b6000600360009054906101000a900473ffffffffffffffffffffffffffffffffffffffff1673ffffffffffffffffffffffffffffffffffffffff1663b69ef8a86040518163ffffffff1660e01b815260040160206040518083038186803b15801561129257600080fd5b505afa1580156112a6573d6000803e3d6000fd5b505050506040513d60208110156112bc57600080fd5b8101908080519060200190929190505050905090565b60006112dc611b7a565b61134e576040517f08c379a00000000000000000000000000000000000000000000000000000000081526004018080602001828103825260208152602001807f4f776e61626c653a2063616c6c6572206973206e6f7420746865206f776e657281525060200191505060405180910390fd5b600160009054906101000a900473ffffffffffffffffffffffffffffffffffffffff1673ffffffffffffffffffffffffffffffffffffffff16636ccae0548585856040518463ffffffff1660e01b8152600401808473ffffffffffffffffffffffffffffffffffffffff1673ffffffffffffffffffffffffffffffffffffffff1681526020018373ffffffffffffffffffffffffffffffffffffffff1673ffffffffffffffffffffffffffffffffffffffff1681526020018281526020019350505050602060405180830381600087803b15801561142b57600080fd5b505af115801561143f573d6000803e3d6000fd5b505050506040513d602081101561145557600080fd5b810190808051906020019092919050505090509392505050565b600f818154811061147c57fe5b90600052602060002090600502016000915090508060000154908060010154908060020154908060030154908060040154905085565b600080905090565b60085481565b6114c8611b7a565b61153a576040517f08c379a00000000000000000000000000000000000000000000000000000000081526004018080602001828103825260208152602001807f4f776e61626c653a2063616c6c6572206973206e6f7420746865206f776e657281525060200191505060405180910390fd5b600073ffffffffffffffffffffffffffffffffffffffff166000809054906101000a900473ffffffffffffffffffffffffffffffffffffffff1673ffffffffffffffffffffffffffffffffffffffff167f8be0079c531659141344cd1fd0a4f28419497f9722a3daafe3b4186f6b6457e060405160405180910390a360008060006101000a81548173ffffffffffffffffffffffffffffffffffffffff021916908373ffffffffffffffffffffffffffffffffffffffff160217905550565b60065481565b6000600160009054906101000a900473ffffffffffffffffffffffffffffffffffffffff1673ffffffffffffffffffffffffffffffffffffffff1663b69ef8a86040518163ffffffff1660e01b815260040160206040518083038186803b15801561166957600080fd5b505afa15801561167d573d6000803e3d6000fd5b505050506040513d602081101561169357600080fd5b8101908080519060200190929190505050905090565b60075481565b60006116ba82612838565b9050919050565b3373ffffffffffffffffffffffffffffffffffffffff16600460009054906101000a900473ffffffffffffffffffffffffffffffffffffffff1673ffffffffffffffffffffffffffffffffffffffff1614611767576040517f08c379a00000000000000000000000000000000000000000000000000000000081526004018080602001828103825260258152602001806136646025913960400191505060405180910390fd5b600b54600f80549050106117c6576040517f08c379a000000000000000000000000000000000000000000000000000000000815260040180806020018281038252602d81526020018061378f602d913960400191505060405180910390fd5b6117ce611022565b50505050505060006117de611228565b90506000808211611803576117fe600c54856126e090919063ffffffff16565b61182b565b61182a8261181c866007546126e090919063ffffffff16565b6127ee90919063ffffffff16565b5b9050611835613428565b818160000181815250504281604001818152505061185c844261276690919063ffffffff16565b81606001818152505083816080018181525050600f819080600181540180825580915050906001820390600052602060002090600502016000909192909190915060008201518160000155602082015181600101556040820151816002015560608201518160030155608082015181600401555050506118e78260075461276690919063ffffffff16565b600781905550600360009054906101000a900473ffffffffffffffffffffffffffffffffffffffff1673ffffffffffffffffffffffffffffffffffffffff1663fc0c546a6040518163ffffffff1660e01b815260040160206040518083038186803b15801561195557600080fd5b505afa158015611969573d6000803e3d6000fd5b505050506040513d602081101561197f57600080fd5b810190808051906020019092919050505073ffffffffffffffffffffffffffffffffffffffff166323b872dd33600360009054906101000a900473ffffffffffffffffffffffffffffffffffffffff16886040518463ffffffff1660e01b8152600401808473ffffffffffffffffffffffffffffffffffffffff1673ffffffffffffffffffffffffffffffffffffffff1681526020018373ffffffffffffffffffffffffffffffffffffffff1673ffffffffffffffffffffffffffffffffffffffff1681526020018281526020019350505050602060405180830381600087803b158015611a6c57600080fd5b505af1158015611a80573d6000803e3d6000fd5b505050506040513d6020811015611a9657600080fd5b8101908080519060200190929190505050611afc576040517f08c379a000000000000000000000000000000000000000000000000000000000815260040180806020018281038252602d8152602001806134d3602d913960400191505060405180910390fd5b7ff346961af4c52f314df1b45964746280fe409abb959d4a2458d58f79408b1fe88585611b27611228565b60405180848152602001838152602001828152602001935050505060405180910390a15050505050565b60008060009054906101000a900473ffffffffffffffffffffffffffffffffffffffff16905090565b60008060009054906101000a900473ffffffffffffffffffffffffffffffffffffffff1673ffffffffffffffffffffffffffffffffffffffff16611bbc612f6e565b73ffffffffffffffffffffffffffffffffffffffff1614905090565b611be0610df9565b73ffffffffffffffffffffffffffffffffffffffff168373ffffffffffffffffffffffffffffffffffffffff1614611c63576040517f08c379a00000000000000000000000000000000000000000000000000000000081526004018080602001828103825260298152602001806137e76029913960400191505060405180910390fd5b611c6f846010546116c1565b5050505050565b6000600160009054906101000a900473ffffffffffffffffffffffffffffffffffffffff1673ffffffffffffffffffffffffffffffffffffffff1663fc0c546a6040518163ffffffff1660e01b815260040160206040518083038186803b158015611ce057600080fd5b505afa158015611cf4573d6000803e3d6000fd5b505050506040513d6020811015611d0a57600080fd5b8101908080519060200190929190505050905090565b6000600260009054906101000a900473ffffffffffffffffffffffffffffffffffffffff1673ffffffffffffffffffffffffffffffffffffffff1663b69ef8a86040518163ffffffff1660e01b815260040160206040518083038186803b158015611d8a57600080fd5b505afa158015611d9e573d6000803e3d6000fd5b505050506040513d6020811015611db457600080fd5b8101908080519060200190929190505050905090565b6000600f80549050905090565b611de083612838565b50505050565b611dee611b7a565b611e60576040517f08c379a00000000000000000000000000000000000000000000000000000000081526004018080602001828103825260208152602001807f4f776e61626c653a2063616c6c6572206973206e6f7420746865206f776e657281525060200191505060405180910390fd5b611e6981612f76565b50565b600080600090506000611e7d611228565b905060006007541415611e9257809150611f1b565b600080905060008090505b600f80549050811015611ed457611ec5611eb6826130ba565b8361276690919063ffffffff16565b91508080600101915050611e9d565b50611efc600754611eee84846126e090919063ffffffff16565b6127ee90919063ffffffff16565b9250611f138160075461269690919063ffffffff16565b600781905550505b60008211156120c657600360009054906101000a900473ffffffffffffffffffffffffffffffffffffffff1673ffffffffffffffffffffffffffffffffffffffff1663a9059cbb600260009054906101000a900473ffffffffffffffffffffffffffffffffffffffff16846040518363ffffffff1660e01b8152600401808373ffffffffffffffffffffffffffffffffffffffff1673ffffffffffffffffffffffffffffffffffffffff16815260200182815260200192505050602060405180830381600087803b158015611fef57600080fd5b505af1158015612003573d6000803e3d6000fd5b505050506040513d602081101561201957600080fd5b810190808051906020019092919050505061207f576040517f08c379a000000000000000000000000000000000000000000000000000000000815260040180806020018281038252602f81526020018061360f602f913960400191505060405180910390fd5b7f2e444eb379b177e88ce0649c6110a3b01099f03e297127919dd5e3b63a761a9c826120a9611228565b604051808381526020018281526020019250505060405180910390a15b819250505090565b60006120d8611c76565b905090565b60008111612136576040517f08c379a00000000000000000000000000000000000000000000000000000000081526004018080602001828103825260218152602001806137036021913960400191505060405180910390fd5b600073ffffffffffffffffffffffffffffffffffffffff168273ffffffffffffffffffffffffffffffffffffffff1614156121bc576040517f08c379a00000000000000000000000000000000000000000000000000000000081526004018080602001828103825260288152602001806135c46028913960400191505060405180910390fd5b600060085414806121d4575060006121d26115ff565b115b612229576040517f08c379a000000000000000000000000000000000000000000000000000000000815260040180806020018281038252604a815260200180613745604a913960600191505060405180910390fd5b6000806008541161224e57612249600c54836126e090919063ffffffff16565b61227d565b61227c6122596115ff565b61226e846008546126e090919063ffffffff16565b6127ee90919063ffffffff16565b5b9050600081116122d8576040517f08c379a000000000000000000000000000000000000000000000000000000000815260040180806020018281038252602681526020018061363e6026913960400191505060405180910390fd5b6122e0611022565b5050505050506000600d60008573ffffffffffffffffffffffffffffffffffffffff1673ffffffffffffffffffffffffffffffffffffffff168152602001908152602001600020905061234082826000015461276690919063ffffffff16565b8160000181905550428160020181905550612359613457565b6040518060400160405280848152602001428152509050600e60008673ffffffffffffffffffffffffffffffffffffffff1673ffffffffffffffffffffffffffffffffffffffff168152602001908152602001600020819080600181540180825580915050906001820390600052602060002090600202016000909192909190915060008201518160000155602082015181600101555050506124078360085461276690919063ffffffff16565b600881905550600160009054906101000a900473ffffffffffffffffffffffffffffffffffffffff1673ffffffffffffffffffffffffffffffffffffffff1663fc0c546a6040518163ffffffff1660e01b815260040160206040518083038186803b15801561247557600080fd5b505afa158015612489573d6000803e3d6000fd5b505050506040513d602081101561249f57600080fd5b810190808051906020019092919050505073ffffffffffffffffffffffffffffffffffffffff166323b872dd87600160009054906101000a900473ffffffffffffffffffffffffffffffffffffffff16876040518463ffffffff1660e01b8152600401808473ffffffffffffffffffffffffffffffffffffffff1673ffffffffffffffffffffffffffffffffffffffff1681526020018373ffffffffffffffffffffffffffffffffffffffff1673ffffffffffffffffffffffffffffffffffffffff1681526020018281526020019350505050602060405180830381600087803b15801561258c57600080fd5b505af11580156125a0573d6000803e3d6000fd5b505050506040513d60208110156125b657600080fd5b810190808051906020019092919050505061261c576040517f08c379a000000000000000000000000000000000000000000000000000000000815260040180806020018281038252602e8152602001806136d5602e913960400191505060405180910390fd5b8473ffffffffffffffffffffffffffffffffffffffff167fc65e53b88159e7d2c0fc12a0600072e28ae53ff73b4c1715369c30f1609351428561265e88611198565b6040518083815260200182815260200180602001828103825260008152602001602001935050505060405180910390a2505050505050565b60006126d883836040518060400160405280601e81526020017f536166654d6174683a207375627472616374696f6e206f766572666c6f7700008152506131ab565b905092915050565b6000808314156126f35760009050612760565b600082840290508284828161270457fe5b041461275b576040517f08c379a00000000000000000000000000000000000000000000000000000000081526004018080602001828103825260218152602001806137246021913960400191505060405180910390fd5b809150505b92915050565b6000808284019050838110156127e4576040517f08c379a000000000000000000000000000000000000000000000000000000000815260040180806020018281038252601b8152602001807f536166654d6174683a206164646974696f6e206f766572666c6f77000000000081525060200191505060405180910390fd5b8091505092915050565b600061283083836040518060400160405280601a81526020017f536166654d6174683a206469766973696f6e206279207a65726f00000000000081525061326b565b905092915050565b6000612842611022565b505050505050600082116128a1576040517f08c379a00000000000000000000000000000000000000000000000000000000081526004018080602001828103825260238152602001806135ec6023913960400191505060405180910390fd5b816128ab33611198565b1015612902576040517f08c379a000000000000000000000000000000000000000000000000000000000815260040180806020018281038252603d815260200180613587603d913960400191505060405180910390fd5b600061293261290f6115ff565b612924856008546126e090919063ffffffff16565b6127ee90919063ffffffff16565b90506000811161298d576040517f08c379a00000000000000000000000000000000000000000000000000000000081526004018080602001828103825260308152602001806135006030913960400191505060405180910390fd5b6000600d60003373ffffffffffffffffffffffffffffffffffffffff1673ffffffffffffffffffffffffffffffffffffffff16815260200190815260200160002090506000600e60003373ffffffffffffffffffffffffffffffffffffffff1673ffffffffffffffffffffffffffffffffffffffff16815260200190815260200160002090506000809050600084905060008090505b6000821115612b4d57600084600186805490500381548110612a4157fe5b906000526020600020906002020190506000612a6a82600101544261269690919063ffffffff16565b9050600080905084836000015411612aea57612a938284600001546126e090919063ffffffff16565b9050612aa0848284613331565b9350612ab5818761276690919063ffffffff16565b9550612ace83600001548661269690919063ffffffff16565b945086805480919060019003612ae49190613471565b50612b45565b612afd82866126e090919063ffffffff16565b9050612b0a848284613331565b9350612b1f818761276690919063ffffffff16565b9550612b3885846000015461269690919063ffffffff16565b8360000181905550600094505b505050612a23565b612b6483866001015461269690919063ffffffff16565b8560010181905550612b8386866000015461269690919063ffffffff16565b8560000181905550612ba08360095461269690919063ffffffff16565b600981905550612bbb8660085461269690919063ffffffff16565b600881905550600160009054906101000a900473ffffffffffffffffffffffffffffffffffffffff1673ffffffffffffffffffffffffffffffffffffffff1663a9059cbb338a6040518363ffffffff1660e01b8152600401808373ffffffffffffffffffffffffffffffffffffffff1673ffffffffffffffffffffffffffffffffffffffff16815260200182815260200192505050602060405180830381600087803b158015612c6a57600080fd5b505af1158015612c7e573d6000803e3d6000fd5b505050506040513d6020811015612c9457600080fd5b8101908080519060200190929190505050612cfa576040517f08c379a00000000000000000000000000000000000000000000000000000000081526004018080602001828103825260308152602001806138386030913960400191505060405180910390fd5b600260009054906101000a900473ffffffffffffffffffffffffffffffffffffffff1673ffffffffffffffffffffffffffffffffffffffff1663a9059cbb33836040518363ffffffff1660e01b8152600401808373ffffffffffffffffffffffffffffffffffffffff1673ffffffffffffffffffffffffffffffffffffffff16815260200182815260200192505050602060405180830381600087803b158015612da357600080fd5b505af1158015612db7573d6000803e3d6000fd5b505050506040513d6020811015612dcd57600080fd5b8101908080519060200190929190505050612e33576040517f08c379a00000000000000000000000000000000000000000000000000000000081526004018080602001828103825260318152602001806135566031913960400191505060405180910390fd5b3373ffffffffffffffffffffffffffffffffffffffff167faf01bfc8475df280aca00b578c4a948e6d95700f0db8c13365240f7f973c875489612e7533611198565b6040518083815260200182815260200180602001828103825260008152602001602001935050505060405180910390a23373ffffffffffffffffffffffffffffffffffffffff167f896e034966eaaf1adc54acc0f257056febbd300c9e47182cf761982cf1f5e430826040518082815260200191505060405180910390a260006008541480612f0b57506000612f096115ff565b115b612f60576040517f08c379a000000000000000000000000000000000000000000000000000000000815260040180806020018281038252604c815260200180613689604c913960600191505060405180910390fd5b809650505050505050919050565b600033905090565b600073ffffffffffffffffffffffffffffffffffffffff168173ffffffffffffffffffffffffffffffffffffffff161415612ffc576040517f08c379a00000000000000000000000000000000000000000000000000000000081526004018080602001828103825260268152602001806135306026913960400191505060405180910390fd5b8073ffffffffffffffffffffffffffffffffffffffff166000809054906101000a900473ffffffffffffffffffffffffffffffffffffffff1673ffffffffffffffffffffffffffffffffffffffff167f8be0079c531659141344cd1fd0a4f28419497f9722a3daafe3b4186f6b6457e060405160405180910390a3806000806101000a81548173ffffffffffffffffffffffffffffffffffffffff021916908373ffffffffffffffffffffffffffffffffffffffff16021790555050565b600080600f83815481106130ca57fe5b9060005260206000209060050201905080600001548160010154106130f35760009150506131a6565b6000809050816003015442106131325761311e8260010154836000015461269690919063ffffffff16565b905081600301548260020181905550613181565b6131758260040154613167846000015461315986600201544261269690919063ffffffff16565b6126e090919063ffffffff16565b6127ee90919063ffffffff16565b90504282600201819055505b61319881836001015461276690919063ffffffff16565b826001018190555080925050505b919050565b6000838311158290613258576040517f08c379a00000000000000000000000000000000000000000000000000000000081526004018080602001828103825283818151815260200191508051906020019080838360005b8381101561321d578082015181840152602081019050613202565b50505050905090810190601f16801561324a5780820380516001836020036101000a031916815260200191505b509250505060405180910390fd5b5060008385039050809150509392505050565b60008083118290613317576040517f08c379a00000000000000000000000000000000000000000000000000000000081526004018080602001828103825283818151815260200191508051906020019080838360005b838110156132dc5780820151818401526020810190506132c1565b50505050905090810190601f1680156133095780820380516001836020036101000a031916815260200191505b509250505060405180910390fd5b50600083858161332357fe5b049050809150509392505050565b60008061336260095461335486613346611d20565b6126e090919063ffffffff16565b6127ee90919063ffffffff16565b9050600654831061338857613380818661276690919063ffffffff16565b915050613421565b60006002600a0a90506000613406826133f8856133ea6133d96006546133cb8c6133bd6005548c61269690919063ffffffff16565b6126e090919063ffffffff16565b6127ee90919063ffffffff16565b60055461276690919063ffffffff16565b6126e090919063ffffffff16565b6127ee90919063ffffffff16565b905061341b818861276690919063ffffffff16565b93505050505b9392505050565b6040518060a0016040528060008152602001600081526020016000815260200160008152602001600081525090565b604051806040016040528060008152602001600081525090565b81548183558181111561349e5760020281600202836000526020600020918201910161349d91906134a3565b5b505050565b6134cf91905b808211156134cb576000808201600090556001820160009055506002016134a9565b5090565b9056fe546f6b656e4765797365723a207472616e7366657220696e746f206c6f636b656420706f6f6c206661696c6564546f6b656e4765797365723a20556e61626c6520746f20756e7374616b6520616d6f756e74207468697320736d616c6c4f776e61626c653a206e6577206f776e657220697320746865207a65726f2061646472657373546f6b656e4765797365723a207472616e73666572206f7574206f6620756e6c6f636b656420706f6f6c206661696c6564546f6b656e4765797365723a20756e7374616b6520616d6f756e742069732067726561746572207468616e20746f74616c2075736572207374616b6573546f6b656e4765797365723a2062656e6566696369617279206973207a65726f2061646472657373546f6b656e4765797365723a20756e7374616b6520616d6f756e74206973207a65726f546f6b656e4765797365723a207472616e73666572206f7574206f66206c6f636b656420706f6f6c206661696c6564546f6b656e4765797365723a205374616b6520616d6f756e7420697320746f6f20736d616c6c43616c6c6572206973206e6f74207468652072657761726420646973747269627574696f6e546f6b656e4765797365723a204572726f7220756e7374616b696e672e205374616b696e67207368617265732065786973742c20627574206e6f207374616b696e6720746f6b656e7320646f546f6b656e4765797365723a207472616e7366657220696e746f207374616b696e6720706f6f6c206661696c6564546f6b656e4765797365723a207374616b6520616d6f756e74206973207a65726f536166654d6174683a206d756c7469706c69636174696f6e206f766572666c6f77546f6b656e4765797365723a20496e76616c69642073746174652e205374616b696e67207368617265732065786973742c20627574206e6f207374616b696e6720746f6b656e7320646f546f6b656e4765797365723a2072656163686564206d6178696d756d20756e6c6f636b207363686564756c65734e65772072657761726420646973747269627574696f6e20697320746865207a65726f2061646472657373546f6b656e206973206e6f7420737570706f7274656420646973747269627574696f6e20746f6b656e4e6577206475726174696f6e2068617320746f2062652067726561746572207468616e207a65726f546f6b656e4765797365723a207472616e73666572206f7574206f66207374616b696e6720706f6f6c206661696c6564a265627a7a72315820a406ab2a3591a7240465e891edf12713a845fb2e4239e12937df946c805a848064736f6c63430005110032608060405234801561001057600080fd5b50604051610c82380380610c828339818101604052602081101561003357600080fd5b810190808051906020019092919050505061005261015460201b60201c565b6000806101000a81548173ffffffffffffffffffffffffffffffffffffffff021916908373ffffffffffffffffffffffffffffffffffffffff1602179055506000809054906101000a900473ffffffffffffffffffffffffffffffffffffffff1673ffffffffffffffffffffffffffffffffffffffff16600073ffffffffffffffffffffffffffffffffffffffff167f8be0079c531659141344cd1fd0a4f28419497f9722a3daafe3b4186f6b6457e060405160405180910390a380600160006101000a81548173ffffffffffffffffffffffffffffffffffffffff021916908373ffffffffffffffffffffffffffffffffffffffff1602179055505061015c565b600033905090565b610b178061016b6000396000f3fe608060405234801561001057600080fd5b50600436106100885760003560e01c8063a9059cbb1161005b578063a9059cbb14610189578063b69ef8a8146101ef578063f2fde38b1461020d578063fc0c546a1461025157610088565b80636ccae0541461008d578063715018a6146101135780638da5cb5b1461011d5780638f32d59b14610167575b600080fd5b6100f9600480360360608110156100a357600080fd5b81019080803573ffffffffffffffffffffffffffffffffffffffff169060200190929190803573ffffffffffffffffffffffffffffffffffffffff1690602001909291908035906020019092919050505061029b565b604051808215151515815260200191505060405180910390f35b61011b610489565b005b6101256105c2565b604051808273ffffffffffffffffffffffffffffffffffffffff1673ffffffffffffffffffffffffffffffffffffffff16815260200191505060405180910390f35b61016f6105eb565b604051808215151515815260200191505060405180910390f35b6101d56004803603604081101561019f57600080fd5b81019080803573ffffffffffffffffffffffffffffffffffffffff16906020019092919080359060200190929190505050610649565b604051808215151515815260200191505060405180910390f35b6101f76107b1565b6040518082815260200191505060405180910390f35b61024f6004803603602081101561022357600080fd5b81019080803573ffffffffffffffffffffffffffffffffffffffff169060200190929190505050610892565b005b610259610918565b604051808273ffffffffffffffffffffffffffffffffffffffff1673ffffffffffffffffffffffffffffffffffffffff16815260200191505060405180910390f35b60006102a56105eb565b610317576040517f08c379a00000000000000000000000000000000000000000000000000000000081526004018080602001828103825260208152602001807f4f776e61626c653a2063616c6c6572206973206e6f7420746865206f776e657281525060200191505060405180910390fd5b8373ffffffffffffffffffffffffffffffffffffffff16600160009054906101000a900473ffffffffffffffffffffffffffffffffffffffff1673ffffffffffffffffffffffffffffffffffffffff1614156103be576040517f08c379a0000000000000000000000000000000000000000000000000000000008152600401808060200182810382526032815260200180610ab16032913960400191505060405180910390fd5b8373ffffffffffffffffffffffffffffffffffffffff1663a9059cbb84846040518363ffffffff1660e01b8152600401808373ffffffffffffffffffffffffffffffffffffffff1673ffffffffffffffffffffffffffffffffffffffff16815260200182815260200192505050602060405180830381600087803b15801561044557600080fd5b505af1158015610459573d6000803e3d6000fd5b505050506040513d602081101561046f57600080fd5b810190808051906020019092919050505090509392505050565b6104916105eb565b610503576040517f08c379a00000000000000000000000000000000000000000000000000000000081526004018080602001828103825260208152602001807f4f776e61626c653a2063616c6c6572206973206e6f7420746865206f776e657281525060200191505060405180910390fd5b600073ffffffffffffffffffffffffffffffffffffffff166000809054906101000a900473ffffffffffffffffffffffffffffffffffffffff1673ffffffffffffffffffffffffffffffffffffffff167f8be0079c531659141344cd1fd0a4f28419497f9722a3daafe3b4186f6b6457e060405160405180910390a360008060006101000a81548173ffffffffffffffffffffffffffffffffffffffff021916908373ffffffffffffffffffffffffffffffffffffffff160217905550565b60008060009054906101000a900473ffffffffffffffffffffffffffffffffffffffff16905090565b60008060009054906101000a900473ffffffffffffffffffffffffffffffffffffffff1673ffffffffffffffffffffffffffffffffffffffff1661062d61093e565b73ffffffffffffffffffffffffffffffffffffffff1614905090565b60006106536105eb565b6106c5576040517f08c379a00000000000000000000000000000000000000000000000000000000081526004018080602001828103825260208152602001807f4f776e61626c653a2063616c6c6572206973206e6f7420746865206f776e657281525060200191505060405180910390fd5b600160009054906101000a900473ffffffffffffffffffffffffffffffffffffffff1673ffffffffffffffffffffffffffffffffffffffff1663a9059cbb84846040518363ffffffff1660e01b8152600401808373ffffffffffffffffffffffffffffffffffffffff1673ffffffffffffffffffffffffffffffffffffffff16815260200182815260200192505050602060405180830381600087803b15801561076e57600080fd5b505af1158015610782573d6000803e3d6000fd5b505050506040513d602081101561079857600080fd5b8101908080519060200190929190505050905092915050565b6000600160009054906101000a900473ffffffffffffffffffffffffffffffffffffffff1673ffffffffffffffffffffffffffffffffffffffff166370a08231306040518263ffffffff1660e01b8152600401808273ffffffffffffffffffffffffffffffffffffffff1673ffffffffffffffffffffffffffffffffffffffff16815260200191505060206040518083038186803b15801561085257600080fd5b505afa158015610866573d6000803e3d6000fd5b505050506040513d602081101561087c57600080fd5b8101908080519060200190929190505050905090565b61089a6105eb565b61090c576040517f08c379a00000000000000000000000000000000000000000000000000000000081526004018080602001828103825260208152602001807f4f776e61626c653a2063616c6c6572206973206e6f7420746865206f776e657281525060200191505060405180910390fd5b61091581610946565b50565b600160009054906101000a900473ffffffffffffffffffffffffffffffffffffffff1681565b600033905090565b600073ffffffffffffffffffffffffffffffffffffffff168173ffffffffffffffffffffffffffffffffffffffff1614156109cc576040517f08c379a0000000000000000000000000000000000000000000000000000000008152600401808060200182810382526026815260200180610a8b6026913960400191505060405180910390fd5b8073ffffffffffffffffffffffffffffffffffffffff166000809054906101000a900473ffffffffffffffffffffffffffffffffffffffff1673ffffffffffffffffffffffffffffffffffffffff167f8be0079c531659141344cd1fd0a4f28419497f9722a3daafe3b4186f6b6457e060405160405180910390a3806000806101000a81548173ffffffffffffffffffffffffffffffffffffffff021916908373ffffffffffffffffffffffffffffffffffffffff1602179055505056fe4f776e61626c653a206e6577206f776e657220697320746865207a65726f2061646472657373546f6b656e506f6f6c3a2043616e6e6f7420636c61696d20746f6b656e2068656c642062792074686520636f6e7472616374a265627a7a7231582068a41b85c0d35f3f8a19f5a56f0d5b443ecafb6c8b5727dbd86e0a2fe04ed99564736f6c63430005110032546f6b656e4765797365723a20737461727420626f6e757320746f6f2068696768546f6b656e4765797365723a20696e697469616c536861726573506572546f6b656e206973207a65726f546f6b656e4765797365723a20626f6e757320706572696f64206973207a65726f",
  "source": "pragma solidity 0.5.17;\n\nimport \"./TokenGeyser.sol\";\nimport \"../KeepToken.sol\";\nimport {IStakerRewards, StakerRewardsBeneficiary} from \"../PhasedEscrow.sol\";\n\nimport \"openzeppelin-solidity/contracts/token/ERC20/IERC20.sol\";\n\n/// @title KEEP Token Geyser\n/// @dev A smart-contract based mechanism to distribute tokens over time, based\n/// on implementation of ampleforth's TokenGeyser contract (see: [token-geyser]).\n///\n/// Token that users stake is any ERC20 token defined on contract deployment.\n/// Users are rewarded in distribution tokens, which in this case will be KEEP.\n///\n/// Account holding Reward Distribution role locks tokens for distribution.\n/// The role can be transferred to any account or contract (e.g. Escrow) by the\n/// contract owner.\n///\n/// [token-geyser]: https://github.com/ampleforth/token-geyser/\ncontract KeepTokenGeyser is TokenGeyser, IStakerRewards {\n    event DurationSecUpdated(uint256 oldDurationSec, uint256 newDurationSec);\n\n    uint256 public durationSec;\n\n    /// @param _stakingToken The token users deposit as a stake.\n    /// @param _distributionToken The token users are rewarded in and receive it\n    /// as they unstake.\n    /// @param _maxUnlockSchedules Max number of unlock stages, to guard against\n    /// hitting gas limit.\n    /// @param _startBonus Starting time bonus, BONUS_DECIMALS fixed point.\n    /// e.g. 25% means user gets 25% of max distribution tokens.\n    /// @param _bonusPeriodSec Length of time for bonus to increase linearly to max.\n    /// @param _initialSharesPerToken Number of shares to mint per staking token\n    /// on first stake.\n    /// @param _durationSec Length of time to linear unlock the rewards tokens.\n    constructor(\n        IERC20 _stakingToken,\n        KeepToken _distributionToken,\n        uint256 _maxUnlockSchedules,\n        uint256 _startBonus,\n        uint256 _bonusPeriodSec,\n        uint256 _initialSharesPerToken,\n        uint256 _durationSec\n    )\n        public\n        TokenGeyser(\n            _stakingToken,\n            _distributionToken,\n            _maxUnlockSchedules,\n            _startBonus,\n            _bonusPeriodSec,\n            _initialSharesPerToken\n        )\n    {\n        durationSec = _durationSec;\n    }\n\n    /// @notice Receives an approval of token transfer and locks the approved\n    /// amount for rewards.\n    /// @dev Requires the provided token contract to be the same as the distribution\n    /// token supported by this contract.\n    /// @param _from The owner of the tokens who approved them to stake.\n    /// @param _value Approved amount of tokens for the transfer.\n    /// @param _token Token contract address.\n    /// @param _extraData Ignored.\n    function receiveApproval(\n        address _from,\n        uint256 _value,\n        address _token,\n        bytes calldata _extraData\n    ) external {\n        require(\n            KeepToken(_token) == getDistributionToken(),\n            \"Token is not supported distribution token\"\n        );\n\n        lockTokens(_value, durationSec);\n    }\n\n    function setDurationSec(uint256 _newDurationSec) external onlyOwner {\n        require(\n            _newDurationSec > 0,\n            \"New duration has to be greater than zero\"\n        );\n\n        emit DurationSecUpdated(durationSec, _newDurationSec);\n\n        durationSec = _newDurationSec;\n    }\n}\n\n/// @title KeepTokenGeyserRewardsEscrowBeneficiary\n/// @notice Intermediate contract used to transfer tokens from PhasedEscrow to a\n/// designated KeepTokenGeyser contract.\ncontract KeepTokenGeyserRewardsEscrowBeneficiary is StakerRewardsBeneficiary {\n    constructor(IERC20 _token, IStakerRewards _stakerRewards)\n        public\n        StakerRewardsBeneficiary(_token, _stakerRewards)\n    {}\n}\n",
  "sourcePath": "/home/runner/work/keep-core/keep-core/solidity-v1/contracts/geyser/KeepTokenGeyser.sol",
  "compiler": {
    "name": "solc",
    "version": "0.5.17+commit.d19bba13.Emscripten.clang"
  },
  "schemaVersion": "3.3.4",
  "updatedAt": "2021-11-26T17:03:20.284Z",
  "devdoc": {
    "details": "A smart-contract based mechanism to distribute tokens over time, based on implementation of ampleforth's TokenGeyser contract (see: [token-geyser]).  /// Token that users stake is any ERC20 token defined on contract deployment. Users are rewarded in distribution tokens, which in this case will be KEEP.  /// Account holding Reward Distribution role locks tokens for distribution. The role can be transferred to any account or contract (e.g. Escrow) by the contract owner.  /// [token-geyser]: https://github.com/ampleforth/token-geyser/",
    "methods": {
      "constructor": {
        "params": {
          "_bonusPeriodSec": "Length of time for bonus to increase linearly to max.",
          "_distributionToken": "The token users are rewarded in and receive it as they unstake.",
          "_durationSec": "Length of time to linear unlock the rewards tokens.",
          "_initialSharesPerToken": "Number of shares to mint per staking token on first stake.",
          "_maxUnlockSchedules": "Max number of unlock stages, to guard against hitting gas limit.",
          "_stakingToken": "The token users deposit as a stake.",
          "_startBonus": "Starting time bonus, BONUS_DECIMALS fixed point. e.g. 25% means user gets 25% of max distribution tokens."
        }
      },
      "getDistributionToken()": {
        "return": "The token users receive as they unstake."
      },
      "getStakingToken()": {
        "return": "The token users deposit as stake."
      },
      "isOwner()": {
        "details": "Returns true if the caller is the current owner."
      },
      "lockTokens(uint256,uint256)": {
        "details": "This function allows the reward distribution to add more locked distribution tokens, along     with the associated \"unlock schedule\". These locked tokens immediately begin unlocking     linearly over the duration of durationSec timeframe.",
        "params": {
          "amount": "Number of distribution tokens to lock. These are transferred from the caller.",
          "durationSec": "Length of time to linear unlock the tokens."
        }
      },
      "owner()": {
        "details": "Returns the address of the current owner."
      },
      "receiveApproval(address,uint256,address,bytes)": {
        "details": "Requires the provided token contract to be the same as the distribution token supported by this contract.",
        "params": {
          "_extraData": "Ignored.",
          "_from": "The owner of the tokens who approved them to stake.",
          "_token": "Token contract address.",
          "_value": "Approved amount of tokens for the transfer."
        }
      },
      "renounceOwnership()": {
        "details": "Leaves the contract without owner. It will not be possible to call `onlyOwner` functions anymore. Can only be called by the current owner.     * NOTE: Renouncing ownership will leave the contract without an owner, thereby removing any functionality that is only available to the owner."
      },
      "rescueFundsFromStakingPool(address,address,uint256)": {
        "details": "Lets the owner rescue funds air-dropped to the staking pool.",
        "params": {
          "amount": "Amount of tokens to be rescued.",
          "to": "Address to which the rescued funds are to be sent.",
          "tokenToRescue": "Address of the token to be rescued."
        },
        "return": "Transfer success."
      },
      "setRewardDistribution(address)": {
        "details": "Transfers reward distribution role to a new address. Can only be called by the owner.",
        "params": {
          "newRewardDistribution": "New reward distribution address."
        }
      },
      "stake(uint256,bytes)": {
        "details": "Transfers amount of deposit tokens from the user.",
        "params": {
          "amount": "Number of deposit tokens to stake.",
          "data": "Not used."
        }
      },
      "stakeFor(address,uint256,bytes)": {
        "details": "Transfers amount of deposit tokens from the caller on behalf of user.",
        "params": {
          "amount": "Number of deposit tokens to stake.",
          "data": "Not used.",
          "user": "User address who gains credit for this stake operation."
        }
      },
      "supportsHistory()": {
        "return": "False. This application does not support staking history."
      },
      "token()": {
        "details": "Note that this application has a staking token as well as a distribution token, which may be different. This function is required by EIP-900.",
        "return": "The deposit token used for staking."
      },
      "totalLocked()": {
        "return": "Total number of locked distribution tokens."
      },
      "totalStaked()": {
        "return": "The total number of deposit tokens staked globally, by all users."
      },
      "totalStakedFor(address)": {
        "params": {
          "addr": "The user to look up staking information for."
        },
        "return": "The number of staking tokens deposited for addr."
      },
      "totalUnlocked()": {
        "return": "Total number of unlocked distribution tokens."
      },
      "transferOwnership(address)": {
        "details": "Transfers ownership of the contract to a new account (`newOwner`). Can only be called by the current owner."
      },
      "unlockScheduleCount()": {
        "return": "Number of unlock schedules."
      },
      "unlockTokens()": {
        "details": "Moves distribution tokens from the locked pool to the unlocked pool, according to the     previously defined unlock schedules. Publicly callable.",
        "return": "Number of newly unlocked distribution tokens."
      },
      "unstake(uint256,bytes)": {
        "details": "Unstakes a certain amount of previously deposited tokens. User also receives their alotted number of distribution tokens.",
        "params": {
          "amount": "Number of deposit tokens to unstake / withdraw.",
          "data": "Not used."
        }
      },
      "unstakeQuery(uint256)": {
        "params": {
          "amount": "Number of deposit tokens to unstake / withdraw."
        },
        "return": "The total number of distribution tokens that would be rewarded."
      },
      "updateAccounting()": {
        "details": "A globally callable function to update the accounting state of the system.     Global state and state for the caller are updated.",
        "return": "[0] balance of the locked pool[1] balance of the unlocked pool[2] caller's staking share seconds[3] global staking share seconds[4] Rewards caller has accumulated, optimistically assumes max time-bonus.[5] block timestamp"
      }
    },
    "title": "KEEP Token Geyser"
  },
  "userdoc": {
    "methods": {
      "receiveApproval(address,uint256,address,bytes)": {
        "notice": "Receives an approval of token transfer and locks the approved amount for rewards."
      }
    }
  }
}