{
  "contractName": "KeepRandomBeaconOperatorStatistics",
  "abi": [
    {
      "inputs": [
        {
          "internalType": "address",
          "name": "_operatorContract",
          "type": "address"
        }
      ],
      "payable": false,
      "stateMutability": "nonpayable",
      "type": "constructor"
    },
    {
      "constant": true,
      "inputs": [],
      "name": "operatorContract",
      "outputs": [
        {
          "internalType": "contract KeepRandomBeaconOperator",
          "name": "",
          "type": "address"
        }
      ],
      "payable": false,
      "stateMutability": "view",
      "type": "function"
    },
    {
      "constant": true,
      "inputs": [
        {
          "internalType": "bytes",
          "name": "groupPubKey",
          "type": "bytes"
        },
        {
          "internalType": "address",
          "name": "operator",
          "type": "address"
        }
      ],
      "name": "countGroupMembership",
      "outputs": [
        {
          "internalType": "uint256",
          "name": "",
          "type": "uint256"
        }
      ],
      "payable": false,
      "stateMutability": "view",
      "type": "function"
    },
    {
      "constant": true,
      "inputs": [
        {
          "internalType": "bytes",
          "name": "groupPubKey",
          "type": "bytes"
        },
        {
          "internalType": "address",
          "name": "operator",
          "type": "address"
        }
      ],
      "name": "getGroupMemberIndices",
      "outputs": [
        {
          "internalType": "uint256[]",
          "name": "indices",
          "type": "uint256[]"
        }
      ],
      "payable": false,
      "stateMutability": "view",
      "type": "function"
    },
    {
      "constant": true,
      "inputs": [
        {
          "internalType": "address",
          "name": "operator",
          "type": "address"
        },
        {
          "internalType": "uint256",
          "name": "groupIndex",
          "type": "uint256"
        }
      ],
      "name": "awaitingRewards",
      "outputs": [
        {
          "internalType": "uint256",
          "name": "rewards",
          "type": "uint256"
        }
      ],
      "payable": false,
      "stateMutability": "view",
      "type": "function"
    },
    {
      "constant": true,
      "inputs": [
        {
          "internalType": "address",
          "name": "operator",
          "type": "address"
        },
        {
          "internalType": "uint256",
          "name": "groupIndex",
          "type": "uint256"
        }
      ],
      "name": "withdrawableRewards",
      "outputs": [
        {
          "internalType": "uint256",
          "name": "rewards",
          "type": "uint256"
        }
      ],
      "payable": false,
      "stateMutability": "view",
      "type": "function"
    }
  ],
  "bytecode": "0x608060405234801561001057600080fd5b506040516110193803806110198339818101604052602081101561003357600080fd5b8101908080519060200190929190505050806000806101000a81548173ffffffffffffffffffffffffffffffffffffffff021916908373ffffffffffffffffffffffffffffffffffffffff16021790555050610f85806100946000396000f3fe608060405234801561001057600080fd5b50600436106100575760003560e01c80630fdb54d21461005c57806376e09d1d146100be5780637c531a7714610120578063cb62c50d1461020f578063e8e0bb541461033f575b600080fd5b6100a86004803603604081101561007257600080fd5b81019080803573ffffffffffffffffffffffffffffffffffffffff16906020019092919080359060200190929190505050610389565b6040518082815260200191505060405180910390f35b61010a600480360360408110156100d457600080fd5b81019080803573ffffffffffffffffffffffffffffffffffffffff1690602001909291908035906020019092919050505061062f565b6040518082815260200191505060405180910390f35b6101f96004803603604081101561013657600080fd5b810190808035906020019064010000000081111561015357600080fd5b82018360208201111561016557600080fd5b8035906020019184600183028401116401000000008311171561018757600080fd5b91908080601f016020809104026020016040519081016040528093929190818152602001838380828437600081840152601f19601f820116905080830192505050505050509192919290803573ffffffffffffffffffffffffffffffffffffffff1690602001909291905050506109d2565b6040518082815260200191505060405180910390f35b6102e86004803603604081101561022557600080fd5b810190808035906020019064010000000081111561024257600080fd5b82018360208201111561025457600080fd5b8035906020019184600183028401116401000000008311171561027657600080fd5b91908080601f016020809104026020016040519081016040528093929190818152602001838380828437600081840152601f19601f820116905080830192505050505050509192919290803573ffffffffffffffffffffffffffffffffffffffff169060200190929190505050610bfe565b6040518080602001828103825283818151815260200191508051906020019060200280838360005b8381101561032b578082015181840152602081019050610310565b505050509050019250505060405180910390f35b610347610e84565b604051808273ffffffffffffffffffffffffffffffffffffffff1673ffffffffffffffffffffffffffffffffffffffff16815260200191505060405180910390f35b600060606000809054906101000a900473ffffffffffffffffffffffffffffffffffffffff1673ffffffffffffffffffffffffffffffffffffffff1663ef7c8f9c846040518263ffffffff1660e01b81526004018082815260200191505060006040518083038186803b1580156103ff57600080fd5b505afa158015610413573d6000803e3d6000fd5b505050506040513d6000823e3d601f19601f82011682018060405250602081101561043d57600080fd5b810190808051604051939291908464010000000082111561045d57600080fd5b8382019150602082018581111561047357600080fd5b825186600182028301116401000000008211171561049057600080fd5b8083526020830192505050908051906020019080838360005b838110156104c45780820151818401526020810190506104a9565b50505050905090810190601f1680156104f15780820380516001836020036101000a031916815260200191505b5060405250505090506000809054906101000a900473ffffffffffffffffffffffffffffffffffffffff1673ffffffffffffffffffffffffffffffffffffffff16632d6f8f31826040518263ffffffff1660e01b81526004018080602001828103825283818151815260200191508051906020019080838360005b8381101561058757808201518184015260208101905061056c565b50505050905090810190601f1680156105b45780820380516001836020036101000a031916815260200191505b509250505060206040518083038186803b1580156105d157600080fd5b505afa1580156105e5573d6000803e3d6000fd5b505050506040513d60208110156105fb57600080fd5b8101908080519060200190929190505050156106235761061b848461062f565b915050610629565b60009150505b92915050565b60008060009054906101000a900473ffffffffffffffffffffffffffffffffffffffff1673ffffffffffffffffffffffffffffffffffffffff1663376f7a1184846040518363ffffffff1660e01b8152600401808373ffffffffffffffffffffffffffffffffffffffff1673ffffffffffffffffffffffffffffffffffffffff1681526020018281526020019250505060206040518083038186803b1580156106d757600080fd5b505afa1580156106eb573d6000803e3d6000fd5b505050506040513d602081101561070157600080fd5b81019080805190602001909291905050501561072057600090506109cc565b60606000809054906101000a900473ffffffffffffffffffffffffffffffffffffffff1673ffffffffffffffffffffffffffffffffffffffff1663ef7c8f9c846040518263ffffffff1660e01b81526004018082815260200191505060006040518083038186803b15801561079457600080fd5b505afa1580156107a8573d6000803e3d6000fd5b505050506040513d6000823e3d601f19601f8201168201806040525060208110156107d257600080fd5b81019080805160405193929190846401000000008211156107f257600080fd5b8382019150602082018581111561080857600080fd5b825186600182028301116401000000008211171561082557600080fd5b8083526020830192505050908051906020019080838360005b8381101561085957808201518184015260208101905061083e565b50505050905090810190601f1680156108865780820380516001836020036101000a031916815260200191505b50604052505050905060008060009054906101000a900473ffffffffffffffffffffffffffffffffffffffff1673ffffffffffffffffffffffffffffffffffffffff16639dabee44836040518263ffffffff1660e01b81526004018080602001828103825283818151815260200191508051906020019080838360005b8381101561091e578082015181840152602081019050610903565b50505050905090810190601f16801561094b5780820380516001836020036101000a031916815260200191505b509250505060206040518083038186803b15801561096857600080fd5b505afa15801561097c573d6000803e3d6000fd5b505050506040513d602081101561099257600080fd5b8101908080519060200190929190505050905060006109b183876109d2565b90506109c68183610ea990919063ffffffff16565b93505050505b92915050565b600060606000809054906101000a900473ffffffffffffffffffffffffffffffffffffffff1673ffffffffffffffffffffffffffffffffffffffff1663d12f5e69856040518263ffffffff1660e01b81526004018080602001828103825283818151815260200191508051906020019080838360005b83811015610a63578082015181840152602081019050610a48565b50505050905090810190601f168015610a905780820380516001836020036101000a031916815260200191505b509250505060006040518083038186803b158015610aad57600080fd5b505afa158015610ac1573d6000803e3d6000fd5b505050506040513d6000823e3d601f19601f820116820180604052506020811015610aeb57600080fd5b8101908080516040519392919084640100000000821115610b0b57600080fd5b83820191506020820185811115610b2157600080fd5b8251866020820283011164010000000082111715610b3e57600080fd5b8083526020830192505050908051906020019060200280838360005b83811015610b75578082015181840152602081019050610b5a565b505050509050016040525050509050600080600090505b8251811015610bf2578473ffffffffffffffffffffffffffffffffffffffff16838281518110610bb857fe5b602002602001015173ffffffffffffffffffffffffffffffffffffffff161415610be55781806001019250505b8080600101915050610b8c565b50809250505092915050565b60606000610c0c84846109d2565b905060606000809054906101000a900473ffffffffffffffffffffffffffffffffffffffff1673ffffffffffffffffffffffffffffffffffffffff1663d12f5e69866040518263ffffffff1660e01b81526004018080602001828103825283818151815260200191508051906020019080838360005b83811015610c9d578082015181840152602081019050610c82565b50505050905090810190601f168015610cca5780820380516001836020036101000a031916815260200191505b509250505060006040518083038186803b158015610ce757600080fd5b505afa158015610cfb573d6000803e3d6000fd5b505050506040513d6000823e3d601f19601f820116820180604052506020811015610d2557600080fd5b8101908080516040519392919084640100000000821115610d4557600080fd5b83820191506020820185811115610d5b57600080fd5b8251866020820283011164010000000082111715610d7857600080fd5b8083526020830192505050908051906020019060200280838360005b83811015610daf578082015181840152602081019050610d94565b50505050905001604052505050905081604051908082528060200260200182016040528015610ded5781602001602082028038833980820191505090505b509250600080905060008090505b8251811015610e7a578573ffffffffffffffffffffffffffffffffffffffff16838281518110610e2757fe5b602002602001015173ffffffffffffffffffffffffffffffffffffffff161415610e6d5780858381518110610e5857fe5b60200260200101818152505081806001019250505b8080600101915050610dfb565b5050505092915050565b6000809054906101000a900473ffffffffffffffffffffffffffffffffffffffff1681565b600080831415610ebc5760009050610f29565b6000828402905082848281610ecd57fe5b0414610f24576040517f08c379a0000000000000000000000000000000000000000000000000000000008152600401808060200182810382526021815260200180610f306021913960400191505060405180910390fd5b809150505b9291505056fe536166654d6174683a206d756c7469706c69636174696f6e206f766572666c6f77a265627a7a72315820682248d47a0bb1e752ac002129a635f0a888a612af832303d3ee07a44d50b6c964736f6c63430005110032",
  "source": "pragma solidity ^0.5.4;\n\nimport \"openzeppelin-solidity/contracts/math/SafeMath.sol\";\nimport \"../KeepRandomBeaconOperator.sol\";\n\ncontract KeepRandomBeaconOperatorStatistics {\n    using SafeMath for uint256;\n\n    KeepRandomBeaconOperator public operatorContract;\n\n    constructor(address _operatorContract) public {\n        operatorContract = KeepRandomBeaconOperator(_operatorContract);\n    }\n\n    /// @notice Counts how many times the operator is present in a group.\n    /// @param groupPubKey The public key of the group.\n    /// @param operator The address of the operator.\n    /// @return The number of members the operator has in the group.\n    function countGroupMembership(bytes memory groupPubKey, address operator)\n        public\n        view\n        returns (uint256)\n    {\n        address[] memory members =\n            operatorContract.getGroupMembers(groupPubKey);\n        uint256 counter;\n        for (uint256 i = 0; i < members.length; i++) {\n            if (members[i] == operator) {\n                counter++;\n            }\n        }\n        return counter;\n    }\n\n    /// @notice Gets all indices in the provided group for a member.\n    /// If the given operator is not a member, returns an empty array.\n    function getGroupMemberIndices(bytes memory groupPubKey, address operator)\n        public\n        view\n        returns (uint256[] memory indices)\n    {\n        uint256 count = countGroupMembership(groupPubKey, operator);\n        address[] memory members =\n            operatorContract.getGroupMembers(groupPubKey);\n\n        indices = new uint256[](count);\n        uint256 counter = 0;\n        for (uint256 i = 0; i < members.length; i++) {\n            if (members[i] == operator) {\n                indices[counter] = i;\n                counter++;\n            }\n        }\n    }\n\n    /// @notice Get the amount of group rewards\n    /// allocated to the given operator in the given group.\n    /// The rewards may or may not be withdrawable.\n    /// @param operator Address of the operator.\n    /// @param groupIndex Index of the group.\n    /// @return The total allocated rewards.\n    function awaitingRewards(address operator, uint256 groupIndex)\n        public\n        view\n        returns (uint256 rewards)\n    {\n        if (operatorContract.hasWithdrawnRewards(operator, groupIndex)) {\n            return 0;\n        }\n        bytes memory groupPubKey =\n            operatorContract.getGroupPublicKey(groupIndex);\n        uint256 memberRewards =\n            operatorContract.getGroupMemberRewards(groupPubKey);\n\n        uint256 memberCount = countGroupMembership(groupPubKey, operator);\n\n        return memberRewards.mul(memberCount);\n    }\n\n    /// @notice Get the amount of group rewards\n    /// withdrawable by the given operator in the given group.\n    /// The group must be stale for any group rewards to be withdrawn.\n    /// @param operator Address of the operator.\n    /// @param groupIndex Index of the group.\n    /// @return The total withdrawable rewards.\n    function withdrawableRewards(address operator, uint256 groupIndex)\n        public\n        view\n        returns (uint256 rewards)\n    {\n        bytes memory groupPubKey =\n            operatorContract.getGroupPublicKey(groupIndex);\n        if (operatorContract.isStaleGroup(groupPubKey)) {\n            return awaitingRewards(operator, groupIndex);\n        } else {\n            return 0;\n        }\n    }\n}\n",
  "sourcePath": "/home/runner/work/keep-core/keep-core/solidity-v1/contracts/statistics/KeepRandomBeaconOperatorStatistics.sol",
  "compiler": {
    "name": "solc",
    "version": "0.5.17+commit.d19bba13.Emscripten.clang"
  },
  "schemaVersion": "3.3.4",
  "updatedAt": "2021-11-26T17:03:20.345Z",
  "devdoc": {
    "methods": {
      "awaitingRewards(address,uint256)": {
        "params": {
          "groupIndex": "Index of the group.",
          "operator": "Address of the operator."
        },
        "return": "The total allocated rewards."
      },
      "countGroupMembership(bytes,address)": {
        "params": {
          "groupPubKey": "The public key of the group.",
          "operator": "The address of the operator."
        },
        "return": "The number of members the operator has in the group."
      },
      "withdrawableRewards(address,uint256)": {
        "params": {
          "groupIndex": "Index of the group.",
          "operator": "Address of the operator."
        },
        "return": "The total withdrawable rewards."
      }
    }
  },
  "userdoc": {
    "methods": {
      "awaitingRewards(address,uint256)": {
        "notice": "Get the amount of group rewards allocated to the given operator in the given group. The rewards may or may not be withdrawable."
      },
      "countGroupMembership(bytes,address)": {
        "notice": "Counts how many times the operator is present in a group."
      },
      "getGroupMemberIndices(bytes,address)": {
        "notice": "Gets all indices in the provided group for a member. If the given operator is not a member, returns an empty array."
      },
      "withdrawableRewards(address,uint256)": {
        "notice": "Get the amount of group rewards withdrawable by the given operator in the given group. The group must be stale for any group rewards to be withdrawn."
      }
    }
  }
}