{
  "contractName": "KeepTokenGeyserRewardsEscrowBeneficiary",
  "abi": [
    {
      "inputs": [
        {
          "internalType": "contract IERC20",
          "name": "_token",
          "type": "address"
        },
        {
          "internalType": "contract IStakerRewards",
          "name": "_stakerRewards",
          "type": "address"
        }
      ],
      "payable": false,
      "stateMutability": "nonpayable",
      "type": "constructor"
    },
    {
      "anonymous": false,
      "inputs": [
        {
          "indexed": true,
          "internalType": "address",
          "name": "previousOwner",
          "type": "address"
        },
        {
          "indexed": true,
          "internalType": "address",
          "name": "newOwner",
          "type": "address"
        }
      ],
      "name": "OwnershipTransferred",
      "type": "event"
    },
    {
      "constant": false,
      "inputs": [
        {
          "internalType": "uint256",
          "name": "amount",
          "type": "uint256"
        }
      ],
      "name": "__escrowSentTokens",
      "outputs": [],
      "payable": false,
      "stateMutability": "nonpayable",
      "type": "function"
    },
    {
      "constant": true,
      "inputs": [],
      "name": "isOwner",
      "outputs": [
        {
          "internalType": "bool",
          "name": "",
          "type": "bool"
        }
      ],
      "payable": false,
      "stateMutability": "view",
      "type": "function"
    },
    {
      "constant": true,
      "inputs": [],
      "name": "owner",
      "outputs": [
        {
          "internalType": "address",
          "name": "",
          "type": "address"
        }
      ],
      "payable": false,
      "stateMutability": "view",
      "type": "function"
    },
    {
      "constant": false,
      "inputs": [],
      "name": "renounceOwnership",
      "outputs": [],
      "payable": false,
      "stateMutability": "nonpayable",
      "type": "function"
    },
    {
      "constant": true,
      "inputs": [],
      "name": "stakerRewards",
      "outputs": [
        {
          "internalType": "contract IStakerRewards",
          "name": "",
          "type": "address"
        }
      ],
      "payable": false,
      "stateMutability": "view",
      "type": "function"
    },
    {
      "constant": true,
      "inputs": [],
      "name": "token",
      "outputs": [
        {
          "internalType": "contract IERC20",
          "name": "",
          "type": "address"
        }
      ],
      "payable": false,
      "stateMutability": "view",
      "type": "function"
    },
    {
      "constant": false,
      "inputs": [
        {
          "internalType": "address",
          "name": "newOwner",
          "type": "address"
        }
      ],
      "name": "transferOwnership",
      "outputs": [],
      "payable": false,
      "stateMutability": "nonpayable",
      "type": "function"
    }
  ],
  "bytecode": "0x608060405234801561001057600080fd5b50604051610b18380380610b188339818101604052604081101561003357600080fd5b810190808051906020019092919080519060200190929190505050818161005e6101a460201b60201c565b6000806101000a81548173ffffffffffffffffffffffffffffffffffffffff021916908373ffffffffffffffffffffffffffffffffffffffff1602179055506000809054906101000a900473ffffffffffffffffffffffffffffffffffffffff1673ffffffffffffffffffffffffffffffffffffffff16600073ffffffffffffffffffffffffffffffffffffffff167f8be0079c531659141344cd1fd0a4f28419497f9722a3daafe3b4186f6b6457e060405160405180910390a381600160006101000a81548173ffffffffffffffffffffffffffffffffffffffff021916908373ffffffffffffffffffffffffffffffffffffffff16021790555080600260006101000a81548173ffffffffffffffffffffffffffffffffffffffff021916908373ffffffffffffffffffffffffffffffffffffffff160217905550505050506101ac565b600033905090565b61095d806101bb6000396000f3fe608060405234801561001057600080fd5b506004361061007d5760003560e01c80638f32d59b1161005b5780638f32d59b14610104578063cfb9cfba14610126578063f2fde38b14610170578063fc0c546a146101b45761007d565b80634a5f545614610082578063715018a6146100b05780638da5cb5b146100ba575b600080fd5b6100ae6004803603602081101561009857600080fd5b81019080803590602001909291905050506101fe565b005b6100b8610524565b005b6100c261065d565b604051808273ffffffffffffffffffffffffffffffffffffffff1673ffffffffffffffffffffffffffffffffffffffff16815260200191505060405180910390f35b61010c610686565b604051808215151515815260200191505060405180910390f35b61012e6106e4565b604051808273ffffffffffffffffffffffffffffffffffffffff1673ffffffffffffffffffffffffffffffffffffffff16815260200191505060405180910390f35b6101b26004803603602081101561018657600080fd5b81019080803573ffffffffffffffffffffffffffffffffffffffff16906020019092919050505061070a565b005b6101bc610790565b604051808273ffffffffffffffffffffffffffffffffffffffff1673ffffffffffffffffffffffffffffffffffffffff16815260200191505060405180910390f35b610206610686565b610278576040517f08c379a00000000000000000000000000000000000000000000000000000000081526004018080602001828103825260208152602001807f4f776e61626c653a2063616c6c6572206973206e6f7420746865206f776e657281525060200191505060405180910390fd5b6000600160009054906101000a900473ffffffffffffffffffffffffffffffffffffffff1673ffffffffffffffffffffffffffffffffffffffff1663095ea7b3600260009054906101000a900473ffffffffffffffffffffffffffffffffffffffff16846040518363ffffffff1660e01b8152600401808373ffffffffffffffffffffffffffffffffffffffff1673ffffffffffffffffffffffffffffffffffffffff16815260200182815260200192505050602060405180830381600087803b15801561034557600080fd5b505af1158015610359573d6000803e3d6000fd5b505050506040513d602081101561036f57600080fd5b81019080805190602001909291905050509050806103f5576040517f08c379a000000000000000000000000000000000000000000000000000000000815260040180806020018281038252601e8152602001807f546f6b656e207472616e7366657220617070726f76616c206661696c6564000081525060200191505060405180910390fd5b600260009054906101000a900473ffffffffffffffffffffffffffffffffffffffff1673ffffffffffffffffffffffffffffffffffffffff16638f4ffcb13084600160009054906101000a900473ffffffffffffffffffffffffffffffffffffffff166040518463ffffffff1660e01b8152600401808473ffffffffffffffffffffffffffffffffffffffff1673ffffffffffffffffffffffffffffffffffffffff1681526020018381526020018273ffffffffffffffffffffffffffffffffffffffff1673ffffffffffffffffffffffffffffffffffffffff16815260200180602001828103825260008152602001602001945050505050600060405180830381600087803b15801561050857600080fd5b505af115801561051c573d6000803e3d6000fd5b505050505050565b61052c610686565b61059e576040517f08c379a00000000000000000000000000000000000000000000000000000000081526004018080602001828103825260208152602001807f4f776e61626c653a2063616c6c6572206973206e6f7420746865206f776e657281525060200191505060405180910390fd5b600073ffffffffffffffffffffffffffffffffffffffff166000809054906101000a900473ffffffffffffffffffffffffffffffffffffffff1673ffffffffffffffffffffffffffffffffffffffff167f8be0079c531659141344cd1fd0a4f28419497f9722a3daafe3b4186f6b6457e060405160405180910390a360008060006101000a81548173ffffffffffffffffffffffffffffffffffffffff021916908373ffffffffffffffffffffffffffffffffffffffff160217905550565b60008060009054906101000a900473ffffffffffffffffffffffffffffffffffffffff16905090565b60008060009054906101000a900473ffffffffffffffffffffffffffffffffffffffff1673ffffffffffffffffffffffffffffffffffffffff166106c86107b6565b73ffffffffffffffffffffffffffffffffffffffff1614905090565b600260009054906101000a900473ffffffffffffffffffffffffffffffffffffffff1681565b610712610686565b610784576040517f08c379a00000000000000000000000000000000000000000000000000000000081526004018080602001828103825260208152602001807f4f776e61626c653a2063616c6c6572206973206e6f7420746865206f776e657281525060200191505060405180910390fd5b61078d816107be565b50565b600160009054906101000a900473ffffffffffffffffffffffffffffffffffffffff1681565b600033905090565b600073ffffffffffffffffffffffffffffffffffffffff168173ffffffffffffffffffffffffffffffffffffffff161415610844576040517f08c379a00000000000000000000000000000000000000000000000000000000081526004018080602001828103825260268152602001806109036026913960400191505060405180910390fd5b8073ffffffffffffffffffffffffffffffffffffffff166000809054906101000a900473ffffffffffffffffffffffffffffffffffffffff1673ffffffffffffffffffffffffffffffffffffffff167f8be0079c531659141344cd1fd0a4f28419497f9722a3daafe3b4186f6b6457e060405160405180910390a3806000806101000a81548173ffffffffffffffffffffffffffffffffffffffff021916908373ffffffffffffffffffffffffffffffffffffffff1602179055505056fe4f776e61626c653a206e6577206f776e657220697320746865207a65726f2061646472657373a265627a7a72315820d82aaee7f5e3d29244acb75390d35a9f61e167db6ed55b597be92f5101a775e764736f6c63430005110032",
  "source": "pragma solidity 0.5.17;\n\nimport \"./TokenGeyser.sol\";\nimport \"../KeepToken.sol\";\nimport {IStakerRewards, StakerRewardsBeneficiary} from \"../PhasedEscrow.sol\";\n\nimport \"openzeppelin-solidity/contracts/token/ERC20/IERC20.sol\";\n\n/// @title KEEP Token Geyser\n/// @dev A smart-contract based mechanism to distribute tokens over time, based\n/// on implementation of ampleforth's TokenGeyser contract (see: [token-geyser]).\n///\n/// Token that users stake is any ERC20 token defined on contract deployment.\n/// Users are rewarded in distribution tokens, which in this case will be KEEP.\n///\n/// Account holding Reward Distribution role locks tokens for distribution.\n/// The role can be transferred to any account or contract (e.g. Escrow) by the\n/// contract owner.\n///\n/// [token-geyser]: https://github.com/ampleforth/token-geyser/\ncontract KeepTokenGeyser is TokenGeyser, IStakerRewards {\n    event DurationSecUpdated(uint256 oldDurationSec, uint256 newDurationSec);\n\n    uint256 public durationSec;\n\n    /// @param _stakingToken The token users deposit as a stake.\n    /// @param _distributionToken The token users are rewarded in and receive it\n    /// as they unstake.\n    /// @param _maxUnlockSchedules Max number of unlock stages, to guard against\n    /// hitting gas limit.\n    /// @param _startBonus Starting time bonus, BONUS_DECIMALS fixed point.\n    /// e.g. 25% means user gets 25% of max distribution tokens.\n    /// @param _bonusPeriodSec Length of time for bonus to increase linearly to max.\n    /// @param _initialSharesPerToken Number of shares to mint per staking token\n    /// on first stake.\n    /// @param _durationSec Length of time to linear unlock the rewards tokens.\n    constructor(\n        IERC20 _stakingToken,\n        KeepToken _distributionToken,\n        uint256 _maxUnlockSchedules,\n        uint256 _startBonus,\n        uint256 _bonusPeriodSec,\n        uint256 _initialSharesPerToken,\n        uint256 _durationSec\n    )\n        public\n        TokenGeyser(\n            _stakingToken,\n            _distributionToken,\n            _maxUnlockSchedules,\n            _startBonus,\n            _bonusPeriodSec,\n            _initialSharesPerToken\n        )\n    {\n        durationSec = _durationSec;\n    }\n\n    /// @notice Receives an approval of token transfer and locks the approved\n    /// amount for rewards.\n    /// @dev Requires the provided token contract to be the same as the distribution\n    /// token supported by this contract.\n    /// @param _from The owner of the tokens who approved them to stake.\n    /// @param _value Approved amount of tokens for the transfer.\n    /// @param _token Token contract address.\n    /// @param _extraData Ignored.\n    function receiveApproval(\n        address _from,\n        uint256 _value,\n        address _token,\n        bytes calldata _extraData\n    ) external {\n        require(\n            KeepToken(_token) == getDistributionToken(),\n            \"Token is not supported distribution token\"\n        );\n\n        lockTokens(_value, durationSec);\n    }\n\n    function setDurationSec(uint256 _newDurationSec) external onlyOwner {\n        require(\n            _newDurationSec > 0,\n            \"New duration has to be greater than zero\"\n        );\n\n        emit DurationSecUpdated(durationSec, _newDurationSec);\n\n        durationSec = _newDurationSec;\n    }\n}\n\n/// @title KeepTokenGeyserRewardsEscrowBeneficiary\n/// @notice Intermediate contract used to transfer tokens from PhasedEscrow to a\n/// designated KeepTokenGeyser contract.\ncontract KeepTokenGeyserRewardsEscrowBeneficiary is StakerRewardsBeneficiary {\n    constructor(IERC20 _token, IStakerRewards _stakerRewards)\n        public\n        StakerRewardsBeneficiary(_token, _stakerRewards)\n    {}\n}\n",
  "sourcePath": "/home/runner/work/keep-core/keep-core/solidity-v1/contracts/geyser/KeepTokenGeyser.sol",
  "compiler": {
    "name": "solc",
    "version": "0.5.17+commit.d19bba13.Emscripten.clang"
  },
  "schemaVersion": "3.3.4",
  "updatedAt": "2021-11-26T17:03:20.286Z",
  "devdoc": {
    "methods": {
      "isOwner()": {
        "details": "Returns true if the caller is the current owner."
      },
      "owner()": {
        "details": "Returns the address of the current owner."
      },
      "renounceOwnership()": {
        "details": "Leaves the contract without owner. It will not be possible to call `onlyOwner` functions anymore. Can only be called by the current owner.     * NOTE: Renouncing ownership will leave the contract without an owner, thereby removing any functionality that is only available to the owner."
      },
      "transferOwnership(address)": {
        "details": "Transfers ownership of the contract to a new account (`newOwner`). Can only be called by the current owner."
      }
    },
    "title": "KeepTokenGeyserRewardsEscrowBeneficiary"
  },
  "userdoc": {
    "methods": {},
    "notice": "Intermediate contract used to transfer tokens from PhasedEscrow to a designated KeepTokenGeyser contract."
  }
}