{
  "contractName": "KeepRandomBeaconOperatorDKGResultStub",
  "abi": [
    {
      "inputs": [
        {
          "internalType": "address",
          "name": "_serviceContract",
          "type": "address"
        },
        {
          "internalType": "address",
          "name": "_stakingContract",
          "type": "address"
        },
        {
          "internalType": "address",
          "name": "_registryContract",
          "type": "address"
        },
        {
          "internalType": "address",
          "name": "_gasPriceOracle",
          "type": "address"
        }
      ],
      "payable": false,
      "stateMutability": "nonpayable",
      "type": "constructor"
    },
    {
      "anonymous": false,
      "inputs": [
        {
          "indexed": false,
          "internalType": "uint256",
          "name": "memberIndex",
          "type": "uint256"
        },
        {
          "indexed": false,
          "internalType": "bytes",
          "name": "groupPubKey",
          "type": "bytes"
        },
        {
          "indexed": false,
          "internalType": "bytes",
          "name": "misbehaved",
          "type": "bytes"
        }
      ],
      "name": "DkgResultSubmittedEvent",
      "type": "event"
    },
    {
      "anonymous": false,
      "inputs": [
        {
          "indexed": true,
          "internalType": "address",
          "name": "beneficiary",
          "type": "address"
        },
        {
          "indexed": false,
          "internalType": "address",
          "name": "operator",
          "type": "address"
        },
        {
          "indexed": false,
          "internalType": "uint256",
          "name": "amount",
          "type": "uint256"
        },
        {
          "indexed": false,
          "internalType": "uint256",
          "name": "groupIndex",
          "type": "uint256"
        }
      ],
      "name": "GroupMemberRewardsWithdrawn",
      "type": "event"
    },
    {
      "anonymous": false,
      "inputs": [
        {
          "indexed": false,
          "internalType": "uint256",
          "name": "newEntry",
          "type": "uint256"
        }
      ],
      "name": "GroupSelectionStarted",
      "type": "event"
    },
    {
      "anonymous": false,
      "inputs": [
        {
          "indexed": false,
          "internalType": "bytes",
          "name": "groupPubKey",
          "type": "bytes"
        }
      ],
      "name": "OnGroupRegistered",
      "type": "event"
    },
    {
      "anonymous": false,
      "inputs": [
        {
          "indexed": false,
          "internalType": "bytes",
          "name": "previousEntry",
          "type": "bytes"
        },
        {
          "indexed": false,
          "internalType": "bytes",
          "name": "groupPublicKey",
          "type": "bytes"
        }
      ],
      "name": "RelayEntryRequested",
      "type": "event"
    },
    {
      "anonymous": false,
      "inputs": [],
      "name": "RelayEntrySubmitted",
      "type": "event"
    },
    {
      "anonymous": false,
      "inputs": [
        {
          "indexed": true,
          "internalType": "uint256",
          "name": "groupIndex",
          "type": "uint256"
        }
      ],
      "name": "RelayEntryTimeoutReported",
      "type": "event"
    },
    {
      "anonymous": false,
      "inputs": [
        {
          "indexed": true,
          "internalType": "uint256",
          "name": "groupIndex",
          "type": "uint256"
        }
      ],
      "name": "UnauthorizedSigningReported",
      "type": "event"
    },
    {
      "constant": false,
      "inputs": [
        {
          "internalType": "address",
          "name": "serviceContract",
          "type": "address"
        }
      ],
      "name": "addServiceContract",
      "outputs": [],
      "payable": false,
      "stateMutability": "nonpayable",
      "type": "function"
    },
    {
      "constant": false,
      "inputs": [
        {
          "internalType": "uint256",
          "name": "_newEntry",
          "type": "uint256"
        },
        {
          "internalType": "address payable",
          "name": "submitter",
          "type": "address"
        }
      ],
      "name": "createGroup",
      "outputs": [],
      "payable": true,
      "stateMutability": "payable",
      "type": "function"
    },
    {
      "constant": true,
      "inputs": [],
      "name": "currentRequestGroupIndex",
      "outputs": [
        {
          "internalType": "uint256",
          "name": "",
          "type": "uint256"
        }
      ],
      "payable": false,
      "stateMutability": "view",
      "type": "function"
    },
    {
      "constant": true,
      "inputs": [],
      "name": "currentRequestPreviousEntry",
      "outputs": [
        {
          "internalType": "bytes",
          "name": "",
          "type": "bytes"
        }
      ],
      "payable": false,
      "stateMutability": "view",
      "type": "function"
    },
    {
      "constant": true,
      "inputs": [],
      "name": "currentRequestStartBlock",
      "outputs": [
        {
          "internalType": "uint256",
          "name": "",
          "type": "uint256"
        }
      ],
      "payable": false,
      "stateMutability": "view",
      "type": "function"
    },
    {
      "constant": true,
      "inputs": [],
      "name": "dkgGasEstimate",
      "outputs": [
        {
          "internalType": "uint256",
          "name": "",
          "type": "uint256"
        }
      ],
      "payable": false,
      "stateMutability": "view",
      "type": "function"
    },
    {
      "constant": true,
      "inputs": [],
      "name": "dkgSubmitterReimbursementFee",
      "outputs": [
        {
          "internalType": "uint256",
          "name": "",
          "type": "uint256"
        }
      ],
      "payable": false,
      "stateMutability": "view",
      "type": "function"
    },
    {
      "constant": true,
      "inputs": [],
      "name": "entryVerificationFee",
      "outputs": [
        {
          "internalType": "uint256",
          "name": "",
          "type": "uint256"
        }
      ],
      "payable": false,
      "stateMutability": "view",
      "type": "function"
    },
    {
      "constant": true,
      "inputs": [],
      "name": "entryVerificationGasEstimate",
      "outputs": [
        {
          "internalType": "uint256",
          "name": "",
          "type": "uint256"
        }
      ],
      "payable": false,
      "stateMutability": "view",
      "type": "function"
    },
    {
      "constant": true,
      "inputs": [],
      "name": "gasPriceCeiling",
      "outputs": [
        {
          "internalType": "uint256",
          "name": "",
          "type": "uint256"
        }
      ],
      "payable": false,
      "stateMutability": "view",
      "type": "function"
    },
    {
      "constant": false,
      "inputs": [],
      "name": "genesis",
      "outputs": [],
      "payable": true,
      "stateMutability": "payable",
      "type": "function"
    },
    {
      "constant": true,
      "inputs": [],
      "name": "getFirstActiveGroupIndex",
      "outputs": [
        {
          "internalType": "uint256",
          "name": "",
          "type": "uint256"
        }
      ],
      "payable": false,
      "stateMutability": "view",
      "type": "function"
    },
    {
      "constant": true,
      "inputs": [
        {
          "internalType": "bytes",
          "name": "groupPubKey",
          "type": "bytes"
        }
      ],
      "name": "getGroupMemberRewards",
      "outputs": [
        {
          "internalType": "uint256",
          "name": "",
          "type": "uint256"
        }
      ],
      "payable": false,
      "stateMutability": "view",
      "type": "function"
    },
    {
      "constant": true,
      "inputs": [
        {
          "internalType": "bytes",
          "name": "groupPubKey",
          "type": "bytes"
        }
      ],
      "name": "getGroupMembers",
      "outputs": [
        {
          "internalType": "address[]",
          "name": "members",
          "type": "address[]"
        }
      ],
      "payable": false,
      "stateMutability": "view",
      "type": "function"
    },
    {
      "constant": true,
      "inputs": [
        {
          "internalType": "uint256",
          "name": "groupIndex",
          "type": "uint256"
        }
      ],
      "name": "getGroupPublicKey",
      "outputs": [
        {
          "internalType": "bytes",
          "name": "",
          "type": "bytes"
        }
      ],
      "payable": false,
      "stateMutability": "view",
      "type": "function"
    },
    {
      "constant": true,
      "inputs": [
        {
          "internalType": "uint256",
          "name": "groupIndex",
          "type": "uint256"
        }
      ],
      "name": "getGroupRegistrationTime",
      "outputs": [
        {
          "internalType": "uint256",
          "name": "",
          "type": "uint256"
        }
      ],
      "payable": false,
      "stateMutability": "view",
      "type": "function"
    },
    {
      "constant": true,
      "inputs": [],
      "name": "getNumberOfCreatedGroups",
      "outputs": [
        {
          "internalType": "uint256",
          "name": "",
          "type": "uint256"
        }
      ],
      "payable": false,
      "stateMutability": "view",
      "type": "function"
    },
    {
      "constant": true,
      "inputs": [],
      "name": "groupCreationFee",
      "outputs": [
        {
          "internalType": "uint256",
          "name": "",
          "type": "uint256"
        }
      ],
      "payable": false,
      "stateMutability": "view",
      "type": "function"
    },
    {
      "constant": true,
      "inputs": [],
      "name": "groupMemberBaseReward",
      "outputs": [
        {
          "internalType": "uint256",
          "name": "",
          "type": "uint256"
        }
      ],
      "payable": false,
      "stateMutability": "view",
      "type": "function"
    },
    {
      "constant": true,
      "inputs": [],
      "name": "groupProfitFee",
      "outputs": [
        {
          "internalType": "uint256",
          "name": "",
          "type": "uint256"
        }
      ],
      "payable": false,
      "stateMutability": "view",
      "type": "function"
    },
    {
      "constant": true,
      "inputs": [],
      "name": "groupSelectionGasEstimate",
      "outputs": [
        {
          "internalType": "uint256",
          "name": "",
          "type": "uint256"
        }
      ],
      "payable": false,
      "stateMutability": "view",
      "type": "function"
    },
    {
      "constant": true,
      "inputs": [],
      "name": "groupSize",
      "outputs": [
        {
          "internalType": "uint256",
          "name": "",
          "type": "uint256"
        }
      ],
      "payable": false,
      "stateMutability": "view",
      "type": "function"
    },
    {
      "constant": true,
      "inputs": [],
      "name": "groupThreshold",
      "outputs": [
        {
          "internalType": "uint256",
          "name": "",
          "type": "uint256"
        }
      ],
      "payable": false,
      "stateMutability": "view",
      "type": "function"
    },
    {
      "constant": true,
      "inputs": [
        {
          "internalType": "address",
          "name": "staker",
          "type": "address"
        }
      ],
      "name": "hasMinimumStake",
      "outputs": [
        {
          "internalType": "bool",
          "name": "",
          "type": "bool"
        }
      ],
      "payable": false,
      "stateMutability": "view",
      "type": "function"
    },
    {
      "constant": true,
      "inputs": [
        {
          "internalType": "address",
          "name": "operator",
          "type": "address"
        },
        {
          "internalType": "uint256",
          "name": "groupIndex",
          "type": "uint256"
        }
      ],
      "name": "hasWithdrawnRewards",
      "outputs": [
        {
          "internalType": "bool",
          "name": "",
          "type": "bool"
        }
      ],
      "payable": false,
      "stateMutability": "view",
      "type": "function"
    },
    {
      "constant": true,
      "inputs": [],
      "name": "isEntryInProgress",
      "outputs": [
        {
          "internalType": "bool",
          "name": "",
          "type": "bool"
        }
      ],
      "payable": false,
      "stateMutability": "view",
      "type": "function"
    },
    {
      "constant": true,
      "inputs": [
        {
          "internalType": "bytes",
          "name": "groupPubKey",
          "type": "bytes"
        }
      ],
      "name": "isGroupRegistered",
      "outputs": [
        {
          "internalType": "bool",
          "name": "",
          "type": "bool"
        }
      ],
      "payable": false,
      "stateMutability": "view",
      "type": "function"
    },
    {
      "constant": true,
      "inputs": [],
      "name": "isGroupSelectionPossible",
      "outputs": [
        {
          "internalType": "bool",
          "name": "",
          "type": "bool"
        }
      ],
      "payable": false,
      "stateMutability": "view",
      "type": "function"
    },
    {
      "constant": true,
      "inputs": [
        {
          "internalType": "uint256",
          "name": "groupIndex",
          "type": "uint256"
        }
      ],
      "name": "isGroupTerminated",
      "outputs": [
        {
          "internalType": "bool",
          "name": "",
          "type": "bool"
        }
      ],
      "payable": false,
      "stateMutability": "view",
      "type": "function"
    },
    {
      "constant": true,
      "inputs": [
        {
          "internalType": "bytes",
          "name": "groupPubKey",
          "type": "bytes"
        }
      ],
      "name": "isStaleGroup",
      "outputs": [
        {
          "internalType": "bool",
          "name": "",
          "type": "bool"
        }
      ],
      "payable": false,
      "stateMutability": "view",
      "type": "function"
    },
    {
      "constant": true,
      "inputs": [],
      "name": "numberOfGroups",
      "outputs": [
        {
          "internalType": "uint256",
          "name": "",
          "type": "uint256"
        }
      ],
      "payable": false,
      "stateMutability": "view",
      "type": "function"
    },
    {
      "constant": false,
      "inputs": [],
      "name": "refreshGasPrice",
      "outputs": [],
      "payable": false,
      "stateMutability": "nonpayable",
      "type": "function"
    },
    {
      "constant": false,
      "inputs": [
        {
          "internalType": "bytes",
          "name": "_groupSignature",
          "type": "bytes"
        }
      ],
      "name": "relayEntry",
      "outputs": [],
      "payable": false,
      "stateMutability": "nonpayable",
      "type": "function"
    },
    {
      "constant": true,
      "inputs": [],
      "name": "relayEntryTimeout",
      "outputs": [
        {
          "internalType": "uint256",
          "name": "",
          "type": "uint256"
        }
      ],
      "payable": false,
      "stateMutability": "view",
      "type": "function"
    },
    {
      "constant": false,
      "inputs": [],
      "name": "reportRelayEntryTimeout",
      "outputs": [],
      "payable": false,
      "stateMutability": "nonpayable",
      "type": "function"
    },
    {
      "constant": false,
      "inputs": [
        {
          "internalType": "uint256",
          "name": "groupIndex",
          "type": "uint256"
        },
        {
          "internalType": "bytes",
          "name": "signedMsgSender",
          "type": "bytes"
        }
      ],
      "name": "reportUnauthorizedSigning",
      "outputs": [],
      "payable": false,
      "stateMutability": "nonpayable",
      "type": "function"
    },
    {
      "constant": true,
      "inputs": [],
      "name": "resultPublicationBlockStep",
      "outputs": [
        {
          "internalType": "uint256",
          "name": "",
          "type": "uint256"
        }
      ],
      "payable": false,
      "stateMutability": "view",
      "type": "function"
    },
    {
      "constant": true,
      "inputs": [],
      "name": "selectedParticipants",
      "outputs": [
        {
          "internalType": "address[]",
          "name": "",
          "type": "address[]"
        }
      ],
      "payable": false,
      "stateMutability": "view",
      "type": "function"
    },
    {
      "constant": false,
      "inputs": [
        {
          "internalType": "uint256",
          "name": "requestId",
          "type": "uint256"
        },
        {
          "internalType": "bytes",
          "name": "previousEntry",
          "type": "bytes"
        }
      ],
      "name": "sign",
      "outputs": [],
      "payable": true,
      "stateMutability": "payable",
      "type": "function"
    },
    {
      "constant": false,
      "inputs": [
        {
          "internalType": "uint256",
          "name": "submitterMemberIndex",
          "type": "uint256"
        },
        {
          "internalType": "bytes",
          "name": "groupPubKey",
          "type": "bytes"
        },
        {
          "internalType": "bytes",
          "name": "misbehaved",
          "type": "bytes"
        },
        {
          "internalType": "bytes",
          "name": "signatures",
          "type": "bytes"
        },
        {
          "internalType": "uint256[]",
          "name": "signingMembersIndexes",
          "type": "uint256[]"
        }
      ],
      "name": "submitDkgResult",
      "outputs": [],
      "payable": false,
      "stateMutability": "nonpayable",
      "type": "function"
    },
    {
      "constant": false,
      "inputs": [
        {
          "internalType": "bytes32",
          "name": "ticket",
          "type": "bytes32"
        }
      ],
      "name": "submitTicket",
      "outputs": [],
      "payable": false,
      "stateMutability": "nonpayable",
      "type": "function"
    },
    {
      "constant": true,
      "inputs": [],
      "name": "submittedTickets",
      "outputs": [
        {
          "internalType": "uint64[]",
          "name": "",
          "type": "uint64[]"
        }
      ],
      "payable": false,
      "stateMutability": "view",
      "type": "function"
    },
    {
      "constant": true,
      "inputs": [],
      "name": "ticketSubmissionTimeout",
      "outputs": [
        {
          "internalType": "uint256",
          "name": "",
          "type": "uint256"
        }
      ],
      "payable": false,
      "stateMutability": "view",
      "type": "function"
    },
    {
      "constant": false,
      "inputs": [
        {
          "internalType": "address",
          "name": "operator",
          "type": "address"
        },
        {
          "internalType": "uint256",
          "name": "groupIndex",
          "type": "uint256"
        }
      ],
      "name": "withdrawGroupMemberRewards",
      "outputs": [],
      "payable": false,
      "stateMutability": "nonpayable",
      "type": "function"
    },
    {
      "constant": false,
      "inputs": [
        {
          "internalType": "uint256",
          "name": "size",
          "type": "uint256"
        }
      ],
      "name": "setGroupSize",
      "outputs": [],
      "payable": false,
      "stateMutability": "nonpayable",
      "type": "function"
    },
    {
      "constant": false,
      "inputs": [
        {
          "internalType": "uint256",
          "name": "threshold",
          "type": "uint256"
        }
      ],
      "name": "setGroupThreshold",
      "outputs": [],
      "payable": false,
      "stateMutability": "nonpayable",
      "type": "function"
    },
    {
      "constant": false,
      "inputs": [
        {
          "internalType": "uint256",
          "name": "threshold",
          "type": "uint256"
        }
      ],
      "name": "setDKGResultSignatureThreshold",
      "outputs": [],
      "payable": false,
      "stateMutability": "nonpayable",
      "type": "function"
    },
    {
      "constant": true,
      "inputs": [],
      "name": "getGroupSelectionRelayEntry",
      "outputs": [
        {
          "internalType": "uint256",
          "name": "",
          "type": "uint256"
        }
      ],
      "payable": false,
      "stateMutability": "view",
      "type": "function"
    },
    {
      "constant": true,
      "inputs": [],
      "name": "getTicketSubmissionStartBlock",
      "outputs": [
        {
          "internalType": "uint256",
          "name": "",
          "type": "uint256"
        }
      ],
      "payable": false,
      "stateMutability": "view",
      "type": "function"
    },
    {
      "constant": true,
      "inputs": [],
      "name": "isGroupSelectionInProgress",
      "outputs": [
        {
          "internalType": "bool",
          "name": "",
          "type": "bool"
        }
      ],
      "payable": false,
      "stateMutability": "view",
      "type": "function"
    },
    {
      "constant": false,
      "inputs": [
        {
          "internalType": "uint256",
          "name": "_gasPriceCeiling",
          "type": "uint256"
        }
      ],
      "name": "setGasPriceCeiling",
      "outputs": [],
      "payable": false,
      "stateMutability": "nonpayable",
      "type": "function"
    },
    {
      "constant": true,
      "inputs": [],
      "name": "timeDKG",
      "outputs": [
        {
          "internalType": "uint256",
          "name": "",
          "type": "uint256"
        }
      ],
      "payable": false,
      "stateMutability": "view",
      "type": "function"
    }
  ],
  "bytecode": "0x608060405266038d7ea4c68000601d55640df8475800601e556040601f556021602055600660215562000045602154601f54620002e560201b620046901790919060201c565b602255620445c0602355621a8ce060245562030d406025553480156200006a57600080fd5b5060405162005d3e38038062005d3e833981810160405260808110156200009057600080fd5b810190808051906020019092919080519060200190929190805190602001909291908051906020019092919050505083838383600160008190555060198490806001815401808255809150509060018203906000526020600020016000909192909190916101000a81548173ffffffffffffffffffffffffffffffffffffffff021916908373ffffffffffffffffffffffffffffffffffffffff1602179055505082601b60006101000a81548173ffffffffffffffffffffffffffffffffffffffff021916908373ffffffffffffffffffffffffffffffffffffffff16021790555081601a60006101000a81548173ffffffffffffffffffffffffffffffffffffffff021916908373ffffffffffffffffffffffffffffffffffffffff16021790555080601c60006101000a81548173ffffffffffffffffffffffffffffffffffffffff021916908373ffffffffffffffffffffffffffffffffffffffff160217905550601b60009054906101000a900473ffffffffffffffffffffffffffffffffffffffff16600b60090160006101000a81548173ffffffffffffffffffffffffffffffffffffffff021916908373ffffffffffffffffffffffffffffffffffffffff16021790555062013b00600b60000181905550602254600b60010181905550604e600160030181905550601f546001600901819055506048601560000181905550602154601560010181905550601f546015600201819055506002602054601f540381620002be57fe5b04602054016015600301819055505050505060646001600301819055505050505062000370565b600080831415620002fa57600090506200036a565b60008284029050828482816200030c57fe5b041462000365576040517f08c379a000000000000000000000000000000000000000000000000000000000815260040180806020018281038252602181526020018062005d1d6021913960400191505060405180910390fd5b809150505b92915050565b61599d80620003806000396000f3fe6080604052600436106102fe5760003560e01c80637760c6c711610190578063bf952496116100dc578063d12f5e6911610095578063eb9488d31161006f578063eb9488d3146114ac578063ef7c8f9c146114d7578063fdd18b131461158b578063fe6e693a146115b6576102fe565b8063d12f5e6914611292578063e1f4d632146113af578063e581ff74146113da576102fe565b8063bf95249614611181578063c300d058146111ac578063c4438946146111d7578063c45751cd14611202578063c96e71fb14611219578063c98622fb14611267576102fe565b80638e9e56a511610149578063a7f0b3de11610123578063a7f0b3de14611059578063ac374f4b14611063578063b1c77c8f1461112b578063b99f0c4314611156576102fe565b80638e9e56a514610e8d5780639b3d270a14610eb85780639dabee4414610f7d576102fe565b80637760c6c714610d1d57806379f9fb7e14610d6e5780637d7d7dd914610d995780637ff2176714610dc4578063885c020414610dff5780638a3a3da814610e52576102fe565b8063517471a91161024f57806363b635ea116102085780636dcc64f8116101e25780636dcc64f814610a045780636e5636e414610a2f5780637031b7ff14610a5e57806373f1daab14610a89576102fe565b806363b635ea1461096f578063642512081461099a5780636634c4c0146109c9576102fe565b8063517471a91461076557806352d3afe8146107905780635c1c0710146107bb5780635ec60d6114610824578063618c2656146108735780636262d54e14610903576102fe565b806324f17313116102bc57806336c857171161029657806336c8571714610631578063376f7a111461065c5780633926c28e146106cf578063498e26b51461072a576102fe565b806324f17313146104fb5780632d6f8f311461052657806336985b5a14610606576102fe565b80623bf87e146103035780630b19991f1461032e5780630dfc09cb1461039a5780631c524ac2146103d55780631ed74070146104b557806321a8f86c146104cc575b600080fd5b34801561030f57600080fd5b506103186115e1565b6040518082815260200191505060405180910390f35b34801561033a57600080fd5b506103436115e7565b6040518080602001828103825283818151815260200191508051906020019060200280838360005b8381101561038657808201518184015260208101905061036b565b505050509050019250505060405180910390f35b3480156103a657600080fd5b506103d3600480360360208110156103bd57600080fd5b8101908080359060200190929190505050611715565b005b3480156103e157600080fd5b5061049b600480360360208110156103f857600080fd5b810190808035906020019064010000000081111561041557600080fd5b82018360208201111561042757600080fd5b8035906020019184600183028401116401000000008311171561044957600080fd5b91908080601f016020809104026020016040519081016040528093929190818152602001838380828437600081840152601f19601f820116905080830192505050505050509192919290505050611733565b604051808215151515815260200191505060405180910390f35b3480156104c157600080fd5b506104ca611750565b005b3480156104d857600080fd5b506104e1611961565b604051808215151515815260200191505060405180910390f35b34801561050757600080fd5b506105106119ad565b6040518082815260200191505060405180910390f35b34801561053257600080fd5b506105ec6004803603602081101561054957600080fd5b810190808035906020019064010000000081111561056657600080fd5b82018360208201111561057857600080fd5b8035906020019184600183028401116401000000008311171561059a57600080fd5b91908080601f016020809104026020016040519081016040528093929190818152602001838380828437600081840152601f19601f8201169050808301925050505050505091929192905050506119b3565b604051808215151515815260200191505060405180910390f35b34801561061257600080fd5b5061061b611ab6565b6040518082815260200191505060405180910390f35b34801561063d57600080fd5b50610646611ac3565b6040518082815260200191505060405180910390f35b34801561066857600080fd5b506106b56004803603604081101561067f57600080fd5b81019080803573ffffffffffffffffffffffffffffffffffffffff16906020019092919080359060200190929190505050611ac9565b604051808215151515815260200191505060405180910390f35b3480156106db57600080fd5b50610728600480360360408110156106f257600080fd5b81019080803573ffffffffffffffffffffffffffffffffffffffff16906020019092919080359060200190929190505050611b9c565b005b34801561073657600080fd5b506107636004803603602081101561074d57600080fd5b8101908080359060200190929190505050611fa9565b005b34801561077157600080fd5b5061077a611fb3565b6040518082815260200191505060405180910390f35b34801561079c57600080fd5b506107a5611fd1565b6040518082815260200191505060405180910390f35b3480156107c757600080fd5b5061080a600480360360208110156107de57600080fd5b81019080803573ffffffffffffffffffffffffffffffffffffffff169060200190929190505050611fde565b604051808215151515815260200191505060405180910390f35b34801561083057600080fd5b5061085d6004803603602081101561084757600080fd5b81019080803590602001909291905050506120f5565b6040518082815260200191505060405180910390f35b34801561087f57600080fd5b50610888612193565b6040518080602001828103825283818151815260200191508051906020019080838360005b838110156108c85780820151818401526020810190506108ad565b50505050905090810190601f1680156108f55780820380516001836020036101000a031916815260200191505b509250505060405180910390f35b34801561090f57600080fd5b50610918612231565b6040518080602001828103825283818151815260200191508051906020019060200280838360005b8381101561095b578082015181840152602081019050610940565b505050509050019250505060405180910390f35b34801561097b57600080fd5b506109846122c0565b6040518082815260200191505060405180910390f35b3480156109a657600080fd5b506109af6122c6565b604051808215151515815260200191505060405180910390f35b3480156109d557600080fd5b50610a02600480360360208110156109ec57600080fd5b81019080803590602001909291905050506122e0565b005b348015610a1057600080fd5b50610a196122ed565b6040518082815260200191505060405180910390f35b348015610a3b57600080fd5b50610a446122f3565b604051808215151515815260200191505060405180910390f35b348015610a6a57600080fd5b50610a73612300565b6040518082815260200191505060405180910390f35b348015610a9557600080fd5b50610d1b600480360360a0811015610aac57600080fd5b810190808035906020019092919080359060200190640100000000811115610ad357600080fd5b820183602082011115610ae557600080fd5b80359060200191846001830284011164010000000083111715610b0757600080fd5b91908080601f016020809104026020016040519081016040528093929190818152602001838380828437600081840152601f19601f82011690508083019250505050505050919291929080359060200190640100000000811115610b6a57600080fd5b820183602082011115610b7c57600080fd5b80359060200191846001830284011164010000000083111715610b9e57600080fd5b91908080601f016020809104026020016040519081016040528093929190818152602001838380828437600081840152601f19601f82011690508083019250505050505050919291929080359060200190640100000000811115610c0157600080fd5b820183602082011115610c1357600080fd5b80359060200191846001830284011164010000000083111715610c3557600080fd5b91908080601f016020809104026020016040519081016040528093929190818152602001838380828437600081840152601f19601f82011690508083019250505050505050919291929080359060200190640100000000811115610c9857600080fd5b820183602082011115610caa57600080fd5b80359060200191846020830284011164010000000083111715610ccc57600080fd5b919080806020026020016040519081016040528093929190818152602001838360200280828437600081840152601f19601f820116905080830192505050505050509192919290505050612306565b005b348015610d2957600080fd5b50610d6c60048036036020811015610d4057600080fd5b81019080803573ffffffffffffffffffffffffffffffffffffffff1690602001909291905050506129ee565b005b348015610d7a57600080fd5b50610d83612bd1565b6040518082815260200191505060405180910390f35b348015610da557600080fd5b50610dae612bd7565b6040518082815260200191505060405180910390f35b348015610dd057600080fd5b50610dfd60048036036020811015610de757600080fd5b8101908080359060200190929190505050612bdd565b005b348015610e0b57600080fd5b50610e3860048036036020811015610e2257600080fd5b8101908080359060200190929190505050612bf1565b604051808215151515815260200191505060405180910390f35b348015610e5e57600080fd5b50610e8b60048036036020811015610e7557600080fd5b8101908080359060200190929190505050612c0e565b005b348015610e9957600080fd5b50610ea2612db5565b6040518082815260200191505060405180910390f35b610f7b60048036036040811015610ece57600080fd5b810190808035906020019092919080359060200190640100000000811115610ef557600080fd5b820183602082011115610f0757600080fd5b80359060200191846001830284011164010000000083111715610f2957600080fd5b91908080601f016020809104026020016040519081016040528093929190818152602001838380828437600081840152601f19601f820116905080830192505050505050509192919290505050612dbb565b005b348015610f8957600080fd5b5061104360048036036020811015610fa057600080fd5b8101908080359060200190640100000000811115610fbd57600080fd5b820183602082011115610fcf57600080fd5b80359060200191846001830284011164010000000083111715610ff157600080fd5b91908080601f016020809104026020016040519081016040528093929190818152602001838380828437600081840152601f19601f820116905080830192505050505050509192919290505050612f8b565b6040518082815260200191505060405180910390f35b611061613001565b005b34801561106f57600080fd5b506111296004803603602081101561108657600080fd5b81019080803590602001906401000000008111156110a357600080fd5b8201836020820111156110b557600080fd5b803590602001918460018302840111640100000000831117156110d757600080fd5b91908080601f016020809104026020016040519081016040528093929190818152602001838380828437600081840152601f19601f82011690508083019250505050505050919291929050505061320e565b005b34801561113757600080fd5b50611140613b4d565b6040518082815260200191505060405180910390f35b34801561116257600080fd5b5061116b613b53565b6040518082815260200191505060405180910390f35b34801561118d57600080fd5b50611196613b59565b6040518082815260200191505060405180910390f35b3480156111b857600080fd5b506111c1613b6a565b6040518082815260200191505060405180910390f35b3480156111e357600080fd5b506111ec613b9c565b6040518082815260200191505060405180910390f35b34801561120e57600080fd5b50611217613bba565b005b6112656004803603604081101561122f57600080fd5b8101908080359060200190929190803573ffffffffffffffffffffffffffffffffffffffff169060200190929190505050613c65565b005b34801561127357600080fd5b5061127c613f86565b6040518082815260200191505060405180910390f35b34801561129e57600080fd5b50611358600480360360208110156112b557600080fd5b81019080803590602001906401000000008111156112d257600080fd5b8201836020820111156112e457600080fd5b8035906020019184600183028401116401000000008311171561130657600080fd5b91908080601f016020809104026020016040519081016040528093929190818152602001838380828437600081840152601f19601f820116905080830192505050505050509192919290505050613f93565b6040518080602001828103825283818151815260200191508051906020019060200280838360005b8381101561139b578082015181840152602081019050611380565b505050509050019250505060405180910390f35b3480156113bb57600080fd5b506113c4614130565b6040518082815260200191505060405180910390f35b3480156113e657600080fd5b506114aa600480360360408110156113fd57600080fd5b81019080803590602001909291908035906020019064010000000081111561142457600080fd5b82018360208201111561143657600080fd5b8035906020019184600183028401116401000000008311171561145857600080fd5b91908080601f016020809104026020016040519081016040528093929190818152602001838380828437600081840152601f19601f820116905080830192505050505050509192919290505050614136565b005b3480156114b857600080fd5b506114c16142f0565b6040518082815260200191505060405180910390f35b3480156114e357600080fd5b50611510600480360360208110156114fa57600080fd5b81019080803590602001909291905050506142fd565b6040518080602001828103825283818151815260200191508051906020019080838360005b83811015611550578082015181840152602081019050611535565b50505050905090810190601f16801561157d5780820380516001836020036101000a031916815260200191505b509250505060405180910390f35b34801561159757600080fd5b506115a061431a565b6040518082815260200191505060405180910390f35b3480156115c257600080fd5b506115cb61432a565b6040518082815260200191505060405180910390f35b60245481565b6060600173__GroupSelection________________________63a3c6b2b390916040518263ffffffff1660e01b81526004018082815260200191505060006040518083038186803b15801561163b57600080fd5b505af415801561164f573d6000803e3d6000fd5b505050506040513d6000823e3d601f19601f82011682018060405250602081101561167957600080fd5b810190808051604051939291908464010000000082111561169957600080fd5b838201915060208201858111156116af57600080fd5b82518660208202830111640100000000821117156116cc57600080fd5b8083526020830192505050908051906020019060200280838360005b838110156117035780820151818401526020810190506116e8565b50505050905001604052505050905090565b80601f81905550806001600901819055508060156002018190555050565b600061174982600b61433790919063ffffffff16565b9050919050565b6117586143af565b6117ca576040517f08c379a00000000000000000000000000000000000000000000000000000000081526004018080602001828103825260168152602001807f456e74727920646964206e6f742074696d65206f75740000000000000000000081525060200191505060405180910390fd5b600b73__Groups________________________________63a24940029091602a54601f546040518463ffffffff1660e01b815260040180848152602001838152602001828152602001935050505060006040518083038186803b15801561183057600080fd5b505af4158015611844573d6000803e3d6000fd5b505050506000602981905550600061185a613b59565b11156119305761192f602854602b8054600181600116156101000203166002900480601f0160208091040260200160405190810160405280929190818152602001828054600181600116156101000203166002900480156118fc5780601f106118d1576101008083540402835291602001916118fc565b820191906000526020600020905b8154815290600101906020018083116118df57829003601f168201915b5050505050602e60009054906101000a900473ffffffffffffffffffffffffffffffffffffffff16602c54602d546143cd565b5b602a547f6675fe3ae219641aa4ec9e58867bd7af88bf03caf819d8858f3ddf4cc635eed260405160405180910390a2565b6000600160050160009054906101000a900460ff1661198357600190506119aa565b6000602154601f540260156000015460016003015460016004015401010190508043119150505b90565b60255481565b6000600b73__Groups________________________________63cc9b37c29091846040518363ffffffff1660e01b81526004018083815260200180602001828103825283818151815260200191508051906020019080838360005b83811015611a29578082015181840152602081019050611a0e565b50505050905090810190601f168015611a565780820380516001836020036101000a031916815260200191505b50935050505060206040518083038186803b158015611a7457600080fd5b505af4158015611a88573d6000803e3d6000fd5b505050506040513d6020811015611a9e57600080fd5b81019080805190602001909291905050509050919050565b6000600160020154905090565b60215481565b6000600b73__Groups________________________________634a37cba2909185856040518463ffffffff1660e01b8152600401808481526020018373ffffffffffffffffffffffffffffffffffffffff1673ffffffffffffffffffffffffffffffffffffffff168152602001828152602001935050505060206040518083038186803b158015611b5957600080fd5b505af4158015611b6d573d6000803e3d6000fd5b505050506040513d6020811015611b8357600080fd5b8101908080519060200190929190505050905092915050565b600160008082825401925050819055506000805490506000600b73__Groups________________________________6319818cd3909186866040518463ffffffff1660e01b8152600401808481526020018373ffffffffffffffffffffffffffffffffffffffff1673ffffffffffffffffffffffffffffffffffffffff168152602001828152602001935050505060206040518083038186803b158015611c4257600080fd5b505af4158015611c56573d6000803e3d6000fd5b505050506040513d6020811015611c6c57600080fd5b810190808051906020019092919050505090506000601b60009054906101000a900473ffffffffffffffffffffffffffffffffffffffff1673ffffffffffffffffffffffffffffffffffffffff1663ba7bffd3866040518263ffffffff1660e01b8152600401808273ffffffffffffffffffffffffffffffffffffffff1673ffffffffffffffffffffffffffffffffffffffff16815260200191505060206040518083038186803b158015611d2057600080fd5b505afa158015611d34573d6000803e3d6000fd5b505050506040513d6020811015611d4a57600080fd5b810190808051906020019092919050505073ffffffffffffffffffffffffffffffffffffffff168260405180600001905060006040518083038185875af1925050503d8060008114611db8576040519150601f19603f3d011682016040523d82523d6000602084013e611dbd565b606091505b505090508015611f2b57601b60009054906101000a900473ffffffffffffffffffffffffffffffffffffffff1673ffffffffffffffffffffffffffffffffffffffff1663ba7bffd3866040518263ffffffff1660e01b8152600401808273ffffffffffffffffffffffffffffffffffffffff1673ffffffffffffffffffffffffffffffffffffffff16815260200191505060206040518083038186803b158015611e6657600080fd5b505afa158015611e7a573d6000803e3d6000fd5b505050506040513d6020811015611e9057600080fd5b810190808051906020019092919050505073ffffffffffffffffffffffffffffffffffffffff167fd2d1d8bb9db82c3480418ddcddf25a021102ad139edec2a62b274595d408a88d868487604051808473ffffffffffffffffffffffffffffffffffffffff1673ffffffffffffffffffffffffffffffffffffffff168152602001838152602001828152602001935050505060405180910390a25b50506000548114611fa4576040517f08c379a000000000000000000000000000000000000000000000000000000000815260040180806020018281038252601f8152602001807f5265656e7472616e637947756172643a207265656e7472616e742063616c6c0081525060200191505060405180910390fd5b505050565b80601e8190555050565b6000611fcc601e5460235461469090919063ffffffff16565b905090565b6000600160040154905090565b6000601b60009054906101000a900473ffffffffffffffffffffffffffffffffffffffff1673ffffffffffffffffffffffffffffffffffffffff166310a63ec083306040518363ffffffff1660e01b8152600401808373ffffffffffffffffffffffffffffffffffffffff1673ffffffffffffffffffffffffffffffffffffffff1681526020018273ffffffffffffffffffffffffffffffffffffffff1673ffffffffffffffffffffffffffffffffffffffff1681526020019250505060206040518083038186803b1580156120b357600080fd5b505afa1580156120c7573d6000803e3d6000fd5b505050506040513d60208110156120dd57600080fd5b81019080805190602001909291905050509050919050565b6000600b73__Groups________________________________634732bd3b9091846040518363ffffffff1660e01b8152600401808381526020018281526020019250505060206040518083038186803b15801561215157600080fd5b505af4158015612165573d6000803e3d6000fd5b505050506040513d602081101561217b57600080fd5b81019080805190602001909291905050509050919050565b602b8054600181600116156101000203166002900480601f0160208091040260200160405190810160405280929190818152602001828054600181600116156101000203166002900480156122295780601f106121fe57610100808354040283529160200191612229565b820191906000526020600020905b81548152906001019060200180831161220c57829003601f168201915b505050505081565b606060016000018054806020026020016040519081016040528092919081815260200182805480156122b657602002820191906000526020600020906000905b82829054906101000a900467ffffffffffffffff1667ffffffffffffffff16815260200190600801906020826007010492830192600103820291508084116122715790505b5050505050905090565b601f5481565b6000600160050160009054906101000a900460ff16905090565b8060156003018190555050565b60205481565b6000806029541415905090565b602a5481565b6001600080828254019250508190555060008054905060606123266115e7565b9050601573__DKGResultVerification_________________63da0a16899091898989898988600160030154600160040154016040518963ffffffff1660e01b815260040180898152602001888152602001806020018060200180602001806020018060200187815260200186810386528c818151815260200191508051906020019080838360005b838110156123ca5780820151818401526020810190506123af565b50505050905090810190601f1680156123f75780820380516001836020036101000a031916815260200191505b5086810385528b818151815260200191508051906020019080838360005b83811015612430578082015181840152602081019050612415565b50505050905090810190601f16801561245d5780820380516001836020036101000a031916815260200191505b5086810384528a818151815260200191508051906020019080838360005b8381101561249657808201518184015260208101905061247b565b50505050905090810190601f1680156124c35780820380516001836020036101000a031916815260200191505b50868103835289818151815260200191508051906020019060200280838360005b838110156124ff5780820151818401526020810190506124e4565b50505050905001868103825288818151815260200191508051906020019060200280838360005b83811015612541578082015181840152602081019050612526565b505050509050019d505050505050505050505050505060006040518083038186803b15801561256f57600080fd5b505af4158015612583573d6000803e3d6000fd5b50505050600b73__Groups________________________________63e130bd6790918884896040518563ffffffff1660e01b815260040180858152602001806020018060200180602001848103845287818151815260200191508051906020019080838360005b838110156126055780820151818401526020810190506125ea565b50505050905090810190601f1680156126325780820380516001836020036101000a031916815260200191505b50848103835286818151815260200191508051906020019060200280838360005b8381101561266e578082015181840152602081019050612653565b50505050905001848103825285818151815260200191508051906020019080838360005b838110156126ad578082015181840152602081019050612692565b50505050905090810190601f1680156126da5780820380516001836020036101000a031916815260200191505b5097505050505050505060006040518083038186803b1580156126fc57600080fd5b505af4158015612710573d6000803e3d6000fd5b50505050600b73__Groups________________________________634a1a55fa9091886040518363ffffffff1660e01b81526004018083815260200180602001828103825283818151815260200191508051906020019080838360005b8381101561278857808201518184015260208101905061276d565b50505050905090810190601f1680156127b55780820380516001836020036101000a031916815260200191505b50935050505060006040518083038186803b1580156127d357600080fd5b505af41580156127e7573d6000803e3d6000fd5b505050506127f3614716565b7fd1d71346ed0f1479c55b14e7c48b084207a7e1bcd9abe4f22d425ec23a518a1f878787604051808481526020018060200180602001838103835285818151815260200191508051906020019080838360005b83811015612861578082015181840152602081019050612846565b50505050905090810190601f16801561288e5780820380516001836020036101000a031916815260200191505b50838103825284818151815260200191508051906020019080838360005b838110156128c75780820151818401526020810190506128ac565b50505050905090810190601f1680156128f45780820380516001836020036101000a031916815260200191505b509550505050505060405180910390a1600173__GroupSelection________________________63a4b15bac90916040518263ffffffff1660e01b81526004018082815260200191505060006040518083038186803b15801561295657600080fd5b505af415801561296a573d6000803e3d6000fd5b505050505060005481146129e6576040517f08c379a000000000000000000000000000000000000000000000000000000000815260040180806020018281038252601f8152602001807f5265656e7472616e637947756172643a207265656e7472616e742063616c6c0081525060200191505060405180910390fd5b505050505050565b3373ffffffffffffffffffffffffffffffffffffffff16601a60009054906101000a900473ffffffffffffffffffffffffffffffffffffffff1673ffffffffffffffffffffffffffffffffffffffff16636557eccf306040518263ffffffff1660e01b8152600401808273ffffffffffffffffffffffffffffffffffffffff1673ffffffffffffffffffffffffffffffffffffffff16815260200191505060206040518083038186803b158015612aa457600080fd5b505afa158015612ab8573d6000803e3d6000fd5b505050506040513d6020811015612ace57600080fd5b810190808051906020019092919050505073ffffffffffffffffffffffffffffffffffffffff1614612b68576040517f08c379a000000000000000000000000000000000000000000000000000000000815260040180806020018281038252600e8152602001807f4e6f7420617574686f72697a656400000000000000000000000000000000000081525060200191505060405180910390fd5b60198190806001815401808255809150509060018203906000526020600020016000909192909190916101000a81548173ffffffffffffffffffffffffffffffffffffffff021916908373ffffffffffffffffffffffffffffffffffffffff1602179055505050565b60235481565b601d5481565b806020819055508060156003018190555050565b6000612c0782600b6149c190919063ffffffff16565b9050919050565b6000612d35600160060154601b60009054906101000a900473ffffffffffffffffffffffffffffffffffffffff1673ffffffffffffffffffffffffffffffffffffffff1663afff33ef33306040518363ffffffff1660e01b8152600401808373ffffffffffffffffffffffffffffffffffffffff1673ffffffffffffffffffffffffffffffffffffffff1681526020018273ffffffffffffffffffffffffffffffffffffffff1673ffffffffffffffffffffffffffffffffffffffff1681526020019250505060206040518083038186803b158015612cec57600080fd5b505afa158015612d00573d6000803e3d6000fd5b505050506040513d6020811015612d1657600080fd5b81019080805190602001909291905050506149f990919063ffffffff16565b9050600173__GroupSelection________________________63fb6ed49c909184846040518463ffffffff1660e01b815260040180848152602001838152602001828152602001935050505060006040518083038186803b158015612d9957600080fd5b505af4158015612dad573d6000803e3d6000fd5b505050505050565b60295481565b612e54336019805480602002602001604051908101604052809291908181526020018280548015612e4157602002820191906000526020600020905b8160009054906101000a900473ffffffffffffffffffffffffffffffffffffffff1673ffffffffffffffffffffffffffffffffffffffff1681526020019060010190808311612df7575b5050505050614a4390919063ffffffff16565b612ec6576040517f08c379a00000000000000000000000000000000000000000000000000000000081526004018080602001828103825260208152602001807f43616c6c6572206973206e6f742061207365727669636520636f6e747261637481525060200191505060405180910390fd5b6000612ee9612ed3611fb3565b612edb613b9c565b614abe90919063ffffffff16565b905080341015612f61576040517f08c379a000000000000000000000000000000000000000000000000000000000815260040180806020018281038252601a8152602001807f496e73756666696369656e74206e657720656e7472792066656500000000000081525060200191505060405180910390fd5b6000612f768234614b4690919063ffffffff16565b9050612f8584843385856143cd565b50505050565b6000600b600601826040518082805190602001908083835b60208310612fc65780518252602082019150602081019050602083039250612fa3565b6001836020036101000a0380198251168184511680821785525050505050509050019150509081526020016040518091039020549050919050565b600b73__Groups________________________________63fff0da7590916040518263ffffffff1660e01b81526004018082815260200191505060006040518083038186803b15801561305357600080fd5b505af4158015613067573d6000803e3d6000fd5b505050506000613075613b59565b146130e8576040517f08c379a000000000000000000000000000000000000000000000000000000000815260040180806020018281038252600c8152602001807f47726f757073206578697374000000000000000000000000000000000000000081525060200191505060405180910390fd5b600173__GroupSelection________________________63a4b15bac90916040518263ffffffff1660e01b81526004018082815260200191505060006040518083038186803b15801561313a57600080fd5b505af415801561314e573d6000803e3d6000fd5b50505050601961316d6001601980549050614b4690919063ffffffff16565b8154811061317757fe5b9060005260206000200160009054906101000a900473ffffffffffffffffffffffffffffffffffffffff16602760006101000a81548173ffffffffffffffffffffffffffffffffffffffff021916908373ffffffffffffffffffffffffffffffffffffffff16021790555061320c7f4574c8c75d6e88acd28f7e467dac97b5c60c3838d9dad993900bdf402152228e34614b90565b565b6001600080828254019250508190555060008054905061322c6122f3565b61329e576040517f08c379a00000000000000000000000000000000000000000000000000000000081526004018080602001828103825260138152602001807f456e74727920776173207375626d69747465640000000000000000000000000081525060200191505060405180910390fd5b6132a66143af565b15613319576040517f08c379a000000000000000000000000000000000000000000000000000000000815260040180806020018281038252600f8152602001807f456e7472792074696d6564206f7574000000000000000000000000000000000081525060200191505060405180910390fd5b6060613331602a54600b614e9590919063ffffffff16565b905073__BLS___________________________________63de8f50a182602b866040518463ffffffff1660e01b815260040180806020018060200180602001848103845287818151815260200191508051906020019080838360005b838110156133a857808201518184015260208101905061338d565b50505050905090810190601f1680156133d55780820380516001836020036101000a031916815260200191505b508481038352868181546001816001161561010002031660029004815260200191508054600181600116156101000203166002900480156134575780601f1061342c57610100808354040283529160200191613457565b820191906000526020600020905b81548152906001019060200180831161343a57829003601f168201915b5050848103825285818151815260200191508051906020019080838360005b83811015613491578082015181840152602081019050613476565b50505050905090810190601f1680156134be5780820380516001836020036101000a031916815260200191505b50965050505050505060206040518083038186803b1580156134df57600080fd5b505af41580156134f3573d6000803e3d6000fd5b505050506040513d602081101561350957600080fd5b810190808051906020019092919050505061358c576040517f08c379a00000000000000000000000000000000000000000000000000000000081526004018080602001828103825260118152602001807f496e76616c6964207369676e617475726500000000000000000000000000000081525060200191505060405180910390fd5b7f8711cae111460cf9bde0d890f0dc09abcb8851e39bf020f406e53e86394cdbd760405160405180910390a1602e60009054906101000a900473ffffffffffffffffffffffffffffffffffffffff1673ffffffffffffffffffffffffffffffffffffffff16613608619c40602554614abe90919063ffffffff16565b602854853360405160240180848152602001806020018373ffffffffffffffffffffffffffffffffffffffff1673ffffffffffffffffffffffffffffffffffffffff168152602001828103825284818151815260200191508051906020019080838360005b8381101561368857808201518184015260208101905061366d565b50505050905090810190601f1680156136b55780820380516001836020036101000a031916815260200191505b509450505050506040516020818303038152906040527fef7284e3000000000000000000000000000000000000000000000000000000007bffffffffffffffffffffffffffffffffffffffffffffffffffffffff19166020820180517bffffffffffffffffffffffffffffffffffffffffffffffffffffffff83818316178352505050506040518082805190602001908083835b6020831061376c5780518252602082019150602081019050602083039250613749565b6001836020036101000a03801982511681845116808217855250505050505090500191505060006040518083038160008787f1925050503d80600081146137cf576040519150601f19603f3d011682016040523d82523d6000602084013e6137d4565b606091505b5050506000602d5411156137f6576137f5838051906020012060001c614f58565b5b60008060006138036153d9565b92509250925061381f8484600b6155969092919063ffffffff16565b601b60009054906101000a900473ffffffffffffffffffffffffffffffffffffffff1673ffffffffffffffffffffffffffffffffffffffff1663ba7bffd3336040518263ffffffff1660e01b8152600401808273ffffffffffffffffffffffffffffffffffffffff1673ffffffffffffffffffffffffffffffffffffffff16815260200191505060206040518083038186803b1580156138be57600080fd5b505afa1580156138d2573d6000803e3d6000fd5b505050506040513d60208110156138e857600080fd5b810190808051906020019092919050505073ffffffffffffffffffffffffffffffffffffffff168260405180600001905060006040518083038185875af1925050503d8060008114613956576040519150601f19603f3d011682016040523d82523d6000602084013e61395b565b606091505b5050506000811115613ac657602e60009054906101000a900473ffffffffffffffffffffffffffffffffffffffff1673ffffffffffffffffffffffffffffffffffffffff166188b8826040516024016040516020818303038152906040527f11e816ee000000000000000000000000000000000000000000000000000000007bffffffffffffffffffffffffffffffffffffffffffffffffffffffff19166020820180517bffffffffffffffffffffffffffffffffffffffffffffffffffffffff83818316178352505050506040518082805190602001908083835b60208310613a5a5780518252602082019150602081019050602083039250613a37565b6001836020036101000a038019825116818451168082178552505050505050905001915050600060405180830381858888f193505050503d8060008114613abd576040519150601f19603f3d011682016040523d82523d6000602084013e613ac2565b606091505b5050505b6000602981905550505050506000548114613b49576040517f08c379a000000000000000000000000000000000000000000000000000000000815260040180806020018281038252601f8152602001807f5265656e7472616e637947756172643a207265656e7472616e742063616c6c0081525060200191505060405180910390fd5b5050565b60265481565b60225481565b6000613b65600b615688565b905090565b6000613b97601e54613b89602554602454614abe90919063ffffffff16565b61469090919063ffffffff16565b905090565b6000613bb5601f54601d5461469090919063ffffffff16565b905090565b601c60009054906101000a900473ffffffffffffffffffffffffffffffffffffffff1673ffffffffffffffffffffffffffffffffffffffff1663fe173b976040518163ffffffff1660e01b815260040160206040518083038186803b158015613c2257600080fd5b505afa158015613c36573d6000803e3d6000fd5b505050506040513d6020811015613c4c57600080fd5b8101908080519060200190929190505050601e81905550565b613cfe336019805480602002602001604051908101604052809291908181526020018280548015613ceb57602002820191906000526020600020905b8160009054906101000a900473ffffffffffffffffffffffffffffffffffffffff1673ffffffffffffffffffffffffffffffffffffffff1681526020019060010190808311613ca1575b5050505050614a4390919063ffffffff16565b613d70576040517f08c379a00000000000000000000000000000000000000000000000000000000081526004018080602001828103825260208152602001807f43616c6c6572206973206e6f742061207365727669636520636f6e747261637481525060200191505060405180910390fd5b6000613d89601e5460255461469090919063ffffffff16565b905033602760006101000a81548173ffffffffffffffffffffffffffffffffffffffff021916908373ffffffffffffffffffffffffffffffffffffffff160217905550613de883613de38334614b4690919063ffffffff16565b614b90565b6000601b60009054906101000a900473ffffffffffffffffffffffffffffffffffffffff1673ffffffffffffffffffffffffffffffffffffffff1663ba7bffd3846040518263ffffffff1660e01b8152600401808273ffffffffffffffffffffffffffffffffffffffff1673ffffffffffffffffffffffffffffffffffffffff16815260200191505060206040518083038186803b158015613e8957600080fd5b505afa158015613e9d573d6000803e3d6000fd5b505050506040513d6020811015613eb357600080fd5b810190808051906020019092919050505073ffffffffffffffffffffffffffffffffffffffff168260405180600001905060006040518083038185875af1925050503d8060008114613f21576040519150601f19603f3d011682016040523d82523d6000602084013e613f26565b606091505b5050905080613f80576040517f08c379a00000000000000000000000000000000000000000000000000000000081526004018080602001828103825260248152602001806159456024913960400191505060405180910390fd5b50505050565b6000600160030154905090565b6060600b73__Groups________________________________63dc2627039091846040518363ffffffff1660e01b81526004018083815260200180602001828103825283818151815260200191508051906020019080838360005b83811015614009578082015181840152602081019050613fee565b50505050905090810190601f1680156140365780820380516001836020036101000a031916815260200191505b50935050505060006040518083038186803b15801561405457600080fd5b505af4158015614068573d6000803e3d6000fd5b505050506040513d6000823e3d601f19601f82011682018060405250602081101561409257600080fd5b81019080805160405193929190846401000000008211156140b257600080fd5b838201915060208201858111156140c857600080fd5b82518660208202830111640100000000821117156140e557600080fd5b8083526020830192505050908051906020019060200280838360005b8381101561411c578082015181840152602081019050614101565b505050509050016040525050509050919050565b601e5481565b600b73__Groups________________________________6320bc286690918484601b60009054906101000a900473ffffffffffffffffffffffffffffffffffffffff1673ffffffffffffffffffffffffffffffffffffffff1663ec5ffac26040518163ffffffff1660e01b815260040160206040518083038186803b1580156141be57600080fd5b505afa1580156141d2573d6000803e3d6000fd5b505050506040513d60208110156141e857600080fd5b81019080805190602001909291905050506040518563ffffffff1660e01b81526004018085815260200184815260200180602001838152602001828103825284818151815260200191508051906020019080838360005b8381101561425a57808201518184015260208101905061423f565b50505050905090810190601f1680156142875780820380516001836020036101000a031916815260200191505b509550505050505060006040518083038186803b1580156142a757600080fd5b505af41580156142bb573d6000803e3d6000fd5b50505050817f6124f28ae7240a98a8ad3410bcd1f3bb0a113fc9834d5bd16426f9e1bd698fde60405160405180910390a25050565b6000600b60080154905090565b606061431382600b614e9590919063ffffffff16565b9050919050565b6000600b60030180549050905090565b6000601560000154905090565b60008083600201836040518082805190602001908083835b60208310614372578051825260208201915060208101905060208303925061434f565b6001836020036101000a03801982511681845116808217855250505050505090500191505090815260200160405180910390205411905092915050565b600080602954141580156143c857506022546029540143115b905090565b6143d56122f3565b15614448576040517f08c379a000000000000000000000000000000000000000000000000000000000815260040180806020018281038252600e8152602001807f426561636f6e206973206275737900000000000000000000000000000000000081525060200191505060405180910390fd5b6000600b73__Groups________________________________6337ed6ace9091878051906020012060001c6040518363ffffffff1660e01b8152600401808381526020018281526020019250505060206040518083038186803b1580156144ae57600080fd5b505af41580156144c2573d6000803e3d6000fd5b505050506040513d60208110156144d857600080fd5b81019080805190602001909291905050509050856028819055504360298190555082602c8190555081602d8190555080602a8190555084602b908051906020019061452492919061587e565b5083602e60006101000a81548173ffffffffffffffffffffffffffffffffffffffff021916908373ffffffffffffffffffffffffffffffffffffffff160217905550606061457c82600b614e9590919063ffffffff16565b90507ff3a8bf09e4f9146a48f9b91226985ac8d83d971beb4fc9ffdc569790e85a97e48682604051808060200180602001838103835285818151815260200191508051906020019080838360005b838110156145e55780820151818401526020810190506145ca565b50505050905090810190601f1680156146125780820380516001836020036101000a031916815260200191505b50838103825284818151815260200191508051906020019080838360005b8381101561464b578082015181840152602081019050614630565b50505050905090810190601f1680156146785780820380516001836020036101000a031916815260200191505b5094505050505060405180910390a150505050505050565b6000808314156146a35760009050614710565b60008284029050828482816146b457fe5b041461470b576040517f08c379a00000000000000000000000000000000000000000000000000000000081526004018080602001828103825260218152602001806159246021913960400191505060405180910390fd5b809150505b92915050565b6000601e54905060003a11801561472e5750601e543a105b15614737573a90505b600061474e8260245461469090919063ffffffff16565b90506000601b60009054906101000a900473ffffffffffffffffffffffffffffffffffffffff1673ffffffffffffffffffffffffffffffffffffffff1663ba7bffd3336040518263ffffffff1660e01b8152600401808273ffffffffffffffffffffffffffffffffffffffff1673ffffffffffffffffffffffffffffffffffffffff16815260200191505060206040518083038186803b1580156147f157600080fd5b505afa158015614805573d6000803e3d6000fd5b505050506040513d602081101561481b57600080fd5b8101908080519060200190929190505050905060265482101561494857600061484f83602654614b4690919063ffffffff16565b905060006026819055508173ffffffffffffffffffffffffffffffffffffffff168360405180600001905060006040518083038185875af1925050503d80600081146148b7576040519150601f19603f3d011682016040523d82523d6000602084013e6148bc565b606091505b505050602760009054906101000a900473ffffffffffffffffffffffffffffffffffffffff1673ffffffffffffffffffffffffffffffffffffffff16634611b648826040518263ffffffff1660e01b81526004016000604051808303818588803b15801561492957600080fd5b505af115801561493d573d6000803e3d6000fd5b5050505050506149bc565b602654915060006026819055508073ffffffffffffffffffffffffffffffffffffffff168260405180600001905060006040518083038185875af1925050503d80600081146149b3576040519150601f19603f3d011682016040523d82523d6000602084013e6149b8565b606091505b5050505b505050565b60008260030182815481106149d257fe5b906000526020600020906003020160020160009054906101000a900460ff16905092915050565b6000614a3b83836040518060400160405280601a81526020017f536166654d6174683a206469766973696f6e206279207a65726f0000000000008152506156c8565b905092915050565b600080600090505b8351811015614ab257838181518110614a6057fe5b602002602001015173ffffffffffffffffffffffffffffffffffffffff168373ffffffffffffffffffffffffffffffffffffffff161415614aa5576001915050614ab8565b8080600101915050614a4b565b50600090505b92915050565b600080828401905083811015614b3c576040517f08c379a000000000000000000000000000000000000000000000000000000000815260040180806020018281038252601b8152602001807f536166654d6174683a206164646974696f6e206f766572666c6f77000000000081525060200191505060405180910390fd5b8091505092915050565b6000614b8883836040518060400160405280601e81526020017f536166654d6174683a207375627472616374696f6e206f766572666c6f77000081525061578e565b905092915050565b614ba7602454601e5461469090919063ffffffff16565b811015614c1c576040517f08c379a00000000000000000000000000000000000000000000000000000000081526004018080602001828103825260148152602001807f496e73756666696369656e7420444b472066656500000000000000000000000081525060200191505060405180910390fd5b614c24611961565b614c96576040517f08c379a000000000000000000000000000000000000000000000000000000000815260040180806020018281038252601b8152602001807f47726f75702073656c656374696f6e20696e2070726f6772657373000000000081525060200191505060405180910390fd5b60006026541115614d3557600060265490506000602681905550602760009054906101000a900473ffffffffffffffffffffffffffffffffffffffff1673ffffffffffffffffffffffffffffffffffffffff16634611b648826040518263ffffffff1660e01b81526004016000604051808303818588803b158015614d1a57600080fd5b505af1158015614d2e573d6000803e3d6000fd5b5050505050505b601b60009054906101000a900473ffffffffffffffffffffffffffffffffffffffff1673ffffffffffffffffffffffffffffffffffffffff1663ec5ffac26040518163ffffffff1660e01b815260040160206040518083038186803b158015614d9d57600080fd5b505afa158015614db1573d6000803e3d6000fd5b505050506040513d6020811015614dc757600080fd5b8101908080519060200190929190505050600160060181905550600173__GroupSelection________________________6352f9b3b99091846040518363ffffffff1660e01b8152600401808381526020018281526020019250505060006040518083038186803b158015614e3b57600080fd5b505af4158015614e4f573d6000803e3d6000fd5b505050507f0769b89b6dbd96af3cdebccc7b68ce1e4ae748abc3e6b19a73b8b58460c57a94826040518082815260200191505060405180910390a1806026819055505050565b6060826003018281548110614ea657fe5b90600052602060002090600302016000018054600181600116156101000203166002900480601f016020809104026020016040519081016040528092919081815260200182805460018160011615610100020316600290048015614f4b5780601f10614f2057610100808354040283529160200191614f4b565b820191906000526020600020905b815481529060010190602001808311614f2e57829003601f168201915b5050505050905092915050565b6000614f71601e54602d546149f990919063ffffffff16565b9050621e84808111614f835780614f88565b621e84805b90506060602e60009054906101000a900473ffffffffffffffffffffffffffffffffffffffff1673ffffffffffffffffffffffffffffffffffffffff16619c40602854604051602401808281526020019150506040516020818303038152906040527f0fda9ce4000000000000000000000000000000000000000000000000000000007bffffffffffffffffffffffffffffffffffffffffffffffffffffffff19166020820180517bffffffffffffffffffffffffffffffffffffffffffffffffffffffff83818316178352505050506040518082805190602001908083835b6020831061508b5780518252602082019150602081019050602083039250615068565b6001836020036101000a03801982511681845116808217855250505050505090500191505060006040518083038160008787f1925050503d80600081146150ee576040519150601f19603f3d011682016040523d82523d6000602084013e6150f3565b606091505b5090508091505060005a9050602e60009054906101000a900473ffffffffffffffffffffffffffffffffffffffff1673ffffffffffffffffffffffffffffffffffffffff16836028548660405160240180838152602001828152602001925050506040516020818303038152906040527ffc3fcec7000000000000000000000000000000000000000000000000000000007bffffffffffffffffffffffffffffffffffffffffffffffffffffffff19166020820180517bffffffffffffffffffffffffffffffffffffffffffffffffffffffff83818316178352505050506040518082805190602001908083835b6020831061520457805182526020820191506020810190506020830392506151e1565b6001836020036101000a03801982511681845116808217855250505050505090500191505060006040518083038160008787f1925050503d8060008114615267576040519150601f19603f3d011682016040523d82523d6000602084013e61526c565b606091505b50505060005a905060006152898284614b4690919063ffffffff16565b905073__Reimbursements________________________6346a50089601b60009054906101000a900473ffffffffffffffffffffffffffffffffffffffff16601e548885602d548a6040518763ffffffff1660e01b8152600401808773ffffffffffffffffffffffffffffffffffffffff1673ffffffffffffffffffffffffffffffffffffffff16815260200186815260200185815260200184815260200183815260200180602001828103825283818151815260200191508051906020019080838360005b8381101561536a57808201518184015260208101905061534f565b50505050905090810190601f1680156153975780820380516001836020036101000a031916815260200191505b5097505050505050505060006040518083038186803b1580156153b957600080fd5b505af41580156153cd573d6000803e3d6000fd5b50505050505050505050565b600080600080662386f26fc100009050600073__DelayFactor___________________________638dfa43636029546022546040518363ffffffff1660e01b8152600401808381526020018281526020019250505060206040518083038186803b15801561544657600080fd5b505af415801561545a573d6000803e3d6000fd5b505050506040513d602081101561547057600080fd5b810190808051906020019092919050505090506154aa8261549c83601d5461469090919063ffffffff16565b6149f990919063ffffffff16565b945060006154d56154c48385614b4690919063ffffffff16565b601d5461469090919063ffffffff16565b905060006155138461550560056154f7601f548761469090919063ffffffff16565b61584e90919063ffffffff16565b6149f990919063ffffffff16565b90506000615533615522613b9c565b602c54614b4690919063ffffffff16565b90506155488282614abe90919063ffffffff16565b965061558a8261557c615566601f548c61469090919063ffffffff16565b61556e613b9c565b614b4690919063ffffffff16565b614b4690919063ffffffff16565b95505050505050909192565b6156148184600601846040518082805190602001908083835b602083106155d257805182526020820191506020810190506020830392506155af565b6001836020036101000a038019825116818451168082178552505050505050905001915050908152602001604051809103902054614abe90919063ffffffff16565b83600601836040518082805190602001908083835b6020831061564c5780518252602082019150602081019050602083039250615629565b6001836020036101000a038019825116818451168082178552505050505050905001915050908152602001604051809103902081905550505050565b60006156c182600401805490506156b384600801548560030180549050614b4690919063ffffffff16565b614b4690919063ffffffff16565b9050919050565b60008083118290615774576040517f08c379a00000000000000000000000000000000000000000000000000000000081526004018080602001828103825283818151815260200191508051906020019080838360005b8381101561573957808201518184015260208101905061571e565b50505050905090810190601f1680156157665780820380516001836020036101000a031916815260200191505b509250505060405180910390fd5b50600083858161578057fe5b049050809150509392505050565b600083831115829061583b576040517f08c379a00000000000000000000000000000000000000000000000000000000081526004018080602001828103825283818151815260200191508051906020019080838360005b838110156158005780820151818401526020810190506157e5565b50505050905090810190601f16801561582d5780820380516001836020036101000a031916815260200191505b509250505060405180910390fd5b5060008385039050809150509392505050565b60006158766064615868848661469090919063ffffffff16565b6149f990919063ffffffff16565b905092915050565b828054600181600116156101000203166002900490600052602060002090601f016020900481019282601f106158bf57805160ff19168380011785556158ed565b828001600101855582156158ed579182015b828111156158ec5782518255916020019190600101906158d1565b5b5090506158fa91906158fe565b5090565b61592091905b8082111561591c576000816000905550600101615904565b5090565b9056fe536166654d6174683a206d756c7469706c69636174696f6e206f766572666c6f7747726f75702073656c656374696f6e207265696d62757273656d656e74206661696c6564a265627a7a7231582026974067d03db7312b1c3dc7bd317cd3474eb996b2af67117ff7cb7bdf7b3d5664736f6c63430005110032536166654d6174683a206d756c7469706c69636174696f6e206f766572666c6f77",
  "source": "pragma solidity 0.5.17;\n\nimport \"../KeepRandomBeaconOperator.sol\";\n\ncontract KeepRandomBeaconOperatorDKGResultStub is KeepRandomBeaconOperator {\n    constructor(\n        address _serviceContract,\n        address _stakingContract,\n        address _registryContract,\n        address _gasPriceOracle\n    )\n        public\n        KeepRandomBeaconOperator(\n            _serviceContract,\n            _stakingContract,\n            _registryContract,\n            _gasPriceOracle\n        )\n    {\n        groupSelection.ticketSubmissionTimeout = 100;\n    }\n\n    function setGroupSize(uint256 size) public {\n        groupSize = size;\n        groupSelection.groupSize = size;\n        dkgResultVerification.groupSize = size;\n    }\n\n    function setGroupThreshold(uint256 threshold) public {\n        groupThreshold = threshold;\n        dkgResultVerification.signatureThreshold = threshold;\n    }\n\n    function setDKGResultSignatureThreshold(uint256 threshold) public {\n        dkgResultVerification.signatureThreshold = threshold;\n    }\n\n    function getGroupSelectionRelayEntry() public view returns (uint256) {\n        return groupSelection.seed;\n    }\n\n    function getTicketSubmissionStartBlock() public view returns (uint256) {\n        return groupSelection.ticketSubmissionStartBlock;\n    }\n\n    function isGroupSelectionInProgress() public view returns (bool) {\n        return groupSelection.inProgress;\n    }\n\n    function setGasPriceCeiling(uint256 _gasPriceCeiling) public {\n        gasPriceCeiling = _gasPriceCeiling;\n    }\n\n    function timeDKG() public view returns (uint256) {\n        return dkgResultVerification.timeDKG;\n    }\n}\n",
  "sourcePath": "/home/runner/work/keep-core/keep-core/solidity-v1/contracts/stubs/KeepRandomBeaconOperatorDKGResultStub.sol",
  "compiler": {
    "name": "solc",
    "version": "0.5.17+commit.d19bba13.Emscripten.clang"
  },
  "schemaVersion": "3.3.4",
  "updatedAt": "2021-11-26T17:03:20.358Z",
  "devdoc": {
    "methods": {
      "addServiceContract(address)": {
        "params": {
          "serviceContract": "Address of the service contract."
        }
      },
      "createGroup(uint256,address)": {
        "params": {
          "_newEntry": "New random beacon value that stakers will use to generate their tickets.",
          "submitter": "Operator of this contract."
        }
      },
      "hasMinimumStake(address)": {
        "params": {
          "staker": "Staker's address"
        },
        "return": "True if has enough active stake to participate in the network, false otherwise."
      },
      "numberOfGroups()": {
        "details": "Even if numberOfGroups() > 0, it is still possible requesting for a new relay entry will revert with \"no active groups\" failure message. This function returns the number of active groups as they are currently marked on-chain. However, during relay request, before group selection, we run group expiration and it may happen that some groups seen as active turns out to be expired."
      },
      "relayEntry(bytes)": {
        "params": {
          "_groupSignature": "Group BLS signature over the concatenation of the previous entry and seed."
        }
      },
      "sign(uint256,bytes)": {
        "params": {
          "previousEntry": "Previous relay entry",
          "requestId": "Request Id trackable by service contract"
        }
      },
      "submitDkgResult(uint256,bytes,bytes,bytes,uint256[])": {
        "params": {
          "groupPubKey": "Generated candidate group public key",
          "misbehaved": "Bytes array of misbehaved (disqualified or inactive) group members indexes in ascending order; Indexes reflect positions of members in the group as outputted by the group selection protocol.",
          "signatures": "Concatenation of signatures from members supporting the result.",
          "signingMembersIndexes": "Indices of members corresponding to each signature.",
          "submitterMemberIndex": "Claimed submitter candidate group member index"
        }
      },
      "submitTicket(bytes32)": {
        "params": {
          "ticket": "Bytes representation of a ticket that holds the following: - ticketValue: first 8 bytes of a result of keccak256 cryptography hash   function on the combination of the group selection seed (previous   beacon output), staker-specific value (address) and virtual staker index. - stakerValue: a staker-specific value which is the address of the staker. - virtualStakerIndex: 4-bytes number within a range of 1 to staker's weight;   has to be unique for all tickets submitted by the given staker for the   current candidate group selection."
        }
      },
      "withdrawGroupMemberRewards(address,uint256)": {
        "params": {
          "groupIndex": "Group index",
          "operator": "Operator address"
        }
      }
    }
  },
  "userdoc": {
    "methods": {
      "addServiceContract(address)": {
        "notice": "Adds service contract"
      },
      "createGroup(uint256,address)": {
        "notice": "Triggers the selection process of a new candidate group."
      },
      "entryVerificationFee()": {
        "notice": "Returns fee for entry verification in wei. Does not include group profit fee, DKG contribution or callback fee."
      },
      "genesis()": {
        "notice": "Triggers group selection if there are no active groups."
      },
      "getFirstActiveGroupIndex()": {
        "notice": "Gets the index of the first active group."
      },
      "getGroupMemberRewards(bytes)": {
        "notice": "Returns accumulated group member rewards for provided group."
      },
      "getGroupMembers(bytes)": {
        "notice": "Returns members of the given group by group public key."
      },
      "getGroupPublicKey(uint256)": {
        "notice": "Gets public key of the group with the given index."
      },
      "groupCreationFee()": {
        "notice": "Returns fee for group creation in wei. Includes the cost of DKG and the cost of triggering group selection."
      },
      "groupProfitFee()": {
        "notice": "Gets group profit fee expressed in wei."
      },
      "hasMinimumStake(address)": {
        "notice": "Checks if the specified account has enough active stake to become network operator and that this contract has been authorized for potential slashing.     /// Having the required minimum of active stake makes the operator eligible to join the network. If the active stake is not currently undelegating, operator is also eligible for work selection. "
      },
      "hasWithdrawnRewards(address,uint256)": {
        "notice": "Return whether the given operator has withdrawn their rewards from the given group."
      },
      "isEntryInProgress()": {
        "notice": "Returns true if generation of a new relay entry is currently in progress."
      },
      "isGroupRegistered(bytes)": {
        "notice": "Checks if group with the given public key is registered."
      },
      "isGroupSelectionPossible()": {
        "notice": "Checks if it is possible to fire a new group selection. Triggering new group selection is only possible when there is no pending group selection or when the pending group selection timed out."
      },
      "isStaleGroup(bytes)": {
        "notice": "Checks if a group with the given public key is a stale group. Stale group is an expired group which is no longer performing any operations. It is important to understand that an expired group may still perform some operations for which it was selected when it was still active. We consider a group to be stale when it's expired and when its expiration time and potentially executed operation timeout are both in the past."
      },
      "numberOfGroups()": {
        "notice": "Gets the number of active groups as currently marked in the contract. This is the state from when the expired groups were last updated without accounting for recent expirations. "
      },
      "refreshGasPrice()": {
        "notice": "Pulls the most recent gas price from gas price oracle."
      },
      "relayEntry(bytes)": {
        "notice": "Creates a new relay entry and stores the associated data on the chain."
      },
      "reportRelayEntryTimeout()": {
        "notice": "Function used to inform about the fact the currently ongoing new relay entry generation operation timed out. As a result, the group which was supposed to produce a new relay entry is immediately terminated and a new group is selected to produce a new relay entry. All members of the group are punished by seizing minimum stake of their tokens. The submitter of the transaction is rewarded with a tattletale reward which is limited to min(1, 20 / group_size) of the maximum tattletale reward."
      },
      "reportUnauthorizedSigning(uint256,bytes)": {
        "notice": "Reports unauthorized signing for the provided group. Must provide a valid signature of the tattletale address as a message. Successful signature verification means the private key has been leaked and all group members should be punished by seizingtheir tokens. The submitter of this proof is rewarded with 5% of the total seized amount scaled by the reward adjustment parameter and the rest 95% is burned."
      },
      "selectedParticipants()": {
        "notice": "Gets selected participants in ascending order of their tickets."
      },
      "sign(uint256,bytes)": {
        "notice": "Creates a request to generate a new relay entry, which will include a random number (by signing the previous entry's random number)."
      },
      "submitDkgResult(uint256,bytes,bytes,bytes,uint256[])": {
        "notice": "Submits result of DKG protocol. It is on-chain part of phase 14 of the protocol."
      },
      "submitTicket(bytes32)": {
        "notice": "Submits ticket to request to participate in a new candidate group."
      },
      "submittedTickets()": {
        "notice": "Gets the submitted group candidate tickets so far."
      },
      "ticketSubmissionTimeout()": {
        "notice": "Gets the timeout in blocks after which group candidate ticket submission is finished."
      },
      "withdrawGroupMemberRewards(address,uint256)": {
        "notice": "Withdraws accumulated group member rewards for operator using the provided group index. Once the accumulated reward is withdrawn from the selected group, the operator is flagged as withdrawn. Rewards can be withdrawn only from stale group."
      }
    }
  }
}