{
  "contractName": "OldTokenStaking",
  "abi": [
    {
      "inputs": [
        {
          "internalType": "address",
          "name": "_tokenAddress",
          "type": "address"
        }
      ],
      "payable": false,
      "stateMutability": "nonpayable",
      "type": "constructor"
    },
    {
      "anonymous": false,
      "inputs": [
        {
          "indexed": true,
          "internalType": "address",
          "name": "from",
          "type": "address"
        },
        {
          "indexed": false,
          "internalType": "uint256",
          "name": "value",
          "type": "uint256"
        }
      ],
      "name": "Staked",
      "type": "event"
    },
    {
      "anonymous": false,
      "inputs": [
        {
          "indexed": true,
          "internalType": "address",
          "name": "operator",
          "type": "address"
        },
        {
          "indexed": false,
          "internalType": "uint256",
          "name": "undelegatedAt",
          "type": "uint256"
        }
      ],
      "name": "Undelegated",
      "type": "event"
    },
    {
      "constant": true,
      "inputs": [
        {
          "internalType": "address",
          "name": "",
          "type": "address"
        }
      ],
      "name": "operators",
      "outputs": [
        {
          "internalType": "uint256",
          "name": "packedParams",
          "type": "uint256"
        },
        {
          "internalType": "address",
          "name": "owner",
          "type": "address"
        },
        {
          "internalType": "address payable",
          "name": "beneficiary",
          "type": "address"
        },
        {
          "internalType": "address",
          "name": "authorizer",
          "type": "address"
        }
      ],
      "payable": false,
      "stateMutability": "view",
      "type": "function"
    },
    {
      "constant": true,
      "inputs": [
        {
          "internalType": "address",
          "name": "",
          "type": "address"
        },
        {
          "internalType": "uint256",
          "name": "",
          "type": "uint256"
        }
      ],
      "name": "ownerOperators",
      "outputs": [
        {
          "internalType": "address",
          "name": "",
          "type": "address"
        }
      ],
      "payable": false,
      "stateMutability": "view",
      "type": "function"
    },
    {
      "constant": true,
      "inputs": [],
      "name": "token",
      "outputs": [
        {
          "internalType": "contract ERC20Burnable",
          "name": "",
          "type": "address"
        }
      ],
      "payable": false,
      "stateMutability": "view",
      "type": "function"
    },
    {
      "constant": true,
      "inputs": [
        {
          "internalType": "address",
          "name": "_address",
          "type": "address"
        }
      ],
      "name": "operatorsOf",
      "outputs": [
        {
          "internalType": "address[]",
          "name": "",
          "type": "address[]"
        }
      ],
      "payable": false,
      "stateMutability": "view",
      "type": "function"
    },
    {
      "constant": true,
      "inputs": [
        {
          "internalType": "address",
          "name": "_address",
          "type": "address"
        }
      ],
      "name": "balanceOf",
      "outputs": [
        {
          "internalType": "uint256",
          "name": "balance",
          "type": "uint256"
        }
      ],
      "payable": false,
      "stateMutability": "view",
      "type": "function"
    },
    {
      "constant": true,
      "inputs": [
        {
          "internalType": "address",
          "name": "_operator",
          "type": "address"
        }
      ],
      "name": "ownerOf",
      "outputs": [
        {
          "internalType": "address",
          "name": "",
          "type": "address"
        }
      ],
      "payable": false,
      "stateMutability": "view",
      "type": "function"
    },
    {
      "constant": true,
      "inputs": [
        {
          "internalType": "address",
          "name": "_operator",
          "type": "address"
        }
      ],
      "name": "beneficiaryOf",
      "outputs": [
        {
          "internalType": "address payable",
          "name": "",
          "type": "address"
        }
      ],
      "payable": false,
      "stateMutability": "view",
      "type": "function"
    },
    {
      "constant": true,
      "inputs": [
        {
          "internalType": "address",
          "name": "_operator",
          "type": "address"
        }
      ],
      "name": "authorizerOf",
      "outputs": [
        {
          "internalType": "address",
          "name": "",
          "type": "address"
        }
      ],
      "payable": false,
      "stateMutability": "view",
      "type": "function"
    },
    {
      "constant": true,
      "inputs": [
        {
          "internalType": "address",
          "name": "_operator",
          "type": "address"
        }
      ],
      "name": "getDelegationInfo",
      "outputs": [
        {
          "internalType": "uint256",
          "name": "amount",
          "type": "uint256"
        },
        {
          "internalType": "uint256",
          "name": "createdAt",
          "type": "uint256"
        },
        {
          "internalType": "uint256",
          "name": "undelegatedAt",
          "type": "uint256"
        }
      ],
      "payable": false,
      "stateMutability": "view",
      "type": "function"
    },
    {
      "constant": true,
      "inputs": [],
      "name": "undelegationPeriod",
      "outputs": [
        {
          "internalType": "uint256",
          "name": "",
          "type": "uint256"
        }
      ],
      "payable": false,
      "stateMutability": "view",
      "type": "function"
    },
    {
      "constant": true,
      "inputs": [],
      "name": "initializationPeriod",
      "outputs": [
        {
          "internalType": "uint256",
          "name": "",
          "type": "uint256"
        }
      ],
      "payable": false,
      "stateMutability": "view",
      "type": "function"
    },
    {
      "constant": true,
      "inputs": [],
      "name": "minimumStake",
      "outputs": [
        {
          "internalType": "uint256",
          "name": "",
          "type": "uint256"
        }
      ],
      "payable": false,
      "stateMutability": "view",
      "type": "function"
    },
    {
      "constant": false,
      "inputs": [
        {
          "internalType": "address",
          "name": "_operator",
          "type": "address"
        }
      ],
      "name": "undelegate",
      "outputs": [],
      "payable": false,
      "stateMutability": "nonpayable",
      "type": "function"
    },
    {
      "constant": false,
      "inputs": [
        {
          "internalType": "address",
          "name": "_owner",
          "type": "address"
        },
        {
          "internalType": "address",
          "name": "_operator",
          "type": "address"
        },
        {
          "internalType": "address payable",
          "name": "_beneficiary",
          "type": "address"
        },
        {
          "internalType": "address",
          "name": "_authorizer",
          "type": "address"
        },
        {
          "internalType": "uint256",
          "name": "_value",
          "type": "uint256"
        }
      ],
      "name": "setOperator",
      "outputs": [],
      "payable": false,
      "stateMutability": "nonpayable",
      "type": "function"
    },
    {
      "constant": false,
      "inputs": [
        {
          "internalType": "address",
          "name": "_from",
          "type": "address"
        },
        {
          "internalType": "uint256",
          "name": "_value",
          "type": "uint256"
        },
        {
          "internalType": "address",
          "name": "_token",
          "type": "address"
        },
        {
          "internalType": "bytes",
          "name": "_extraData",
          "type": "bytes"
        }
      ],
      "name": "receiveApproval",
      "outputs": [],
      "payable": false,
      "stateMutability": "nonpayable",
      "type": "function"
    }
  ],
  "bytecode": "0x608060405234801561001057600080fd5b50604051611cbc380380611cbc8339818101604052602081101561003357600080fd5b8101908080519060200190929190505050600073ffffffffffffffffffffffffffffffffffffffff168173ffffffffffffffffffffffffffffffffffffffff1614156100e7576040517f08c379a000000000000000000000000000000000000000000000000000000000815260040180806020018281038252601c8152602001807f546f6b656e20616464726573732063616e2774206265207a65726f2e0000000081525060200191505060405180910390fd5b806000806101000a81548173ffffffffffffffffffffffffffffffffffffffff021916908373ffffffffffffffffffffffffffffffffffffffff16021790555050611b85806101376000396000f3fe608060405234801561001057600080fd5b50600436106100f55760003560e01c8063b534fbb611610097578063fab46d6611610066578063fab46d66146106a5578063fb1677b11461070b578063fc0c546a1461078f578063fdd1f986146107d9576100f5565b8063b534fbb614610526578063ba7bffd3146105bf578063da8be86414610643578063ec5ffac214610687576100f5565b80634239dd8d116100d35780634239dd8d1461031d57806370a08231146103ab5780638f4ffcb114610403578063aed1ec7214610508576100f5565b806313e7c9d8146100fa57806314afd79e146101eb5780633fef3c5c1461026f575b600080fd5b61013c6004803603602081101561011057600080fd5b81019080803573ffffffffffffffffffffffffffffffffffffffff1690602001909291905050506107f7565b604051808581526020018473ffffffffffffffffffffffffffffffffffffffff1673ffffffffffffffffffffffffffffffffffffffff1681526020018373ffffffffffffffffffffffffffffffffffffffff1673ffffffffffffffffffffffffffffffffffffffff1681526020018273ffffffffffffffffffffffffffffffffffffffff1673ffffffffffffffffffffffffffffffffffffffff16815260200194505050505060405180910390f35b61022d6004803603602081101561020157600080fd5b81019080803573ffffffffffffffffffffffffffffffffffffffff169060200190929190505050610887565b604051808273ffffffffffffffffffffffffffffffffffffffff1673ffffffffffffffffffffffffffffffffffffffff16815260200191505060405180910390f35b61031b600480360360a081101561028557600080fd5b81019080803573ffffffffffffffffffffffffffffffffffffffff169060200190929190803573ffffffffffffffffffffffffffffffffffffffff169060200190929190803573ffffffffffffffffffffffffffffffffffffffff169060200190929190803573ffffffffffffffffffffffffffffffffffffffff169060200190929190803590602001909291905050506108f3565b005b6103696004803603604081101561033357600080fd5b81019080803573ffffffffffffffffffffffffffffffffffffffff16906020019092919080359060200190929190505050610b2c565b604051808273ffffffffffffffffffffffffffffffffffffffff1673ffffffffffffffffffffffffffffffffffffffff16815260200191505060405180910390f35b6103ed600480360360208110156103c157600080fd5b81019080803573ffffffffffffffffffffffffffffffffffffffff169060200190929190505050610b77565b6040518082815260200191505060405180910390f35b6105066004803603608081101561041957600080fd5b81019080803573ffffffffffffffffffffffffffffffffffffffff16906020019092919080359060200190929190803573ffffffffffffffffffffffffffffffffffffffff1690602001909291908035906020019064010000000081111561048057600080fd5b82018360208201111561049257600080fd5b803590602001918460018302840111640100000000831117156104b457600080fd5b91908080601f016020809104026020016040519081016040528093929190818152602001838380828437600081840152601f19601f820116905080830192505050505050509192919290505050610bcb565b005b610510611130565b6040518082815260200191505060405180910390f35b6105686004803603602081101561053c57600080fd5b81019080803573ffffffffffffffffffffffffffffffffffffffff169060200190929190505050611139565b6040518080602001828103825283818151815260200191508051906020019060200280838360005b838110156105ab578082015181840152602081019050610590565b505050509050019250505060405180910390f35b610601600480360360208110156105d557600080fd5b81019080803573ffffffffffffffffffffffffffffffffffffffff169060200190929190505050611206565b604051808273ffffffffffffffffffffffffffffffffffffffff1673ffffffffffffffffffffffffffffffffffffffff16815260200191505060405180910390f35b6106856004803603602081101561065957600080fd5b81019080803573ffffffffffffffffffffffffffffffffffffffff169060200190929190505050611272565b005b61068f611364565b6040518082815260200191505060405180910390f35b6106e7600480360360208110156106bb57600080fd5b81019080803573ffffffffffffffffffffffffffffffffffffffff169060200190929190505050611376565b60405180848152602001838152602001828152602001935050505060405180910390f35b61074d6004803603602081101561072157600080fd5b81019080803573ffffffffffffffffffffffffffffffffffffffff1690602001909291905050506113d3565b604051808273ffffffffffffffffffffffffffffffffffffffff1673ffffffffffffffffffffffffffffffffffffffff16815260200191505060405180910390f35b61079761143f565b604051808273ffffffffffffffffffffffffffffffffffffffff1673ffffffffffffffffffffffffffffffffffffffff16815260200191505060405180910390f35b6107e1611464565b6040518082815260200191505060405180910390f35b60026020528060005260406000206000915090508060000154908060010160009054906101000a900473ffffffffffffffffffffffffffffffffffffffff16908060020160009054906101000a900473ffffffffffffffffffffffffffffffffffffffff16908060030160009054906101000a900473ffffffffffffffffffffffffffffffffffffffff16905084565b6000600260008373ffffffffffffffffffffffffffffffffffffffff1673ffffffffffffffffffffffffffffffffffffffff16815260200190815260200160002060010160009054906101000a900473ffffffffffffffffffffffffffffffffffffffff169050919050565b604051806080016040528061090a8342600061146f565b81526020018673ffffffffffffffffffffffffffffffffffffffff1681526020018473ffffffffffffffffffffffffffffffffffffffff1681526020018373ffffffffffffffffffffffffffffffffffffffff16815250600260008673ffffffffffffffffffffffffffffffffffffffff1673ffffffffffffffffffffffffffffffffffffffff1681526020019081526020016000206000820151816000015560208201518160010160006101000a81548173ffffffffffffffffffffffffffffffffffffffff021916908373ffffffffffffffffffffffffffffffffffffffff16021790555060408201518160020160006101000a81548173ffffffffffffffffffffffffffffffffffffffff021916908373ffffffffffffffffffffffffffffffffffffffff16021790555060608201518160030160006101000a81548173ffffffffffffffffffffffffffffffffffffffff021916908373ffffffffffffffffffffffffffffffffffffffff160217905550905050600160008673ffffffffffffffffffffffffffffffffffffffff1673ffffffffffffffffffffffffffffffffffffffff1681526020019081526020016000208490806001815401808255809150509060018203906000526020600020016000909192909190916101000a81548173ffffffffffffffffffffffffffffffffffffffff021916908373ffffffffffffffffffffffffffffffffffffffff160217905550505050505050565b60016020528160005260406000208181548110610b4557fe5b906000526020600020016000915091509054906101000a900473ffffffffffffffffffffffffffffffffffffffff1681565b6000610bc4600260008473ffffffffffffffffffffffffffffffffffffffff1673ffffffffffffffffffffffffffffffffffffffff16815260200190815260200160002060000154611586565b9050919050565b6000809054906101000a900473ffffffffffffffffffffffffffffffffffffffff1673ffffffffffffffffffffffffffffffffffffffff168273ffffffffffffffffffffffffffffffffffffffff1614610c70576040517f08c379a000000000000000000000000000000000000000000000000000000000815260040180806020018281038252603c815260200180611ac8603c913960400191505060405180910390fd5b610c78611364565b831015610cd0576040517f08c379a0000000000000000000000000000000000000000000000000000000008152600401808060200182810382526034815260200180611a6d6034913960400191505060405180910390fd5b603c815114610d2a576040517f08c379a0000000000000000000000000000000000000000000000000000000008152600401808060200182810382526027815260200180611aa16027913960400191505060405180910390fd5b6000610d406000836115a090919063ffffffff16565b90506000610d586014846115a090919063ffffffff16565b9050600073ffffffffffffffffffffffffffffffffffffffff16600260008373ffffffffffffffffffffffffffffffffffffffff1673ffffffffffffffffffffffffffffffffffffffff16815260200190815260200160002060010160009054906101000a900473ffffffffffffffffffffffffffffffffffffffff1673ffffffffffffffffffffffffffffffffffffffff1614610e41576040517f08c379a0000000000000000000000000000000000000000000000000000000008152600401808060200182810382526023815260200180611b046023913960400191505060405180910390fd5b6000610e576028856115a090919063ffffffff16565b9050610ea78730886000809054906101000a900473ffffffffffffffffffffffffffffffffffffffff1673ffffffffffffffffffffffffffffffffffffffff16611633909392919063ffffffff16565b6040518060800160405280610ebe8842600061146f565b81526020018873ffffffffffffffffffffffffffffffffffffffff1681526020018473ffffffffffffffffffffffffffffffffffffffff1681526020018273ffffffffffffffffffffffffffffffffffffffff16815250600260008473ffffffffffffffffffffffffffffffffffffffff1673ffffffffffffffffffffffffffffffffffffffff1681526020019081526020016000206000820151816000015560208201518160010160006101000a81548173ffffffffffffffffffffffffffffffffffffffff021916908373ffffffffffffffffffffffffffffffffffffffff16021790555060408201518160020160006101000a81548173ffffffffffffffffffffffffffffffffffffffff021916908373ffffffffffffffffffffffffffffffffffffffff16021790555060608201518160030160006101000a81548173ffffffffffffffffffffffffffffffffffffffff021916908373ffffffffffffffffffffffffffffffffffffffff160217905550905050600160008873ffffffffffffffffffffffffffffffffffffffff1673ffffffffffffffffffffffffffffffffffffffff1681526020019081526020016000208290806001815401808255809150509060018203906000526020600020016000909192909190916101000a81548173ffffffffffffffffffffffffffffffffffffffff021916908373ffffffffffffffffffffffffffffffffffffffff160217905550508173ffffffffffffffffffffffffffffffffffffffff167f9e71bc8eea02a63969f509818f2dafb9254532904319f9dbda79b67bd34a5f3d876040518082815260200191505060405180910390a250505050505050565b60006078905090565b6060600160008373ffffffffffffffffffffffffffffffffffffffff1673ffffffffffffffffffffffffffffffffffffffff1681526020019081526020016000208054806020026020016040519081016040528092919081815260200182805480156111fa57602002820191906000526020600020905b8160009054906101000a900473ffffffffffffffffffffffffffffffffffffffff1673ffffffffffffffffffffffffffffffffffffffff16815260200190600101908083116111b0575b50505050509050919050565b6000600260008373ffffffffffffffffffffffffffffffffffffffff1673ffffffffffffffffffffffffffffffffffffffff16815260200190815260200160002060020160009054906101000a900473ffffffffffffffffffffffffffffffffffffffff169050919050565b6000600260008373ffffffffffffffffffffffffffffffffffffffff1673ffffffffffffffffffffffffffffffffffffffff1681526020019081526020016000206000015490506112cc428261173990919063ffffffff16565b600260008473ffffffffffffffffffffffffffffffffffffffff1673ffffffffffffffffffffffffffffffffffffffff168152602001908152602001600020600001819055508173ffffffffffffffffffffffffffffffffffffffff167f4ae68879209bc4b489a38251122202a3653305e3d95a27baf7a5681410c90b38426040518082815260200191505060405180910390a25050565b600069021e19e0c9bab2400000905090565b60008060006113c6600260008673ffffffffffffffffffffffffffffffffffffffff1673ffffffffffffffffffffffffffffffffffffffff1681526020019081526020016000206000015461175e565b9250925092509193909250565b6000600260008373ffffffffffffffffffffffffffffffffffffffff1673ffffffffffffffffffffffffffffffffffffffff16815260200190815260200160002060030160009054906101000a900473ffffffffffffffffffffffffffffffffffffffff169050919050565b6000809054906101000a900473ffffffffffffffffffffffffffffffffffffffff1681565b6000624f1a00905090565b60006001608060020a038411156114ee576040517f08c379a00000000000000000000000000000000000000000000000000000000081526004018080602001828103825260108152602001807f75696e74313238206f766572666c6f770000000000000000000000000000000081525060200191505060405180910390fd5b6001604060020a03828417111561156d576040517f08c379a000000000000000000000000000000000000000000000000000000000815260040180806020018281038252600f8152602001807f75696e743634206f766572666c6f77000000000000000000000000000000000081525060200191505060405180910390fd5b81604084901b604060020286901b171790509392505050565b60006001608060020a03604060020283901c169050919050565b60008060148301905082811180156115b9575080845110155b61160e576040517f08c379a0000000000000000000000000000000000000000000000000000000008152600401808060200182810382526021815260200180611a4c6021913960400191505060405180910390fd5b60006c0100000000000000000000000084602087010151049050809250505092915050565b611733848573ffffffffffffffffffffffffffffffffffffffff166323b872dd905060e01b858585604051602401808473ffffffffffffffffffffffffffffffffffffffff1673ffffffffffffffffffffffffffffffffffffffff1681526020018373ffffffffffffffffffffffffffffffffffffffff1673ffffffffffffffffffffffffffffffffffffffff1681526020018281526020019350505050604051602081830303815290604052907bffffffffffffffffffffffffffffffffffffffffffffffffffffffff19166020820180517bffffffffffffffffffffffffffffffffffffffffffffffffffffffff838183161783525050505061178b565b50505050565b600061175661174784611586565b611750856119d6565b8461146f565b905092915050565b600080600061176c84611586565b9250611777846119d6565b9150611782846119ed565b90509193909250565b6117aa8273ffffffffffffffffffffffffffffffffffffffff16611a00565b61181c576040517f08c379a000000000000000000000000000000000000000000000000000000000815260040180806020018281038252601f8152602001807f5361666545524332303a2063616c6c20746f206e6f6e2d636f6e74726163740081525060200191505060405180910390fd5b600060608373ffffffffffffffffffffffffffffffffffffffff16836040518082805190602001908083835b6020831061186b5780518252602082019150602081019050602083039250611848565b6001836020036101000a0380198251168184511680821785525050505050509050019150506000604051808303816000865af19150503d80600081146118cd576040519150601f19603f3d011682016040523d82523d6000602084013e6118d2565b606091505b50915091508161194a576040517f08c379a00000000000000000000000000000000000000000000000000000000081526004018080602001828103825260208152602001807f5361666545524332303a206c6f772d6c6576656c2063616c6c206661696c656481525060200191505060405180910390fd5b6000815111156119d05780806020019051602081101561196957600080fd5b81019080805190602001909291905050506119cf576040517f08c379a000000000000000000000000000000000000000000000000000000000815260040180806020018281038252602a815260200180611b27602a913960400191505060405180910390fd5b5b50505050565b60006001604060020a03604083901c169050919050565b60006001604060020a0382169050919050565b60008060007fc5d2460186f7233c927e7db2dcc703c0e500b653ca82273b7bfad8045d85a47060001b9050833f91506000801b8214158015611a425750808214155b9250505091905056fe4164647265737320636f6e76657273696f6e206f7574206f6620626f756e64732e546f6b656e7320616d6f756e74206d7573742062652067726561746572207468616e20746865206d696e696d756d207374616b655374616b652064656c65676174696f6e2064617461206d7573742062652070726f76696465642e546f6b656e20636f6e7472616374206d757374206265207468652073616d65206f6e65206c696e6b656420746f207468697320636f6e74726163742e4f70657261746f72206164647265737320697320616c726561647920696e207573652e5361666545524332303a204552433230206f7065726174696f6e20646964206e6f742073756363656564a265627a7a72315820020aa70915a0a642061c60806d5fb1bb1bba1d995433228976115cf15721ca6d64736f6c63430005110032",
  "source": "pragma solidity 0.5.17;\n\nimport \"openzeppelin-solidity/contracts/token/ERC20/ERC20Burnable.sol\";\nimport \"openzeppelin-solidity/contracts/token/ERC20/SafeERC20.sol\";\nimport \"../utils/OperatorParams.sol\";\nimport \"../utils/BytesLib.sol\";\n\n/// Staking contract stub for testing purposes of copy stake flow.\ncontract OldTokenStaking {\n    using OperatorParams for uint256;\n    using BytesLib for bytes;\n    ERC20Burnable public token;\n    using SafeERC20 for ERC20Burnable;\n\n    event Undelegated(address indexed operator, uint256 undelegatedAt);\n    event Staked(address indexed from, uint256 value);\n\n    mapping(address => address[]) public ownerOperators;\n    mapping(address => Operator) public operators;\n\n    struct Operator {\n        uint256 packedParams;\n        address owner;\n        address payable beneficiary;\n        address authorizer;\n    }\n\n    constructor(address _tokenAddress) public {\n        require(_tokenAddress != address(0x0), \"Token address can't be zero.\");\n        token = ERC20Burnable(_tokenAddress);\n    }\n\n    function operatorsOf(address _address)\n        public\n        view\n        returns (address[] memory)\n    {\n        return ownerOperators[_address];\n    }\n\n    function balanceOf(address _address) public view returns (uint256 balance) {\n        return operators[_address].packedParams.getAmount();\n    }\n\n    function ownerOf(address _operator) public view returns (address) {\n        return operators[_operator].owner;\n    }\n\n    function beneficiaryOf(address _operator)\n        public\n        view\n        returns (address payable)\n    {\n        return operators[_operator].beneficiary;\n    }\n\n    function authorizerOf(address _operator) public view returns (address) {\n        return operators[_operator].authorizer;\n    }\n\n    function getDelegationInfo(address _operator)\n        public\n        view\n        returns (\n            uint256 amount,\n            uint256 createdAt,\n            uint256 undelegatedAt\n        )\n    {\n        return operators[_operator].packedParams.unpack();\n    }\n\n    function undelegationPeriod() public view returns (uint256) {\n        return 5184000; // two months\n    }\n\n    function initializationPeriod() public view returns (uint256) {\n        return 120;\n    }\n\n    function minimumStake() public view returns (uint256) {\n        return 10000 * 1e18;\n    }\n\n    function undelegate(address _operator) public {\n        uint256 oldParams = operators[_operator].packedParams;\n        operators[_operator].packedParams = oldParams.setUndelegationTimestamp(\n            block.timestamp\n        );\n        emit Undelegated(_operator, block.timestamp);\n    }\n\n    function setOperator(\n        address _owner,\n        address _operator,\n        address payable _beneficiary,\n        address _authorizer,\n        uint256 _value\n    ) public {\n        operators[_operator] = Operator(\n            OperatorParams.pack(_value, block.timestamp, 0),\n            _owner,\n            _beneficiary,\n            _authorizer\n        );\n        ownerOperators[_owner].push(_operator);\n    }\n\n    function receiveApproval(\n        address _from,\n        uint256 _value,\n        address _token,\n        bytes memory _extraData\n    ) public {\n        require(\n            ERC20Burnable(_token) == token,\n            \"Token contract must be the same one linked to this contract.\"\n        );\n        require(\n            _value >= minimumStake(),\n            \"Tokens amount must be greater than the minimum stake\"\n        );\n        require(\n            _extraData.length == 60,\n            \"Stake delegation data must be provided.\"\n        );\n\n        address payable beneficiary = address(uint160(_extraData.toAddress(0)));\n        address operator = _extraData.toAddress(20);\n        require(\n            operators[operator].owner == address(0),\n            \"Operator address is already in use.\"\n        );\n        address authorizer = _extraData.toAddress(40);\n\n        // Transfer tokens to this contract.\n        token.safeTransferFrom(_from, address(this), _value);\n\n        operators[operator] = Operator(\n            OperatorParams.pack(_value, block.timestamp, 0),\n            _from,\n            beneficiary,\n            authorizer\n        );\n        ownerOperators[_from].push(operator);\n\n        emit Staked(operator, _value);\n    }\n}\n",
  "sourcePath": "/home/runner/work/keep-core/keep-core/solidity-v1/contracts/stubs/OldTokenStaking.sol",
  "compiler": {
    "name": "solc",
    "version": "0.5.17+commit.d19bba13.Emscripten.clang"
  },
  "schemaVersion": "3.3.4",
  "updatedAt": "2021-11-26T17:03:20.388Z",
  "devdoc": {
    "methods": {}
  },
  "userdoc": {
    "methods": {},
    "notice": "Staking contract stub for testing purposes of copy stake flow."
  }
}