{
  "contractName": "StakingPortBacker",
  "abi": [
    {
      "inputs": [
        {
          "internalType": "contract IERC20",
          "name": "_keepToken",
          "type": "address"
        },
        {
          "internalType": "contract TokenGrant",
          "name": "_tokenGrant",
          "type": "address"
        },
        {
          "internalType": "contract StakeDelegatable",
          "name": "_oldStakingContract",
          "type": "address"
        },
        {
          "internalType": "contract TokenStaking",
          "name": "_newStakingContract",
          "type": "address"
        }
      ],
      "payable": false,
      "stateMutability": "nonpayable",
      "type": "constructor"
    },
    {
      "anonymous": false,
      "inputs": [
        {
          "indexed": true,
          "internalType": "address",
          "name": "previousOwner",
          "type": "address"
        },
        {
          "indexed": true,
          "internalType": "address",
          "name": "newOwner",
          "type": "address"
        }
      ],
      "name": "OwnershipTransferred",
      "type": "event"
    },
    {
      "anonymous": false,
      "inputs": [
        {
          "indexed": true,
          "internalType": "address",
          "name": "owner",
          "type": "address"
        },
        {
          "indexed": true,
          "internalType": "address",
          "name": "operator",
          "type": "address"
        },
        {
          "indexed": false,
          "internalType": "uint256",
          "name": "value",
          "type": "uint256"
        }
      ],
      "name": "StakeCopied",
      "type": "event"
    },
    {
      "anonymous": false,
      "inputs": [
        {
          "indexed": true,
          "internalType": "address",
          "name": "owner",
          "type": "address"
        },
        {
          "indexed": true,
          "internalType": "address",
          "name": "operator",
          "type": "address"
        }
      ],
      "name": "StakePaidBack",
      "type": "event"
    },
    {
      "anonymous": false,
      "inputs": [
        {
          "indexed": false,
          "internalType": "uint256",
          "name": "amount",
          "type": "uint256"
        }
      ],
      "name": "TokensWithdrawn",
      "type": "event"
    },
    {
      "constant": true,
      "inputs": [
        {
          "internalType": "address",
          "name": "",
          "type": "address"
        }
      ],
      "name": "allowedOperators",
      "outputs": [
        {
          "internalType": "bool",
          "name": "",
          "type": "bool"
        }
      ],
      "payable": false,
      "stateMutability": "view",
      "type": "function"
    },
    {
      "constant": true,
      "inputs": [
        {
          "internalType": "address",
          "name": "",
          "type": "address"
        }
      ],
      "name": "copiedStakes",
      "outputs": [
        {
          "internalType": "address",
          "name": "owner",
          "type": "address"
        },
        {
          "internalType": "uint256",
          "name": "amount",
          "type": "uint256"
        },
        {
          "internalType": "uint256",
          "name": "timestamp",
          "type": "uint256"
        },
        {
          "internalType": "bool",
          "name": "paidBack",
          "type": "bool"
        }
      ],
      "payable": false,
      "stateMutability": "view",
      "type": "function"
    },
    {
      "constant": true,
      "inputs": [],
      "name": "isOwner",
      "outputs": [
        {
          "internalType": "bool",
          "name": "",
          "type": "bool"
        }
      ],
      "payable": false,
      "stateMutability": "view",
      "type": "function"
    },
    {
      "constant": true,
      "inputs": [],
      "name": "keepToken",
      "outputs": [
        {
          "internalType": "contract IERC20",
          "name": "",
          "type": "address"
        }
      ],
      "payable": false,
      "stateMutability": "view",
      "type": "function"
    },
    {
      "constant": true,
      "inputs": [],
      "name": "maxAllowedBackingDuration",
      "outputs": [
        {
          "internalType": "uint256",
          "name": "",
          "type": "uint256"
        }
      ],
      "payable": false,
      "stateMutability": "view",
      "type": "function"
    },
    {
      "constant": true,
      "inputs": [],
      "name": "newStakingContract",
      "outputs": [
        {
          "internalType": "contract TokenStaking",
          "name": "",
          "type": "address"
        }
      ],
      "payable": false,
      "stateMutability": "view",
      "type": "function"
    },
    {
      "constant": true,
      "inputs": [],
      "name": "oldStakingContract",
      "outputs": [
        {
          "internalType": "contract StakeDelegatable",
          "name": "",
          "type": "address"
        }
      ],
      "payable": false,
      "stateMutability": "view",
      "type": "function"
    },
    {
      "constant": true,
      "inputs": [],
      "name": "owner",
      "outputs": [
        {
          "internalType": "address",
          "name": "",
          "type": "address"
        }
      ],
      "payable": false,
      "stateMutability": "view",
      "type": "function"
    },
    {
      "constant": false,
      "inputs": [],
      "name": "renounceOwnership",
      "outputs": [],
      "payable": false,
      "stateMutability": "nonpayable",
      "type": "function"
    },
    {
      "constant": false,
      "inputs": [
        {
          "internalType": "address",
          "name": "newOwner",
          "type": "address"
        }
      ],
      "name": "transferOwnership",
      "outputs": [],
      "payable": false,
      "stateMutability": "nonpayable",
      "type": "function"
    },
    {
      "constant": false,
      "inputs": [
        {
          "internalType": "address",
          "name": "operator",
          "type": "address"
        }
      ],
      "name": "allowOperator",
      "outputs": [],
      "payable": false,
      "stateMutability": "nonpayable",
      "type": "function"
    },
    {
      "constant": false,
      "inputs": [
        {
          "internalType": "address[]",
          "name": "operators",
          "type": "address[]"
        }
      ],
      "name": "allowOperators",
      "outputs": [],
      "payable": false,
      "stateMutability": "nonpayable",
      "type": "function"
    },
    {
      "constant": false,
      "inputs": [
        {
          "internalType": "address",
          "name": "operator",
          "type": "address"
        }
      ],
      "name": "copyStake",
      "outputs": [],
      "payable": false,
      "stateMutability": "nonpayable",
      "type": "function"
    },
    {
      "constant": false,
      "inputs": [
        {
          "internalType": "address",
          "name": "from",
          "type": "address"
        },
        {
          "internalType": "uint256",
          "name": "value",
          "type": "uint256"
        },
        {
          "internalType": "address",
          "name": "token",
          "type": "address"
        },
        {
          "internalType": "bytes",
          "name": "extraData",
          "type": "bytes"
        }
      ],
      "name": "receiveApproval",
      "outputs": [],
      "payable": false,
      "stateMutability": "nonpayable",
      "type": "function"
    },
    {
      "constant": false,
      "inputs": [
        {
          "internalType": "address",
          "name": "operator",
          "type": "address"
        }
      ],
      "name": "undelegate",
      "outputs": [],
      "payable": false,
      "stateMutability": "nonpayable",
      "type": "function"
    },
    {
      "constant": false,
      "inputs": [
        {
          "internalType": "address",
          "name": "operator",
          "type": "address"
        }
      ],
      "name": "forceUndelegate",
      "outputs": [],
      "payable": false,
      "stateMutability": "nonpayable",
      "type": "function"
    },
    {
      "constant": false,
      "inputs": [
        {
          "internalType": "address",
          "name": "operator",
          "type": "address"
        }
      ],
      "name": "recoverStake",
      "outputs": [],
      "payable": false,
      "stateMutability": "nonpayable",
      "type": "function"
    },
    {
      "constant": false,
      "inputs": [
        {
          "internalType": "uint256",
          "name": "amount",
          "type": "uint256"
        }
      ],
      "name": "withdraw",
      "outputs": [],
      "payable": false,
      "stateMutability": "nonpayable",
      "type": "function"
    }
  ],
  "bytecode": "0x60806040523480156200001157600080fd5b506040516200335e3803806200335e833981810160405260808110156200003757600080fd5b8101908080519060200190929190805190602001909291908051906020019092919080519060200190929190505050620000766200023f60201b60201c565b6000806101000a81548173ffffffffffffffffffffffffffffffffffffffff021916908373ffffffffffffffffffffffffffffffffffffffff1602179055506000809054906101000a900473ffffffffffffffffffffffffffffffffffffffff1673ffffffffffffffffffffffffffffffffffffffff16600073ffffffffffffffffffffffffffffffffffffffff167f8be0079c531659141344cd1fd0a4f28419497f9722a3daafe3b4186f6b6457e060405160405180910390a383600160006101000a81548173ffffffffffffffffffffffffffffffffffffffff021916908373ffffffffffffffffffffffffffffffffffffffff16021790555082600260006101000a81548173ffffffffffffffffffffffffffffffffffffffff021916908373ffffffffffffffffffffffffffffffffffffffff16021790555081600360006101000a81548173ffffffffffffffffffffffffffffffffffffffff021916908373ffffffffffffffffffffffffffffffffffffffff16021790555080600460006101000a81548173ffffffffffffffffffffffffffffffffffffffff021916908373ffffffffffffffffffffffffffffffffffffffff1602179055505050505062000247565b600033905090565b61310780620002576000396000f3fe608060405234801561001057600080fd5b50600436106101165760003560e01c80638da5cb5b116100a2578063ae81dfe411610071578063ae81dfe4146105cf578063d97d595314610619578063da8be86414610637578063e59dd90d1461067b578063f2fde38b146106c557610116565b80638da5cb5b146104025780638f32d59b1461044c5780638f4ffcb11461046e578063a6674f881461057357610116565b8063467c5adf116100e9578063467c5adf146102895780634d85d9cb146102d3578063525835f91461037057806367d847e6146103b4578063715018a6146103f857610116565b80631ba9a4581461011b5780632e1a7d4d1461015f578063391cc9f61461018d578063432de9c8146101d1575b600080fd5b61015d6004803603602081101561013157600080fd5b81019080803573ffffffffffffffffffffffffffffffffffffffff169060200190929190505050610709565b005b61018b6004803603602081101561017557600080fd5b81019080803590602001909291905050506107de565b005b6101cf600480360360208110156101a357600080fd5b81019080803573ffffffffffffffffffffffffffffffffffffffff1690602001909291905050506108e6565b005b610287600480360360208110156101e757600080fd5b810190808035906020019064010000000081111561020457600080fd5b82018360208201111561021657600080fd5b8035906020019184602083028401116401000000008311171561023857600080fd5b919080806020026020016040519081016040528093929190818152602001838360200280828437600081840152601f19601f820116905080830192505050505050509192919290505050610b67565b005b610291610c1d565b604051808273ffffffffffffffffffffffffffffffffffffffff1673ffffffffffffffffffffffffffffffffffffffff16815260200191505060405180910390f35b610315600480360360208110156102e957600080fd5b81019080803573ffffffffffffffffffffffffffffffffffffffff169060200190929190505050610c43565b604051808573ffffffffffffffffffffffffffffffffffffffff1673ffffffffffffffffffffffffffffffffffffffff1681526020018481526020018381526020018215151515815260200194505050505060405180910390f35b6103b26004803603602081101561038657600080fd5b81019080803573ffffffffffffffffffffffffffffffffffffffff169060200190929190505050610ca0565b005b6103f6600480360360208110156103ca57600080fd5b81019080803573ffffffffffffffffffffffffffffffffffffffff169060200190929190505050610d5c565b005b6104006114b3565b005b61040a6115ec565b604051808273ffffffffffffffffffffffffffffffffffffffff1673ffffffffffffffffffffffffffffffffffffffff16815260200191505060405180910390f35b610454611615565b604051808215151515815260200191505060405180910390f35b6105716004803603608081101561048457600080fd5b81019080803573ffffffffffffffffffffffffffffffffffffffff16906020019092919080359060200190929190803573ffffffffffffffffffffffffffffffffffffffff169060200190929190803590602001906401000000008111156104eb57600080fd5b8201836020820111156104fd57600080fd5b8035906020019184600183028401116401000000008311171561051f57600080fd5b91908080601f016020809104026020016040519081016040528093929190818152602001838380828437600081840152601f19601f820116905080830192505050505050509192919290505050611673565b005b6105b56004803603602081101561058957600080fd5b81019080803573ffffffffffffffffffffffffffffffffffffffff169060200190929190505050611ca4565b604051808215151515815260200191505060405180910390f35b6105d7611cc4565b604051808273ffffffffffffffffffffffffffffffffffffffff1673ffffffffffffffffffffffffffffffffffffffff16815260200191505060405180910390f35b610621611cea565b6040518082815260200191505060405180910390f35b6106796004803603602081101561064d57600080fd5b81019080803573ffffffffffffffffffffffffffffffffffffffff169060200190929190505050611cf1565b005b610683611f62565b604051808273ffffffffffffffffffffffffffffffffffffffff1673ffffffffffffffffffffffffffffffffffffffff16815260200191505060405180910390f35b610707600480360360208110156106db57600080fd5b81019080803573ffffffffffffffffffffffffffffffffffffffff169060200190929190505050611f88565b005b610711611615565b610783576040517f08c379a00000000000000000000000000000000000000000000000000000000081526004018080602001828103825260208152602001807f4f776e61626c653a2063616c6c6572206973206e6f7420746865206f776e657281525060200191505060405180910390fd5b6001600560008373ffffffffffffffffffffffffffffffffffffffff1673ffffffffffffffffffffffffffffffffffffffff16815260200190815260200160002060006101000a81548160ff02191690831515021790555050565b6107e6611615565b610858576040517f08c379a00000000000000000000000000000000000000000000000000000000081526004018080602001828103825260208152602001807f4f776e61626c653a2063616c6c6572206973206e6f7420746865206f776e657281525060200191505060405180910390fd5b6108ac6108636115ec565b82600160009054906101000a900473ffffffffffffffffffffffffffffffffffffffff1673ffffffffffffffffffffffffffffffffffffffff1661200e9092919063ffffffff16565b7f9c6393f251205f9e03559951cab4c9ae71767b6174f77944a5b0c2fa51fbda9f816040518082815260200191505060405180910390a150565b6108ee611615565b610960576040517f08c379a00000000000000000000000000000000000000000000000000000000081526004018080602001828103825260208152602001807f4f776e61626c653a2063616c6c6572206973206e6f7420746865206f776e657281525060200191505060405180910390fd5b610968612f88565b600660008373ffffffffffffffffffffffffffffffffffffffff1673ffffffffffffffffffffffffffffffffffffffff1681526020019081526020016000206040518060800160405290816000820160009054906101000a900473ffffffffffffffffffffffffffffffffffffffff1673ffffffffffffffffffffffffffffffffffffffff1673ffffffffffffffffffffffffffffffffffffffff16815260200160018201548152602001600282015481526020016003820160009054906101000a900460ff161515151581525050905042610a546276a70083604001516120df90919063ffffffff16565b10610aaa576040517f08c379a00000000000000000000000000000000000000000000000000000000081526004018080602001828103825260318152602001806130136031913960400191505060405180910390fd5b600460009054906101000a900473ffffffffffffffffffffffffffffffffffffffff1673ffffffffffffffffffffffffffffffffffffffff1663da8be864836040518263ffffffff1660e01b8152600401808273ffffffffffffffffffffffffffffffffffffffff1673ffffffffffffffffffffffffffffffffffffffff168152602001915050600060405180830381600087803b158015610b4b57600080fd5b505af1158015610b5f573d6000803e3d6000fd5b505050505050565b610b6f611615565b610be1576040517f08c379a00000000000000000000000000000000000000000000000000000000081526004018080602001828103825260208152602001807f4f776e61626c653a2063616c6c6572206973206e6f7420746865206f776e657281525060200191505060405180910390fd5b60008090505b8151811015610c1957610c0c828281518110610bff57fe5b6020026020010151610709565b8080600101915050610be7565b5050565b600160009054906101000a900473ffffffffffffffffffffffffffffffffffffffff1681565b60066020528060005260406000206000915090508060000160009054906101000a900473ffffffffffffffffffffffffffffffffffffffff16908060010154908060020154908060030160009054906101000a900460ff16905084565b600460009054906101000a900473ffffffffffffffffffffffffffffffffffffffff1673ffffffffffffffffffffffffffffffffffffffff1663525835f9826040518263ffffffff1660e01b8152600401808273ffffffffffffffffffffffffffffffffffffffff1673ffffffffffffffffffffffffffffffffffffffff168152602001915050600060405180830381600087803b158015610d4157600080fd5b505af1158015610d55573d6000803e3d6000fd5b5050505050565b6000600360009054906101000a900473ffffffffffffffffffffffffffffffffffffffff1673ffffffffffffffffffffffffffffffffffffffff166370a08231836040518263ffffffff1660e01b8152600401808273ffffffffffffffffffffffffffffffffffffffff1673ffffffffffffffffffffffffffffffffffffffff16815260200191505060206040518083038186803b158015610dfd57600080fd5b505afa158015610e11573d6000803e3d6000fd5b505050506040513d6020811015610e2757600080fd5b8101908080519060200190929190505050905060008111610e93576040517f08c379a0000000000000000000000000000000000000000000000000000000008152600401808060200182810382526024815260200180612fc96024913960400191505060405180910390fd5b6000600660008473ffffffffffffffffffffffffffffffffffffffff1673ffffffffffffffffffffffffffffffffffffffff1681526020019081526020016000206001015414610f4b576040517f08c379a00000000000000000000000000000000000000000000000000000000081526004018080602001828103825260148152602001807f5374616b6520616c726561647920636f7069656400000000000000000000000081525060200191505060405180910390fd5b600560008373ffffffffffffffffffffffffffffffffffffffff1673ffffffffffffffffffffffffffffffffffffffff16815260200190815260200160002060009054906101000a900460ff1661100a576040517f08c379a00000000000000000000000000000000000000000000000000000000081526004018080602001828103825260148152602001807f4f70657261746f72206e6f7420616c6c6f77656400000000000000000000000081525060200191505060405180910390fd5b6000606061101784612167565b915091503373ffffffffffffffffffffffffffffffffffffffff168273ffffffffffffffffffffffffffffffffffffffff161461120157600080600061105c876124c9565b925092509250600360009054906101000a900473ffffffffffffffffffffffffffffffffffffffff1673ffffffffffffffffffffffffffffffffffffffff168273ffffffffffffffffffffffffffffffffffffffff1614611108576040517f08c379a00000000000000000000000000000000000000000000000000000000081526004018080602001828103825260218152602001806130656021913960400191505060405180910390fd5b8073ffffffffffffffffffffffffffffffffffffffff163373ffffffffffffffffffffffffffffffffffffffff16148061118b575061118a83600260009054906101000a900473ffffffffffffffffffffffffffffffffffffffff163373ffffffffffffffffffffffffffffffffffffffff166128239092919063ffffffff16565b5b6111fd576040517f08c379a000000000000000000000000000000000000000000000000000000000815260040180806020018281038252600e8152602001807f4e6f7420617574686f72697a656400000000000000000000000000000000000081525060200191505060405180910390fd5b5050505b60405180608001604052803373ffffffffffffffffffffffffffffffffffffffff16815260200184815260200142815260200160001515815250600660008673ffffffffffffffffffffffffffffffffffffffff1673ffffffffffffffffffffffffffffffffffffffff16815260200190815260200160002060008201518160000160006101000a81548173ffffffffffffffffffffffffffffffffffffffff021916908373ffffffffffffffffffffffffffffffffffffffff160217905550602082015181600101556040820151816002015560608201518160030160006101000a81548160ff021916908315150217905550905050600160009054906101000a900473ffffffffffffffffffffffffffffffffffffffff1673ffffffffffffffffffffffffffffffffffffffff1663cae9ca51600460009054906101000a900473ffffffffffffffffffffffffffffffffffffffff1685846040518463ffffffff1660e01b8152600401808473ffffffffffffffffffffffffffffffffffffffff1673ffffffffffffffffffffffffffffffffffffffff16815260200183815260200180602001828103825283818151815260200191508051906020019080838360005b838110156113e25780820151818401526020810190506113c7565b50505050905090810190601f16801561140f5780820380516001836020036101000a031916815260200191505b50945050505050600060405180830381600087803b15801561143057600080fd5b505af1158015611444573d6000803e3d6000fd5b505050508373ffffffffffffffffffffffffffffffffffffffff163373ffffffffffffffffffffffffffffffffffffffff167f7801a97571720a1fb25f80e759ed0db445c94c7d267e1158af2574de0b0b5ef5856040518082815260200191505060405180910390a350505050565b6114bb611615565b61152d576040517f08c379a00000000000000000000000000000000000000000000000000000000081526004018080602001828103825260208152602001807f4f776e61626c653a2063616c6c6572206973206e6f7420746865206f776e657281525060200191505060405180910390fd5b600073ffffffffffffffffffffffffffffffffffffffff166000809054906101000a900473ffffffffffffffffffffffffffffffffffffffff1673ffffffffffffffffffffffffffffffffffffffff167f8be0079c531659141344cd1fd0a4f28419497f9722a3daafe3b4186f6b6457e060405160405180910390a360008060006101000a81548173ffffffffffffffffffffffffffffffffffffffff021916908373ffffffffffffffffffffffffffffffffffffffff160217905550565b60008060009054906101000a900473ffffffffffffffffffffffffffffffffffffffff16905090565b60008060009054906101000a900473ffffffffffffffffffffffffffffffffffffffff1673ffffffffffffffffffffffffffffffffffffffff16611657612aa0565b73ffffffffffffffffffffffffffffffffffffffff1614905090565b600160009054906101000a900473ffffffffffffffffffffffffffffffffffffffff1673ffffffffffffffffffffffffffffffffffffffff168273ffffffffffffffffffffffffffffffffffffffff1614611736576040517f08c379a00000000000000000000000000000000000000000000000000000000081526004018080602001828103825260108152602001807f4e6f742061204b45455020746f6b656e0000000000000000000000000000000081525060200191505060405180910390fd5b60208151146117ad576040517f08c379a00000000000000000000000000000000000000000000000000000000081526004018080602001828103825260148152602001807f436f7272757074656420696e707574206461746100000000000000000000000081525060200191505060405180910390fd5b60008180602001905160208110156117c457600080fd5b810190808051906020019092919050505090506117df612f88565b600660008373ffffffffffffffffffffffffffffffffffffffff1673ffffffffffffffffffffffffffffffffffffffff1681526020019081526020016000206040518060800160405290816000820160009054906101000a900473ffffffffffffffffffffffffffffffffffffffff1673ffffffffffffffffffffffffffffffffffffffff1673ffffffffffffffffffffffffffffffffffffffff16815260200160018201548152602001600282015481526020016003820160009054906101000a900460ff1615151515815250509050600081602001511161190d576040517f08c379a00000000000000000000000000000000000000000000000000000000081526004018080602001828103825260218152602001806130446021913960400191505060405180910390fd5b806060015115611985576040517f08c379a00000000000000000000000000000000000000000000000000000000081526004018080602001828103825260118152602001807f416c72656164792070616964206261636b00000000000000000000000000000081525060200191505060405180910390fd5b806000015173ffffffffffffffffffffffffffffffffffffffff168673ffffffffffffffffffffffffffffffffffffffff1614611a2a576040517f08c379a000000000000000000000000000000000000000000000000000000000815260040180806020018281038252601a8152602001807f4e6f7420617574686f72697a656420746f20706179206261636b00000000000081525060200191505060405180910390fd5b80602001518514611aa3576040517f08c379a00000000000000000000000000000000000000000000000000000000081526004018080602001828103825260118152602001807f556e657870656374656420616d6f756e7400000000000000000000000000000081525060200191505060405180910390fd5b611af2863087600160009054906101000a900473ffffffffffffffffffffffffffffffffffffffff1673ffffffffffffffffffffffffffffffffffffffff16612aa8909392919063ffffffff16565b6001600660008473ffffffffffffffffffffffffffffffffffffffff1673ffffffffffffffffffffffffffffffffffffffff16815260200190815260200160002060030160006101000a81548160ff021916908315150217905550600460009054906101000a900473ffffffffffffffffffffffffffffffffffffffff1673ffffffffffffffffffffffffffffffffffffffff166320018d278383600001516040518363ffffffff1660e01b8152600401808373ffffffffffffffffffffffffffffffffffffffff1673ffffffffffffffffffffffffffffffffffffffff1681526020018273ffffffffffffffffffffffffffffffffffffffff1673ffffffffffffffffffffffffffffffffffffffff16815260200192505050600060405180830381600087803b158015611c2657600080fd5b505af1158015611c3a573d6000803e3d6000fd5b505050508173ffffffffffffffffffffffffffffffffffffffff16816000015173ffffffffffffffffffffffffffffffffffffffff167f76934ffc7c84991135ccda0b52fddf17b1fe2db343a49ca2863baded3deb328d60405160405180910390a3505050505050565b60056020528060005260406000206000915054906101000a900460ff1681565b600460009054906101000a900473ffffffffffffffffffffffffffffffffffffffff1681565b6276a70081565b611cf9612f88565b600660008373ffffffffffffffffffffffffffffffffffffffff1673ffffffffffffffffffffffffffffffffffffffff1681526020019081526020016000206040518060800160405290816000820160009054906101000a900473ffffffffffffffffffffffffffffffffffffffff1673ffffffffffffffffffffffffffffffffffffffff1673ffffffffffffffffffffffffffffffffffffffff16815260200160018201548152602001600282015481526020016003820160009054906101000a900460ff16151515158152505090503373ffffffffffffffffffffffffffffffffffffffff16816000015173ffffffffffffffffffffffffffffffffffffffff161480611e3357503373ffffffffffffffffffffffffffffffffffffffff168273ffffffffffffffffffffffffffffffffffffffff16145b611ea5576040517f08c379a000000000000000000000000000000000000000000000000000000000815260040180806020018281038252600e8152602001807f4e6f7420617574686f72697a656400000000000000000000000000000000000081525060200191505060405180910390fd5b600460009054906101000a900473ffffffffffffffffffffffffffffffffffffffff1673ffffffffffffffffffffffffffffffffffffffff1663da8be864836040518263ffffffff1660e01b8152600401808273ffffffffffffffffffffffffffffffffffffffff1673ffffffffffffffffffffffffffffffffffffffff168152602001915050600060405180830381600087803b158015611f4657600080fd5b505af1158015611f5a573d6000803e3d6000fd5b505050505050565b600360009054906101000a900473ffffffffffffffffffffffffffffffffffffffff1681565b611f90611615565b612002576040517f08c379a00000000000000000000000000000000000000000000000000000000081526004018080602001828103825260208152602001807f4f776e61626c653a2063616c6c6572206973206e6f7420746865206f776e657281525060200191505060405180910390fd5b61200b81612bae565b50565b6120da838473ffffffffffffffffffffffffffffffffffffffff1663a9059cbb905060e01b8484604051602401808373ffffffffffffffffffffffffffffffffffffffff1673ffffffffffffffffffffffffffffffffffffffff16815260200182815260200192505050604051602081830303815290604052907bffffffffffffffffffffffffffffffffffffffffffffffffffffffff19166020820180517bffffffffffffffffffffffffffffffffffffffffffffffffffffffff8381831617835250505050612cf2565b505050565b60008082840190508381101561215d576040517f08c379a000000000000000000000000000000000000000000000000000000000815260040180806020018281038252601b8152602001807f536166654d6174683a206164646974696f6e206f766572666c6f77000000000081525060200191505060405180910390fd5b8091505092915050565b60006060600360009054906101000a900473ffffffffffffffffffffffffffffffffffffffff1673ffffffffffffffffffffffffffffffffffffffff166314afd79e846040518263ffffffff1660e01b8152600401808273ffffffffffffffffffffffffffffffffffffffff1673ffffffffffffffffffffffffffffffffffffffff16815260200191505060206040518083038186803b15801561220a57600080fd5b505afa15801561221e573d6000803e3d6000fd5b505050506040513d602081101561223457600080fd5b810190808051906020019092919050505091506000600360009054906101000a900473ffffffffffffffffffffffffffffffffffffffff1673ffffffffffffffffffffffffffffffffffffffff1663ba7bffd3856040518263ffffffff1660e01b8152600401808273ffffffffffffffffffffffffffffffffffffffff1673ffffffffffffffffffffffffffffffffffffffff16815260200191505060206040518083038186803b1580156122e857600080fd5b505afa1580156122fc573d6000803e3d6000fd5b505050506040513d602081101561231257600080fd5b810190808051906020019092919050505090506000600360009054906101000a900473ffffffffffffffffffffffffffffffffffffffff1673ffffffffffffffffffffffffffffffffffffffff1663fb1677b1866040518263ffffffff1660e01b8152600401808273ffffffffffffffffffffffffffffffffffffffff1673ffffffffffffffffffffffffffffffffffffffff16815260200191505060206040518083038186803b1580156123c657600080fd5b505afa1580156123da573d6000803e3d6000fd5b505050506040513d60208110156123f057600080fd5b81019080805190602001909291905050509050818582604051602001808473ffffffffffffffffffffffffffffffffffffffff1673ffffffffffffffffffffffffffffffffffffffff1660601b81526014018373ffffffffffffffffffffffffffffffffffffffff1673ffffffffffffffffffffffffffffffffffffffff1660601b81526014018273ffffffffffffffffffffffffffffffffffffffff1673ffffffffffffffffffffffffffffffffffffffff1660601b8152601401935050505060405160208183030381529060405292505050915091565b60008060008073ffffffffffffffffffffffffffffffffffffffff16600260009054906101000a900473ffffffffffffffffffffffffffffffffffffffff1673ffffffffffffffffffffffffffffffffffffffff16632496bfb3866040518263ffffffff1660e01b8152600401808273ffffffffffffffffffffffffffffffffffffffff1673ffffffffffffffffffffffffffffffffffffffff16815260200191505060206040518083038186803b15801561258457600080fd5b505afa158015612598573d6000803e3d6000fd5b505050506040513d60208110156125ae57600080fd5b810190808051906020019092919050505073ffffffffffffffffffffffffffffffffffffffff16141561262c576040517f08c379a00000000000000000000000000000000000000000000000000000000081526004018080602001828103825260238152602001806130866023913960400191505060405180910390fd5b600260009054906101000a900473ffffffffffffffffffffffffffffffffffffffff1673ffffffffffffffffffffffffffffffffffffffff1663f29e2737856040518263ffffffff1660e01b8152600401808273ffffffffffffffffffffffffffffffffffffffff1673ffffffffffffffffffffffffffffffffffffffff16815260200191505060606040518083038186803b1580156126cb57600080fd5b505afa1580156126df573d6000803e3d6000fd5b505050506040513d60608110156126f557600080fd5b8101908080519060200190929190805190602001909291908051906020019092919050505090508093508194505050600260009054906101000a900473ffffffffffffffffffffffffffffffffffffffff1673ffffffffffffffffffffffffffffffffffffffff1663b8cc6c93846040518263ffffffff1660e01b81526004018082815260200191505060c06040518083038186803b15801561279757600080fd5b505afa1580156127ab573d6000803e3d6000fd5b505050506040513d60c08110156127c157600080fd5b810190808051906020019092919080519060200190929190805190602001909291908051906020019092919080519060200190929190805190602001909291905050509091929394509091929350909192509091509050809150509193909250565b6000808273ffffffffffffffffffffffffffffffffffffffff1663b8cc6c93856040518263ffffffff1660e01b81526004018082815260200191505060c06040518083038186803b15801561287757600080fd5b505afa15801561288b573d6000803e3d6000fd5b505050506040513d60c08110156128a157600080fd5b810190808051906020019092919080519060200190929190805190602001909291908051906020019092919080519060200190929190805190602001909291905050509550505050505060608173ffffffffffffffffffffffffffffffffffffffff166040516024016040516020818303038152906040527fd5f52076000000000000000000000000000000000000000000000000000000007bffffffffffffffffffffffffffffffffffffffffffffffffffffffff19166020820180517bffffffffffffffffffffffffffffffffffffffffffffffffffffffff83818316178352505050506040518082805190602001908083835b602083106129ba5780518252602082019150602081019050602083039250612997565b6001836020036101000a0380198251168184511680821785525050505050509050019150506000604051808303816000865af19150503d8060008114612a1c576040519150601f19603f3d011682016040523d82523d6000602084013e612a21565b606091505b50915050600081511415612a3a57600092505050612a99565b6000818060200190516020811015612a5157600080fd5b810190808051906020019092919050505090508073ffffffffffffffffffffffffffffffffffffffff168773ffffffffffffffffffffffffffffffffffffffff161493505050505b9392505050565b600033905090565b612ba8848573ffffffffffffffffffffffffffffffffffffffff166323b872dd905060e01b858585604051602401808473ffffffffffffffffffffffffffffffffffffffff1673ffffffffffffffffffffffffffffffffffffffff1681526020018373ffffffffffffffffffffffffffffffffffffffff1673ffffffffffffffffffffffffffffffffffffffff1681526020018281526020019350505050604051602081830303815290604052907bffffffffffffffffffffffffffffffffffffffffffffffffffffffff19166020820180517bffffffffffffffffffffffffffffffffffffffffffffffffffffffff8381831617835250505050612cf2565b50505050565b600073ffffffffffffffffffffffffffffffffffffffff168173ffffffffffffffffffffffffffffffffffffffff161415612c34576040517f08c379a0000000000000000000000000000000000000000000000000000000008152600401808060200182810382526026815260200180612fed6026913960400191505060405180910390fd5b8073ffffffffffffffffffffffffffffffffffffffff166000809054906101000a900473ffffffffffffffffffffffffffffffffffffffff1673ffffffffffffffffffffffffffffffffffffffff167f8be0079c531659141344cd1fd0a4f28419497f9722a3daafe3b4186f6b6457e060405160405180910390a3806000806101000a81548173ffffffffffffffffffffffffffffffffffffffff021916908373ffffffffffffffffffffffffffffffffffffffff16021790555050565b612d118273ffffffffffffffffffffffffffffffffffffffff16612f3d565b612d83576040517f08c379a000000000000000000000000000000000000000000000000000000000815260040180806020018281038252601f8152602001807f5361666545524332303a2063616c6c20746f206e6f6e2d636f6e74726163740081525060200191505060405180910390fd5b600060608373ffffffffffffffffffffffffffffffffffffffff16836040518082805190602001908083835b60208310612dd25780518252602082019150602081019050602083039250612daf565b6001836020036101000a0380198251168184511680821785525050505050509050019150506000604051808303816000865af19150503d8060008114612e34576040519150601f19603f3d011682016040523d82523d6000602084013e612e39565b606091505b509150915081612eb1576040517f08c379a00000000000000000000000000000000000000000000000000000000081526004018080602001828103825260208152602001807f5361666545524332303a206c6f772d6c6576656c2063616c6c206661696c656481525060200191505060405180910390fd5b600081511115612f3757808060200190516020811015612ed057600080fd5b8101908080519060200190929190505050612f36576040517f08c379a000000000000000000000000000000000000000000000000000000000815260040180806020018281038252602a8152602001806130a9602a913960400191505060405180910390fd5b5b50505050565b60008060007fc5d2460186f7233c927e7db2dcc703c0e500b653ca82273b7bfad8045d85a47060001b9050833f91506000801b8214158015612f7f5750808214155b92505050919050565b6040518060800160405280600073ffffffffffffffffffffffffffffffffffffffff1681526020016000815260200160008152602001600015158152509056fe4e6f207374616b65206f6e20746865206f6c64207374616b696e6720636f6e74726163744f776e61626c653a206e6577206f776e657220697320746865207a65726f20616464726573734d6178696d756d20616c6c6f776564206261636b696e67206475726174696f6e206e6f74206578636565646564207965745374616b65206e6f7420636f7069656420666f7220746865206f70657261746f72556e6578706563746564206772616e74207374616b696e6720636f6e74726163744e6f206772616e742064656c65676174656420666f7220746865206f70657261746f725361666545524332303a204552433230206f7065726174696f6e20646964206e6f742073756363656564a265627a7a723158203bf220eaf7cfcd294b449bf30bab90e8be203f57daa1090212cc14e6ebde34b564736f6c63430005110032",
  "source": "/**\n     \n   \n                            \n                             \n                           \n                           \n                          \n     \n     \n\n                           Trust math, not hardware.\n*/\n\npragma solidity 0.5.17;\n\nimport \"openzeppelin-solidity/contracts/ownership/Ownable.sol\";\nimport \"openzeppelin-solidity/contracts/token/ERC20/SafeERC20.sol\";\nimport \"openzeppelin-solidity/contracts/math/SafeMath.sol\";\n\nimport \"./KeepToken.sol\";\nimport \"./TokenGrant.sol\";\nimport \"./StakeDelegatable.sol\";\nimport \"./TokenStaking.sol\";\nimport \"./libraries/RolesLookup.sol\";\nimport \"./utils/BytesLib.sol\";\nimport \"./TokenSender.sol\";\n\n/// @title StakingPortBacker\n/// @notice Provides additional liquidity from the primary token supply for\n/// token owners staking on the previous staking contract version and letting\n/// them to stake on the new staking contract version without having to wait\n/// for the entire undelegation period to unlock their tokens.\n///\n/// It lets the Keep team to make an amount of KEEP tokens available to\n/// temporarily stake on behalf of a token owner, provided that they have those\n/// same tokens currently locked up in the old staking contract. Undelegation of\n/// all tokens in the new staking contract would be blocked until the\n/// temporarily-staked tokens provided by the Keep team are repaid by the token\n/// owner.\n///\n/// The expected mode of usage for users who have already staked on the old\n/// contract is to:\n/// 1. Copy stake.\n/// 2. Undelegate from the old staking contract.\n/// 3. Operate as normal on the new staking contract.\n/// 4. Once the old staking contract's undelegated balance is available for\n/// recovery, recover it and use the recovered tokens to repay the\n/// StakingPortBacker contract.\ncontract StakingPortBacker is Ownable {\n    using SafeERC20 for IERC20;\n    using SafeMath for uint256;\n    using BytesLib for bytes;\n    using RolesLookup for address payable;\n\n    event StakeCopied(\n        address indexed owner,\n        address indexed operator,\n        uint256 value\n    );\n    event StakePaidBack(address indexed owner, address indexed operator);\n    event TokensWithdrawn(uint256 amount);\n\n    /// @notice The maximum allowed time for the token owner to repay the\n    /// delegation backed by tokens from this contract. After this time, the\n    /// owner of the contract can undelegate and recover not paid back\n    /// delegations.\n    uint256 public constant maxAllowedBackingDuration = 7776000; // ~3 months\n\n    IERC20 public keepToken;\n    TokenGrant internal tokenGrant;\n    StakeDelegatable public oldStakingContract;\n    TokenStaking public newStakingContract;\n\n    struct CopiedStake {\n        address owner;\n        uint256 amount;\n        uint256 timestamp;\n        bool paidBack;\n    }\n\n    mapping(address => bool) public allowedOperators; // operator -> allowed to copy?\n    mapping(address => CopiedStake) public copiedStakes; // operator -> copied stake info\n\n    constructor(\n        IERC20 _keepToken,\n        TokenGrant _tokenGrant,\n        StakeDelegatable _oldStakingContract,\n        TokenStaking _newStakingContract\n    ) public {\n        keepToken = _keepToken;\n        tokenGrant = _tokenGrant;\n        oldStakingContract = _oldStakingContract;\n        newStakingContract = _newStakingContract;\n    }\n\n    /// @notice Lets the owner of the contract to register operator from staking\n    /// relationships that will be allowed to use the token supply provided by\n    /// this contract.\n    /// @dev The reason for explicitly listing which relationships are allowed\n    /// to use the supply is to avoid a situation when someone stakes on the old\n    /// contract later, after deploying the new staking contract version, just\n    /// to drain the supply from this contract.\n    /// @param operator The operator from the staking relationship on the old\n    /// staking contract that will be allowed to use the token supply provided\n    /// by this contract.\n    function allowOperator(address operator) public onlyOwner {\n        allowedOperators[operator] = true;\n    }\n\n    /// @notice Lets the owner of the contract to register operators from\n    /// staking relationships that will be allowed to use the token supply\n    /// provided by this contract.\n    /// @dev The reason for explicitly listing which relationships are allowed\n    /// to use the supply is to avoid a situation when someone stakes on the old\n    /// contract later, after deploying the new staking contract version, just\n    /// to drain the supply from this contract.\n    /// @param operators Array of operator addresses from the staking\n    /// relationships on the old staking contract that will be allowed to use\n    /// the token supply provided by this contract.\n    function allowOperators(address[] memory operators) public onlyOwner {\n        for (uint256 i = 0; i < operators.length; i++) {\n            allowOperator(operators[i]);\n        }\n    }\n\n    /// @notice Copies staking relationship from the old token staking contract\n    /// to the new staking contract. Only the owner of the relationship can copy\n    /// it to the new staking contract, the relationship can only be copied once,\n    /// and undelegation must not be complete on that relationship.\n    /// Operator, beneficiary, authorizer, and stake amount will be the same\n    /// as in the original delegation. Until the delegation is repaid, this\n    /// contract is the owner of the delegation on the new staking contract.\n    /// @param operator The operator from the staking relationship on the old\n    /// staking contract that should be copied to the new staking contract.\n    function copyStake(address operator) public {\n        uint256 oldStakeBalance = oldStakingContract.balanceOf(operator);\n        require(oldStakeBalance > 0, \"No stake on the old staking contract\");\n        require(copiedStakes[operator].amount == 0, \"Stake already copied\");\n        require(allowedOperators[operator], \"Operator not allowed\");\n\n        // Get the delegation data from the old TokenStaking contract.\n        (address delegationOwner, bytes memory delegationData) =\n            getDelegation(operator);\n\n        if (delegationOwner != msg.sender) {\n            // Sender is not the owner of the relationship, but it is possible\n            // it is grantee or managed grantee. We can't rely on\n            // TokenGrant.granteesToOperators because we need to ensure the\n            // relationship between msg.sender and the specific staking contract\n            // (the instance from which we are migrating). The only option is to\n            // use TokenGrant.grantStakes.\n            (uint256 grantId, address stakingContract, address grantee) =\n                getGrantDelegation(operator);\n            require(\n                stakingContract == address(oldStakingContract),\n                \"Unexpected grant staking contract\"\n            );\n            require(\n                msg.sender == grantee ||\n                    msg.sender.isManagedGranteeForGrant(grantId, tokenGrant),\n                \"Not authorized\"\n            );\n        }\n\n        copiedStakes[operator] = CopiedStake(\n            msg.sender,\n            oldStakeBalance,\n            block.timestamp,\n            false\n        );\n\n        TokenSender(address(keepToken)).approveAndCall(\n            address(newStakingContract),\n            oldStakeBalance,\n            delegationData\n        );\n\n        emit StakeCopied(msg.sender, operator, oldStakeBalance);\n    }\n\n    /// @notice Used by the original staking relationship owner to pay back for\n    /// the delegation. Once the delegation is paid back, the staking relationship\n    /// ownership on the new staking contract is transferred to the owner of the\n    /// delegation in the old staking contract version.\n    /// @param from The owner of the tokens who approved them to transfer.\n    /// It has to be the owner of the original relationship.\n    /// @param value Approved amount for the transfer. It has to be the same\n    /// as the amount of tokens in the original staking relationship at the\n    /// moment when this relationship was copied to the new staking contract.\n    /// @param token KEEP token contract address.\n    /// @param extraData ABI-encoded operator address from the staking\n    /// relationship that is repaid.\n    function receiveApproval(\n        address from,\n        uint256 value,\n        address token,\n        bytes memory extraData\n    ) public {\n        require(token == address(keepToken), \"Not a KEEP token\");\n        require(extraData.length == 32, \"Corrupted input data\");\n        address operator = abi.decode(extraData, (address));\n\n        CopiedStake memory stake = copiedStakes[operator];\n        require(stake.amount > 0, \"Stake not copied for the operator\");\n        require(!stake.paidBack, \"Already paid back\");\n        require(from == stake.owner, \"Not authorized to pay back\");\n        require(value == stake.amount, \"Unexpected amount\");\n\n        // Transfer tokens to this contract.\n        keepToken.safeTransferFrom(from, address(this), value);\n        copiedStakes[operator].paidBack = true;\n\n        newStakingContract.transferStakeOwnership(operator, stake.owner);\n\n        emit StakePaidBack(stake.owner, operator);\n    }\n\n    /// @notice Undelegates stake on the new staking contract from the provided\n    /// operator.\n    /// @param operator The operator address.\n    function undelegate(address operator) public {\n        CopiedStake memory stake = copiedStakes[operator];\n        require(\n            stake.owner == msg.sender || operator == msg.sender,\n            \"Not authorized\"\n        );\n        newStakingContract.undelegate(operator);\n    }\n\n    /// @notice Force-undelegates stake on the new staking contract from the\n    /// provided operator. Used by the owner of this contract to undelegate\n    /// stake if the delegation has not been paid back on time.\n    /// @param operator The operator address.\n    function forceUndelegate(address operator) public onlyOwner {\n        CopiedStake memory stake = copiedStakes[operator];\n        require(\n            stake.timestamp.add(maxAllowedBackingDuration) < block.timestamp,\n            \"Maximum allowed backing duration not exceeded yet\"\n        );\n        newStakingContract.undelegate(operator);\n    }\n\n    /// @notice Recovers stake on the new staking contract from the provided\n    /// operator.\n    /// @param operator The operator address.\n    function recoverStake(address operator) public {\n        newStakingContract.recoverStake(operator);\n    }\n\n    /// @notice Allows the contract owner to withdraw tokens from the balance\n    /// the contract has available to back stake copying.\n    /// @param amount The amount of tokens that should be withdrawn.\n    function withdraw(uint256 amount) public onlyOwner {\n        keepToken.safeTransfer(owner(), amount);\n        emit TokensWithdrawn(amount);\n    }\n\n    function getDelegation(address operator)\n        internal\n        view\n        returns (address delegationOwner, bytes memory delegationData)\n    {\n        delegationOwner = oldStakingContract.ownerOf(operator);\n        address beneficiary = oldStakingContract.beneficiaryOf(operator);\n        address authorizer = oldStakingContract.authorizerOf(operator);\n        delegationData = abi.encodePacked(beneficiary, operator, authorizer);\n    }\n\n    function getGrantDelegation(address operator)\n        internal\n        view\n        returns (\n            uint256 grantId,\n            address stakingContract,\n            address grantee\n        )\n    {\n        // Preliminary check for user's convenience. For non-existing delegations\n        // getGrantStakeDetails reverts with no clear message.\n        require(\n            address(tokenGrant.grantStakes(operator)) != address(0),\n            \"No grant delegated for the operator\"\n        );\n        (grantId, , stakingContract) = tokenGrant.getGrantStakeDetails(\n            operator\n        );\n        (, , , , , grantee) = tokenGrant.getGrant(grantId);\n    }\n}\n",
  "sourcePath": "/home/runner/work/keep-core/keep-core/solidity-v1/contracts/StakingPortBacker.sol",
  "compiler": {
    "name": "solc",
    "version": "0.5.17+commit.d19bba13.Emscripten.clang"
  },
  "schemaVersion": "3.3.4",
  "updatedAt": "2021-11-26T17:03:20.219Z",
  "devdoc": {
    "methods": {
      "allowOperator(address)": {
        "details": "The reason for explicitly listing which relationships are allowed to use the supply is to avoid a situation when someone stakes on the old contract later, after deploying the new staking contract version, just to drain the supply from this contract.",
        "params": {
          "operator": "The operator from the staking relationship on the old staking contract that will be allowed to use the token supply provided by this contract."
        }
      },
      "allowOperators(address[])": {
        "details": "The reason for explicitly listing which relationships are allowed to use the supply is to avoid a situation when someone stakes on the old contract later, after deploying the new staking contract version, just to drain the supply from this contract.",
        "params": {
          "operators": "Array of operator addresses from the staking relationships on the old staking contract that will be allowed to use the token supply provided by this contract."
        }
      },
      "copyStake(address)": {
        "params": {
          "operator": "The operator from the staking relationship on the old staking contract that should be copied to the new staking contract."
        }
      },
      "forceUndelegate(address)": {
        "params": {
          "operator": "The operator address."
        }
      },
      "isOwner()": {
        "details": "Returns true if the caller is the current owner."
      },
      "owner()": {
        "details": "Returns the address of the current owner."
      },
      "receiveApproval(address,uint256,address,bytes)": {
        "params": {
          "extraData": "ABI-encoded operator address from the staking relationship that is repaid.",
          "from": "The owner of the tokens who approved them to transfer. It has to be the owner of the original relationship.",
          "token": "KEEP token contract address.",
          "value": "Approved amount for the transfer. It has to be the same as the amount of tokens in the original staking relationship at the moment when this relationship was copied to the new staking contract."
        }
      },
      "recoverStake(address)": {
        "params": {
          "operator": "The operator address."
        }
      },
      "renounceOwnership()": {
        "details": "Leaves the contract without owner. It will not be possible to call `onlyOwner` functions anymore. Can only be called by the current owner.     * NOTE: Renouncing ownership will leave the contract without an owner, thereby removing any functionality that is only available to the owner."
      },
      "transferOwnership(address)": {
        "details": "Transfers ownership of the contract to a new account (`newOwner`). Can only be called by the current owner."
      },
      "undelegate(address)": {
        "params": {
          "operator": "The operator address."
        }
      },
      "withdraw(uint256)": {
        "params": {
          "amount": "The amount of tokens that should be withdrawn."
        }
      }
    },
    "title": "StakingPortBacker"
  },
  "userdoc": {
    "methods": {
      "allowOperator(address)": {
        "notice": "Lets the owner of the contract to register operator from staking relationships that will be allowed to use the token supply provided by this contract."
      },
      "allowOperators(address[])": {
        "notice": "Lets the owner of the contract to register operators from staking relationships that will be allowed to use the token supply provided by this contract."
      },
      "copyStake(address)": {
        "notice": "Copies staking relationship from the old token staking contract to the new staking contract. Only the owner of the relationship can copy it to the new staking contract, the relationship can only be copied once, and undelegation must not be complete on that relationship. Operator, beneficiary, authorizer, and stake amount will be the same as in the original delegation. Until the delegation is repaid, this contract is the owner of the delegation on the new staking contract."
      },
      "forceUndelegate(address)": {
        "notice": "Force-undelegates stake on the new staking contract from the provided operator. Used by the owner of this contract to undelegate stake if the delegation has not been paid back on time."
      },
      "receiveApproval(address,uint256,address,bytes)": {
        "notice": "Used by the original staking relationship owner to pay back for the delegation. Once the delegation is paid back, the staking relationship ownership on the new staking contract is transferred to the owner of the delegation in the old staking contract version."
      },
      "recoverStake(address)": {
        "notice": "Recovers stake on the new staking contract from the provided operator."
      },
      "undelegate(address)": {
        "notice": "Undelegates stake on the new staking contract from the provided operator."
      },
      "withdraw(uint256)": {
        "notice": "Allows the contract owner to withdraw tokens from the balance the contract has available to back stake copying."
      }
    },
    "notice": "Provides additional liquidity from the primary token supply for token owners staking on the previous staking contract version and letting them to stake on the new staking contract version without having to wait for the entire undelegation period to unlock their tokens.  /// It lets the Keep team to make an amount of KEEP tokens available to temporarily stake on behalf of a token owner, provided that they have those same tokens currently locked up in the old staking contract. Undelegation of all tokens in the new staking contract would be blocked until the temporarily-staked tokens provided by the Keep team are repaid by the token owner.  /// The expected mode of usage for users who have already staked on the old contract is to: 1. Copy stake. 2. Undelegate from the old staking contract. 3. Operate as normal on the new staking contract. 4. Once the old staking contract's undelegated balance is available for recovery, recover it and use the recovered tokens to repay the StakingPortBacker contract."
  }
}