{
  "contractName": "TestAltBn128",
  "abi": [
    {
      "constant": true,
      "inputs": [
        {
          "internalType": "bytes",
          "name": "m",
          "type": "bytes"
        }
      ],
      "name": "publicG1Unmarshal",
      "outputs": [
        {
          "components": [
            {
              "internalType": "uint256",
              "name": "x",
              "type": "uint256"
            },
            {
              "internalType": "uint256",
              "name": "y",
              "type": "uint256"
            }
          ],
          "internalType": "struct AltBn128.G1Point",
          "name": "",
          "type": "tuple"
        }
      ],
      "payable": false,
      "stateMutability": "pure",
      "type": "function"
    },
    {
      "constant": true,
      "inputs": [
        {
          "internalType": "bytes",
          "name": "m",
          "type": "bytes"
        }
      ],
      "name": "publicG2Unmarshal",
      "outputs": [
        {
          "components": [
            {
              "components": [
                {
                  "internalType": "uint256",
                  "name": "x",
                  "type": "uint256"
                },
                {
                  "internalType": "uint256",
                  "name": "y",
                  "type": "uint256"
                }
              ],
              "internalType": "struct AltBn128.gfP2",
              "name": "x",
              "type": "tuple"
            },
            {
              "components": [
                {
                  "internalType": "uint256",
                  "name": "x",
                  "type": "uint256"
                },
                {
                  "internalType": "uint256",
                  "name": "y",
                  "type": "uint256"
                }
              ],
              "internalType": "struct AltBn128.gfP2",
              "name": "y",
              "type": "tuple"
            }
          ],
          "internalType": "struct AltBn128.G2Point",
          "name": "",
          "type": "tuple"
        }
      ],
      "payable": false,
      "stateMutability": "pure",
      "type": "function"
    },
    {
      "constant": true,
      "inputs": [
        {
          "internalType": "bytes",
          "name": "m",
          "type": "bytes"
        }
      ],
      "name": "publicG2Decompress",
      "outputs": [
        {
          "components": [
            {
              "components": [
                {
                  "internalType": "uint256",
                  "name": "x",
                  "type": "uint256"
                },
                {
                  "internalType": "uint256",
                  "name": "y",
                  "type": "uint256"
                }
              ],
              "internalType": "struct AltBn128.gfP2",
              "name": "x",
              "type": "tuple"
            },
            {
              "components": [
                {
                  "internalType": "uint256",
                  "name": "x",
                  "type": "uint256"
                },
                {
                  "internalType": "uint256",
                  "name": "y",
                  "type": "uint256"
                }
              ],
              "internalType": "struct AltBn128.gfP2",
              "name": "y",
              "type": "tuple"
            }
          ],
          "internalType": "struct AltBn128.G2Point",
          "name": "",
          "type": "tuple"
        }
      ],
      "payable": false,
      "stateMutability": "pure",
      "type": "function"
    },
    {
      "constant": false,
      "inputs": [],
      "name": "runHashingTest",
      "outputs": [],
      "payable": false,
      "stateMutability": "nonpayable",
      "type": "function"
    },
    {
      "constant": false,
      "inputs": [],
      "name": "runHashAndAddTest",
      "outputs": [],
      "payable": false,
      "stateMutability": "nonpayable",
      "type": "function"
    },
    {
      "constant": false,
      "inputs": [],
      "name": "runHashAndScalarMultiplyTest",
      "outputs": [],
      "payable": false,
      "stateMutability": "nonpayable",
      "type": "function"
    },
    {
      "constant": false,
      "inputs": [],
      "name": "runGfP2AddTest",
      "outputs": [],
      "payable": false,
      "stateMutability": "nonpayable",
      "type": "function"
    },
    {
      "constant": false,
      "inputs": [],
      "name": "runAddTest",
      "outputs": [],
      "payable": false,
      "stateMutability": "nonpayable",
      "type": "function"
    },
    {
      "constant": false,
      "inputs": [],
      "name": "runScalarMultiplyTest",
      "outputs": [],
      "payable": false,
      "stateMutability": "nonpayable",
      "type": "function"
    },
    {
      "constant": false,
      "inputs": [],
      "name": "runBasicPairingTest",
      "outputs": [],
      "payable": false,
      "stateMutability": "nonpayable",
      "type": "function"
    },
    {
      "constant": false,
      "inputs": [],
      "name": "runG1PointMarshalingTest",
      "outputs": [],
      "payable": false,
      "stateMutability": "nonpayable",
      "type": "function"
    },
    {
      "constant": false,
      "inputs": [],
      "name": "runVerifySignatureTest",
      "outputs": [],
      "payable": false,
      "stateMutability": "nonpayable",
      "type": "function"
    },
    {
      "constant": false,
      "inputs": [],
      "name": "runCompressG1InvertibilityTest",
      "outputs": [],
      "payable": false,
      "stateMutability": "nonpayable",
      "type": "function"
    },
    {
      "constant": false,
      "inputs": [],
      "name": "runCompressG2InvertibilityTest",
      "outputs": [],
      "payable": false,
      "stateMutability": "nonpayable",
      "type": "function"
    },
    {
      "constant": false,
      "inputs": [],
      "name": "runG2PointOnCurveTest",
      "outputs": [],
      "payable": false,
      "stateMutability": "nonpayable",
      "type": "function"
    }
  ],
  "bytecode": "0x608060405262000019620007a360201b62003dee1760201c565b600080820151816000015560208201518160010155505062000045620007c960201b62003e121760201c565b60026000820151816000016000820151816000015560208201518160010155505060208201518160020160008201518160000155602082015181600101555050505060405180610180016040528060405180604001604052807f2c2f5ef2244b70e5b12de01cbe28eac6797eadf053db89c5395ab7c69f38e7f081526020017f28c1e3a30b818eb4da01bcca69f1b0c1366136236260ed0d2604cbe647683f75815250815260200160405180604001604052807f0b197b1fe97785176c707b41fc477dec73c106eda2c0f6ed7270458dc33e2dbe81526020017f0dad0ccb217e2728f5ab01d4d5b5dc5e79476c06e5767a987ac940463002703d815250815260200160405180604001604052807f0e3eee59c101386abd7729a91e907b65d2f09d66fa07658aff8ed5af5f3eb81881526020017f0be3eeb37340e8573866357b518ed75195adb9b71f9d9e3ecd813cf6a91e6bcd815250815260200160405180604001604052807f2c0c3ee4189164bb4c8bfda589c39a221ab48794ea328b0efc5e3a3759ee798381526020017f1745573c9298c7f4a461d3732653542da0c5c4ed9992e3346e3eb8aedfcbec3f815250815260200160405180604001604052807f2b92a2ea9e21bddf32c371267331018d4a3005c7eadbe2267d4f11b67e108d2281526020017f17a3a8c93f6f4be6ad6823c6d29245c359cad97b8f8e332ae3c6fb53b853cc97815250815260200160405180604001604052807f14b88bc8d4d155298c3a57d328f2ae89957fada3ff8759e00bc1e089219615bf81526020017f18a276f1218125d19ce5d5b3d4edef9f1a2a8546c5b2eee11633043ef7636df8815250815260200160405180604001604052807f0d30927d590b1b8f720df75b60e3b4c315449c54327d094790df5ac6bcb69c1481526020017f167f12205220274a04c4c739761766ed1958c48e87b665a953f673f99493e69a815250815260200160405180604001604052807f2ddf3bf5d439fb2f4f37f2f029d8ab0c90a0d228afd513ecb371d0d9a8e231c981526020017f27ec3c42b756f8936bb5558eeb331e3a140e2e506d55dec0db9360404350f072815250815260200160405180604001604052807f10885885cf77e366c8d100933b70cef13626b7c8f4caae35e729ca399c2df0d781526020017f029ba0b771cb8b9b137131d84bc69812c2b9c671e507a975ccfb70ef161a86ec815250815260200160405180604001604052807f077c99e14d4537a53b2824cc19e2ddd9574058f3254d7aaaa56ff32f8c94ef2f81526020017f040faa631de9c28da650a85d538f12f88a10c3ba1cc202463668ff5d30c0ba4e815250815260200160405180604001604052807f21fa9f8e216ab42c67de16a35453e5177e5b6479596d85610acc247f8ff48d8f81526020017f1edf2ea518e94699fa2c30934dd32ac7e385cc7f278532327c685b8ad43de5e7815250815260200160405180604001604052807e8ecf840ae8a38fbf293c88a759be566f840669d9f27125f1839a19b0558d6081526020017f0bb874ea11e4ef6190df32636ce9e2e36b4e24589ff73096ae5248872e49935e815250815250600690600c620004da92919062000895565b50604051806080016040528060405180608001604052807f198e9393920d483a7260bfb731fb5d25f1aa493335a9e71297e485b7aef312c281526020017f1800deef121f1e76426a00665e5c4479674322d4f75edadd46debd5cd992f6ed81526020017f090689d0585ff075ec9e99ad690c3395bc4b313370b38ef355acdadcd122975b81526020017f12c85ea5db8c6deb4aab71808dcb408fe3d1e7690c43d37b4ce6cc0166fa7daa815250815260200160405180608001604052807f07dde1facc9e27d208262865334ab9f366652b1456c13b487e4098b27fd8443e81526020017f02e38db71fee43b2dc92a4b1f7442bbeb2b81c66240212579b9c5a4dc8ddd30481526020017f051f0f5b29b9ea8fe74e60733e6eef4da6ce7a26641564d2bb8d863a26e6144581526020017f06a184cca67764a829f392320bc6a4ee63953aa85ab0b0e091adc62370528dd2815250815260200160405180608001604052807f205409cb3cb1f2dc17d127b35f0065c1003b9e3d6506b1832f333ff0425b689681526020017f20c13b1b4aa4f927f29f1dc46274d09229324460e6b544659f64f5d5517f943581526020017f1da0a715b49ae7582233c48066d832014126ab28254189ea7dbf2942e26f985f81526020017f1a33a384c4c45337936686c7860d2a09c3397386e153af4fbe7fb5e1c221723c815250815260200160405180608001604052807f0dbeecac97c4b28e7004f9afc2f7cf5f022e3b6cf1b01a10026f00a52cb397ef81526020017f20bb5e523431276c14e3ba5757b20cee62cb2da05051baa7120ef65c8390955681526020017f05ee850a987cb2f7d9aa0da6317941ec9c54b4f999830b3fa74818e62e506fe181526020017f1287fee23987c1ab1b564db45a51ba0fe5e0ba0e42f7e6eef93bafd04098d96181525081525060079060046200078e929190620008fa565b503480156200079c57600080fd5b5062000afb565b620007ad6200095f565b6040518060400160405280600181526020016002815250905090565b620007d362000979565b604051806040016040528060405180604001604052807f198e9393920d483a7260bfb731fb5d25f1aa493335a9e71297e485b7aef312c281526020017f1800deef121f1e76426a00665e5c4479674322d4f75edadd46debd5cd992f6ed815250815260200160405180604001604052807f090689d0585ff075ec9e99ad690c3395bc4b313370b38ef355acdadcd122975b81526020017f12c85ea5db8c6deb4aab71808dcb408fe3d1e7690c43d37b4ce6cc0166fa7daa815250815250905090565b828054828255906000526020600020906002028101928215620008e7579160200282015b82811115620008e657825182906002620008d5929190620009a3565b5091602001919060020190620008b9565b5b509050620008f69190620009e8565b5090565b8280548282559060005260206000209060040281019282156200094c579160200282015b828111156200094b578251829060046200093a92919062000a19565b50916020019190600401906200091e565b5b5090506200095b919062000a5e565b5090565b604051806040016040528060008152602001600081525090565b60405180604001604052806200098e62000a8f565b81526020016200099d62000a8f565b81525090565b8260028101928215620009d5579160200282015b82811115620009d4578251825591602001919060010190620009b7565b5b509050620009e4919062000aa9565b5090565b62000a1691905b8082111562000a12576000818162000a08919062000ad1565b50600201620009ef565b5090565b90565b826004810192821562000a4b579160200282015b8281111562000a4a57825182559160200191906001019062000a2d565b5b50905062000a5a919062000aa9565b5090565b62000a8c91905b8082111562000a88576000818162000a7e919062000adf565b5060040162000a65565b5090565b90565b604051806040016040528060008152602001600081525090565b62000ace91905b8082111562000aca57600081600090555060010162000ab0565b5090565b90565b506000815560010160009055565b5060008155600101600081556001016000815560010160009055565b613f1f8062000b0b6000396000f3fe608060405234801561001057600080fd5b50600436106100f55760003560e01c80638ca2cfb911610097578063d440383c11610066578063d440383c146101b4578063db25ee05146101be578063ec90e7d7146101ee578063f73638e8146101f8576100f5565b80638ca2cfb91461018c57806392ab9a6414610196578063baa504bc146101a0578063cc196bdc146101aa576100f5565b8063394b026e116100d3578063394b026e1461013e5780633e382bc3146101485780635c4ebd2e14610152578063696411a11461015c576100f5565b806312461a69146100fa5780632fd4dc041461010457806337e2b34514610134575b600080fd5b610102610202565b005b61011e600480360361011991908101906130bb565b6106fe565b60405161012b9190613cdc565b60405180910390f35b61013c610716565b005b61014661098b565b005b610150610b31565b005b61015a610d80565b005b610176600480360361017191908101906130bb565b610e95565b6040516101839190613cdc565b60405180910390f35b610194610ead565b005b61019e61113b565b005b6101a8611281565b005b6101b261156b565b005b6101bc6117bb565b005b6101d860048036036101d391908101906130bb565b61186a565b6040516101e59190613cc1565b60405180910390f35b6101f6611882565b005b6102006119d3565b005b60008061020d612fb5565b610215612fb5565b61021d612fb5565b610225612fb5565b600095505b6007805490508610156106f657600094505b6007805490508560ff1610156106e95761032460405180604001604052806007898154811061026757fe5b906000526020600020906004020160006004811061028157fe5b015481526020016007898154811061029557fe5b90600052602060002090600402016001600481106102af57fe5b0154815250604051806040016040528060078960ff16815481106102cf57fe5b90600052602060002090600402016000600481106102e957fe5b0154815260200160078960ff168154811061030057fe5b906000526020600020906004020160016004811061031a57fe5b0154815250611c3b565b93506103fe60405180604001604052806007898154811061034157fe5b906000526020600020906004020160026004811061035b57fe5b015481526020016007898154811061036f57fe5b906000526020600020906004020160036004811061038957fe5b0154815250604051806040016040528060078960ff16815481106103a957fe5b90600052602060002090600402016002600481106103c357fe5b0154815260200160078960ff16815481106103da57fe5b90600052602060002090600402016003600481106103f457fe5b0154815250611c3b565b92506104d8604051806040016040528060078860ff168154811061041e57fe5b906000526020600020906004020160006004811061043857fe5b0154815260200160078860ff168154811061044f57fe5b906000526020600020906004020160016004811061046957fe5b0154815250604051806040016040528060078a8154811061048657fe5b90600052602060002090600402016000600481106104a057fe5b0154815260200160078a815481106104b457fe5b90600052602060002090600402016001600481106104ce57fe5b0154815250611c3b565b91506105b2604051806040016040528060078860ff16815481106104f857fe5b906000526020600020906004020160026004811061051257fe5b0154815260200160078860ff168154811061052957fe5b906000526020600020906004020160036004811061054357fe5b0154815250604051806040016040528060078a8154811061056057fe5b906000526020600020906004020160026004811061057a57fe5b0154815260200160078a8154811061058e57fe5b90600052602060002090600402016003600481106105a857fe5b0154815250611c3b565b905081600001518460000151146105fe576040517f08c379a00000000000000000000000000000000000000000000000000000000081526004016105f590613ae1565b60405180910390fd5b8160200151846020015114610648576040517f08c379a000000000000000000000000000000000000000000000000000000000815260040161063f90613ae1565b60405180910390fd5b8060000151836000015114610692576040517f08c379a000000000000000000000000000000000000000000000000000000000815260040161068990613ae1565b60405180910390fd5b80602001518360200151146106dc576040517f08c379a00000000000000000000000000000000000000000000000000000000081526004016106d390613ae1565b60405180910390fd5b848060010195505061023c565b858060010196505061022a565b505050505050565b610706612fcf565b61070f82611cc4565b9050919050565b600080610721612ff5565b610729612ff5565b600193505b600680549050841015610985576107a960405180604001604052806006878154811061075657fe5b906000526020600020906002020160006002811061077057fe5b015481526020016006878154811061078457fe5b906000526020600020906002020160016002811061079e57fe5b015481525085611f1b565b91506107b482611f56565b6107f3576040517f08c379a00000000000000000000000000000000000000000000000000000000081526004016107ea90613bc1565b60405180910390fd5b60405180604001604052806006868154811061080b57fe5b906000526020600020906002020160006002811061082557fe5b015481526020016006868154811061083957fe5b906000526020600020906002020160016002811061085357fe5b01548152509050600192505b838310156108e4576108d58160405180604001604052806006888154811061088357fe5b906000526020600020906002020160006002811061089d57fe5b01548152602001600688815481106108b157fe5b90600052602060002090600202016001600281106108cb57fe5b0154815250612000565b9050828060010193505061085f565b806000015182600001511461092e576040517f08c379a000000000000000000000000000000000000000000000000000000000815260040161092590613aa1565b60405180910390fd5b8060200151826020015114610978576040517f08c379a000000000000000000000000000000000000000000000000000000000815260040161096f90613aa1565b60405180910390fd5b838060010194505061072e565b50505050565b60606040518060400160405280600681526020017f68656c6c6f210000000000000000000000000000000000000000000000000000815250905060606040518060400160405280600881526020017f676f6f646279652e0000000000000000000000000000000000000000000000008152509050610a07612ff5565b610a0f612ff5565b610a1884612046565b9150610a2383612046565b9050610a2d612ff5565b610a35612ff5565b610a3f8484612000565b9150610a4b8385612000565b90508060000151826000015114610a97576040517f08c379a0000000000000000000000000000000000000000000000000000000008152600401610a8e90613ae1565b60405180910390fd5b8060200151826020015114610ae1576040517f08c379a0000000000000000000000000000000000000000000000000000000008152600401610ad890613ae1565b60405180910390fd5b610aea82611f56565b610b29576040517f08c379a0000000000000000000000000000000000000000000000000000000008152600401610b2090613c81565b60405180910390fd5b505050505050565b610b39612ff5565b7f0c74cf6434825958cb3c035d683ae9b05951b1867026db6f70ddbef48a463b6f8160000181815250507f1c99615e59edccdb1eb61586ddf3951eed8f634b3ed975864ccc559bb77943b9816020018181525050610b95612ff5565b7f0173a63a324a34ae99591323bd623ac2519b316a706e89b6e077e190112cfe3e8160000181815250507f0bb5cff1b9f9c222d51fd8cf4c809e8255b42f6be1b561737aea7e8ed39dfd17816020018181525050610bf1612fcf565b7f1f1954b33144db2b5c90da089e8bde287ec7089d5d6433f3b6becaefdb678b1b816000015160000181815250507f2a9de38d14bef2cf9afc3c698a4211fa7ada7b4f036a2dfef0dc122b423259d0816000015160200181815250507f1659dc18b57722ecf6a4beb4d04dfe780a660c4c3bb2b165ab8486114c464c62816020015160000181815250507f1bf37ecdba226629c20908c7f475c5b3a7628ce26d696436eab0b0148034dfcd816020015160200181815250506000610d38836002604051806040016040529081600082016040518060400160405290816000820154815260200160018201548152505081526020016002820160405180604001604052908160008201548152602001600182015481525050815250506040518060400160405280886000015181526020018860200151610d2e612124565b038152508561214c565b905080610d7a576040517f08c379a0000000000000000000000000000000000000000000000000000000008152600401610d7190613ca1565b60405180910390fd5b50505050565b610d88612ff5565b7f0173a63a324a34ae99591323bd623ac2519b316a706e89b6e077e190112cfe3e8160000181815250507f0bb5cff1b9f9c222d51fd8cf4c809e8255b42f6be1b561737aea7e8ed39dfd178160200181815250506060610de7826121fb565b9050610df1612ff5565b610dfa82612263565b90508060000151836000015114610e46576040517f08c379a0000000000000000000000000000000000000000000000000000000008152600401610e3d90613c41565b60405180910390fd5b8060200151836020015114610e90576040517f08c379a0000000000000000000000000000000000000000000000000000000008152600401610e8790613b61565b60405180910390fd5b505050565b610e9d612fcf565b610ea6826122e4565b9050919050565b610eb5612fcf565b60008090505b600780549050811015610ff55760078181548110610ed557fe5b9060005260206000209060040201600060048110610eef57fe5b01548260000151600001818152505060078181548110610f0b57fe5b9060005260206000209060040201600160048110610f2557fe5b01548260000151602001818152505060078181548110610f4157fe5b9060005260206000209060040201600260048110610f5b57fe5b01548260200151600001818152505060078181548110610f7757fe5b9060005260206000209060040201600360048110610f9157fe5b015482602001516020018181525050610fa98261239a565b610fe8576040517f08c379a0000000000000000000000000000000000000000000000000000000008152600401610fdf90613a81565b60405180910390fd5b8080600101915050610ebb565b5060008090505b600780549050811015611137576007818154811061101657fe5b906000526020600020906004020160026004811061103057fe5b0154826000015160000181815250506007818154811061104c57fe5b906000526020600020906004020160036004811061106657fe5b0154826000015160200181815250506007818154811061108257fe5b906000526020600020906004020160006004811061109c57fe5b015482602001516000018181525050600781815481106110b857fe5b90600052602060002090600402016001600481106110d257fe5b0154826020015160200181815250506110ea8261239a565b1561112a576040517f08c379a000000000000000000000000000000000000000000000000000000000815260040161112190613c61565b60405180910390fd5b8080600101915050610ffc565b5050565b611143612ff5565b61114b612ff5565b60008090505b60068054905081101561127c576006818154811061116b57fe5b906000526020600020906002020160006002811061118557fe5b01548360000181815250506006818154811061119d57fe5b90600052602060002090600202016001600281106111b757fe5b015483602001818152505060006111cd846123f7565b90506111d8816124d0565b92508260000151846000015114611224576040517f08c379a000000000000000000000000000000000000000000000000000000000815260040161121b90613b81565b60405180910390fd5b826020015184602001511461126e576040517f08c379a000000000000000000000000000000000000000000000000000000000815260040161126590613ba1565b60405180910390fd5b508080600101915050611151565b505050565b60008061128c612ff5565b611294612ff5565b600093505b60068054905084101561156557600092505b6006805490508360ff161015611558576113936040518060400160405280600687815481106112d657fe5b90600052602060002090600202016000600281106112f057fe5b015481526020016006878154811061130457fe5b906000526020600020906002020160016002811061131e57fe5b0154815250604051806040016040528060068760ff168154811061133e57fe5b906000526020600020906002020160006002811061135857fe5b0154815260200160068760ff168154811061136f57fe5b906000526020600020906002020160016002811061138957fe5b0154815250612000565b915061146d604051806040016040528060068660ff16815481106113b357fe5b90600052602060002090600202016000600281106113cd57fe5b0154815260200160068660ff16815481106113e457fe5b90600052602060002090600202016001600281106113fe57fe5b015481525060405180604001604052806006888154811061141b57fe5b906000526020600020906002020160006002811061143557fe5b015481526020016006888154811061144957fe5b906000526020600020906002020160016002811061146357fe5b0154815250612000565b905080600001518260000151146114b9576040517f08c379a00000000000000000000000000000000000000000000000000000000081526004016114b090613ae1565b60405180910390fd5b8060200151826020015114611503576040517f08c379a00000000000000000000000000000000000000000000000000000000081526004016114fa90613ae1565b60405180910390fd5b61150c82611f56565b61154b576040517f08c379a000000000000000000000000000000000000000000000000000000000815260040161154290613c81565b60405180910390fd5b82806001019350506112ab565b8380600101945050611299565b50505050565b60606040518060400160405280600681526020017f68656c6c6f210000000000000000000000000000000000000000000000000000815250905060606040518060400160405280600881526020017f676f6f646279652e00000000000000000000000000000000000000000000000081525090506115e7612ff5565b6115ef612ff5565b6115f884612046565b915061160383612046565b905060008260000151141561164d576040517f08c379a000000000000000000000000000000000000000000000000000000000815260040161164490613c01565b60405180910390fd5b600082602001511415611695576040517f08c379a000000000000000000000000000000000000000000000000000000000815260040161168c90613b21565b60405180910390fd5b6000816000015114156116dd576040517f08c379a00000000000000000000000000000000000000000000000000000000081526004016116d490613c01565b60405180910390fd5b600081602001511415611725576040517f08c379a000000000000000000000000000000000000000000000000000000000815260040161171c90613b21565b60405180910390fd5b61172e82611f56565b61176d576040517f08c379a000000000000000000000000000000000000000000000000000000000815260040161176490613c21565b60405180910390fd5b61177681611f56565b6117b5576040517f08c379a00000000000000000000000000000000000000000000000000000000081526004016117ac90613c21565b60405180910390fd5b50505050565b60606040518060400160405280600681526020017f68656c6c6f21000000000000000000000000000000000000000000000000000081525090506117fd612ff5565b611805612ff5565b61180e83612046565b915061181b82600c611f1b565b905061182681611f56565b611865576040517f08c379a000000000000000000000000000000000000000000000000000000000815260040161185c90613bc1565b60405180910390fd5b505050565b611872612ff5565b61187b82612263565b9050919050565b600061198e600060405180604001604052908160008201548152602001600182015481525050600260405180604001604052908160008201604051806040016040529081600082015481526020016001820154815250508152602001600282016040518060400160405290816000820154815260200160018201548152505081525050604051806040016040528060008001548152602001600060010154611928612124565b0381525060026040518060400160405290816000820160405180604001604052908160008201548152602001600182015481525050815260200160028201604051806040016040529081600082015481526020016001820154815250508152505061214c565b9050806119d0576040517f08c379a00000000000000000000000000000000000000000000000000000000081526004016119c790613ac1565b60405180910390fd5b50565b6119db612fcf565b6119e3612fcf565b60008090505b600780549050811015611c365760078181548110611a0357fe5b9060005260206000209060040201600060048110611a1d57fe5b01548360000151600001818152505060078181548110611a3957fe5b9060005260206000209060040201600160048110611a5357fe5b01548360000151602001818152505060078181548110611a6f57fe5b9060005260206000209060040201600260048110611a8957fe5b01548360200151600001818152505060078181548110611aa557fe5b9060005260206000209060040201600360048110611abf57fe5b015483602001516020018181525050611adf611ada846126ba565b611cc4565b915081600001516000015183600001516000015114611b33576040517f08c379a0000000000000000000000000000000000000000000000000000000008152600401611b2a90613b81565b60405180910390fd5b81600001516020015183600001516020015114611b85576040517f08c379a0000000000000000000000000000000000000000000000000000000008152600401611b7c90613b81565b60405180910390fd5b81602001516000015183602001516000015114611bd7576040517f08c379a0000000000000000000000000000000000000000000000000000000008152600401611bce90613b81565b60405180910390fd5b81602001516020015183602001516020015114611c29576040517f08c379a0000000000000000000000000000000000000000000000000000000008152600401611c2090613b81565b60405180910390fd5b80806001019150506119e9565b505050565b611c43612fb5565b60405180604001604052807f30644e72e131a029b85045b68181585d97816a916871ca8d3c208c16d87cfd4780611c7657fe5b846000015186600001510881526020017f30644e72e131a029b85045b68181585d97816a916871ca8d3c208c16d87cfd4780611cae57fe5b8460200151866020015108815250905092915050565b611ccc612fcf565b6040825114611d10576040517f08c379a0000000000000000000000000000000000000000000000000000000008152600401611d0790613b41565b60405180910390fd5b6000806000602085019050805192506040850190508051915060008060001b90506000607f60f81b85600060208110611d4557fe5b1a60f81b16905060007fff0000000000000000000000000000000000000000000000000000000000000090506000827effffffffffffffffffffffffffffffffffffffffffffffffffffffffffffff1916901c7effffffffffffffffffffffffffffffffffffffffffffffffffffffffffffff19168160001b198716179250611dcc612fb5565b60405180604001604052808560001c81526020018760001c8152509050611df1612fb5565b611dfa826127c8565b90506007608060f81b8b600081518110611e1057fe5b602001015160f81c60f81b167effffffffffffffffffffffffffffffffffffffffffffffffffffffffffffff1916901c7effffffffffffffffffffffffffffffffffffffffffffffffffffffffffffff1916611e6f8260000151612919565b7effffffffffffffffffffffffffffffffffffffffffffffffffffffffffffff191614611ef75780600001517f30644e72e131a029b85045b68181585d97816a916871ca8d3c208c16d87cfd470381600001818152505080602001517f30644e72e131a029b85045b68181585d97816a916871ca8d3c208c16d87cfd47038160200181815250505b60405180604001604052808381526020018281525098505050505050505050919050565b611f23612ff5565b60405183518152602084015160208201528260408201526040826060836007600019fa611f4f57600080fd5b5092915050565b60007f30644e72e131a029b85045b68181585d97816a916871ca8d3c208c16d87cfd476003611fb560037f30644e72e131a029b85045b68181585d97816a916871ca8d3c208c16d87cfd47866000015161293c9092919063ffffffff16565b0181611fbd57fe5b06611ff860027f30644e72e131a029b85045b68181585d97816a916871ca8d3c208c16d87cfd47856020015161293c9092919063ffffffff16565b149050919050565b612008612ff5565b604051835181526020840151602082015282516040820152602083015160608201526040826080836006600019fa61203f57600080fd5b5092915050565b61204e612ff5565b60006002836040516120609190613a2a565b602060405180830381855afa15801561207d573d6000803e3d6000fd5b5050506040513d601f19601f820116820180604052506120a09190810190613092565b905060007f30644e72e131a029b85045b68181585d97816a916871ca8d3c208c16d87cfd478260001c816120d057fe5b06905060005b60011561211b576120e68261298a565b9050600081111561211057604051806040016040528083815260200182815250935050505061211f565b6001820191506120d6565b5050505b919050565b60007f30644e72e131a029b85045b68181585d97816a916871ca8d3c208c16d87cfd47905090565b60008060405160208101875181526020880151602082015286518051604083015260208101516060830152602088015180516080840152602081015160a0840152875160c0840152602088015160e0840152865180516101008501526020810151610120850152602088015180516101408601526020810151610160860152602086610180876008600019fa6121e157600080fd5b855196505050505050506000811415915050949350505050565b606080604080519080825280601f01601f1916602001820160405280156122315781602001600182028038833980820191505090505b5090506000836000015160001b90506000846020015160001b9050816020840152806040840152829350505050919050565b61226b612ff5565b60408251146122af576040517f08c379a00000000000000000000000000000000000000000000000000000000081526004016122a690613a61565b60405180910390fd5b600080602084015191506040840151905060405180604001604052808360001c81526020018260001c81525092505050919050565b6122ec612fcf565b6080825114612330576040517f08c379a000000000000000000000000000000000000000000000000000000000815260040161232790613b01565b60405180910390fd5b6000806000806020860151935060408601519250606086015191506080860151905060405180604001604052806040518060400160405280878152602001868152508152602001604051806040016040528085815260200184815250815250945050505050919050565b60008060006123b9846020015160000151856020015160200151612a07565b915091506000806123da866000015160000151876000015160200151612a21565b9150915081841480156123ec57508083145b945050505050919050565b600080826000015160001b9050600060076124158560200151612919565b7effffffffffffffffffffffffffffffffffffffffffffffffffffffffffffff1916901b8260006020811061244657fe5b1a60f81b17905060007fff0000000000000000000000000000000000000000000000000000000000000090506000827effffffffffffffffffffffffffffffffffffffffffffffffffffffffffffff1916901c7effffffffffffffffffffffffffffffffffffffffffffffffffffffffffffff19168160001b198416179250829350505050919050565b6124d8612ff5565b60008060001b90506000607f60f81b846000602081106124f457fe5b1a60f81b16905060007fff0000000000000000000000000000000000000000000000000000000000000090506000827effffffffffffffffffffffffffffffffffffffffffffffffffffffffffffff1916901c7effffffffffffffffffffffffffffffffffffffffffffffffffffffffffffff19168160001b19861617925060008360001c905060006125868261298a565b90506007608060f81b8860006020811061259c57fe5b1a60f81b167effffffffffffffffffffffffffffffffffffffffffffffffffffffffffffff1916901c7effffffffffffffffffffffffffffffffffffffffffffffffffffffffffffff19166125f082612919565b7effffffffffffffffffffffffffffffffffffffffffffffffffffffffffffff19161461263d57807f30644e72e131a029b85045b68181585d97816a916871ca8d3c208c16d87cfd470390505b61265a604051806040016040528084815260200183815250611f56565b612699576040517f08c379a000000000000000000000000000000000000000000000000000000000815260040161269090613be1565b60405180910390fd5b60405180604001604052808381526020018281525095505050505050919050565b6060600082600001516000015160001b9050600060076126e1856020015160000151612919565b7effffffffffffffffffffffffffffffffffffffffffffffffffffffffffffff1916901b8260006020811061271257fe5b1a60f81b17905060007fff0000000000000000000000000000000000000000000000000000000000000090506000827effffffffffffffffffffffffffffffffffffffffffffffffffffffffffffff1916901c7effffffffffffffffffffffffffffffffffffffffffffffffffffffffffffff19168160001b1984161792508285600001516020015160001b6040516020016127af9291906139fe565b6040516020818303038152906040529350505050919050565b6127d0612fb5565b6000806127e584600001518560200151612a21565b9150915060007f088df6c05f2c787cbbf4a806f6f6fa163b0a03e4703a82de709f80aa2bddd913905060007e52d63ac8ca88b608f258e34fec2b051f1906430c085493a1050e5c2c5bb3e59050600080612840868685612a8d565b91509150600080612852888888612a8d565b9150915060008061286484848a612a8d565b9150915061287482828888612b2d565b8c6000018d602001828152508281525050505b61289b8a8a8d600001518e60200151612c5d565b61290a576128f38b600001518c602001517f2fb24e8308a9443795fdf38a582edb43a7246e407f00771c911151aa341ac43b7f254371bd70e36dbfaa7c58e18e7c433643e8c6771a5404b9f450d028fe0b2dc5612b2d565b8c6000018d60200182815250828152505050612887565b50505050505050505050919050565b6000600160f81b8260001b601f6020811061293057fe5b1a60f81b169050919050565b60006040516020810160208152602080820152602060408201528560608201528460808201528360a082015260208260c0836005600019fa61297d57600080fd5b8151925050509392505050565b6000612a007f30644e72e131a029b85045b68181585d97816a916871ca8d3c208c16d87cfd478060036129e960037f30644e72e131a029b85045b68181585d97816a916871ca8d3c208c16d87cfd478861293c9092919063ffffffff16565b01816129f157fe5b06612c8a90919063ffffffff16565b9050919050565b600080612a1684848686612b2d565b915091509250929050565b600080600080612a318686612e6b565b91509150612a8082827e9713b03af0fed4cd2cafadeed8fdf4a74fa084e52d1852e4a2bd0685c315d27f2b149d40ceb8aaae81be18991be06ac3b5b4c5e559dbefa33267e6dc24a138e5612e98565b9350935050509250929050565b60008060008390506000925060019150600086905060008690505b6000831115612b2257600160f81b612abf84612919565b7effffffffffffffffffffffffffffffffffffffffffffffffffffffffffffff19161415612afc57612af385858484612b2d565b80955081965050505b60028381612b0657fe5b049250612b1582828484612b2d565b8092508193505050612aa8565b505050935093915050565b6000807f30644e72e131a029b85045b68181585d97816a916871ca8d3c208c16d87cfd4780612b5857fe5b7f30644e72e131a029b85045b68181585d97816a916871ca8d3c208c16d87cfd4780612b8057fe5b8686097f30644e72e131a029b85045b68181585d97816a916871ca8d3c208c16d87cfd4780612bab57fe5b8589090891507f30644e72e131a029b85045b68181585d97816a916871ca8d3c208c16d87cfd4780612bd957fe5b7f30644e72e131a029b85045b68181585d97816a916871ca8d3c208c16d87cfd4780612c0157fe5b8588097f30644e72e131a029b85045b68181585d97816a916871ca8d3c208c16d87cfd47037f30644e72e131a029b85045b68181585d97816a916871ca8d3c208c16d87cfd4780612c4e57fe5b85880908905094509492505050565b6000806000612c6c8585612a07565b915091508682148015612c7e57508581145b92505050949350505050565b60006001612c988484612efe565b14612ca65760009050612e65565b6000831415612cb85760009050612e65565b600360048381612cc457fe5b061415612cea57612ce38360046001850181612cdc57fe5b048461293c565b9050612e65565b600060018303905060008090505b600060028381612d0457fe5b061415612d235760028281612d1557fe5b049150600181019050612cf8565b6000600290505b7fffffffffffffffffffffffffffffffffffffffffffffffffffffffffffffffff612d558287612efe565b14612d6557600181019050612d2a565b6000612d7f8760026001870181612d7857fe5b048861293c565b90506000612d8e88868961293c565b90506000612d9d84878a61293c565b905060008590506000809050600080905060008590505b600115612e5a5785905060009150600091505b83821015612df8576001811415612ddd57612df8565b612de98160028e61293c565b90508180600101925050612dc7565b6000821415612e1357869a5050505050505050505050612e65565b612e268560018487030360020a8e61293c565b92508b83840281612e3357fe5b0694508b83880281612e4157fe5b0696508b85870281612e4f57fe5b069550819350612db4565b505050505050505050505b92915050565b600080600080612e7b8686612a07565b91509150612e8b86868484612b2d565b9350935050509250929050565b6000807f30644e72e131a029b85045b68181585d97816a916871ca8d3c208c16d87cfd4780612ec357fe5b84870891507f30644e72e131a029b85045b68181585d97816a916871ca8d3c208c16d87cfd4780612ef057fe5b838608905094509492505050565b600080612f198460026001860381612f1257fe5b048561293c565b90506000811480612f2a5750600181145b15612f385780915050612faf565b60018303811415612f6c577fffffffffffffffffffffffffffffffffffffffffffffffffffffffffffffffff915050612faf565b6000612fad576040517f08c379a0000000000000000000000000000000000000000000000000000000008152600401612fa490613a41565b60405180910390fd5b505b92915050565b604051806040016040528060008152602001600081525090565b6040518060400160405280612fe261300f565b8152602001612fef61300f565b81525090565b604051806040016040528060008152602001600081525090565b604051806040016040528060008152602001600081525090565b60008151905061303881613dd7565b92915050565b600082601f83011261304f57600080fd5b813561306261305d82613d24565b613cf7565b9150808252602083016020830185838301111561307e57600080fd5b613089838284613d8b565b50505092915050565b6000602082840312156130a457600080fd5b60006130b284828501613029565b91505092915050565b6000602082840312156130cd57600080fd5b600082013567ffffffffffffffff8111156130e757600080fd5b6130f38482850161303e565b91505092915050565b61310d61310882613d77565b613dcd565b82525050565b600061311e82613d50565b6131288185613d5b565b9350613138818560208601613d9a565b80840191505092915050565b6000613151601d83613d66565b91507f4661696c656420746f2063616c63756c617465206c6567656e6472652e0000006000830152602082019050919050565b6000613191601783613d66565b91507f496e76616c6964204731206279746573206c656e6774680000000000000000006000830152602082019050919050565b60006131d1602483613d66565b91507f56616c696420706f696e74732073686f756c64206265206f6e2074686520637560008301527f7276652e000000000000000000000000000000000000000000000000000000006020830152604082019050919050565b6000613237603383613d66565b91507f5363616c6172206d756c7469706c69636174696f6e2073686f756c64206d617460008301527f636820726570656174206164646974696f6e2e000000000000000000000000006020830152604082019050919050565b600061329d602383613d66565b91507f42617369632070616972696e6720636865636b2073686f756c6420737563636560008301527f65642e00000000000000000000000000000000000000000000000000000000006020830152604082019050919050565b6000613303602583613d66565b91507f506f696e74206164646974696f6e2073686f756c6420626520636f6d6d75746160008301527f746976652e0000000000000000000000000000000000000000000000000000006020830152604082019050919050565b6000613369601783613d66565b91507f496e76616c6964204732206279746573206c656e6774680000000000000000006000830152602082019050919050565b60006133a9602783613d66565b91507f592073686f756c64206e6f7420657175616c203020696e20612068617368656460008301527f20706f696e742e000000000000000000000000000000000000000000000000006020830152604082019050919050565b600061340f602283613d66565b91507f496e76616c696420473220636f6d70726573736564206279746573206c656e6760008301527f74680000000000000000000000000000000000000000000000000000000000006020830152604082019050919050565b6000613475604183613d66565b91507f556e6d61727368616c696e672061206d61727368616c656420706f696e74207360008301527f686f756c642067697665207468652073616d65207920636f6f7264696e61746560208301527f2e000000000000000000000000000000000000000000000000000000000000006040830152606082019050919050565b6000613501604383613d66565b91507f4465636f6d7072657373696e67206120636f6d7072657373656420706f696e7460008301527f2073686f756c642067697665207468652073616d65207820636f6f7264696e6160208301527f74652e00000000000000000000000000000000000000000000000000000000006040830152606082019050919050565b600061358d604383613d66565b91507f4465636f6d7072657373696e67206120636f6d7072657373656420706f696e7460008301527f2073686f756c642067697665207468652073616d65207920636f6f7264696e6160208301527f74652e00000000000000000000000000000000000000000000000000000000006040830152606082019050919050565b6000613619602883613d66565b91507f4d756c7469706c69656420706f696e742073686f756c64206265206f6e20746860008301527f652063757276652e0000000000000000000000000000000000000000000000006020830152604082019050919050565b600061367f601983613d66565b91507f4d616c666f726d656420626e3235362e473120706f696e742e000000000000006000830152602082019050919050565b60006136bf602783613d66565b91507f582073686f756c64206e6f7420657175616c203020696e20612068617368656460008301527f20706f696e742e000000000000000000000000000000000000000000000000006020830152604082019050919050565b6000613725602583613d66565b91507f48617368656420706f696e74732073686f756c64206265206f6e20746865206360008301527f757276652e0000000000000000000000000000000000000000000000000000006020830152604082019050919050565b600061378b604183613d66565b91507f556e6d61727368616c696e672061206d61727368616c656420706f696e74207360008301527f686f756c642067697665207468652073616d65207820636f6f7264696e61746560208301527f2e000000000000000000000000000000000000000000000000000000000000006040830152606082019050919050565b6000613817602a83613d66565b91507f496e76616c696420706f696e74732073686f756c64206e6f74206265206f6e2060008301527f7468652063757276652e000000000000000000000000000000000000000000006020830152604082019050919050565b600061387d602483613d66565b91507f416464656420706f696e74732073686f756c64206265206f6e2074686520637560008301527f7276652e000000000000000000000000000000000000000000000000000000006020830152604082019050919050565b60006138e3604383613d66565b91507f566572696679207369676e6174757265207573696e6720707265636f6d70696c60008301527f65642070616972696e6720636f6e74726163742073686f756c6420737563636560208301527f65642e00000000000000000000000000000000000000000000000000000000006040830152606082019050919050565b60408201600082015161397860008501826139ef565b50602082015161398b60208501826139ef565b50505050565b6080820160008201516139a760008501826139c0565b5060208201516139ba60408501826139c0565b50505050565b6040820160008201516139d660008501826139ef565b5060208201516139e960208501826139ef565b50505050565b6139f881613d81565b82525050565b6000613a0a82856130fc565b602082019150613a1a82846130fc565b6020820191508190509392505050565b6000613a368284613113565b915081905092915050565b60006020820190508181036000830152613a5a81613144565b9050919050565b60006020820190508181036000830152613a7a81613184565b9050919050565b60006020820190508181036000830152613a9a816131c4565b9050919050565b60006020820190508181036000830152613aba8161322a565b9050919050565b60006020820190508181036000830152613ada81613290565b9050919050565b60006020820190508181036000830152613afa816132f6565b9050919050565b60006020820190508181036000830152613b1a8161335c565b9050919050565b60006020820190508181036000830152613b3a8161339c565b9050919050565b60006020820190508181036000830152613b5a81613402565b9050919050565b60006020820190508181036000830152613b7a81613468565b9050919050565b60006020820190508181036000830152613b9a816134f4565b9050919050565b60006020820190508181036000830152613bba81613580565b9050919050565b60006020820190508181036000830152613bda8161360c565b9050919050565b60006020820190508181036000830152613bfa81613672565b9050919050565b60006020820190508181036000830152613c1a816136b2565b9050919050565b60006020820190508181036000830152613c3a81613718565b9050919050565b60006020820190508181036000830152613c5a8161377e565b9050919050565b60006020820190508181036000830152613c7a8161380a565b9050919050565b60006020820190508181036000830152613c9a81613870565b9050919050565b60006020820190508181036000830152613cba816138d6565b9050919050565b6000604082019050613cd66000830184613962565b92915050565b6000608082019050613cf16000830184613991565b92915050565b6000604051905081810181811067ffffffffffffffff82111715613d1a57600080fd5b8060405250919050565b600067ffffffffffffffff821115613d3b57600080fd5b601f19601f8301169050602081019050919050565b600081519050919050565b600081905092915050565b600082825260208201905092915050565b6000819050919050565b6000819050919050565b82818337600083830152505050565b60005b83811015613db8578082015181840152602081019050613d9d565b83811115613dc7576000848401525b50505050565b6000819050919050565b613de081613d77565b8114613deb57600080fd5b50565b613df6612ff5565b6040518060400160405280600181526020016002815250905090565b613e1a612fcf565b604051806040016040528060405180604001604052807f198e9393920d483a7260bfb731fb5d25f1aa493335a9e71297e485b7aef312c281526020017f1800deef121f1e76426a00665e5c4479674322d4f75edadd46debd5cd992f6ed815250815260200160405180604001604052807f090689d0585ff075ec9e99ad690c3395bc4b313370b38ef355acdadcd122975b81526020017f12c85ea5db8c6deb4aab71808dcb408fe3d1e7690c43d37b4ce6cc0166fa7daa81525081525090509056fea365627a7a7231582090902f910b84a37d3e70c0bb4510aae7010e08310e61669faa54fd443d172cc06c6578706572696d656e74616cf564736f6c63430005110040",
  "source": "pragma solidity 0.5.17;\n\n// it is just a stub, not a live deployment;\n// we are fine with experimental feature\n/* solium-disable-next-line */\npragma experimental ABIEncoderV2;\n\nimport \"../cryptography/AltBn128.sol\";\n\ncontract TestAltBn128 {\n    function publicG1Unmarshal(bytes memory m)\n        public\n        pure\n        returns (AltBn128.G1Point memory)\n    {\n        return AltBn128.g1Unmarshal(m);\n    }\n\n    function publicG2Unmarshal(bytes memory m)\n        public\n        pure\n        returns (AltBn128.G2Point memory)\n    {\n        return AltBn128.g2Unmarshal(m);\n    }\n\n    function publicG2Decompress(bytes memory m)\n        public\n        pure\n        returns (AltBn128.G2Point memory)\n    {\n        return AltBn128.g2Decompress(m);\n    }\n\n    AltBn128.G1Point g1 = AltBn128.g1();\n    AltBn128.G2Point g2 = AltBn128.g2();\n\n    function runHashingTest() public {\n        string memory hello = \"hello!\";\n        string memory goodbye = \"goodbye.\";\n        AltBn128.G1Point memory p_1;\n        AltBn128.G1Point memory p_2;\n        p_1 = AltBn128.g1HashToPoint(bytes(hello));\n        p_2 = AltBn128.g1HashToPoint(bytes(goodbye));\n\n        require(p_1.x != 0, \"X should not equal 0 in a hashed point.\");\n        require(p_1.y != 0, \"Y should not equal 0 in a hashed point.\");\n        require(p_2.x != 0, \"X should not equal 0 in a hashed point.\");\n        require(p_2.y != 0, \"Y should not equal 0 in a hashed point.\");\n\n        require(\n            AltBn128.isG1PointOnCurve(p_1),\n            \"Hashed points should be on the curve.\"\n        );\n        require(\n            AltBn128.isG1PointOnCurve(p_2),\n            \"Hashed points should be on the curve.\"\n        );\n    }\n\n    function runHashAndAddTest() public {\n        string memory hello = \"hello!\";\n        string memory goodbye = \"goodbye.\";\n        AltBn128.G1Point memory p_1;\n        AltBn128.G1Point memory p_2;\n        p_1 = AltBn128.g1HashToPoint(bytes(hello));\n        p_2 = AltBn128.g1HashToPoint(bytes(goodbye));\n\n        AltBn128.G1Point memory p_3;\n        AltBn128.G1Point memory p_4;\n\n        p_3 = AltBn128.g1Add(p_1, p_2);\n        p_4 = AltBn128.g1Add(p_2, p_1);\n\n        require(p_3.x == p_4.x, \"Point addition should be commutative.\");\n        require(p_3.y == p_4.y, \"Point addition should be commutative.\");\n\n        require(\n            AltBn128.isG1PointOnCurve(p_3),\n            \"Added points should be on the curve.\"\n        );\n    }\n\n    function runHashAndScalarMultiplyTest() public {\n        string memory hello = \"hello!\";\n        AltBn128.G1Point memory p_1;\n        AltBn128.G1Point memory p_2;\n        p_1 = AltBn128.g1HashToPoint(bytes(hello));\n\n        p_2 = AltBn128.scalarMultiply(p_1, 12);\n\n        require(\n            AltBn128.isG1PointOnCurve(p_2),\n            \"Multiplied point should be on the curve.\"\n        );\n    }\n\n    uint256[2][] randomG1 = [\n        [\n            19985462441994274044747034318046506954527006367483173410210086890020894468080,\n            18435086518936643964830423002803816020906755142322386776411266459735121477493\n        ],\n        [\n            5020462286181323390508118928832214575747271080433231325350949221928552771006,\n            6185819871141660402526014503512646294685393996180865467240675728617780703293\n        ],\n        [\n            6443569433573553122968863711873646857259386088199162681359502284812487407640,\n            5378163071719228060986147516945215302807920666474786022068644421654848367565\n        ],\n        [\n            19923401560169709235429596406611561407855841155398968552083379042854674266499,\n            10525710049852251332517421942831871137061760270860191079861735894813959253055\n        ],\n        [\n            19708536568727021605314080150939514846681180496259214578335284564769723419938,\n            10692356507990003585226828000662725800587874779874382732784071410185542028439\n        ],\n        [\n            9372321588728408099991690236147178727235677209811335191981120085012199642559,\n            11142558497436993571688400857990083465974854590891619188837196531526982135288\n        ],\n        [\n            5965886725029153696599727822391947370059044516209856603831046549655428439060,\n            10175397348860086021525298362240324520688370458967443904613437789517586359962\n        ],\n        [\n            20748498912264019189558145442056089284703240490771913074152837182874426945993,\n            18057592905480302483449076150943157907511999106688668826058046434471622799474\n        ],\n        [\n            7477907739342510339540973467783537984932469471333402963930842749621045686487,\n            1179596217276931579251786249459263438406283313229247981371951224605996910316\n        ],\n        [\n            3386341017431964271492464889305868556498227248869025090652509478713128447791,\n            1836930069368635496176332910536803390892441983393373783218213609800061729358\n        ],\n        [\n            15369136978943154357167241223632015935727499997608268363280373457134516735375,\n            13963714284290182895189799343803541866405397472877283227980653081636863075815\n        ],\n        [\n            252324504554101299613500369843808394682741893676105206770010905523927747936,\n            5301348107423388196155421770728871408649649793716391651642915616092861338462\n        ]\n    ];\n\n    uint256[4][] randomG2 = [\n        [\n            11559732032986387107991004021392285783925812861821192530917403151452391805634,\n            10857046999023057135944570762232829481370756359578518086990519993285655852781,\n            4082367875863433681332203403145435568316851327593401208105741076214120093531,\n            8495653923123431417604973247489272438418190587263600148770280649306958101930\n        ],\n        [\n            3558222795862351239338057832504031412042231518727744074889572712970741892158,\n            1306678064139060928090556321451178074402697032692562310283497263099767804676,\n            2316442485869095896235201578689810877812891214989209176315292141295656899653,\n            2999256016806770587400278223266487828070696882906920737522774393744811789778\n        ],\n        [\n            14622493903084144595613313812136815995549249456289461446052351022658739726486,\n            14815420576980748908539135128242740015127336122409448605930237255046504879157,\n            13400921316097996971584638040633436051131826349725459963804926452735715285087,\n            11851371827558083239355447328198017836652007495098247662236445322029872280124\n        ],\n        [\n            6217401439122098088765827257305726706731572245002926407946450711747381925871,\n            14805062536146767263542014365237987548032285721054252746437955688297149797718,\n            2682992062255943794448341271274355111144659536522130372456554423016095772641,\n            8381914770822556071474775460600158217731085727931186436939477443088764950881\n        ]\n    ];\n\n    function runGfP2AddTest() public {\n        uint256 i;\n        uint8 j;\n\n        AltBn128.gfP2 memory p_1;\n        AltBn128.gfP2 memory p_2;\n        AltBn128.gfP2 memory p_3;\n        AltBn128.gfP2 memory p_4;\n\n        for (i = 0; i < randomG2.length; i++) {\n            for (j = 0; j < randomG2.length; j++) {\n                p_1 = AltBn128.gfP2Add(\n                    AltBn128.gfP2(randomG2[i][0], randomG2[i][1]),\n                    AltBn128.gfP2(randomG2[j][0], randomG2[j][1])\n                );\n                p_2 = AltBn128.gfP2Add(\n                    AltBn128.gfP2(randomG2[i][2], randomG2[i][3]),\n                    AltBn128.gfP2(randomG2[j][2], randomG2[j][3])\n                );\n                p_3 = AltBn128.gfP2Add(\n                    AltBn128.gfP2(randomG2[j][0], randomG2[j][1]),\n                    AltBn128.gfP2(randomG2[i][0], randomG2[i][1])\n                );\n                p_4 = AltBn128.gfP2Add(\n                    AltBn128.gfP2(randomG2[j][2], randomG2[j][3]),\n                    AltBn128.gfP2(randomG2[i][2], randomG2[i][3])\n                );\n\n                require(\n                    p_1.x == p_3.x,\n                    \"Point addition should be commutative.\"\n                );\n                require(\n                    p_1.y == p_3.y,\n                    \"Point addition should be commutative.\"\n                );\n                require(\n                    p_2.x == p_4.x,\n                    \"Point addition should be commutative.\"\n                );\n                require(\n                    p_2.y == p_4.y,\n                    \"Point addition should be commutative.\"\n                );\n            }\n        }\n    }\n\n    function runAddTest() public {\n        uint256 i;\n        uint8 j;\n\n        AltBn128.G1Point memory p_1;\n        AltBn128.G1Point memory p_2;\n\n        for (i = 0; i < randomG1.length; i++) {\n            for (j = 0; j < randomG1.length; j++) {\n                p_1 = AltBn128.g1Add(\n                    AltBn128.G1Point(randomG1[i][0], randomG1[i][1]),\n                    AltBn128.G1Point(randomG1[j][0], randomG1[j][1])\n                );\n                p_2 = AltBn128.g1Add(\n                    AltBn128.G1Point(randomG1[j][0], randomG1[j][1]),\n                    AltBn128.G1Point(randomG1[i][0], randomG1[i][1])\n                );\n\n                require(\n                    p_1.x == p_2.x,\n                    \"Point addition should be commutative.\"\n                );\n                require(\n                    p_1.y == p_2.y,\n                    \"Point addition should be commutative.\"\n                );\n\n                require(\n                    AltBn128.isG1PointOnCurve(p_1),\n                    \"Added points should be on the curve.\"\n                );\n            }\n        }\n    }\n\n    function runScalarMultiplyTest() public {\n        uint256 i;\n        uint256 j;\n\n        AltBn128.G1Point memory p_1;\n        AltBn128.G1Point memory p_2;\n\n        for (i = 1; i < randomG1.length; i++) {\n            p_1 = AltBn128.scalarMultiply(\n                AltBn128.G1Point(randomG1[i][0], randomG1[i][1]),\n                i\n            );\n\n            require(\n                AltBn128.isG1PointOnCurve(p_1),\n                \"Multiplied point should be on the curve.\"\n            );\n\n            p_2 = AltBn128.G1Point(randomG1[i][0], randomG1[i][1]);\n            for (j = 1; j < i; j++) {\n                p_2 = AltBn128.g1Add(\n                    p_2,\n                    AltBn128.G1Point(randomG1[i][0], randomG1[i][1])\n                );\n            }\n\n            require(\n                p_1.x == p_2.x,\n                \"Scalar multiplication should match repeat addition.\"\n            );\n            require(\n                p_1.y == p_2.y,\n                \"Scalar multiplication should match repeat addition.\"\n            );\n        }\n    }\n\n    function runBasicPairingTest() public {\n        bool result =\n            AltBn128.pairing(\n                g1,\n                g2,\n                AltBn128.G1Point(g1.x, AltBn128.getP() - g1.y),\n                g2\n            );\n        require(result, \"Basic pairing check should succeed.\");\n    }\n\n    function runG1PointMarshalingTest() public {\n        AltBn128.G1Point memory point;\n        point\n            .x = 656647519899395589093611455851658769732922739162315270379466002146796568126;\n        point\n            .y = 5296675831567268847773497112983742440203412208935796410329912816023128374551;\n\n        bytes memory marshaledPoint = AltBn128.g1Marshal(point);\n        AltBn128.G1Point memory actual = AltBn128.g1Unmarshal(marshaledPoint);\n\n        require(\n            point.x == actual.x,\n            \"Unmarshaling a marshaled point should give the same x coordinate.\"\n        );\n        require(\n            point.y == actual.y,\n            \"Unmarshaling a marshaled point should give the same y coordinate.\"\n        );\n    }\n\n    // Verifying sample data generated with bn256.go - Ethereum's bn256/cloudflare curve.\n    function runVerifySignatureTest() public {\n        // \"hello!\" message hashed to G1 point using G1HashToPoint from keep-core/pkg/bls/altbn128.go\n        AltBn128.G1Point memory message;\n        message\n            .x = 5634139805531803244211629196316241342481813136353842610045004964364565232495;\n        message\n            .y = 12935759374343796368049060881302766596646163398265176009268480404372697203641;\n\n        // G1 point hashed message above signed with private key = 123 using ScalarMult\n        // from go-ethereum/crypto/bn256/cloudflare library\n        AltBn128.G1Point memory signature;\n        signature\n            .x = 656647519899395589093611455851658769732922739162315270379466002146796568126;\n        signature\n            .y = 5296675831567268847773497112983742440203412208935796410329912816023128374551;\n\n        // G2 point representing public key for private key = 123\n        AltBn128.G2Point memory publicKey;\n        publicKey\n            .x\n            .x = 14066454060412929535985836631817650877381034334390275410072431082437297539867;\n        publicKey\n            .x\n            .y = 19276105129625393659655050515259006463014579919681138299520812914148935621072;\n        publicKey\n            .y\n            .x = 10109651107942685361120988628892759706059655669161016107907096760613704453218;\n        publicKey\n            .y\n            .y = 12642665914920339463975152321804664028480770144655934937445922690262428344269;\n\n        bool result =\n            AltBn128.pairing(\n                signature,\n                g2,\n                AltBn128.G1Point(message.x, AltBn128.getP() - message.y),\n                publicKey\n            );\n        require(\n            result,\n            \"Verify signature using precompiled pairing contract should succeed.\"\n        );\n    }\n\n    function runCompressG1InvertibilityTest() public {\n        AltBn128.G1Point memory p_1;\n        AltBn128.G1Point memory p_2;\n\n        for (uint256 i = 0; i < randomG1.length; i++) {\n            p_1.x = randomG1[i][0];\n            p_1.y = randomG1[i][1];\n            bytes32 compressed = AltBn128.g1Compress(p_1);\n            p_2 = AltBn128.g1Decompress(compressed);\n            require(\n                p_1.x == p_2.x,\n                \"Decompressing a compressed point should give the same x coordinate.\"\n            );\n            require(\n                p_1.y == p_2.y,\n                \"Decompressing a compressed point should give the same y coordinate.\"\n            );\n        }\n    }\n\n    function runCompressG2InvertibilityTest() public {\n        AltBn128.G2Point memory p_1;\n        AltBn128.G2Point memory p_2;\n\n        for (uint256 i = 0; i < randomG2.length; i++) {\n            p_1.x.x = randomG2[i][0];\n            p_1.x.y = randomG2[i][1];\n            p_1.y.x = randomG2[i][2];\n            p_1.y.y = randomG2[i][3];\n\n            p_2 = AltBn128.g2Decompress(AltBn128.g2Compress(p_1));\n            require(\n                p_1.x.x == p_2.x.x,\n                \"Decompressing a compressed point should give the same x coordinate.\"\n            );\n            require(\n                p_1.x.y == p_2.x.y,\n                \"Decompressing a compressed point should give the same x coordinate.\"\n            );\n            require(\n                p_1.y.x == p_2.y.x,\n                \"Decompressing a compressed point should give the same x coordinate.\"\n            );\n            require(\n                p_1.y.y == p_2.y.y,\n                \"Decompressing a compressed point should give the same x coordinate.\"\n            );\n        }\n    }\n\n    function runG2PointOnCurveTest() public {\n        AltBn128.G2Point memory point;\n\n        for (uint256 i = 0; i < randomG2.length; i++) {\n            point.x.x = randomG2[i][0];\n            point.x.y = randomG2[i][1];\n            point.y.x = randomG2[i][2];\n            point.y.y = randomG2[i][3];\n\n            require(\n                AltBn128.isG2PointOnCurve(point),\n                \"Valid points should be on the curve.\"\n            );\n        }\n\n        for (uint256 i = 0; i < randomG2.length; i++) {\n            point.x.x = randomG2[i][2];\n            point.x.y = randomG2[i][3];\n            point.y.x = randomG2[i][0];\n            point.y.y = randomG2[i][1];\n\n            require(\n                !AltBn128.isG2PointOnCurve(point),\n                \"Invalid points should not be on the curve.\"\n            );\n        }\n    }\n}\n",
  "sourcePath": "/home/runner/work/keep-core/keep-core/solidity-v1/contracts/stubs/TestAltBn128.sol",
  "compiler": {
    "name": "solc",
    "version": "0.5.17+commit.d19bba13.Emscripten.clang"
  },
  "schemaVersion": "3.3.4",
  "updatedAt": "2021-11-26T17:03:20.399Z",
  "devdoc": {
    "methods": {}
  },
  "userdoc": {
    "methods": {}
  }
}