{
  "contractName": "TestModUtils",
  "abi": [
    {
      "constant": false,
      "inputs": [],
      "name": "runModExponentTest",
      "outputs": [],
      "payable": false,
      "stateMutability": "nonpayable",
      "type": "function"
    },
    {
      "constant": false,
      "inputs": [],
      "name": "runLegendreRangeTest",
      "outputs": [],
      "payable": false,
      "stateMutability": "nonpayable",
      "type": "function"
    },
    {
      "constant": false,
      "inputs": [],
      "name": "runLegendreListTest",
      "outputs": [],
      "payable": false,
      "stateMutability": "nonpayable",
      "type": "function"
    },
    {
      "constant": false,
      "inputs": [],
      "name": "runModSqrtOf0Test",
      "outputs": [],
      "payable": false,
      "stateMutability": "nonpayable",
      "type": "function"
    },
    {
      "constant": false,
      "inputs": [],
      "name": "runModSqrtMultipleOfPTest",
      "outputs": [],
      "payable": false,
      "stateMutability": "nonpayable",
      "type": "function"
    },
    {
      "constant": false,
      "inputs": [],
      "name": "runModSqrtAgainstListTest",
      "outputs": [],
      "payable": false,
      "stateMutability": "nonpayable",
      "type": "function"
    },
    {
      "constant": false,
      "inputs": [],
      "name": "runModSqrtAgainstNonSquaresTest",
      "outputs": [],
      "payable": false,
      "stateMutability": "nonpayable",
      "type": "function"
    },
    {
      "constant": false,
      "inputs": [],
      "name": "runModSqrtALessThanPTest",
      "outputs": [],
      "payable": false,
      "stateMutability": "nonpayable",
      "type": "function"
    },
    {
      "constant": false,
      "inputs": [],
      "name": "runModSqrtAGreaterThanPTest",
      "outputs": [],
      "payable": false,
      "stateMutability": "nonpayable",
      "type": "function"
    }
  ],
  "bytecode": "0x6080604052604051806102000160405280600360ff168152602001600560ff168152602001600760ff168152602001600b60ff168152602001600d60ff168152602001601160ff168152602001601360ff168152602001601760ff168152602001601d60ff168152602001601f60ff168152602001602560ff168152602001602960ff168152602001602b60ff168152602001602f60ff168152602001603560ff168152602001603b60ff168152506000906010620000c092919062000a30565b5060405180610620016040528060405180606001604052806003815260200160008152602001600081525081526020016040518060600160405280600381526020016001815260200160018152508152602001604051806060016040528060038152602001600281526020017fffffffffffffffffffffffffffffffffffffffffffffffffffffffffffffffff815250815260200160405180606001604052806005815260200160008152602001600081525081526020016040518060600160405280600581526020016001815260200160018152508152602001604051806060016040528060058152602001600281526020017fffffffffffffffffffffffffffffffffffffffffffffffffffffffffffffffff8152508152602001604051806060016040528060058152602001600381526020017fffffffffffffffffffffffffffffffffffffffffffffffffffffffffffffffff81525081526020016040518060600160405280600581526020016004815260200160018152508152602001604051806060016040528060078152602001600081526020016000815250815260200160405180606001604052806007815260200160018152602001600181525081526020016040518060600160405280600781526020016002815260200160018152508152602001604051806060016040528060078152602001600381526020017fffffffffffffffffffffffffffffffffffffffffffffffffffffffffffffffff81525081526020016040518060600160405280600781526020016004815260200160018152508152602001604051806060016040528060078152602001600581526020017fffffffffffffffffffffffffffffffffffffffffffffffffffffffffffffffff8152508152602001604051806060016040528060078152602001600681526020017fffffffffffffffffffffffffffffffffffffffffffffffffffffffffffffffff81525081526020016040518060600160405280600b815260200160008152602001600081525081526020016040518060600160405280600b815260200160018152602001600181525081526020016040518060600160405280600b8152602001600281526020017fffffffffffffffffffffffffffffffffffffffffffffffffffffffffffffffff81525081526020016040518060600160405280600b815260200160038152602001600181525081526020016040518060600160405280600b815260200160048152602001600181525081526020016040518060600160405280600b815260200160058152602001600181525081526020016040518060600160405280600b8152602001600681526020017fffffffffffffffffffffffffffffffffffffffffffffffffffffffffffffffff81525081526020016040518060600160405280600b8152602001600781526020017fffffffffffffffffffffffffffffffffffffffffffffffffffffffffffffffff81525081526020016040518060600160405280600b8152602001600881526020017fffffffffffffffffffffffffffffffffffffffffffffffffffffffffffffffff81525081526020016040518060600160405280600b815260200160098152602001600181525081526020016040518060600160405280600b8152602001600a81526020017fffffffffffffffffffffffffffffffffffffffffffffffffffffffffffffffff81525081526020016040518060600160405280600d815260200160008152602001600081525081526020016040518060600160405280600d815260200160018152602001600181525081526020016040518060600160405280600d8152602001600281526020017fffffffffffffffffffffffffffffffffffffffffffffffffffffffffffffffff81525081526020016040518060600160405280600d815260200160038152602001600181525081526020016040518060600160405280600d815260200160048152602001600181525081526020016040518060600160405280600d8152602001600581526020017fffffffffffffffffffffffffffffffffffffffffffffffffffffffffffffffff81525081526020016040518060600160405280600d8152602001600681526020017fffffffffffffffffffffffffffffffffffffffffffffffffffffffffffffffff81525081526020016040518060600160405280600d8152602001600781526020017fffffffffffffffffffffffffffffffffffffffffffffffffffffffffffffffff81525081526020016040518060600160405280600d8152602001600881526020017fffffffffffffffffffffffffffffffffffffffffffffffffffffffffffffffff81525081526020016040518060600160405280600d815260200160098152602001600181525081526020016040518060600160405280600d8152602001600a8152602001600181525081526020016040518060600160405280600d8152602001600b81526020017fffffffffffffffffffffffffffffffffffffffffffffffffffffffffffffffff81525081526020016040518060600160405280600d8152602001600c815260200160018152508152602001604051806060016040528060118152602001600081526020016000815250815260200160405180606001604052806011815260200160018152602001600181525081526020016040518060600160405280601181526020016002815260200160018152508152602001604051806060016040528060118152602001600381526020017fffffffffffffffffffffffffffffffffffffffffffffffffffffffffffffffff81525081526020016040518060600160405280601181526020016004815260200160018152508152602001604051806060016040528060118152602001600581526020017fffffffffffffffffffffffffffffffffffffffffffffffffffffffffffffffff8152508152602001604051806060016040528060118152602001600681526020017fffffffffffffffffffffffffffffffffffffffffffffffffffffffffffffffff8152508152602001604051806060016040528060118152602001600781526020017fffffffffffffffffffffffffffffffffffffffffffffffffffffffffffffffff81525081526020016040518060600160405280601181526020016008815260200160018152508152602001604051806060016040528060118152602001600981526020016001815250815250601090603162000a1b92919062000a7a565b5034801562000a2957600080fd5b5062000bd2565b826010810192821562000a67579160200282015b8281111562000a66578251829060ff1690559160200191906001019062000a44565b5b50905062000a76919062000adc565b5090565b82805482825590600052602060002090810192821562000ac9579160200282015b8281111562000ac85782518290600362000ab792919062000b04565b509160200191906001019062000a9b565b5b50905062000ad8919062000b56565b5090565b62000b0191905b8082111562000afd57600081600090555060010162000ae3565b5090565b90565b82805482825590600052602060002090810192821562000b43579160200282015b8281111562000b4257825182559160200191906001019062000b25565b5b50905062000b52919062000b87565b5090565b62000b8491905b8082111562000b80576000818162000b76919062000baf565b5060010162000b5d565b5090565b90565b62000bac91905b8082111562000ba857600081600090555060010162000b8e565b5090565b90565b508054600082559060005260206000209081019062000bcf919062000b87565b50565b6117a18062000be26000396000f3fe608060405234801561001057600080fd5b50600436106100935760003560e01c806361d46ff71161006657806361d46ff7146100c05780636ed3cbc3146100ca578063b51d7812146100d4578063b6544140146100de578063ea47766b146100e857610093565b8063137009af146100985780632f9519a1146100a25780634d9a3265146100ac578063507ed9e7146100b6575b600080fd5b6100a06100f2565b005b6100aa6101ba565b005b6100b46106d5565b005b6100be6107e6565b005b6100c86108cd565b005b6100d26109a9565b005b6100dc610fec565b005b6100e6611152565b005b6100f0611212565b005b6000806000806000809050600092505b60108310156101b3576000836010811061011857fe5b01549450600091505b60148210156101a657828502935061014285856112f990919063ffffffff16565b8114610199576040517f08c379a00000000000000000000000000000000000000000000000000000000081526004018080602001828103825260238152602001806117256023913960400191505060405180910390fd5b8180600101925050610121565b8280600101935050610102565b5050505050565b6000806000806101c8611612565b604051806102e001604052806040518060600160405280600360ff168152602001600260ff168152602001600060ff1681525081526020016040518060600160405280600560ff168152602001600260ff168152602001600060ff1681525081526020016040518060600160405280600560ff168152602001600360ff168152602001600060ff1681525081526020016040518060600160405280600760ff168152602001600360ff168152602001600060ff1681525081526020016040518060600160405280600760ff168152602001600560ff168152602001600060ff1681525081526020016040518060600160405280600760ff168152602001600660ff168152602001600060ff1681525081526020016040518060600160405280600b60ff168152602001600260ff168152602001600060ff1681525081526020016040518060600160405280600b60ff168152602001600660ff168152602001600060ff1681525081526020016040518060600160405280600b60ff168152602001600760ff168152602001600060ff1681525081526020016040518060600160405280600b60ff168152602001600860ff168152602001600060ff1681525081526020016040518060600160405280600d60ff168152602001600260ff168152602001600060ff1681525081526020016040518060600160405280600d60ff168152602001600560ff168152602001600060ff1681525081526020016040518060600160405280600d60ff168152602001600660ff168152602001600060ff1681525081526020016040518060600160405280600d60ff168152602001600760ff168152602001600060ff1681525081526020016040518060600160405280600d60ff168152602001600860ff168152602001600060ff1681525081526020016040518060600160405280600d60ff168152602001600b60ff168152602001600060ff1681525081526020016040518060600160405280601160ff168152602001600360ff168152602001600060ff1681525081526020016040518060600160405280601160ff168152602001600560ff168152602001600060ff1681525081526020016040518060600160405280601160ff168152602001600660ff168152602001600060ff1681525081526020016040518060600160405280601160ff168152602001600760ff168152602001600060ff1681525081526020016040518060600160405280601160ff168152602001600b60ff168152602001600060ff1681525081526020016040518060600160405280601160ff168152602001600c60ff168152602001600060ff1681525081526020016040518060600160405280601160ff168152602001600e60ff168152602001600060ff168152508152509050600094505b60178560ff1610156106ce57808560ff16601781106105e857fe5b60200201516000600381106105f957fe5b602002015160ff169250808560ff166017811061061257fe5b602002015160016003811061062357fe5b602002015160ff16935061064083856112f990919063ffffffff16565b9150808560ff166017811061065157fe5b602002015160026003811061066257fe5b602002015160ff1682146106c1576040517f08c379a00000000000000000000000000000000000000000000000000000000081526004018080602001828103825260238152602001806116916023913960400191505060405180910390fd5b84806001019550506105cd565b5050505050565b600080600091505b6010805490508210156107e25761074e601083815481106106fa57fe5b9060005260206000200160018154811061071057fe5b90600052602060002001546010848154811061072857fe5b9060005260206000200160008154811061073e57fe5b90600052602060002001546114da565b90506010828154811061075d57fe5b9060005260206000200160028154811061077357fe5b906000526020600020015481146107d5576040517f08c379a00000000000000000000000000000000000000000000000000000000081526004018080602001828103825260248152602001806116d96024913960400191505060405180910390fd5b81806001019250506106dd565b5050565b60008060008092505b60108310156108c857600091505b60328210156108bb5761081e826000856010811061081757fe5b01546114da565b9050600081148061082f5750600181145b8061085957507fffffffffffffffffffffffffffffffffffffffffffffffffffffffffffffffff81145b6108ae576040517f08c379a00000000000000000000000000000000000000000000000000000000081526004018080602001828103825260288152602001806116fd6028913960400191505060405180910390fd5b81806001019250506107fd565b82806001019350506107ef565b505050565b600080600080600091505b60108210156109a357600082601081106108ee57fe5b01549350600190505b838110156109965761091284826112f990919063ffffffff16565b92506000831461098957838384028161092757fe5b0684828161093157fe5b0614610988576040517f08c379a00000000000000000000000000000000000000000000000000000000081526004018080602001828103825260258152602001806117486025913960400191505060405180910390fd5b5b80806001019150506108f7565b81806001019250506108d8565b50505050565b6000806000806109b7611640565b604051806103c001604052806040518060600160405280600360ff168152602001600160ff168152602001600160ff1681525081526020016040518060600160405280600560ff168152602001600160ff168152602001600160ff1681525081526020016040518060600160405280600560ff168152602001600460ff168152602001600360ff1681525081526020016040518060600160405280600760ff168152602001600160ff168152602001600160ff1681525081526020016040518060600160405280600760ff168152602001600260ff168152602001600460ff1681525081526020016040518060600160405280600760ff168152602001600460ff168152602001600260ff1681525081526020016040518060600160405280600b60ff168152602001600160ff168152602001600160ff1681525081526020016040518060600160405280600b60ff168152602001600360ff168152602001600560ff1681525081526020016040518060600160405280600b60ff168152602001600460ff168152602001600960ff1681525081526020016040518060600160405280600b60ff168152602001600560ff168152602001600460ff1681525081526020016040518060600160405280600b60ff168152602001600960ff168152602001600360ff1681525081526020016040518060600160405280600d60ff168152602001600160ff168152602001600160ff1681525081526020016040518060600160405280600d60ff168152602001600360ff168152602001600960ff1681525081526020016040518060600160405280600d60ff168152602001600460ff168152602001600b60ff1681525081526020016040518060600160405280600d60ff168152602001600960ff168152602001600360ff1681525081526020016040518060600160405280600d60ff168152602001600a60ff168152602001600760ff1681525081526020016040518060600160405280600d60ff168152602001600c60ff168152602001600860ff1681525081526020016040518060600160405280601160ff168152602001600160ff168152602001600160ff1681525081526020016040518060600160405280601160ff168152602001600260ff168152602001600660ff1681525081526020016040518060600160405280601160ff168152602001600460ff168152602001600260ff1681525081526020016040518060600160405280601160ff168152602001600860ff168152602001600c60ff1681525081526020016040518060600160405280601160ff168152602001600960ff168152602001600e60ff1681525081526020016040518060600160405280601160ff168152602001600d60ff168152602001600860ff1681525081526020016040518060600160405280601160ff168152602001600f60ff168152602001600760ff1681525081526020016040518060600160405280601160ff168152602001601060ff168152602001600460ff1681525081526020016040518060600160405280601360ff168152602001600160ff168152602001600160ff1681525081526020016040518060600160405280601360ff168152602001600460ff168152602001601160ff1681525081526020016040518060600160405280601360ff168152602001600560ff168152602001600960ff1681525081526020016040518060600160405280601360ff168152602001600660ff168152602001600560ff1681525081526020016040518060600160405280601360ff168152602001600760ff168152602001600b60ff168152508152509050600094505b601e851015610fe5578085601e8110610f0557fe5b6020020151600060038110610f1657fe5b602002015160ff1692508085601e8110610f2c57fe5b6020020151600160038110610f3d57fe5b602002015160ff169350610f5a83856112f990919063ffffffff16565b91508085601e8110610f6857fe5b6020020151600260038110610f7957fe5b602002015160ff168214610fd8576040517f08c379a00000000000000000000000000000000000000000000000000000000081526004018080602001828103825260238152602001806116916023913960400191505060405180910390fd5b8480600101955050610ef0565b5050505050565b600060159050600161100b60026005846115c49092919063ffffffff16565b14611059576040517f08c379a0000000000000000000000000000000000000000000000000000000008152600401808060200182810382526000815260200160200191505060405180910390fd5b60007fffffffffffffffffffffffffffffffffffffffffffffffffffffffffffffffff905060006110b660027f30644e72e131a029b85045b68181585d97816a916871ca8d3c208c16d87cfd47846115c49092919063ffffffff16565b90507f1b27fe6177da16ea331e1dd69ad04bfc3876ad515128b60d88930156a0e9dc97811461114d576040517f08c379a000000000000000000000000000000000000000000000000000000000815260040180806020018281038252601c8152602001807f6d6f6445787028292073686f756c64206e6f74206f766572666c6f770000000081525060200191505060405180910390fd5b505050565b6000806000809050600091505b601082101561120d576000826010811061117557fe5b0154925061118c83826112f990919063ffffffff16565b8114611200576040517f08c379a000000000000000000000000000000000000000000000000000000000815260040180806020018281038252601d8152602001807f30206d6f6420702073686f756c6420616c7761797320657175616c203000000081525060200191505060405180910390fd5b818060010192505061115f565b505050565b600080600080600091505b60108260ff1610156112f35760008260ff166010811061123957fe5b015493506001840190505b600a84018110156112e65761126284826112f990919063ffffffff16565b9250600083146112d957838384028161127757fe5b0684828161128157fe5b06146112d8576040517f08c379a00000000000000000000000000000000000000000000000000000000081526004018080602001828103825260258152602001806116b46025913960400191505060405180910390fd5b5b8080600101915050611244565b818060010192505061121d565b50505050565b6000600161130784846114da565b1461131557600090506114d4565b600083141561132757600090506114d4565b60036004838161133357fe5b06141561135957611352836004600185018161134b57fe5b04846115c4565b90506114d4565b600060018303905060008090505b60006002838161137357fe5b061415611392576002828161138457fe5b049150600181019050611367565b6000600290505b7fffffffffffffffffffffffffffffffffffffffffffffffffffffffffffffffff6113c482876114da565b146113d457600181019050611399565b60006113ee87600260018701816113e757fe5b04886115c4565b905060006113fd8886896115c4565b9050600061140c84878a6115c4565b905060008590506000809050600080905060008590505b6001156114c95785905060009150600091505b8382101561146757600181141561144c57611467565b6114588160028e6115c4565b90508180600101925050611436565b600082141561148257869a50505050505050505050506114d4565b6114958560018487030360020a8e6115c4565b92508b838402816114a257fe5b0694508b838802816114b057fe5b0696508b858702816114be57fe5b069550819350611423565b505050505050505050505b92915050565b6000806114f584600260018603816114ee57fe5b04856115c4565b905060008114806115065750600181145b1561151457809150506115be565b60018303811415611548577fffffffffffffffffffffffffffffffffffffffffffffffffffffffffffffffff9150506115be565b60006115bc576040517f08c379a000000000000000000000000000000000000000000000000000000000815260040180806020018281038252601d8152602001807f4661696c656420746f2063616c63756c617465206c6567656e6472652e00000081525060200191505060405180910390fd5b505b92915050565b60006040516020810160208152602080820152602060408201528560608201528460808201528360a082015260208260c0836005600019fa61160557600080fd5b8151925050509392505050565b604051806102e001604052806017905b61162a61166e565b8152602001906001900390816116225790505090565b604051806103c00160405280601e905b61165861166e565b8152602001906001900390816116505790505090565b604051806060016040528060039060208202803883398082019150509050509056fe6d6f6453717274282920726573756c742064696666657265642066726f6d206c697374496e76616c6964206d6f64756c61722073717561726520726f6f7420666f722061203e20706c6567656e647265282920726573756c742064696666657265642066726f6d206c6973746c6567656e64726528292073686f756c64206f6e6c792072657475726e205b2d312c20302c20315d286e202a207029206d6f6420702073686f756c6420616c7761797320657175616c2030496e76616c6964206d6f64756c61722073717561726520726f6f7420666f722061203c2070a265627a7a723158205c9160fc9cb8dbf21cd2d8ac867fb72525f486ffd183ca52920ccb4227ab90f064736f6c63430005110032",
  "source": "pragma solidity 0.5.17;\n\nimport \"../utils/ModUtils.sol\";\n\ncontract TestModUtils {\n    using ModUtils for uint256;\n\n    uint256[16] smallOddPrimes = [\n        3,\n        5,\n        7,\n        11,\n        13,\n        17,\n        19,\n        23,\n        29,\n        31,\n        37,\n        41,\n        43,\n        47,\n        53,\n        59\n    ];\n\n    function runModExponentTest() public {\n        uint256 a = 21;\n        // a simple test\n        require(a.modExp(2, 5) == 1, \"\");\n        // test for overflow - (2 ^ 256 - 1) ^ 2 % alt_bn128_P\n        uint256 almostOverflow = (2**256 - 1);\n        uint256 result =\n            almostOverflow.modExp(\n                2,\n                21888242871839275222246405745257275088696311157297823662689037894645226208583\n            );\n        require(\n            result ==\n                12283109618583340521412061117291584720854994367414008739435419022702680857751,\n            \"modExp() should not overflow\"\n        );\n    }\n\n    int256[][] smallOddPrimesLegendre = [\n        [int256(3), int256(0), int256(0)],\n        [int256(3), int256(1), int256(1)],\n        [int256(3), int256(2), int256(-1)],\n        [int256(5), int256(0), int256(0)],\n        [int256(5), int256(1), int256(1)],\n        [int256(5), int256(2), int256(-1)],\n        [int256(5), int256(3), int256(-1)],\n        [int256(5), int256(4), int256(1)],\n        [int256(7), int256(0), int256(0)],\n        [int256(7), int256(1), int256(1)],\n        [int256(7), int256(2), int256(1)],\n        [int256(7), int256(3), int256(-1)],\n        [int256(7), int256(4), int256(1)],\n        [int256(7), int256(5), int256(-1)],\n        [int256(7), int256(6), int256(-1)],\n        [int256(11), int256(0), int256(0)],\n        [int256(11), int256(1), int256(1)],\n        [int256(11), int256(2), int256(-1)],\n        [int256(11), int256(3), int256(1)],\n        [int256(11), int256(4), int256(1)],\n        [int256(11), int256(5), int256(1)],\n        [int256(11), int256(6), int256(-1)],\n        [int256(11), int256(7), int256(-1)],\n        [int256(11), int256(8), int256(-1)],\n        [int256(11), int256(9), int256(1)],\n        [int256(11), int256(10), int256(-1)],\n        [int256(13), int256(0), int256(0)],\n        [int256(13), int256(1), int256(1)],\n        [int256(13), int256(2), int256(-1)],\n        [int256(13), int256(3), int256(1)],\n        [int256(13), int256(4), int256(1)],\n        [int256(13), int256(5), int256(-1)],\n        [int256(13), int256(6), int256(-1)],\n        [int256(13), int256(7), int256(-1)],\n        [int256(13), int256(8), int256(-1)],\n        [int256(13), int256(9), int256(1)],\n        [int256(13), int256(10), int256(1)],\n        [int256(13), int256(11), int256(-1)],\n        [int256(13), int256(12), int256(1)],\n        [int256(17), int256(0), int256(0)],\n        [int256(17), int256(1), int256(1)],\n        [int256(17), int256(2), int256(1)],\n        [int256(17), int256(3), int256(-1)],\n        [int256(17), int256(4), int256(1)],\n        [int256(17), int256(5), int256(-1)],\n        [int256(17), int256(6), int256(-1)],\n        [int256(17), int256(7), int256(-1)],\n        [int256(17), int256(8), int256(1)],\n        [int256(17), int256(9), int256(1)]\n    ];\n\n    function runLegendreRangeTest() public {\n        uint256 i;\n        uint256 j;\n        int256 leg;\n        for (i = 0; i < smallOddPrimes.length; i++) {\n            for (j = 0; j < 50; j++) {\n                leg = ModUtils.legendre(j, smallOddPrimes[i]);\n                require(\n                    leg == 0 || leg == 1 || leg == -1,\n                    \"legendre() should only return [-1, 0, 1]\"\n                );\n            }\n        }\n    }\n\n    function runLegendreListTest() public {\n        uint256 i;\n        int256 leg;\n\n        for (i = 0; i < smallOddPrimesLegendre.length; i++) {\n            leg = ModUtils.legendre(\n                uint256(smallOddPrimesLegendre[i][1]),\n                uint256(smallOddPrimesLegendre[i][0])\n            );\n            require(\n                leg == smallOddPrimesLegendre[i][2],\n                \"legendre() result differed from list\"\n            );\n        }\n    }\n\n    function runModSqrtOf0Test() public {\n        uint256 p;\n        uint256 i;\n        uint256 zero = 0;\n\n        // a = 0 mod p\n        for (i = 0; i < smallOddPrimes.length; i++) {\n            p = smallOddPrimes[i];\n            require(zero == zero.modSqrt(p), \"0 mod p should always equal 0\");\n        }\n    }\n\n    function runModSqrtMultipleOfPTest() public {\n        uint256 p;\n        uint256 pMult;\n        uint256 i;\n        uint256 j;\n        uint256 zero = 0;\n\n        // a = 0 mod p\n        for (i = 0; i < smallOddPrimes.length; i++) {\n            p = smallOddPrimes[i];\n            for (j = 0; j < 20; j++) {\n                pMult = p * i;\n                require(\n                    zero == pMult.modSqrt(p),\n                    \"(n * p) mod p should always equal 0\"\n                );\n            }\n        }\n    }\n\n    function runModSqrtAgainstListTest() public {\n        uint256 i;\n        uint256 a;\n        uint256 p;\n        uint256 root;\n\n        uint8[3][30] memory smallOddPrimesResults =\n            [\n                [3, 1, 1],\n                [5, 1, 1],\n                [5, 4, 3],\n                [7, 1, 1],\n                [7, 2, 4],\n                [7, 4, 2],\n                [11, 1, 1],\n                [11, 3, 5],\n                [11, 4, 9],\n                [11, 5, 4],\n                [11, 9, 3],\n                [13, 1, 1],\n                [13, 3, 9],\n                [13, 4, 11],\n                [13, 9, 3],\n                [13, 10, 7],\n                [13, 12, 8],\n                [17, 1, 1],\n                [17, 2, 6],\n                [17, 4, 2],\n                [17, 8, 12],\n                [17, 9, 14],\n                [17, 13, 8],\n                [17, 15, 7],\n                [17, 16, 4],\n                [19, 1, 1],\n                [19, 4, 17],\n                [19, 5, 9],\n                [19, 6, 5],\n                [19, 7, 11]\n            ];\n\n        for (i = 0; i < smallOddPrimesResults.length; i++) {\n            p = smallOddPrimesResults[i][0];\n            a = smallOddPrimesResults[i][1];\n            root = a.modSqrt(p);\n\n            require(\n                root == smallOddPrimesResults[i][2],\n                \"modSqrt() result differed from list\"\n            );\n        }\n    }\n\n    function runModSqrtAgainstNonSquaresTest() public {\n        uint8 i;\n        uint256 a;\n        uint256 p;\n        uint256 root;\n\n        uint8[3][23] memory smallOddPrimesResults =\n            [\n                [3, 2, 0],\n                [5, 2, 0],\n                [5, 3, 0],\n                [7, 3, 0],\n                [7, 5, 0],\n                [7, 6, 0],\n                [11, 2, 0],\n                [11, 6, 0],\n                [11, 7, 0],\n                [11, 8, 0],\n                [13, 2, 0],\n                [13, 5, 0],\n                [13, 6, 0],\n                [13, 7, 0],\n                [13, 8, 0],\n                [13, 11, 0],\n                [17, 3, 0],\n                [17, 5, 0],\n                [17, 6, 0],\n                [17, 7, 0],\n                [17, 11, 0],\n                [17, 12, 0],\n                [17, 14, 0]\n            ];\n\n        for (i = 0; i < smallOddPrimesResults.length; i++) {\n            p = smallOddPrimesResults[i][0];\n            a = smallOddPrimesResults[i][1];\n            root = a.modSqrt(p);\n\n            require(\n                root == smallOddPrimesResults[i][2],\n                \"modSqrt() result differed from list\"\n            );\n        }\n    }\n\n    function runModSqrtALessThanPTest() public {\n        uint256 p;\n        uint256 root;\n        uint256 i;\n        uint256 a;\n\n        // a < p for small p\n        for (i = 0; i < smallOddPrimes.length; i++) {\n            p = smallOddPrimes[i];\n            for (a = 1; a < p; a++) {\n                root = a.modSqrt(p);\n                if (root != 0) {\n                    require(\n                        a % p == (root * root) % p,\n                        \"Invalid modular square root for a < p\"\n                    );\n                }\n            }\n        }\n    }\n\n    function runModSqrtAGreaterThanPTest() public {\n        uint256 p;\n        uint256 root;\n        uint8 i;\n        uint256 a;\n\n        // a > p for small p\n        for (i = 0; i < smallOddPrimes.length; i++) {\n            p = smallOddPrimes[i];\n            for (a = p + 1; a < p + 10; a++) {\n                root = a.modSqrt(p);\n                if (root != 0) {\n                    require(\n                        a % p == (root * root) % p,\n                        \"Invalid modular square root for a > p\"\n                    );\n                }\n            }\n        }\n    }\n}\n",
  "sourcePath": "/home/runner/work/keep-core/keep-core/solidity-v1/contracts/stubs/TestModUtils.sol",
  "compiler": {
    "name": "solc",
    "version": "0.5.17+commit.d19bba13.Emscripten.clang"
  },
  "schemaVersion": "3.3.4",
  "updatedAt": "2021-11-26T17:03:20.418Z",
  "devdoc": {
    "methods": {}
  },
  "userdoc": {
    "methods": {}
  }
}