{
  "contractName": "TokenStakingStub",
  "abi": [
    {
      "inputs": [
        {
          "internalType": "contract ERC20Burnable",
          "name": "_token",
          "type": "address"
        },
        {
          "internalType": "contract TokenGrant",
          "name": "_tokenGrant",
          "type": "address"
        },
        {
          "internalType": "contract TokenStakingEscrow",
          "name": "_escrow",
          "type": "address"
        },
        {
          "internalType": "contract KeepRegistry",
          "name": "_registry",
          "type": "address"
        },
        {
          "internalType": "uint256",
          "name": "_initializationPeriod",
          "type": "uint256"
        }
      ],
      "payable": false,
      "stateMutability": "nonpayable",
      "type": "constructor"
    },
    {
      "anonymous": false,
      "inputs": [
        {
          "indexed": true,
          "internalType": "address",
          "name": "operator",
          "type": "address"
        },
        {
          "indexed": false,
          "internalType": "address",
          "name": "lockCreator",
          "type": "address"
        }
      ],
      "name": "ExpiredLockReleased",
      "type": "event"
    },
    {
      "anonymous": false,
      "inputs": [
        {
          "indexed": true,
          "internalType": "address",
          "name": "operator",
          "type": "address"
        },
        {
          "indexed": false,
          "internalType": "address",
          "name": "lockCreator",
          "type": "address"
        }
      ],
      "name": "LockReleased",
      "type": "event"
    },
    {
      "anonymous": false,
      "inputs": [
        {
          "indexed": true,
          "internalType": "address",
          "name": "operator",
          "type": "address"
        },
        {
          "indexed": true,
          "internalType": "address",
          "name": "beneficiary",
          "type": "address"
        },
        {
          "indexed": true,
          "internalType": "address",
          "name": "authorizer",
          "type": "address"
        },
        {
          "indexed": false,
          "internalType": "uint256",
          "name": "value",
          "type": "uint256"
        }
      ],
      "name": "OperatorStaked",
      "type": "event"
    },
    {
      "anonymous": false,
      "inputs": [
        {
          "indexed": false,
          "internalType": "address",
          "name": "operator",
          "type": "address"
        }
      ],
      "name": "RecoveredStake",
      "type": "event"
    },
    {
      "anonymous": false,
      "inputs": [
        {
          "indexed": true,
          "internalType": "address",
          "name": "owner",
          "type": "address"
        },
        {
          "indexed": true,
          "internalType": "address",
          "name": "operator",
          "type": "address"
        }
      ],
      "name": "StakeDelegated",
      "type": "event"
    },
    {
      "anonymous": false,
      "inputs": [
        {
          "indexed": true,
          "internalType": "address",
          "name": "operator",
          "type": "address"
        },
        {
          "indexed": false,
          "internalType": "address",
          "name": "lockCreator",
          "type": "address"
        },
        {
          "indexed": false,
          "internalType": "uint256",
          "name": "until",
          "type": "uint256"
        }
      ],
      "name": "StakeLocked",
      "type": "event"
    },
    {
      "anonymous": false,
      "inputs": [
        {
          "indexed": true,
          "internalType": "address",
          "name": "operator",
          "type": "address"
        },
        {
          "indexed": true,
          "internalType": "address",
          "name": "newOwner",
          "type": "address"
        }
      ],
      "name": "StakeOwnershipTransferred",
      "type": "event"
    },
    {
      "anonymous": false,
      "inputs": [
        {
          "indexed": true,
          "internalType": "address",
          "name": "operator",
          "type": "address"
        },
        {
          "indexed": false,
          "internalType": "uint256",
          "name": "amount",
          "type": "uint256"
        }
      ],
      "name": "TokensSeized",
      "type": "event"
    },
    {
      "anonymous": false,
      "inputs": [
        {
          "indexed": true,
          "internalType": "address",
          "name": "operator",
          "type": "address"
        },
        {
          "indexed": false,
          "internalType": "uint256",
          "name": "amount",
          "type": "uint256"
        }
      ],
      "name": "TokensSlashed",
      "type": "event"
    },
    {
      "anonymous": false,
      "inputs": [
        {
          "indexed": true,
          "internalType": "address",
          "name": "operator",
          "type": "address"
        },
        {
          "indexed": false,
          "internalType": "uint256",
          "name": "newAmount",
          "type": "uint256"
        }
      ],
      "name": "TopUpCompleted",
      "type": "event"
    },
    {
      "anonymous": false,
      "inputs": [
        {
          "indexed": true,
          "internalType": "address",
          "name": "operator",
          "type": "address"
        },
        {
          "indexed": false,
          "internalType": "uint256",
          "name": "topUp",
          "type": "uint256"
        }
      ],
      "name": "TopUpInitiated",
      "type": "event"
    },
    {
      "anonymous": false,
      "inputs": [
        {
          "indexed": true,
          "internalType": "address",
          "name": "operator",
          "type": "address"
        },
        {
          "indexed": false,
          "internalType": "uint256",
          "name": "undelegatedAt",
          "type": "uint256"
        }
      ],
      "name": "Undelegated",
      "type": "event"
    },
    {
      "constant": true,
      "inputs": [
        {
          "internalType": "address",
          "name": "_operator",
          "type": "address"
        },
        {
          "internalType": "address",
          "name": "_operatorContract",
          "type": "address"
        }
      ],
      "name": "activeStake",
      "outputs": [
        {
          "internalType": "uint256",
          "name": "balance",
          "type": "uint256"
        }
      ],
      "payable": false,
      "stateMutability": "view",
      "type": "function"
    },
    {
      "constant": false,
      "inputs": [
        {
          "internalType": "address",
          "name": "_operator",
          "type": "address"
        },
        {
          "internalType": "address",
          "name": "_operatorContract",
          "type": "address"
        }
      ],
      "name": "authorizeOperatorContract",
      "outputs": [],
      "payable": false,
      "stateMutability": "nonpayable",
      "type": "function"
    },
    {
      "constant": true,
      "inputs": [
        {
          "internalType": "address",
          "name": "_operator",
          "type": "address"
        }
      ],
      "name": "authorizerOf",
      "outputs": [
        {
          "internalType": "address",
          "name": "",
          "type": "address"
        }
      ],
      "payable": false,
      "stateMutability": "view",
      "type": "function"
    },
    {
      "constant": true,
      "inputs": [
        {
          "internalType": "address",
          "name": "_address",
          "type": "address"
        }
      ],
      "name": "balanceOf",
      "outputs": [
        {
          "internalType": "uint256",
          "name": "balance",
          "type": "uint256"
        }
      ],
      "payable": false,
      "stateMutability": "view",
      "type": "function"
    },
    {
      "constant": true,
      "inputs": [
        {
          "internalType": "address",
          "name": "_operator",
          "type": "address"
        }
      ],
      "name": "beneficiaryOf",
      "outputs": [
        {
          "internalType": "address payable",
          "name": "",
          "type": "address"
        }
      ],
      "payable": false,
      "stateMutability": "view",
      "type": "function"
    },
    {
      "constant": false,
      "inputs": [
        {
          "internalType": "address",
          "name": "_operator",
          "type": "address"
        }
      ],
      "name": "cancelStake",
      "outputs": [],
      "payable": false,
      "stateMutability": "nonpayable",
      "type": "function"
    },
    {
      "constant": false,
      "inputs": [
        {
          "internalType": "address",
          "name": "delegatedAuthoritySource",
          "type": "address"
        }
      ],
      "name": "claimDelegatedAuthority",
      "outputs": [],
      "payable": false,
      "stateMutability": "nonpayable",
      "type": "function"
    },
    {
      "constant": false,
      "inputs": [
        {
          "internalType": "address",
          "name": "_operator",
          "type": "address"
        }
      ],
      "name": "commitTopUp",
      "outputs": [],
      "payable": false,
      "stateMutability": "nonpayable",
      "type": "function"
    },
    {
      "constant": true,
      "inputs": [],
      "name": "deployedAt",
      "outputs": [
        {
          "internalType": "uint256",
          "name": "",
          "type": "uint256"
        }
      ],
      "payable": false,
      "stateMutability": "view",
      "type": "function"
    },
    {
      "constant": true,
      "inputs": [
        {
          "internalType": "address",
          "name": "_operator",
          "type": "address"
        },
        {
          "internalType": "address",
          "name": "_operatorContract",
          "type": "address"
        }
      ],
      "name": "eligibleStake",
      "outputs": [
        {
          "internalType": "uint256",
          "name": "balance",
          "type": "uint256"
        }
      ],
      "payable": false,
      "stateMutability": "view",
      "type": "function"
    },
    {
      "constant": true,
      "inputs": [
        {
          "internalType": "address",
          "name": "operatorContract",
          "type": "address"
        }
      ],
      "name": "getAuthoritySource",
      "outputs": [
        {
          "internalType": "address",
          "name": "",
          "type": "address"
        }
      ],
      "payable": false,
      "stateMutability": "view",
      "type": "function"
    },
    {
      "constant": true,
      "inputs": [
        {
          "internalType": "address",
          "name": "_operator",
          "type": "address"
        }
      ],
      "name": "getDelegationInfo",
      "outputs": [
        {
          "internalType": "uint256",
          "name": "amount",
          "type": "uint256"
        },
        {
          "internalType": "uint256",
          "name": "createdAt",
          "type": "uint256"
        },
        {
          "internalType": "uint256",
          "name": "undelegatedAt",
          "type": "uint256"
        }
      ],
      "payable": false,
      "stateMutability": "view",
      "type": "function"
    },
    {
      "constant": true,
      "inputs": [
        {
          "internalType": "address",
          "name": "operator",
          "type": "address"
        }
      ],
      "name": "getLocks",
      "outputs": [
        {
          "internalType": "address[]",
          "name": "creators",
          "type": "address[]"
        },
        {
          "internalType": "uint256[]",
          "name": "expirations",
          "type": "uint256[]"
        }
      ],
      "payable": false,
      "stateMutability": "view",
      "type": "function"
    },
    {
      "constant": true,
      "inputs": [
        {
          "internalType": "address",
          "name": "staker",
          "type": "address"
        },
        {
          "internalType": "address",
          "name": "operatorContract",
          "type": "address"
        }
      ],
      "name": "hasMinimumStake",
      "outputs": [
        {
          "internalType": "bool",
          "name": "",
          "type": "bool"
        }
      ],
      "payable": false,
      "stateMutability": "view",
      "type": "function"
    },
    {
      "constant": true,
      "inputs": [],
      "name": "initializationPeriod",
      "outputs": [
        {
          "internalType": "uint256",
          "name": "",
          "type": "uint256"
        }
      ],
      "payable": false,
      "stateMutability": "view",
      "type": "function"
    },
    {
      "constant": true,
      "inputs": [
        {
          "internalType": "address",
          "name": "_operatorContract",
          "type": "address"
        }
      ],
      "name": "isApprovedOperatorContract",
      "outputs": [
        {
          "internalType": "bool",
          "name": "",
          "type": "bool"
        }
      ],
      "payable": false,
      "stateMutability": "view",
      "type": "function"
    },
    {
      "constant": true,
      "inputs": [
        {
          "internalType": "address",
          "name": "_operator",
          "type": "address"
        },
        {
          "internalType": "address",
          "name": "_operatorContract",
          "type": "address"
        }
      ],
      "name": "isAuthorizedForOperator",
      "outputs": [
        {
          "internalType": "bool",
          "name": "",
          "type": "bool"
        }
      ],
      "payable": false,
      "stateMutability": "view",
      "type": "function"
    },
    {
      "constant": true,
      "inputs": [
        {
          "internalType": "address",
          "name": "operator",
          "type": "address"
        }
      ],
      "name": "isStakeLocked",
      "outputs": [
        {
          "internalType": "bool",
          "name": "",
          "type": "bool"
        }
      ],
      "payable": false,
      "stateMutability": "view",
      "type": "function"
    },
    {
      "constant": false,
      "inputs": [
        {
          "internalType": "address",
          "name": "operator",
          "type": "address"
        },
        {
          "internalType": "uint256",
          "name": "duration",
          "type": "uint256"
        }
      ],
      "name": "lockStake",
      "outputs": [],
      "payable": false,
      "stateMutability": "nonpayable",
      "type": "function"
    },
    {
      "constant": true,
      "inputs": [
        {
          "internalType": "address",
          "name": "_operator",
          "type": "address"
        }
      ],
      "name": "ownerOf",
      "outputs": [
        {
          "internalType": "address",
          "name": "",
          "type": "address"
        }
      ],
      "payable": false,
      "stateMutability": "view",
      "type": "function"
    },
    {
      "constant": false,
      "inputs": [
        {
          "internalType": "address",
          "name": "_from",
          "type": "address"
        },
        {
          "internalType": "uint256",
          "name": "_value",
          "type": "uint256"
        },
        {
          "internalType": "address",
          "name": "_token",
          "type": "address"
        },
        {
          "internalType": "bytes",
          "name": "_extraData",
          "type": "bytes"
        }
      ],
      "name": "receiveApproval",
      "outputs": [],
      "payable": false,
      "stateMutability": "nonpayable",
      "type": "function"
    },
    {
      "constant": false,
      "inputs": [
        {
          "internalType": "address",
          "name": "_operator",
          "type": "address"
        }
      ],
      "name": "recoverStake",
      "outputs": [],
      "payable": false,
      "stateMutability": "nonpayable",
      "type": "function"
    },
    {
      "constant": false,
      "inputs": [
        {
          "internalType": "address",
          "name": "operator",
          "type": "address"
        },
        {
          "internalType": "address",
          "name": "operatorContract",
          "type": "address"
        }
      ],
      "name": "releaseExpiredLock",
      "outputs": [],
      "payable": false,
      "stateMutability": "nonpayable",
      "type": "function"
    },
    {
      "constant": false,
      "inputs": [
        {
          "internalType": "uint256",
          "name": "amountToSeize",
          "type": "uint256"
        },
        {
          "internalType": "uint256",
          "name": "rewardMultiplier",
          "type": "uint256"
        },
        {
          "internalType": "address",
          "name": "tattletale",
          "type": "address"
        },
        {
          "internalType": "address[]",
          "name": "misbehavedOperators",
          "type": "address[]"
        }
      ],
      "name": "seize",
      "outputs": [],
      "payable": false,
      "stateMutability": "nonpayable",
      "type": "function"
    },
    {
      "constant": false,
      "inputs": [
        {
          "internalType": "uint256",
          "name": "amountToSlash",
          "type": "uint256"
        },
        {
          "internalType": "address[]",
          "name": "misbehavedOperators",
          "type": "address[]"
        }
      ],
      "name": "slash",
      "outputs": [],
      "payable": false,
      "stateMutability": "nonpayable",
      "type": "function"
    },
    {
      "constant": false,
      "inputs": [
        {
          "internalType": "address",
          "name": "operator",
          "type": "address"
        },
        {
          "internalType": "address",
          "name": "newOwner",
          "type": "address"
        }
      ],
      "name": "transferStakeOwnership",
      "outputs": [],
      "payable": false,
      "stateMutability": "nonpayable",
      "type": "function"
    },
    {
      "constant": false,
      "inputs": [
        {
          "internalType": "address",
          "name": "_operator",
          "type": "address"
        }
      ],
      "name": "undelegate",
      "outputs": [],
      "payable": false,
      "stateMutability": "nonpayable",
      "type": "function"
    },
    {
      "constant": false,
      "inputs": [
        {
          "internalType": "address",
          "name": "_operator",
          "type": "address"
        },
        {
          "internalType": "uint256",
          "name": "_undelegationTimestamp",
          "type": "uint256"
        }
      ],
      "name": "undelegateAt",
      "outputs": [],
      "payable": false,
      "stateMutability": "nonpayable",
      "type": "function"
    },
    {
      "constant": true,
      "inputs": [],
      "name": "undelegationPeriod",
      "outputs": [
        {
          "internalType": "uint256",
          "name": "",
          "type": "uint256"
        }
      ],
      "payable": false,
      "stateMutability": "view",
      "type": "function"
    },
    {
      "constant": false,
      "inputs": [
        {
          "internalType": "address",
          "name": "operator",
          "type": "address"
        }
      ],
      "name": "unlockStake",
      "outputs": [],
      "payable": false,
      "stateMutability": "nonpayable",
      "type": "function"
    },
    {
      "constant": true,
      "inputs": [],
      "name": "minimumStake",
      "outputs": [
        {
          "internalType": "uint256",
          "name": "",
          "type": "uint256"
        }
      ],
      "payable": false,
      "stateMutability": "view",
      "type": "function"
    }
  ],
  "bytecode": "0x60806040523480156200001157600080fd5b5060405162005ec938038062005ec9833981810160405260a08110156200003757600080fd5b81019080805190602001909291908051906020019092919080519060200190929190805190602001909291908051906020019092919050505084848484848180600260006101000a81548173ffffffffffffffffffffffffffffffffffffffff021916908373ffffffffffffffffffffffffffffffffffffffff1602179055505084600660006101000a81548173ffffffffffffffffffffffffffffffffffffffff021916908373ffffffffffffffffffffffffffffffffffffffff16021790555083600760006101000a81548173ffffffffffffffffffffffffffffffffffffffff021916908373ffffffffffffffffffffffffffffffffffffffff16021790555082600860006101000a81548173ffffffffffffffffffffffffffffffffffffffff021916908373ffffffffffffffffffffffffffffffffffffffff16021790555081600260006101000a81548173ffffffffffffffffffffffffffffffffffffffff021916908373ffffffffffffffffffffffffffffffffffffffff160217905550806005819055504260048190555050505050505050505050615ce580620001e46000396000f3fe608060405234801561001057600080fd5b50600436106101e55760003560e01c80639557e0bb1161010f578063e064172e116100a2578063f165478311610071578063f165478314610d58578063fab46d6614610dbc578063fb1677b114610e22578063fdd1f98614610ea6576101e5565b8063e064172e14610c5c578063eae4c19f14610ca0578063ec5ffac214610cbe578063ef1f966114610cdc576101e5565b8063ba7bffd3116100de578063ba7bffd314610aac578063cbe945dc14610b30578063d98f233d14610bb4578063da8be86414610c18576101e5565b80639557e0bb1461095a578063a590ae36146109d2578063aed1ec7214610a16578063afff33ef14610a34576101e5565b80635139a6c511610187578063719f308911610156578063719f30891461065657806384d57689146107375780638e49aa7a146107935780638f4ffcb114610855576101e5565b80635139a6c514610528578063525835f9146105765780635fce5b17146105ba57806370a08231146105fe576101e5565b806320018d27116101c357806320018d27146103d657806321e1625e1461043a578063335e91a1146104885780634a1ce599146104e4576101e5565b806309055e90146101ea57806310a63ec0146102d657806314afd79e14610352575b600080fd5b6102d46004803603608081101561020057600080fd5b810190808035906020019092919080359060200190929190803573ffffffffffffffffffffffffffffffffffffffff1690602001909291908035906020019064010000000081111561025157600080fd5b82018360208201111561026357600080fd5b8035906020019184602083028401116401000000008311171561028557600080fd5b919080806020026020016040519081016040528093929190818152602001838360200280828437600081840152601f19601f820116905080830192505050505050509192919290505050610ec4565b005b610338600480360360408110156102ec57600080fd5b81019080803573ffffffffffffffffffffffffffffffffffffffff169060200190929190803573ffffffffffffffffffffffffffffffffffffffff169060200190929190505050611487565b604051808215151515815260200191505060405180910390f35b6103946004803603602081101561036857600080fd5b81019080803573ffffffffffffffffffffffffffffffffffffffff1690602001909291905050506114a5565b604051808273ffffffffffffffffffffffffffffffffffffffff1673ffffffffffffffffffffffffffffffffffffffff16815260200191505060405180910390f35b610438600480360360408110156103ec57600080fd5b81019080803573ffffffffffffffffffffffffffffffffffffffff169060200190929190803573ffffffffffffffffffffffffffffffffffffffff169060200190929190505050611511565b005b6104866004803603604081101561045057600080fd5b81019080803573ffffffffffffffffffffffffffffffffffffffff169060200190929190803590602001909291905050506116f3565b005b6104ca6004803603602081101561049e57600080fd5b81019080803573ffffffffffffffffffffffffffffffffffffffff1690602001909291905050506119d5565b604051808215151515815260200191505060405180910390f35b610526600480360360208110156104fa57600080fd5b81019080803573ffffffffffffffffffffffffffffffffffffffff169060200190929190505050611ad3565b005b6105746004803603604081101561053e57600080fd5b81019080803573ffffffffffffffffffffffffffffffffffffffff16906020019092919080359060200190929190505050611bf0565b005b6105b86004803603602081101561058c57600080fd5b81019080803573ffffffffffffffffffffffffffffffffffffffff16906020019092919050505061209c565b005b6105fc600480360360208110156105d057600080fd5b81019080803573ffffffffffffffffffffffffffffffffffffffff16906020019092919050505061246a565b005b6106406004803603602081101561061457600080fd5b81019080803573ffffffffffffffffffffffffffffffffffffffff1690602001909291905050506125c8565b6040518082815260200191505060405180910390f35b6106986004803603602081101561066c57600080fd5b81019080803573ffffffffffffffffffffffffffffffffffffffff16906020019092919050505061261c565b604051808060200180602001838103835285818151815260200191508051906020019060200280838360005b838110156106df5780820151818401526020810190506106c4565b50505050905001838103825284818151815260200191508051906020019060200280838360005b83811015610721578082015181840152602081019050610706565b5050505090500194505050505060405180910390f35b6107796004803603602081101561074d57600080fd5b81019080803573ffffffffffffffffffffffffffffffffffffffff169060200190929190505050612816565b604051808215151515815260200191505060405180910390f35b610853600480360360408110156107a957600080fd5b8101908080359060200190929190803590602001906401000000008111156107d057600080fd5b8201836020820111156107e257600080fd5b8035906020019184602083028401116401000000008311171561080457600080fd5b919080806020026020016040519081016040528093929190818152602001838360200280828437600081840152601f19601f820116905080830192505050505050509192919290505050612901565b005b6109586004803603608081101561086b57600080fd5b81019080803573ffffffffffffffffffffffffffffffffffffffff16906020019092919080359060200190929190803573ffffffffffffffffffffffffffffffffffffffff169060200190929190803590602001906401000000008111156108d257600080fd5b8201836020820111156108e457600080fd5b8035906020019184600183028401116401000000008311171561090657600080fd5b91908080601f016020809104026020016040519081016040528093929190818152602001838380828437600081840152601f19601f820116905080830192505050505050509192919290505050612e38565b005b6109bc6004803603604081101561097057600080fd5b81019080803573ffffffffffffffffffffffffffffffffffffffff169060200190929190803573ffffffffffffffffffffffffffffffffffffffff169060200190929190505050613052565b6040518082815260200191505060405180910390f35b610a14600480360360208110156109e857600080fd5b81019080803573ffffffffffffffffffffffffffffffffffffffff1690602001909291905050506130e1565b005b610a1e61330b565b6040518082815260200191505060405180910390f35b610a9660048036036040811015610a4a57600080fd5b81019080803573ffffffffffffffffffffffffffffffffffffffff169060200190929190803573ffffffffffffffffffffffffffffffffffffffff169060200190929190505050613311565b6040518082815260200191505060405180910390f35b610aee60048036036020811015610ac257600080fd5b81019080803573ffffffffffffffffffffffffffffffffffffffff16906020019092919050505061339e565b604051808273ffffffffffffffffffffffffffffffffffffffff1673ffffffffffffffffffffffffffffffffffffffff16815260200191505060405180910390f35b610b7260048036036020811015610b4657600080fd5b81019080803573ffffffffffffffffffffffffffffffffffffffff16906020019092919050505061340a565b604051808273ffffffffffffffffffffffffffffffffffffffff1673ffffffffffffffffffffffffffffffffffffffff16815260200191505060405180910390f35b610c1660048036036040811015610bca57600080fd5b81019080803573ffffffffffffffffffffffffffffffffffffffff169060200190929190803573ffffffffffffffffffffffffffffffffffffffff1690602001909291905050506134bf565b005b610c5a60048036036020811015610c2e57600080fd5b81019080803573ffffffffffffffffffffffffffffffffffffffff1690602001909291905050506135c9565b005b610c9e60048036036020811015610c7257600080fd5b81019080803573ffffffffffffffffffffffffffffffffffffffff1690602001909291905050506135d6565b005b610ca861396d565b6040518082815260200191505060405180910390f35b610cc6613973565b6040518082815260200191505060405180910390f35b610d3e60048036036040811015610cf257600080fd5b81019080803573ffffffffffffffffffffffffffffffffffffffff169060200190929190803573ffffffffffffffffffffffffffffffffffffffff169060200190929190505050613985565b604051808215151515815260200191505060405180910390f35b610dba60048036036040811015610d6e57600080fd5b81019080803573ffffffffffffffffffffffffffffffffffffffff169060200190929190803573ffffffffffffffffffffffffffffffffffffffff169060200190929190505050613a20565b005b610dfe60048036036020811015610dd257600080fd5b81019080803573ffffffffffffffffffffffffffffffffffffffff169060200190929190505050613c87565b60405180848152602001838152602001828152602001935050505060405180910390f35b610e6460048036036020811015610e3857600080fd5b81019080803573ffffffffffffffffffffffffffffffffffffffff169060200190929190505050613ce4565b604051808273ffffffffffffffffffffffffffffffffffffffff1673ffffffffffffffffffffffffffffffffffffffff16815260200191505060405180910390f35b610eae613d50565b6040518082815260200191505060405180910390f35b33610ece81612816565b610f40576040517f08c379a000000000000000000000000000000000000000000000000000000000815260040180806020018281038252601c8152602001807f4f70657261746f7220636f6e747261637420756e617070726f7665640000000081525060200191505060405180910390fd5b600080610f4c3361340a565b905060008090505b8451811015611366576000858281518110610f6b57fe5b602002602001015190506000808473ffffffffffffffffffffffffffffffffffffffff1673ffffffffffffffffffffffffffffffffffffffff16815260200190815260200160002060008273ffffffffffffffffffffffffffffffffffffffff1673ffffffffffffffffffffffffffffffffffffffff16815260200190815260200160002060009054906101000a900460ff16611070576040517f08c379a000000000000000000000000000000000000000000000000000000000815260040180806020018281038252600e8152602001807f4e6f7420617574686f72697a656400000000000000000000000000000000000081525060200191505060405180910390fd5b6000600360008373ffffffffffffffffffffffffffffffffffffffff1673ffffffffffffffffffffffffffffffffffffffff1681526020019081526020016000206000015490506110c081613d83565b611132576040517f08c379a000000000000000000000000000000000000000000000000000000000815260040180806020018281038252600e8152602001807f496e616374697665207374616b6500000000000000000000000000000000000081525060200191505060405180910390fd5b61113d828233613dab565b156111b0576040517f08c379a00000000000000000000000000000000000000000000000000000000081526004018080602001828103825260118152602001807f5374616b652069732072656c656173656400000000000000000000000000000081525060200191505060405180910390fd5b60006111bb82613ebc565b90508a811015611287576111d88187613ed690919063ffffffff16565b95506111ee600083613f5e90919063ffffffff16565b600360008573ffffffffffffffffffffffffffffffffffffffff1673ffffffffffffffffffffffffffffffffffffffff168152602001908152602001600020600001819055508273ffffffffffffffffffffffffffffffffffffffff167fc5c18d4a60510957a4dc6dbd6d40ecfcfa32ab9517528a6b4052729e48e183d3826040518082815260200191505060405180910390a2611356565b61129a8b87613ed690919063ffffffff16565b95506112c16112b28c83613f8390919063ffffffff16565b83613f5e90919063ffffffff16565b600360008573ffffffffffffffffffffffffffffffffffffffff1673ffffffffffffffffffffffffffffffffffffffff168152602001908152602001600020600001819055508273ffffffffffffffffffffffffffffffffffffffff167fc5c18d4a60510957a4dc6dbd6d40ecfcfa32ab9517528a6b4052729e48e183d38c6040518082815260200191505060405180910390a25b5050508080600101915050610f54565b50600061138f87611381600586613fcd90919063ffffffff16565b613fcd90919063ffffffff16565b90506113de8682600660009054906101000a900473ffffffffffffffffffffffffffffffffffffffff1673ffffffffffffffffffffffffffffffffffffffff16613ffd9092919063ffffffff16565b600660009054906101000a900473ffffffffffffffffffffffffffffffffffffffff1673ffffffffffffffffffffffffffffffffffffffff166342966c6861142f8386613f8390919063ffffffff16565b6040518263ffffffff1660e01b815260040180828152602001915050600060405180830381600087803b15801561146557600080fd5b505af1158015611479573d6000803e3d6000fd5b505050505050505050505050565b6000611491613973565b61149b8484613052565b1015905092915050565b6000600360008373ffffffffffffffffffffffffffffffffffffffff1673ffffffffffffffffffffffffffffffffffffffff16815260200190815260200160002060010160009054906101000a900473ffffffffffffffffffffffffffffffffffffffff169050919050565b600360008373ffffffffffffffffffffffffffffffffffffffff1673ffffffffffffffffffffffffffffffffffffffff16815260200190815260200160002060010160009054906101000a900473ffffffffffffffffffffffffffffffffffffffff1673ffffffffffffffffffffffffffffffffffffffff163373ffffffffffffffffffffffffffffffffffffffff1614611614576040517f08c379a000000000000000000000000000000000000000000000000000000000815260040180806020018281038252600e8152602001807f4e6f7420617574686f72697a656400000000000000000000000000000000000081525060200191505060405180910390fd5b80600360008473ffffffffffffffffffffffffffffffffffffffff1673ffffffffffffffffffffffffffffffffffffffff16815260200190815260200160002060010160006101000a81548173ffffffffffffffffffffffffffffffffffffffff021916908373ffffffffffffffffffffffffffffffffffffffff1602179055508073ffffffffffffffffffffffffffffffffffffffff168273ffffffffffffffffffffffffffffffffffffffff167f53c9cc0a3dd0a95beb5f7bf6f604aecacd38455e718ebce597fb058856166fef60405160405180910390a35050565b336116fd81612816565b61176f576040517f08c379a000000000000000000000000000000000000000000000000000000000815260040180806020018281038252601c8152602001807f4f70657261746f7220636f6e747261637420756e617070726f7665640000000081525060200191505060405180910390fd5b6117798333613985565b6117eb576040517f08c379a000000000000000000000000000000000000000000000000000000000815260040180806020018281038252600e8152602001807f4e6f7420617574686f72697a656400000000000000000000000000000000000081525060200191505060405180910390fd5b6000600360008573ffffffffffffffffffffffffffffffffffffffff1673ffffffffffffffffffffffffffffffffffffffff16815260200190815260200160002060000154905061183b81613d83565b6118ad576040517f08c379a000000000000000000000000000000000000000000000000000000000815260040180806020018281038252600e8152602001807f496e616374697665207374616b6500000000000000000000000000000000000081525060200191505060405180910390fd5b6118b6816140ce565b15611929576040517f08c379a00000000000000000000000000000000000000000000000000000000081526004018080602001828103825260128152602001807f556e64656c65676174696e67207374616b65000000000000000000000000000081525060200191505060405180910390fd5b600a73__Locks_________________________________63f5d13cd0909186866040518463ffffffff1660e01b8152600401808481526020018373ffffffffffffffffffffffffffffffffffffffff1673ffffffffffffffffffffffffffffffffffffffff168152602001828152602001935050505060006040518083038186803b1580156119b757600080fd5b505af41580156119cb573d6000803e3d6000fd5b5050505050505050565b6000600a73__Locks_________________________________6361e15686909184306040518463ffffffff1660e01b8152600401808481526020018373ffffffffffffffffffffffffffffffffffffffff1673ffffffffffffffffffffffffffffffffffffffff1681526020018273ffffffffffffffffffffffffffffffffffffffff1673ffffffffffffffffffffffffffffffffffffffff168152602001935050505060206040518083038186803b158015611a9157600080fd5b505af4158015611aa5573d6000803e3d6000fd5b505050506040513d6020811015611abb57600080fd5b81019080805190602001909291905050509050919050565b611add8133613985565b611b4f576040517f08c379a000000000000000000000000000000000000000000000000000000000815260040180806020018281038252600e8152602001807f4e6f7420617574686f72697a656400000000000000000000000000000000000081525060200191505060405180910390fd5b600a73__Locks_________________________________63075e89949091836040518363ffffffff1660e01b8152600401808381526020018273ffffffffffffffffffffffffffffffffffffffff1673ffffffffffffffffffffffffffffffffffffffff1681526020019250505060006040518083038186803b158015611bd557600080fd5b505af4158015611be9573d6000803e3d6000fd5b5050505050565b8173ffffffffffffffffffffffffffffffffffffffff163373ffffffffffffffffffffffffffffffffffffffff161480611cb75750600360008373ffffffffffffffffffffffffffffffffffffffff1673ffffffffffffffffffffffffffffffffffffffff16815260200190815260200160002060010160009054906101000a900473ffffffffffffffffffffffffffffffffffffffff1673ffffffffffffffffffffffffffffffffffffffff163373ffffffffffffffffffffffffffffffffffffffff16145b80611dd55750600973__GrantStaking__________________________63283338ed909184600760009054906101000a900473ffffffffffffffffffffffffffffffffffffffff166040518463ffffffff1660e01b8152600401808481526020018373ffffffffffffffffffffffffffffffffffffffff1673ffffffffffffffffffffffffffffffffffffffff1681526020018273ffffffffffffffffffffffffffffffffffffffff1673ffffffffffffffffffffffffffffffffffffffff168152602001935050505060206040518083038186803b158015611d9957600080fd5b505af4158015611dad573d6000803e3d6000fd5b505050506040513d6020811015611dc357600080fd5b81019080805190602001909291905050505b611e47576040517f08c379a000000000000000000000000000000000000000000000000000000000815260040180806020018281038252600e8152602001807f4e6f7420617574686f72697a656400000000000000000000000000000000000081525060200191505060405180910390fd5b6000600360008473ffffffffffffffffffffffffffffffffffffffff1673ffffffffffffffffffffffffffffffffffffffff168152602001908152602001600020600001549050428210158015611eb95750611eb6600554611ea8836140f4565b613ed690919063ffffffff16565b82115b611f2b576040517f08c379a00000000000000000000000000000000000000000000000000000000081526004018080602001828103825260118152602001807f496e76616c69642074696d657374616d7000000000000000000000000000000081525060200191505060405180910390fd5b6000611f368261410b565b90506000811480611f4657508281115b80611f7d57508373ffffffffffffffffffffffffffffffffffffffff163373ffffffffffffffffffffffffffffffffffffffff1614155b611fef576040517f08c379a00000000000000000000000000000000000000000000000000000000081526004018080602001828103825260198152602001807f4f70657261746f72206d6179206e6f7420706f7374706f6e650000000000000081525060200191505060405180910390fd5b612002838361411e90919063ffffffff16565b600360008673ffffffffffffffffffffffffffffffffffffffff1673ffffffffffffffffffffffffffffffffffffffff168152602001908152602001600020600001819055508373ffffffffffffffffffffffffffffffffffffffff167f4ae68879209bc4b489a38251122202a3653305e3d95a27baf7a5681410c90b38846040518082815260200191505060405180910390a250505050565b6000600360008373ffffffffffffffffffffffffffffffffffffffff1673ffffffffffffffffffffffffffffffffffffffff16815260200190815260200160002060000154905060006120ee8261410b565b1415612162576040517f08c379a000000000000000000000000000000000000000000000000000000000815260040180806020018281038252600f8152602001807f4e6f7420756e64656c656761746564000000000000000000000000000000000081525060200191505060405180910390fd5b61216b81614143565b6121dd576040517f08c379a00000000000000000000000000000000000000000000000000000000081526004018080602001828103825260128152602001807f5374696c6c20756e64656c65676174696e67000000000000000000000000000081525060200191505060405180910390fd5b6121e6826119d5565b15612259576040517f08c379a000000000000000000000000000000000000000000000000000000000815260040180806020018281038252600c8152602001807f4c6f636b6564207374616b65000000000000000000000000000000000000000081525060200191505060405180910390fd5b600061226482613ebc565b9050612339600b73__TopUps________________________________63b171f47b9091866040518363ffffffff1660e01b8152600401808381526020018273ffffffffffffffffffffffffffffffffffffffff1673ffffffffffffffffffffffffffffffffffffffff1681526020019250505060206040518083038186803b1580156122ef57600080fd5b505af4158015612303573d6000803e3d6000fd5b505050506040513d602081101561231957600080fd5b810190808051906020019092919050505082613ed690919063ffffffff16565b905061234f600083613f5e90919063ffffffff16565b600360008573ffffffffffffffffffffffffffffffffffffffff1673ffffffffffffffffffffffffffffffffffffffff16815260200190815260200160002060000181905550612402600360008573ffffffffffffffffffffffffffffffffffffffff1673ffffffffffffffffffffffffffffffffffffffff16815260200190815260200160002060010160009054906101000a900473ffffffffffffffffffffffffffffffffffffffff168483614182565b7fd8d7d3f648c98e58aaabbb17253dc4a04c610cf9d36f0a42400015b56d74107283604051808273ffffffffffffffffffffffffffffffffffffffff1673ffffffffffffffffffffffffffffffffffffffff16815260200191505060405180910390a1505050565b600b73__TopUps________________________________6360be99f8909183600360008673ffffffffffffffffffffffffffffffffffffffff1673ffffffffffffffffffffffffffffffffffffffff168152602001908152602001600020600001546005546040518563ffffffff1660e01b8152600401808581526020018473ffffffffffffffffffffffffffffffffffffffff1673ffffffffffffffffffffffffffffffffffffffff16815260200183815260200182815260200194505050505060206040518083038186803b15801561254457600080fd5b505af4158015612558573d6000803e3d6000fd5b505050506040513d602081101561256e57600080fd5b8101908080519060200190929190505050600360008373ffffffffffffffffffffffffffffffffffffffff1673ffffffffffffffffffffffffffffffffffffffff1681526020019081526020016000206000018190555050565b6000612615600360008473ffffffffffffffffffffffffffffffffffffffff1673ffffffffffffffffffffffffffffffffffffffff16815260200190815260200160002060000154613ebc565b9050919050565b606080600a73__Locks_________________________________637b5e35e19091856040518363ffffffff1660e01b8152600401808381526020018273ffffffffffffffffffffffffffffffffffffffff1673ffffffffffffffffffffffffffffffffffffffff1681526020019250505060006040518083038186803b1580156126a557600080fd5b505af41580156126b9573d6000803e3d6000fd5b505050506040513d6000823e3d601f19601f8201168201806040525060408110156126e357600080fd5b810190808051604051939291908464010000000082111561270357600080fd5b8382019150602082018581111561271957600080fd5b825186602082028301116401000000008211171561273657600080fd5b8083526020830192505050908051906020019060200280838360005b8381101561276d578082015181840152602081019050612752565b505050509050016040526020018051604051939291908464010000000082111561279657600080fd5b838201915060208201858111156127ac57600080fd5b82518660208202830111640100000000821117156127c957600080fd5b8083526020830192505050908051906020019060200280838360005b838110156128005780820151818401526020810190506127e5565b5050505090500160405250505091509150915091565b6000600260009054906101000a900473ffffffffffffffffffffffffffffffffffffffff1673ffffffffffffffffffffffffffffffffffffffff166384d5768961285f8461340a565b6040518263ffffffff1660e01b8152600401808273ffffffffffffffffffffffffffffffffffffffff1673ffffffffffffffffffffffffffffffffffffffff16815260200191505060206040518083038186803b1580156128bf57600080fd5b505afa1580156128d3573d6000803e3d6000fd5b505050506040513d60208110156128e957600080fd5b81019080805190602001909291905050509050919050565b3361290b81612816565b61297d576040517f08c379a000000000000000000000000000000000000000000000000000000000815260040180806020018281038252601c8152602001807f4f70657261746f7220636f6e747261637420756e617070726f7665640000000081525060200191505060405180910390fd5b6000806129893361340a565b905060008090505b8451811015612da35760008582815181106129a857fe5b602002602001015190506000808473ffffffffffffffffffffffffffffffffffffffff1673ffffffffffffffffffffffffffffffffffffffff16815260200190815260200160002060008273ffffffffffffffffffffffffffffffffffffffff1673ffffffffffffffffffffffffffffffffffffffff16815260200190815260200160002060009054906101000a900460ff16612aad576040517f08c379a000000000000000000000000000000000000000000000000000000000815260040180806020018281038252600e8152602001807f4e6f7420617574686f72697a656400000000000000000000000000000000000081525060200191505060405180910390fd5b6000600360008373ffffffffffffffffffffffffffffffffffffffff1673ffffffffffffffffffffffffffffffffffffffff168152602001908152602001600020600001549050612afd81613d83565b612b6f576040517f08c379a000000000000000000000000000000000000000000000000000000000815260040180806020018281038252600e8152602001807f496e616374697665207374616b6500000000000000000000000000000000000081525060200191505060405180910390fd5b612b7a828233613dab565b15612bed576040517f08c379a00000000000000000000000000000000000000000000000000000000081526004018080602001828103825260118152602001807f5374616b652069732072656c656173656400000000000000000000000000000081525060200191505060405180910390fd5b6000612bf882613ebc565b905088811015612cc457612c158187613ed690919063ffffffff16565b9550612c2b600083613f5e90919063ffffffff16565b600360008573ffffffffffffffffffffffffffffffffffffffff1673ffffffffffffffffffffffffffffffffffffffff168152602001908152602001600020600001819055508273ffffffffffffffffffffffffffffffffffffffff167ff71d4eeef63c86ffc692e306c623b01b8373e091da8ee455aa0fe26305a4981c826040518082815260200191505060405180910390a2612d93565b612cd78987613ed690919063ffffffff16565b9550612cfe612cef8a83613f8390919063ffffffff16565b83613f5e90919063ffffffff16565b600360008573ffffffffffffffffffffffffffffffffffffffff1673ffffffffffffffffffffffffffffffffffffffff168152602001908152602001600020600001819055508273ffffffffffffffffffffffffffffffffffffffff167ff71d4eeef63c86ffc692e306c623b01b8373e091da8ee455aa0fe26305a4981c8a6040518082815260200191505060405180910390a25b5050508080600101915050612991565b50600660009054906101000a900473ffffffffffffffffffffffffffffffffffffffff1673ffffffffffffffffffffffffffffffffffffffff166342966c68836040518263ffffffff1660e01b815260040180828152602001915050600060405180830381600087803b158015612e1957600080fd5b505af1158015612e2d573d6000803e3d6000fd5b505050505050505050565b600660009054906101000a900473ffffffffffffffffffffffffffffffffffffffff1673ffffffffffffffffffffffffffffffffffffffff168273ffffffffffffffffffffffffffffffffffffffff1614612efb576040517f08c379a00000000000000000000000000000000000000000000000000000000081526004018080602001828103825260128152602001807f556e7265636f676e697a656420746f6b656e000000000000000000000000000081525060200191505060405180910390fd5b603c81511015612f73576040517f08c379a00000000000000000000000000000000000000000000000000000000081526004018080602001828103825260198152602001807f436f727275707465642064656c65676174696f6e20646174610000000000000081525060200191505060405180910390fd5b612fc2843085600660009054906101000a900473ffffffffffffffffffffffffffffffffffffffff1673ffffffffffffffffffffffffffffffffffffffff16614503909392919063ffffffff16565b6000612fd860148361460990919063ffffffff16565b90506000613027600360008473ffffffffffffffffffffffffffffffffffffffff1673ffffffffffffffffffffffffffffffffffffffff168152602001908152602001600020600001546140f4565b141561303e576130398585838561469c565b61304b565b61304a85858385614bcf565b5b5050505050565b600080600360008573ffffffffffffffffffffffffffffffffffffffff1673ffffffffffffffffffffffffffffffffffffffff1681526020019081526020016000206000015490506130a48484613985565b80156130b557506130b481613d83565b5b80156130c957506130c7848285613dab565b155b156130da576130d781613ebc565b91505b5092915050565b806130eb81612816565b61315d576040517f08c379a000000000000000000000000000000000000000000000000000000000815260040180806020018281038252601c8152602001807f4f70657261746f7220636f6e747261637420756e617070726f7665640000000081525060200191505060405180910390fd5b8173ffffffffffffffffffffffffffffffffffffffff1663d870c034336040518263ffffffff1660e01b8152600401808273ffffffffffffffffffffffffffffffffffffffff1673ffffffffffffffffffffffffffffffffffffffff168152602001915050602060405180830381600087803b1580156131dc57600080fd5b505af11580156131f0573d6000803e3d6000fd5b505050506040513d602081101561320657600080fd5b8101908080519060200190929190505050613289576040517f08c379a00000000000000000000000000000000000000000000000000000000081526004018080602001828103825260158152602001807f556e7265636f676e697a656420636c61696d616e74000000000000000000000081525060200191505060405180910390fd5b81600160003373ffffffffffffffffffffffffffffffffffffffff1673ffffffffffffffffffffffffffffffffffffffff16815260200190815260200160002060006101000a81548173ffffffffffffffffffffffffffffffffffffffff021916908373ffffffffffffffffffffffffffffffffffffffff1602179055505050565b60055481565b600080600360008573ffffffffffffffffffffffffffffffffffffffff1673ffffffffffffffffffffffffffffffffffffffff1681526020019081526020016000206000015490506133638484613985565b8015613374575061337381613d83565b5b80156133865750613384816140ce565b155b156133975761339481613ebc565b91505b5092915050565b6000600360008373ffffffffffffffffffffffffffffffffffffffff1673ffffffffffffffffffffffffffffffffffffffff16815260200190815260200160002060020160009054906101000a900473ffffffffffffffffffffffffffffffffffffffff169050919050565b600080600160008473ffffffffffffffffffffffffffffffffffffffff1673ffffffffffffffffffffffffffffffffffffffff16815260200190815260200160002060009054906101000a900473ffffffffffffffffffffffffffffffffffffffff169050600073ffffffffffffffffffffffffffffffffffffffff168173ffffffffffffffffffffffffffffffffffffffff1614156134ad57829150506134ba565b6134b68161340a565b9150505b919050565b600a73__Locks_________________________________6318bc8f0190918484306040518563ffffffff1660e01b8152600401808581526020018473ffffffffffffffffffffffffffffffffffffffff1673ffffffffffffffffffffffffffffffffffffffff1681526020018373ffffffffffffffffffffffffffffffffffffffff1673ffffffffffffffffffffffffffffffffffffffff1681526020018273ffffffffffffffffffffffffffffffffffffffff1673ffffffffffffffffffffffffffffffffffffffff16815260200194505050505060006040518083038186803b1580156135ad57600080fd5b505af41580156135c1573d6000803e3d6000fd5b505050505050565b6135d38142611bf0565b50565b6000600360008373ffffffffffffffffffffffffffffffffffffffff1673ffffffffffffffffffffffffffffffffffffffff16815260200190815260200160002060010160009054906101000a900473ffffffffffffffffffffffffffffffffffffffff1690508073ffffffffffffffffffffffffffffffffffffffff163373ffffffffffffffffffffffffffffffffffffffff1614806136a257508173ffffffffffffffffffffffffffffffffffffffff163373ffffffffffffffffffffffffffffffffffffffff16145b806137c05750600973__GrantStaking__________________________63283338ed909184600760009054906101000a900473ffffffffffffffffffffffffffffffffffffffff166040518463ffffffff1660e01b8152600401808481526020018373ffffffffffffffffffffffffffffffffffffffff1673ffffffffffffffffffffffffffffffffffffffff1681526020018273ffffffffffffffffffffffffffffffffffffffff1673ffffffffffffffffffffffffffffffffffffffff168152602001935050505060206040518083038186803b15801561378457600080fd5b505af4158015613798573d6000803e3d6000fd5b505050506040513d60208110156137ae57600080fd5b81019080805190602001909291905050505b613832576040517f08c379a000000000000000000000000000000000000000000000000000000000815260040180806020018281038252600e8152602001807f4e6f7420617574686f72697a656400000000000000000000000000000000000081525060200191505060405180910390fd5b6000600360008473ffffffffffffffffffffffffffffffffffffffff1673ffffffffffffffffffffffffffffffffffffffff16815260200190815260200160002060000154905061388281613d83565b156138f5576040517f08c379a00000000000000000000000000000000000000000000000000000000081526004018080602001828103825260118152602001807f496e697469616c697a6564207374616b6500000000000000000000000000000081525060200191505060405180910390fd5b600061390082613ebc565b9050613916600083613f5e90919063ffffffff16565b600360008673ffffffffffffffffffffffffffffffffffffffff1673ffffffffffffffffffffffffffffffffffffffff16815260200190815260200160002060000181905550613967838583614182565b50505050565b60045481565b600069152d02c7e14af6800000905090565b60008060006139938461340a565b73ffffffffffffffffffffffffffffffffffffffff1673ffffffffffffffffffffffffffffffffffffffff16815260200190815260200160002060008473ffffffffffffffffffffffffffffffffffffffff1673ffffffffffffffffffffffffffffffffffffffff16815260200190815260200160002060009054906101000a900460ff16905092915050565b80613a2a81612816565b613a9c576040517f08c379a000000000000000000000000000000000000000000000000000000000815260040180806020018281038252601c8152602001807f4f70657261746f7220636f6e747261637420756e617070726f7665640000000081525060200191505060405180910390fd5b3373ffffffffffffffffffffffffffffffffffffffff16613abc84613ce4565b73ffffffffffffffffffffffffffffffffffffffff1614613b45576040517f08c379a00000000000000000000000000000000000000000000000000000000081526004018080602001828103825260178152602001807f4e6f74206f70657261746f7220617574686f72697a657200000000000000000081525060200191505060405180910390fd5b8173ffffffffffffffffffffffffffffffffffffffff16613b658361340a565b73ffffffffffffffffffffffffffffffffffffffff1614613bee576040517f08c379a00000000000000000000000000000000000000000000000000000000081526004018080602001828103825260188152602001807f44656c65676174656420617574686f726974792075736564000000000000000081525060200191505060405180910390fd5b60016000808473ffffffffffffffffffffffffffffffffffffffff1673ffffffffffffffffffffffffffffffffffffffff16815260200190815260200160002060008573ffffffffffffffffffffffffffffffffffffffff1673ffffffffffffffffffffffffffffffffffffffff16815260200190815260200160002060006101000a81548160ff021916908315150217905550505050565b6000806000613cd7600360008673ffffffffffffffffffffffffffffffffffffffff1673ffffffffffffffffffffffffffffffffffffffff16815260200190815260200160002060000154615614565b9250925092509193909250565b6000600360008373ffffffffffffffffffffffffffffffffffffffff1673ffffffffffffffffffffffffffffffffffffffff16815260200190815260200160002060030160009054906101000a900473ffffffffffffffffffffffffffffffffffffffff169050919050565b6000613d6a624f1a00600454613ed690919063ffffffff16565b4210613d7957624f1a00613d7e565b621275005b905090565b6000613da2600554613d94846140f4565b613ed690919063ffffffff16565b42119050919050565b6000613db683614143565b8015613eb35750600a73__Locks_________________________________63d4224f9a909186856040518463ffffffff1660e01b8152600401808481526020018373ffffffffffffffffffffffffffffffffffffffff1673ffffffffffffffffffffffffffffffffffffffff1681526020018273ffffffffffffffffffffffffffffffffffffffff1673ffffffffffffffffffffffffffffffffffffffff168152602001935050505060206040518083038186803b158015613e7757600080fd5b505af4158015613e8b573d6000803e3d6000fd5b505050506040513d6020811015613ea157600080fd5b81019080805190602001909291905050505b90509392505050565b60006001608060020a03604060020283901c169050919050565b600080828401905083811015613f54576040517f08c379a000000000000000000000000000000000000000000000000000000000815260040180806020018281038252601b8152602001807f536166654d6174683a206164646974696f6e206f766572666c6f77000000000081525060200191505060405180910390fd5b8091505092915050565b6000613f7b82613f6d856140f4565b613f768661410b565b615641565b905092915050565b6000613fc583836040518060400160405280601e81526020017f536166654d6174683a207375627472616374696f6e206f766572666c6f770000815250615758565b905092915050565b6000613ff56064613fe7848661581890919063ffffffff16565b61589e90919063ffffffff16565b905092915050565b6140c9838473ffffffffffffffffffffffffffffffffffffffff1663a9059cbb905060e01b8484604051602401808373ffffffffffffffffffffffffffffffffffffffff1673ffffffffffffffffffffffffffffffffffffffff16815260200182815260200192505050604051602081830303815290604052907bffffffffffffffffffffffffffffffffffffffffffffffffffffffff19166020820180517bffffffffffffffffffffffffffffffffffffffffffffffffffffffff83818316178352505050506158e8565b505050565b6000806140da8361410b565b9050600081141580156140ec57508042115b915050919050565b60006001604060020a03604083901c169050919050565b60006001604060020a0382169050919050565b600061413b61412c84613ebc565b614135856140f4565b84615641565b905092915050565b60008061414f8361410b565b90506000811415801561417a5750614177614168613d50565b82613ed690919063ffffffff16565b42115b915050919050565b600973__GrantStaking__________________________63ae4ae2db9091846040518363ffffffff1660e01b8152600401808381526020018273ffffffffffffffffffffffffffffffffffffffff1673ffffffffffffffffffffffffffffffffffffffff1681526020019250505060206040518083038186803b15801561420857600080fd5b505af415801561421c573d6000803e3d6000fd5b505050506040513d602081101561423257600080fd5b8101908080519060200190929190505050156144b057600660009054906101000a900473ffffffffffffffffffffffffffffffffffffffff1673ffffffffffffffffffffffffffffffffffffffff1663cae9ca51600860009054906101000a900473ffffffffffffffffffffffffffffffffffffffff168385600973__GrantStaking__________________________63548756ca9091896040518363ffffffff1660e01b8152600401808381526020018273ffffffffffffffffffffffffffffffffffffffff1673ffffffffffffffffffffffffffffffffffffffff1681526020019250505060206040518083038186803b15801561433157600080fd5b505af4158015614345573d6000803e3d6000fd5b505050506040513d602081101561435b57600080fd5b8101908080519060200190929190505050604051602001808373ffffffffffffffffffffffffffffffffffffffff1673ffffffffffffffffffffffffffffffffffffffff168152602001828152602001925050506040516020818303038152906040526040518463ffffffff1660e01b8152600401808473ffffffffffffffffffffffffffffffffffffffff1673ffffffffffffffffffffffffffffffffffffffff16815260200183815260200180602001828103825283818151815260200191508051906020019080838360005b8381101561444557808201518184015260208101905061442a565b50505050905090810190601f1680156144725780820380516001836020036101000a031916815260200191505b50945050505050600060405180830381600087803b15801561449357600080fd5b505af11580156144a7573d6000803e3d6000fd5b505050506144fe565b6144fd8382600660009054906101000a900473ffffffffffffffffffffffffffffffffffffffff1673ffffffffffffffffffffffffffffffffffffffff16613ffd9092919063ffffffff16565b5b505050565b614603848573ffffffffffffffffffffffffffffffffffffffff166323b872dd905060e01b858585604051602401808473ffffffffffffffffffffffffffffffffffffffff1673ffffffffffffffffffffffffffffffffffffffff1681526020018373ffffffffffffffffffffffffffffffffffffffff1673ffffffffffffffffffffffffffffffffffffffff1681526020018281526020019350505050604051602081830303815290604052907bffffffffffffffffffffffffffffffffffffffffffffffffffffffff19166020820180517bffffffffffffffffffffffffffffffffffffffffffffffffffffffff83818316178352505050506158e8565b50505050565b6000806014830190508281118015614622575080845110155b614677576040517f08c379a0000000000000000000000000000000000000000000000000000000008152600401808060200182810382526021815260200180615c456021913960400191505060405180910390fd5b60006c0100000000000000000000000084602087010151049050809250505092915050565b6146a4613973565b831015614719576040517f08c379a000000000000000000000000000000000000000000000000000000000815260040180806020018281038252601b8152602001807f4c657373207468616e20746865206d696e696d756d207374616b65000000000081525060200191505060405180910390fd5b600061472f60008361460990919063ffffffff16565b9050600061474760288461460990919063ffffffff16565b9050604051806080016040528061476087426000615641565b81526020018773ffffffffffffffffffffffffffffffffffffffff1681526020018373ffffffffffffffffffffffffffffffffffffffff1681526020018273ffffffffffffffffffffffffffffffffffffffff16815250600360008673ffffffffffffffffffffffffffffffffffffffff1673ffffffffffffffffffffffffffffffffffffffff1681526020019081526020016000206000820151816000015560208201518160010160006101000a81548173ffffffffffffffffffffffffffffffffffffffff021916908373ffffffffffffffffffffffffffffffffffffffff16021790555060408201518160020160006101000a81548173ffffffffffffffffffffffffffffffffffffffff021916908373ffffffffffffffffffffffffffffffffffffffff16021790555060608201518160030160006101000a81548173ffffffffffffffffffffffffffffffffffffffff021916908373ffffffffffffffffffffffffffffffffffffffff160217905550905050600973__GrantStaking__________________________63adb3e4c59091600760009054906101000a900473ffffffffffffffffffffffffffffffffffffffff16600860009054906101000a900473ffffffffffffffffffffffffffffffffffffffff168a89896040518763ffffffff1660e01b8152600401808781526020018673ffffffffffffffffffffffffffffffffffffffff1673ffffffffffffffffffffffffffffffffffffffff1681526020018573ffffffffffffffffffffffffffffffffffffffff1673ffffffffffffffffffffffffffffffffffffffff1681526020018473ffffffffffffffffffffffffffffffffffffffff1673ffffffffffffffffffffffffffffffffffffffff1681526020018373ffffffffffffffffffffffffffffffffffffffff1673ffffffffffffffffffffffffffffffffffffffff16815260200180602001828103825283818151815260200191508051906020019080838360005b83811015614a5c578082015181840152602081019050614a41565b50505050905090810190601f168015614a895780820380516001836020036101000a031916815260200191505b50975050505050505050604080518083038186803b158015614aaa57600080fd5b505af4158015614abe573d6000803e3d6000fd5b505050506040513d6040811015614ad457600080fd5b81019080805190602001909291908051906020019092919050505050508373ffffffffffffffffffffffffffffffffffffffff168673ffffffffffffffffffffffffffffffffffffffff167f83455714d30de40b1396056e44480074130d2ac0a2a7bd7cb1dfcd6d619e172460405160405180910390a38073ffffffffffffffffffffffffffffffffffffffff168273ffffffffffffffffffffffffffffffffffffffff168573ffffffffffffffffffffffffffffffffffffffff167f175a298cbf37645403c82164f78783abb2869a97657c362fe979817d3184cc51886040518082815260200191505060405180910390a4505050505050565b60008473ffffffffffffffffffffffffffffffffffffffff16600760009054906101000a900473ffffffffffffffffffffffffffffffffffffffff1673ffffffffffffffffffffffffffffffffffffffff16632496bfb3856040518263ffffffff1660e01b8152600401808273ffffffffffffffffffffffffffffffffffffffff1673ffffffffffffffffffffffffffffffffffffffff16815260200191505060206040518083038186803b158015614c8757600080fd5b505afa158015614c9b573d6000803e3d6000fd5b505050506040513d6020811015614cb157600080fd5b810190808051906020019092919050505073ffffffffffffffffffffffffffffffffffffffff161480614d3157508473ffffffffffffffffffffffffffffffffffffffff16600860009054906101000a900473ffffffffffffffffffffffffffffffffffffffff1673ffffffffffffffffffffffffffffffffffffffff16145b9050600973__GrantStaking__________________________63ae4ae2db9091856040518363ffffffff1660e01b8152600401808381526020018273ffffffffffffffffffffffffffffffffffffffff1673ffffffffffffffffffffffffffffffffffffffff1681526020019250505060206040518083038186803b158015614db957600080fd5b505af4158015614dcd573d6000803e3d6000fd5b505050506040513d6020811015614de357600080fd5b8101908080519060200190929190505050156151c95780614e6c576040517f08c379a00000000000000000000000000000000000000000000000000000000081526004018080602001828103825260148152602001807f4d7573742062652066726f6d2061206772616e7400000000000000000000000081525060200191505060405180910390fd5b6000600973__GrantStaking__________________________63548756ca9091866040518363ffffffff1660e01b8152600401808381526020018273ffffffffffffffffffffffffffffffffffffffff1673ffffffffffffffffffffffffffffffffffffffff1681526020019250505060206040518083038186803b158015614ef457600080fd5b505af4158015614f08573d6000803e3d6000fd5b505050506040513d6020811015614f1e57600080fd5b810190808051906020019092919050505090506000600973__GrantStaking__________________________63adb3e4c59091600760009054906101000a900473ffffffffffffffffffffffffffffffffffffffff16600860009054906101000a900473ffffffffffffffffffffffffffffffffffffffff168b8a8a6040518763ffffffff1660e01b8152600401808781526020018673ffffffffffffffffffffffffffffffffffffffff1673ffffffffffffffffffffffffffffffffffffffff1681526020018573ffffffffffffffffffffffffffffffffffffffff1673ffffffffffffffffffffffffffffffffffffffff1681526020018473ffffffffffffffffffffffffffffffffffffffff1673ffffffffffffffffffffffffffffffffffffffff1681526020018373ffffffffffffffffffffffffffffffffffffffff1673ffffffffffffffffffffffffffffffffffffffff16815260200180602001828103825283818151815260200191508051906020019080838360005b838110156150b757808201518184015260208101905061509c565b50505050905090810190601f1680156150e45780820380516001836020036101000a031916815260200191505b50975050505050505050604080518083038186803b15801561510557600080fd5b505af4158015615119573d6000803e3d6000fd5b505050506040513d604081101561512f57600080fd5b8101908080519060200190929190805190602001909291905050509150508181146151c2576040517f08c379a00000000000000000000000000000000000000000000000000000000081526004018080602001828103825260128152602001807f4e6f74207468652073616d65206772616e74000000000000000000000000000081525060200191505060405180910390fd5b5050615341565b801561523d576040517f08c379a00000000000000000000000000000000000000000000000000000000081526004018080602001828103825260188152602001807f4d757374206e6f742062652066726f6d2061206772616e74000000000000000081525060200191505060405180910390fd5b8473ffffffffffffffffffffffffffffffffffffffff16600360008573ffffffffffffffffffffffffffffffffffffffff1673ffffffffffffffffffffffffffffffffffffffff16815260200190815260200160002060010160009054906101000a900473ffffffffffffffffffffffffffffffffffffffff1673ffffffffffffffffffffffffffffffffffffffff1614615340576040517f08c379a00000000000000000000000000000000000000000000000000000000081526004018080602001828103825260128152602001807f4e6f74207468652073616d65206f776e6572000000000000000000000000000081525060200191505060405180910390fd5b5b6000600360008573ffffffffffffffffffffffffffffffffffffffff1673ffffffffffffffffffffffffffffffffffffffff16815260200190815260200160002060000154905061539181613d83565b61550757600b73__TopUps________________________________63fea2b7189091878785600860009054906101000a900473ffffffffffffffffffffffffffffffffffffffff166040518663ffffffff1660e01b8152600401808681526020018581526020018473ffffffffffffffffffffffffffffffffffffffff1673ffffffffffffffffffffffffffffffffffffffff1681526020018381526020018273ffffffffffffffffffffffffffffffffffffffff1673ffffffffffffffffffffffffffffffffffffffff1681526020019550505050505060206040518083038186803b15801561548157600080fd5b505af4158015615495573d6000803e3d6000fd5b505050506040513d60208110156154ab57600080fd5b8101908080519060200190929190505050600360008673ffffffffffffffffffffffffffffffffffffffff1673ffffffffffffffffffffffffffffffffffffffff1681526020019081526020016000206000018190555061560c565b600b73__TopUps________________________________63fd9a58f29091878785600860009054906101000a900473ffffffffffffffffffffffffffffffffffffffff166040518663ffffffff1660e01b8152600401808681526020018581526020018473ffffffffffffffffffffffffffffffffffffffff1673ffffffffffffffffffffffffffffffffffffffff1681526020018381526020018273ffffffffffffffffffffffffffffffffffffffff1673ffffffffffffffffffffffffffffffffffffffff1681526020019550505050505060006040518083038186803b1580156155f357600080fd5b505af4158015615607573d6000803e3d6000fd5b505050505b505050505050565b600080600061562284613ebc565b925061562d846140f4565b91506156388461410b565b90509193909250565b60006001608060020a038411156156c0576040517f08c379a00000000000000000000000000000000000000000000000000000000081526004018080602001828103825260108152602001807f75696e74313238206f766572666c6f770000000000000000000000000000000081525060200191505060405180910390fd5b6001604060020a03828417111561573f576040517f08c379a000000000000000000000000000000000000000000000000000000000815260040180806020018281038252600f8152602001807f75696e743634206f766572666c6f77000000000000000000000000000000000081525060200191505060405180910390fd5b81604084901b604060020286901b171790509392505050565b6000838311158290615805576040517f08c379a00000000000000000000000000000000000000000000000000000000081526004018080602001828103825283818151815260200191508051906020019080838360005b838110156157ca5780820151818401526020810190506157af565b50505050905090810190601f1680156157f75780820380516001836020036101000a031916815260200191505b509250505060405180910390fd5b5060008385039050809150509392505050565b60008083141561582b5760009050615898565b600082840290508284828161583c57fe5b0414615893576040517f08c379a0000000000000000000000000000000000000000000000000000000008152600401808060200182810382526021815260200180615c666021913960400191505060405180910390fd5b809150505b92915050565b60006158e083836040518060400160405280601a81526020017f536166654d6174683a206469766973696f6e206279207a65726f000000000000815250615b33565b905092915050565b6159078273ffffffffffffffffffffffffffffffffffffffff16615bf9565b615979576040517f08c379a000000000000000000000000000000000000000000000000000000000815260040180806020018281038252601f8152602001807f5361666545524332303a2063616c6c20746f206e6f6e2d636f6e74726163740081525060200191505060405180910390fd5b600060608373ffffffffffffffffffffffffffffffffffffffff16836040518082805190602001908083835b602083106159c857805182526020820191506020810190506020830392506159a5565b6001836020036101000a0380198251168184511680821785525050505050509050019150506000604051808303816000865af19150503d8060008114615a2a576040519150601f19603f3d011682016040523d82523d6000602084013e615a2f565b606091505b509150915081615aa7576040517f08c379a00000000000000000000000000000000000000000000000000000000081526004018080602001828103825260208152602001807f5361666545524332303a206c6f772d6c6576656c2063616c6c206661696c656481525060200191505060405180910390fd5b600081511115615b2d57808060200190516020811015615ac657600080fd5b8101908080519060200190929190505050615b2c576040517f08c379a000000000000000000000000000000000000000000000000000000000815260040180806020018281038252602a815260200180615c87602a913960400191505060405180910390fd5b5b50505050565b60008083118290615bdf576040517f08c379a00000000000000000000000000000000000000000000000000000000081526004018080602001828103825283818151815260200191508051906020019080838360005b83811015615ba4578082015181840152602081019050615b89565b50505050905090810190601f168015615bd15780820380516001836020036101000a031916815260200191505b509250505060405180910390fd5b506000838581615beb57fe5b049050809150509392505050565b60008060007fc5d2460186f7233c927e7db2dcc703c0e500b653ca82273b7bfad8045d85a47060001b9050833f91506000801b8214158015615c3b5750808214155b9250505091905056fe4164647265737320636f6e76657273696f6e206f7574206f6620626f756e64732e536166654d6174683a206d756c7469706c69636174696f6e206f766572666c6f775361666545524332303a204552433230206f7065726174696f6e20646964206e6f742073756363656564a265627a7a723158200f5ca96f96f6dcf57e66a9706594f7fbe171ddd5b03502e824f8bc7a6df4fe8164736f6c63430005110032",
  "source": "pragma solidity 0.5.17;\n\nimport \"../TokenStaking.sol\";\nimport \"../TokenStakingEscrow.sol\";\nimport \"../TokenGrant.sol\";\nimport \"../KeepRegistry.sol\";\n\n/// @dev TokenStakingStub keeps the same minimum stake value of 100k KEEP for\n/// all the time. This stub is used by tests for which we want to maintain the\n/// same minimum stake value. MinimumStakeSchedule uses the time of deploying KEEP\n/// token as the starting point of the minimum stake schedule.\n/// Use this stub to keep it at the same, predictable level. Going back in time\n/// in tests is not possible.\ncontract TokenStakingStub is TokenStaking {\n    constructor(\n        ERC20Burnable _token,\n        TokenGrant _tokenGrant,\n        TokenStakingEscrow _escrow,\n        KeepRegistry _registry,\n        uint256 _initializationPeriod\n    )\n        public\n        TokenStaking(\n            _token,\n            _tokenGrant,\n            _escrow,\n            _registry,\n            _initializationPeriod\n        )\n    {}\n\n    function minimumStake() public view returns (uint256) {\n        return 100000 * 1e18;\n    }\n}\n",
  "sourcePath": "/home/runner/work/keep-core/keep-core/solidity-v1/contracts/stubs/TokenStakingStub.sol",
  "compiler": {
    "name": "solc",
    "version": "0.5.17+commit.d19bba13.Emscripten.clang"
  },
  "schemaVersion": "3.3.4",
  "updatedAt": "2021-11-26T17:03:20.438Z",
  "devdoc": {
    "details": "TokenStakingStub keeps the same minimum stake value of 100k KEEP for all the time. This stub is used by tests for which we want to maintain the same minimum stake value. MinimumStakeSchedule uses the time of deploying KEEP token as the starting point of the minimum stake schedule. Use this stub to keep it at the same, predictable level. Going back in time in tests is not possible.",
    "methods": {
      "activeStake(address,address)": {
        "params": {
          "_operator": "address of stake operator.",
          "_operatorContract": "address of operator contract."
        },
        "return": "an uint256 representing the eligible stake balance."
      },
      "authorizeOperatorContract(address,address)": {
        "params": {
          "_operator": "address of stake operator.",
          "_operatorContract": "address of operator contract."
        }
      },
      "authorizerOf(address)": {
        "return": "Authorizer address."
      },
      "balanceOf(address)": {
        "params": {
          "_address": "The address to query the balance of."
        },
        "return": "An uint256 representing the amount staked by the passed address."
      },
      "beneficiaryOf(address)": {
        "return": "Beneficiary address."
      },
      "cancelStake(address)": {
        "params": {
          "_operator": "Address of the stake operator."
        }
      },
      "claimDelegatedAuthority(address)": {
        "details": "If `delegatedAuthoritySource` is an approved operator contract and recognizes the claimant, this relationship will be recorded in `delegatedAuthority`. Later, the claimant can slash, seize, place locks etc. on operators that have authorized the `delegatedAuthoritySource`. If the `delegatedAuthoritySource` is disabled with the panic button, any recipients of delegated authority from it will also be disabled."
      },
      "commitTopUp(address)": {
        "params": {
          "_operator": "The operator with a pending top-up that is getting committed."
        }
      },
      "eligibleStake(address,address)": {
        "params": {
          "_operator": "address of stake operator.",
          "_operatorContract": "address of operator contract."
        },
        "return": "an uint256 representing the eligible stake balance."
      },
      "getDelegationInfo(address)": {
        "params": {
          "_operator": "Operator address."
        },
        "return": "amount The amount of tokens the given operator delegated.createdAt The time when the stake has been delegated.undelegatedAt The time when undelegation has been requested. If undelegation has not been requested, 0 is returned."
      },
      "getLocks(address)": {
        "return": "creators The addresses of operator contracts that have placed a lock on the operator.expirations The expiration times of the locks placed on the operator."
      },
      "hasMinimumStake(address,address)": {
        "params": {
          "operatorContract": "Operator contract's address",
          "staker": "Staker's address"
        },
        "return": "True if has enough active stake to participate in the network, false otherwise."
      },
      "isApprovedOperatorContract(address)": {
        "params": {
          "_operatorContract": "address of operator contract."
        },
        "return": "True if operator contract is approved, false if operator contract has not been approved or if it was disabled by the panic button."
      },
      "isAuthorizedForOperator(address,address)": {
        "params": {
          "_operator": "address of stake operator.",
          "_operatorContract": "address of operator contract."
        }
      },
      "lockStake(address,uint256)": {
        "params": {
          "duration": "Lock duration in seconds.",
          "operator": "Operator address."
        }
      },
      "ownerOf(address)": {
        "return": "Stake owner address."
      },
      "receiveApproval(address,uint256,address,bytes)": {
        "details": "Requires that the provided token contract be the same one linked to this contract.",
        "params": {
          "_extraData": "Data for stake delegation. This byte array must have the following values concatenated: - Beneficiary address (20 bytes), ignored for a top-up - Operator address (20 bytes) - Authorizer address (20 bytes), ignored for a top-up - Grant ID (32 bytes) - required only when called by TokenStakingEscrow",
          "_from": "The owner of the tokens who approved them to transfer.",
          "_token": "Token contract address.",
          "_value": "Approved amount for the transfer and stake."
        }
      },
      "recoverStake(address)": {
        "params": {
          "_operator": "Operator address."
        }
      },
      "releaseExpiredLock(address,address)": {
        "details": "Necessary for removing locks placed by contracts that have been disabled by the panic button. Also applicable to prevent inadvertent DoS of `recoverStake` if too many operator contracts have failed to clean up their locks."
      },
      "seize(uint256,uint256,address,address[])": {
        "params": {
          "amountToSeize": "Token amount to seize from every misbehaved operator.",
          "misbehavedOperators": "Array of addresses to seize the tokens from.",
          "rewardMultiplier": "Reward adjustment in percentage. Min 1% and 100% max.",
          "tattletale": "Address to receive the 5% reward."
        }
      },
      "slash(uint256,address[])": {
        "params": {
          "amountToSlash": "Token amount to slash from every misbehaved operator.",
          "misbehavedOperators": "Array of addresses to seize the tokens from."
        }
      },
      "transferStakeOwnership(address,address)": {
        "params": {
          "newOwner": "Address of the new staking relationship owner.",
          "operator": "Address of the stake operator."
        }
      },
      "undelegate(address)": {
        "params": {
          "_operator": "Address of the stake operator."
        }
      },
      "undelegateAt(address,uint256)": {
        "params": {
          "_operator": "Address of the stake operator.",
          "_undelegationTimestamp": "The timestamp undelegation is to start at."
        }
      },
      "unlockStake(address)": {
        "details": "Only for operator contracts. To remove expired or disabled locks, use `releaseExpiredLocks`. The authorization check ensures that the caller must have been able to place a lock on the operator sometime in the past. We don't need to check for current approval status of the caller because unlocking stake cannot harm the operator nor interfere with other operator contracts. Therefore even disabled operator contracts may freely unlock stake.",
        "params": {
          "operator": "Operator address."
        }
      }
    }
  },
  "userdoc": {
    "methods": {
      "activeStake(address,address)": {
        "notice": "Gets the active stake balance of the specified address. An active stake is a stake that passed the initialization period, and may be in the process of undelegation but has not been released yet, either because the undelegation period is not over, or because the operator contract has an active lock on the operator. Also, the operator had to approve the specified operator contract.     /// The difference between eligible stake is that active stake does not make the operator eligible for work selection but it may be still finishing earlier work until the stake is released. Operator with a minimum required amount of active stake can join the network but cannot be selected to any new work. "
      },
      "authorizeOperatorContract(address,address)": {
        "notice": "Authorizes operator contract to access staked token balance of the provided operator. Can only be executed by stake operator authorizer. Contracts using delegated authority cannot be authorized with `authorizeOperatorContract`. Instead, authorize `getAuthoritySource(_operatorContract)`."
      },
      "authorizerOf(address)": {
        "notice": "Gets the authorizer for the specified operator address."
      },
      "balanceOf(address)": {
        "notice": "Gets the stake balance of the specified address."
      },
      "beneficiaryOf(address)": {
        "notice": "Gets the beneficiary for the specified operator address."
      },
      "cancelStake(address)": {
        "notice": "Cancels stake of tokens within the operator initialization period without being subjected to the token lockup for the undelegation period. This can be used to undo mistaken delegation to the wrong operator address."
      },
      "claimDelegatedAuthority(address)": {
        "notice": "Grant the sender the same authority as `delegatedAuthoritySource`"
      },
      "commitTopUp(address)": {
        "notice": "Commits pending top-up for the provided operator. If the top-up did not pass the initialization period, the function fails."
      },
      "eligibleStake(address,address)": {
        "notice": "Gets the eligible stake balance of the specified address. An eligible stake is a stake that passed the initialization period and is not currently undelegating. Also, the operator had to approve the specified operator contract.     /// Operator with a minimum required amount of eligible stake can join the network and participate in new work selection. "
      },
      "getAuthoritySource(address)": {
        "notice": "Get the source of the operator contract's authority. If the contract uses delegated authority, returns the original source of the delegated authority. If the contract doesn't use delegated authority, returns the contract itself. Authorize `getAuthoritySource(operatorContract)` to grant `operatorContract` the authority to penalize an operator."
      },
      "getDelegationInfo(address)": {
        "notice": "Gets stake delegation info for the given operator."
      },
      "getLocks(address)": {
        "notice": "Get the locks placed on the operator."
      },
      "hasMinimumStake(address,address)": {
        "notice": "Checks if the specified account has enough active stake to become network operator and that the specified operator contract has been authorized for potential slashing.     /// Having the required minimum of active stake makes the operator eligible to join the network. If the active stake is not currently undelegating, operator is also eligible for work selection. "
      },
      "isApprovedOperatorContract(address)": {
        "notice": "Checks if the operator contract is authorized in the registry. If the contract uses delegated authority it checks authorization of the source contract."
      },
      "isAuthorizedForOperator(address,address)": {
        "notice": "Checks if operator contract has access to the staked token balance of the provided operator."
      },
      "isStakeLocked(address)": {
        "notice": "Check whether the operator has any active locks that haven't expired yet and whose creators aren't disabled by the panic button."
      },
      "lockStake(address,uint256)": {
        "notice": "Locks given operator stake for the specified duration. Locked stake may not be recovered until the lock expires or is released, even if the normal undelegation period has passed. Only previously authorized operator contract can lock the stake."
      },
      "ownerOf(address)": {
        "notice": "Gets the stake owner for the specified operator address."
      },
      "receiveApproval(address,uint256,address,bytes)": {
        "notice": "Receives approval of token transfer and stakes the approved amount or adds the approved amount to an existing delegation (a top-up). In case of a top-up, it is expected that the operator stake is not undelegated and that the top-up is performed from the same source of tokens as the initial delegation. That is, if the tokens were delegated from a grant, top-up has to be performed from the same grant. If the delegation was done using liquid tokens, only liquid tokens from the same owner can be used to top-up the stake. Top-up can not be cancelled so it is important to be careful with the amount of KEEP added to the stake."
      },
      "recoverStake(address)": {
        "notice": "Recovers staked tokens and transfers them back to the owner. Recovering tokens can only be performed when the operator finished undelegating."
      },
      "releaseExpiredLock(address,address)": {
        "notice": "Removes the lock of the specified operator contract if the lock has expired or the contract has been disabled."
      },
      "seize(uint256,uint256,address,address[])": {
        "notice": "Seize provided token amount from every member in the misbehaved operators array. The tattletale is rewarded with 5% of the total seized amount scaled by the reward adjustment parameter and the rest 95% is burned."
      },
      "slash(uint256,address[])": {
        "notice": "Slash provided token amount from every member in the misbehaved operators array and burn 100% of all the tokens."
      },
      "transferStakeOwnership(address,address)": {
        "notice": "Allows the current staking relationship owner to transfer the ownership to someone else."
      },
      "undelegate(address)": {
        "notice": "Undelegates staked tokens. You will be able to recover your stake by calling `recoverStake()` with operator address once undelegation period is over."
      },
      "undelegateAt(address,uint256)": {
        "notice": "Set an undelegation time for staked tokens. Undelegation will begin at the specified timestamp. You will be able to recover your stake by calling `recoverStake()` with operator address once undelegation period is over."
      },
      "undelegationPeriod()": {
        "notice": "Returns the current value of the undelegation period. The staking contract guarantees that an undelegated operators stakes will stay locked for a period of time after undelegation, and thus available as collateral for any work the operator is engaged in. The undelegation period is two weeks for the first two months and two months after that."
      },
      "unlockStake(address)": {
        "notice": "Removes a lock the caller had previously placed on the operator."
      }
    }
  }
}