{
  "contractName": "TokenDistributor",
  "abi": [
    {
      "inputs": [
        {
          "internalType": "contract IERC20",
          "name": "_token",
          "type": "address"
        }
      ],
      "payable": false,
      "stateMutability": "nonpayable",
      "type": "constructor"
    },
    {
      "anonymous": false,
      "inputs": [
        {
          "indexed": true,
          "internalType": "address",
          "name": "previousOwner",
          "type": "address"
        },
        {
          "indexed": true,
          "internalType": "address",
          "name": "newOwner",
          "type": "address"
        }
      ],
      "name": "OwnershipTransferred",
      "type": "event"
    },
    {
      "anonymous": false,
      "inputs": [
        {
          "indexed": false,
          "internalType": "bytes32",
          "name": "merkleRoot",
          "type": "bytes32"
        },
        {
          "indexed": false,
          "internalType": "uint256",
          "name": "amount",
          "type": "uint256"
        },
        {
          "indexed": false,
          "internalType": "uint256",
          "name": "unclaimedUnlockTimestamp",
          "type": "uint256"
        }
      ],
      "name": "TokensAllocated",
      "type": "event"
    },
    {
      "anonymous": false,
      "inputs": [
        {
          "indexed": true,
          "internalType": "uint256",
          "name": "index",
          "type": "uint256"
        },
        {
          "indexed": true,
          "internalType": "address",
          "name": "recipient",
          "type": "address"
        },
        {
          "indexed": true,
          "internalType": "address",
          "name": "destination",
          "type": "address"
        },
        {
          "indexed": false,
          "internalType": "uint256",
          "name": "amount",
          "type": "uint256"
        }
      ],
      "name": "TokensClaimed",
      "type": "event"
    },
    {
      "anonymous": false,
      "inputs": [
        {
          "indexed": false,
          "internalType": "address",
          "name": "destination",
          "type": "address"
        },
        {
          "indexed": false,
          "internalType": "uint256",
          "name": "amount",
          "type": "uint256"
        }
      ],
      "name": "TokensRecovered",
      "type": "event"
    },
    {
      "constant": true,
      "inputs": [],
      "name": "isOwner",
      "outputs": [
        {
          "internalType": "bool",
          "name": "",
          "type": "bool"
        }
      ],
      "payable": false,
      "stateMutability": "view",
      "type": "function"
    },
    {
      "constant": true,
      "inputs": [],
      "name": "merkleRoot",
      "outputs": [
        {
          "internalType": "bytes32",
          "name": "",
          "type": "bytes32"
        }
      ],
      "payable": false,
      "stateMutability": "view",
      "type": "function"
    },
    {
      "constant": true,
      "inputs": [],
      "name": "owner",
      "outputs": [
        {
          "internalType": "address",
          "name": "",
          "type": "address"
        }
      ],
      "payable": false,
      "stateMutability": "view",
      "type": "function"
    },
    {
      "constant": false,
      "inputs": [],
      "name": "renounceOwnership",
      "outputs": [],
      "payable": false,
      "stateMutability": "nonpayable",
      "type": "function"
    },
    {
      "constant": true,
      "inputs": [],
      "name": "token",
      "outputs": [
        {
          "internalType": "contract IERC20",
          "name": "",
          "type": "address"
        }
      ],
      "payable": false,
      "stateMutability": "view",
      "type": "function"
    },
    {
      "constant": false,
      "inputs": [
        {
          "internalType": "address",
          "name": "newOwner",
          "type": "address"
        }
      ],
      "name": "transferOwnership",
      "outputs": [],
      "payable": false,
      "stateMutability": "nonpayable",
      "type": "function"
    },
    {
      "constant": true,
      "inputs": [],
      "name": "unclaimedUnlockTimestamp",
      "outputs": [
        {
          "internalType": "uint256",
          "name": "",
          "type": "uint256"
        }
      ],
      "payable": false,
      "stateMutability": "view",
      "type": "function"
    },
    {
      "constant": false,
      "inputs": [
        {
          "internalType": "address",
          "name": "_recipient",
          "type": "address"
        },
        {
          "internalType": "address",
          "name": "_destination",
          "type": "address"
        },
        {
          "internalType": "uint8",
          "name": "_v",
          "type": "uint8"
        },
        {
          "internalType": "bytes32",
          "name": "_r",
          "type": "bytes32"
        },
        {
          "internalType": "bytes32",
          "name": "_s",
          "type": "bytes32"
        },
        {
          "internalType": "uint256",
          "name": "_index",
          "type": "uint256"
        },
        {
          "internalType": "uint256",
          "name": "_amount",
          "type": "uint256"
        },
        {
          "internalType": "bytes32[]",
          "name": "_merkleProof",
          "type": "bytes32[]"
        }
      ],
      "name": "claim",
      "outputs": [],
      "payable": false,
      "stateMutability": "nonpayable",
      "type": "function"
    },
    {
      "constant": false,
      "inputs": [
        {
          "internalType": "bytes32",
          "name": "_merkleRoot",
          "type": "bytes32"
        },
        {
          "internalType": "uint256",
          "name": "_amount",
          "type": "uint256"
        },
        {
          "internalType": "uint256",
          "name": "_unclaimedUnlockDurationSec",
          "type": "uint256"
        }
      ],
      "name": "allocate",
      "outputs": [],
      "payable": false,
      "stateMutability": "nonpayable",
      "type": "function"
    },
    {
      "constant": false,
      "inputs": [
        {
          "internalType": "address",
          "name": "_destination",
          "type": "address"
        }
      ],
      "name": "recoverUnclaimed",
      "outputs": [],
      "payable": false,
      "stateMutability": "nonpayable",
      "type": "function"
    },
    {
      "constant": true,
      "inputs": [
        {
          "internalType": "uint256",
          "name": "_index",
          "type": "uint256"
        }
      ],
      "name": "isClaimed",
      "outputs": [
        {
          "internalType": "bool",
          "name": "",
          "type": "bool"
        }
      ],
      "payable": false,
      "stateMutability": "view",
      "type": "function"
    }
  ],
  "bytecode": "0x608060405234801561001057600080fd5b50604051611cb7380380611cb78339818101604052602081101561003357600080fd5b810190808051906020019092919050505061005261015460201b60201c565b6000806101000a81548173ffffffffffffffffffffffffffffffffffffffff021916908373ffffffffffffffffffffffffffffffffffffffff1602179055506000809054906101000a900473ffffffffffffffffffffffffffffffffffffffff1673ffffffffffffffffffffffffffffffffffffffff16600073ffffffffffffffffffffffffffffffffffffffff167f8be0079c531659141344cd1fd0a4f28419497f9722a3daafe3b4186f6b6457e060405160405180910390a380600160006101000a81548173ffffffffffffffffffffffffffffffffffffffff021916908373ffffffffffffffffffffffffffffffffffffffff1602179055505061015c565b600033905090565b611b4c8061016b6000396000f3fe608060405234801561001057600080fd5b50600436106100a95760003560e01c80639e34070f116100715780639e34070f14610231578063cff5615b14610277578063d1fe815a146102b9578063d4e4a2e5146102d7578063f2fde38b1461031b578063fc0c546a1461035f576100a9565b80632eb4a7ab146100ae57806342863d6b146100cc578063715018a6146101bb5780638da5cb5b146101c55780638f32d59b1461020f575b600080fd5b6100b66103a9565b6040518082815260200191505060405180910390f35b6101b960048036036101008110156100e357600080fd5b81019080803573ffffffffffffffffffffffffffffffffffffffff169060200190929190803573ffffffffffffffffffffffffffffffffffffffff169060200190929190803560ff169060200190929190803590602001909291908035906020019092919080359060200190929190803590602001909291908035906020019064010000000081111561017557600080fd5b82018360208201111561018757600080fd5b803590602001918460208302840111640100000000831117156101a957600080fd5b90919293919293905050506103af565b005b6101c361084e565b005b6101cd610987565b604051808273ffffffffffffffffffffffffffffffffffffffff1673ffffffffffffffffffffffffffffffffffffffff16815260200191505060405180910390f35b6102176109b0565b604051808215151515815260200191505060405180910390f35b61025d6004803603602081101561024757600080fd5b8101908080359060200190929190505050610a0e565b604051808215151515815260200191505060405180910390f35b6102b76004803603606081101561028d57600080fd5b81019080803590602001909291908035906020019092919080359060200190929190505050610a60565b005b6102c1610cd9565b6040518082815260200191505060405180910390f35b610319600480360360208110156102ed57600080fd5b81019080803573ffffffffffffffffffffffffffffffffffffffff169060200190929190505050610cdf565b005b61035d6004803603602081101561033157600080fd5b81019080803573ffffffffffffffffffffffffffffffffffffffff16906020019092919050505061104c565b005b6103676110d2565b604051808273ffffffffffffffffffffffffffffffffffffffff1673ffffffffffffffffffffffffffffffffffffffff16815260200191505060405180910390f35b60025481565b600073ffffffffffffffffffffffffffffffffffffffff168973ffffffffffffffffffffffffffffffffffffffff161415610452576040517f08c379a00000000000000000000000000000000000000000000000000000000081526004018080602001828103825260208152602001807f726563697069656e7420616464726573732063616e6e6f74206265207a65726f81525060200191505060405180910390fd5b600073ffffffffffffffffffffffffffffffffffffffff168873ffffffffffffffffffffffffffffffffffffffff1614156104d8576040517f08c379a0000000000000000000000000000000000000000000000000000000008152600401808060200182810382526022815260200180611ad46022913960400191505060405180910390fd5b60006002541415610551576040517f08c379a000000000000000000000000000000000000000000000000000000000815260040180806020018281038252601d8152602001807f746f6b656e732077657265206e6f7420616c6c6f63617465642079657400000081525060200191505060405180910390fd5b61055a84610a0e565b156105cd576040517f08c379a00000000000000000000000000000000000000000000000000000000081526004018080602001828103825260168152602001807f746f6b656e7320616c726561647920636c61696d65640000000000000000000081525060200191505060405180910390fd5b6105d9888888886110f8565b73ffffffffffffffffffffffffffffffffffffffff168973ffffffffffffffffffffffffffffffffffffffff161461065c576040517f08c379a0000000000000000000000000000000000000000000000000000000008152600401808060200182810382526028815260200180611a826028913960400191505060405180910390fd5b6000848a85604051602001808481526020018373ffffffffffffffffffffffffffffffffffffffff1673ffffffffffffffffffffffffffffffffffffffff1660601b81526014018281526020019350505050604051602081830303815290604052805190602001209050610714838380806020026020016040519081016040528093929190818152602001838360200280828437600081840152601f19601f8201169050808301925050505050505060025483611371565b610786576040517f08c379a000000000000000000000000000000000000000000000000000000000815260040180806020018281038252600d8152602001807f696e76616c69642070726f6f660000000000000000000000000000000000000081525060200191505060405180910390fd5b61078f8561142a565b6107dc8985600160009054906101000a900473ffffffffffffffffffffffffffffffffffffffff1673ffffffffffffffffffffffffffffffffffffffff166114809092919063ffffffff16565b8873ffffffffffffffffffffffffffffffffffffffff168a73ffffffffffffffffffffffffffffffffffffffff16867f9c4945d842cc8c6704877a0defcd9ab09f6d77b24a369a95c2610506c6c38ee7876040518082815260200191505060405180910390a450505050505050505050565b6108566109b0565b6108c8576040517f08c379a00000000000000000000000000000000000000000000000000000000081526004018080602001828103825260208152602001807f4f776e61626c653a2063616c6c6572206973206e6f7420746865206f776e657281525060200191505060405180910390fd5b600073ffffffffffffffffffffffffffffffffffffffff166000809054906101000a900473ffffffffffffffffffffffffffffffffffffffff1673ffffffffffffffffffffffffffffffffffffffff167f8be0079c531659141344cd1fd0a4f28419497f9722a3daafe3b4186f6b6457e060405160405180910390a360008060006101000a81548173ffffffffffffffffffffffffffffffffffffffff021916908373ffffffffffffffffffffffffffffffffffffffff160217905550565b60008060009054906101000a900473ffffffffffffffffffffffffffffffffffffffff16905090565b60008060009054906101000a900473ffffffffffffffffffffffffffffffffffffffff1673ffffffffffffffffffffffffffffffffffffffff166109f2611551565b73ffffffffffffffffffffffffffffffffffffffff1614905090565b6000806101008381610a1c57fe5b04905060006101008481610a2c57fe5b0690506000600460008481526020019081526020016000205490506000826001901b90508081831614945050505050919050565b610a686109b0565b610ada576040517f08c379a00000000000000000000000000000000000000000000000000000000081526004018080602001828103825260208152602001807f4f776e61626c653a2063616c6c6572206973206e6f7420746865206f776e657281525060200191505060405180910390fd5b600060025414610b52576040517f08c379a000000000000000000000000000000000000000000000000000000000815260040180806020018281038252601d8152602001807f746f6b656e73207765726520616c726561647920616c6c6f636174656400000081525060200191505060405180910390fd5b6000831415610bc9576040517f08c379a000000000000000000000000000000000000000000000000000000000815260040180806020018281038252601b8152602001807f6d65726b6c6520726f6f742063616e6e6f7420626520656d707479000000000081525060200191505060405180910390fd5b60008211610c22576040517f08c379a0000000000000000000000000000000000000000000000000000000008152600401808060200182810382526022815260200180611af66022913960400191505060405180910390fd5b610c71333084600160009054906101000a900473ffffffffffffffffffffffffffffffffffffffff1673ffffffffffffffffffffffffffffffffffffffff16611559909392919063ffffffff16565b826002819055506000811115610c8b578042016003819055505b7ffe084480d6e553db6abcf7e839b81be5a627cd283861202622bdd8f7d5d176ae838360035460405180848152602001838152602001828152602001935050505060405180910390a1505050565b60035481565b610ce76109b0565b610d59576040517f08c379a00000000000000000000000000000000000000000000000000000000081526004018080602001828103825260208152602001807f4f776e61626c653a2063616c6c6572206973206e6f7420746865206f776e657281525060200191505060405180910390fd5b600073ffffffffffffffffffffffffffffffffffffffff168173ffffffffffffffffffffffffffffffffffffffff161415610ddf576040517f08c379a0000000000000000000000000000000000000000000000000000000008152600401808060200182810382526022815260200180611ad46022913960400191505060405180910390fd5b600060035411610e57576040517f08c379a000000000000000000000000000000000000000000000000000000000815260040180806020018281038252601d8152602001807f746f6b656e207265636f76657279206973206e6f7420616c6c6f77656400000081525060200191505060405180910390fd5b426003541115610eb2576040517f08c379a0000000000000000000000000000000000000000000000000000000008152600401808060200182810382526022815260200180611a3a6022913960400191505060405180910390fd5b6000600160009054906101000a900473ffffffffffffffffffffffffffffffffffffffff1673ffffffffffffffffffffffffffffffffffffffff166370a08231306040518263ffffffff1660e01b8152600401808273ffffffffffffffffffffffffffffffffffffffff1673ffffffffffffffffffffffffffffffffffffffff16815260200191505060206040518083038186803b158015610f5357600080fd5b505afa158015610f67573d6000803e3d6000fd5b505050506040513d6020811015610f7d57600080fd5b81019080805190602001909291905050509050610fdd8282600160009054906101000a900473ffffffffffffffffffffffffffffffffffffffff1673ffffffffffffffffffffffffffffffffffffffff166114809092919063ffffffff16565b7f46d2e6e71fc567877b817ff3d940571f989d4ee4d40f2b70806d36e738feef6f8282604051808373ffffffffffffffffffffffffffffffffffffffff1673ffffffffffffffffffffffffffffffffffffffff1681526020018281526020019250505060405180910390a15050565b6110546109b0565b6110c6576040517f08c379a00000000000000000000000000000000000000000000000000000000081526004018080602001828103825260208152602001807f4f776e61626c653a2063616c6c6572206973206e6f7420746865206f776e657281525060200191505060405180910390fd5b6110cf8161165f565b50565b600160009054906101000a900473ffffffffffffffffffffffffffffffffffffffff1681565b60007f7fffffffffffffffffffffffffffffff5d576e7357a4501ddfe92f46681b20a08260001c1115611193576040517f08c379a000000000000000000000000000000000000000000000000000000000815260040180806020018281038252601b8152602001807f496e76616c6964207369676e6174757265202773272076616c7565000000000081525060200191505060405180910390fd5b601b8460ff1614806111a85750601c8460ff16145b61121a576040517f08c379a000000000000000000000000000000000000000000000000000000000815260040180806020018281038252601b8152602001807f496e76616c6964207369676e6174757265202776272076616c7565000000000081525060200191505060405180910390fd5b60003086604051602001808373ffffffffffffffffffffffffffffffffffffffff1673ffffffffffffffffffffffffffffffffffffffff1660601b81526014018273ffffffffffffffffffffffffffffffffffffffff1673ffffffffffffffffffffffffffffffffffffffff1660601b81526014019250505060405160208183030381529060405280519060200120905060008160405160200180807f19457468657265756d205369676e6564204d6573736167653a0a333200000000815250601c0182815260200191505060405160208183030381529060405280519060200120905060018187878760405160008152602001604052604051808581526020018460ff1660ff1681526020018381526020018281526020019450505050506020604051602081039080840390855afa15801561135b573d6000803e3d6000fd5b5050506020604051035192505050949350505050565b60008082905060008090505b855181101561141c57600086828151811061139457fe5b60200260200101519050808310156113dc578281604051602001808381526020018281526020019250505060405160208183030381529060405280519060200120925061140e565b808360405160200180838152602001828152602001925050506040516020818303038152906040528051906020012092505b50808060010191505061137d565b508381149150509392505050565b6000610100828161143757fe5b0490506000610100838161144757fe5b069050806001901b6004600084815260200190815260200160002054176004600084815260200190815260200160002081905550505050565b61154c838473ffffffffffffffffffffffffffffffffffffffff1663a9059cbb905060e01b8484604051602401808373ffffffffffffffffffffffffffffffffffffffff1673ffffffffffffffffffffffffffffffffffffffff16815260200182815260200192505050604051602081830303815290604052907bffffffffffffffffffffffffffffffffffffffffffffffffffffffff19166020820180517bffffffffffffffffffffffffffffffffffffffffffffffffffffffff83818316178352505050506117a3565b505050565b600033905090565b611659848573ffffffffffffffffffffffffffffffffffffffff166323b872dd905060e01b858585604051602401808473ffffffffffffffffffffffffffffffffffffffff1673ffffffffffffffffffffffffffffffffffffffff1681526020018373ffffffffffffffffffffffffffffffffffffffff1673ffffffffffffffffffffffffffffffffffffffff1681526020018281526020019350505050604051602081830303815290604052907bffffffffffffffffffffffffffffffffffffffffffffffffffffffff19166020820180517bffffffffffffffffffffffffffffffffffffffffffffffffffffffff83818316178352505050506117a3565b50505050565b600073ffffffffffffffffffffffffffffffffffffffff168173ffffffffffffffffffffffffffffffffffffffff1614156116e5576040517f08c379a0000000000000000000000000000000000000000000000000000000008152600401808060200182810382526026815260200180611a5c6026913960400191505060405180910390fd5b8073ffffffffffffffffffffffffffffffffffffffff166000809054906101000a900473ffffffffffffffffffffffffffffffffffffffff1673ffffffffffffffffffffffffffffffffffffffff167f8be0079c531659141344cd1fd0a4f28419497f9722a3daafe3b4186f6b6457e060405160405180910390a3806000806101000a81548173ffffffffffffffffffffffffffffffffffffffff021916908373ffffffffffffffffffffffffffffffffffffffff16021790555050565b6117c28273ffffffffffffffffffffffffffffffffffffffff166119ee565b611834576040517f08c379a000000000000000000000000000000000000000000000000000000000815260040180806020018281038252601f8152602001807f5361666545524332303a2063616c6c20746f206e6f6e2d636f6e74726163740081525060200191505060405180910390fd5b600060608373ffffffffffffffffffffffffffffffffffffffff16836040518082805190602001908083835b602083106118835780518252602082019150602081019050602083039250611860565b6001836020036101000a0380198251168184511680821785525050505050509050019150506000604051808303816000865af19150503d80600081146118e5576040519150601f19603f3d011682016040523d82523d6000602084013e6118ea565b606091505b509150915081611962576040517f08c379a00000000000000000000000000000000000000000000000000000000081526004018080602001828103825260208152602001807f5361666545524332303a206c6f772d6c6576656c2063616c6c206661696c656481525060200191505060405180910390fd5b6000815111156119e85780806020019051602081101561198157600080fd5b81019080805190602001909291905050506119e7576040517f08c379a000000000000000000000000000000000000000000000000000000000815260040180806020018281038252602a815260200180611aaa602a913960400191505060405180910390fd5b5b50505050565b60008060007fc5d2460186f7233c927e7db2dcc703c0e500b653ca82273b7bfad8045d85a47060001b9050833f91506000801b8214158015611a305750808214155b9250505091905056fe746f6b656e207265636f76657279206973206e6f7420706f737369626c65207965744f776e61626c653a206e6577206f776e657220697320746865207a65726f2061646472657373696e76616c6964207369676e6174757265206f662064657374696e6174696f6e20616464726573735361666545524332303a204552433230206f7065726174696f6e20646964206e6f74207375636365656464657374696e6174696f6e20616464726573732063616e6e6f74206265207a65726f616d6f756e742068617320746f2062652067726561746572207468616e207a65726fa265627a7a72315820986ad09e4d8d21cfacea7d17ef6dc1fdc272d080a27af1f9b117706bf4e868a364736f6c63430005110032",
  "source": "/**\n     \n   \n                            \n                             \n                           \n                           \n                          \n     \n     \n\n                           Trust math, not hardware.\n*/\n\npragma solidity 0.5.17;\n\nimport \"openzeppelin-solidity/contracts/ownership/Ownable.sol\";\nimport \"openzeppelin-solidity/contracts/token/ERC20/IERC20.sol\";\nimport \"openzeppelin-solidity/contracts/token/ERC20/SafeERC20.sol\";\nimport \"openzeppelin-solidity/contracts/cryptography/MerkleProof.sol\";\n\n/// @title Token Distributor\n/// @notice This contract can be used to distribute ERC20 tokens with a merkle\n/// tree distribution mechanism in a cross-chain environment.\n/// An owner of the contract has to calculate a merkle tree for tokens assignments\n/// based on a mapping of a recipient addresses with the assigned tokens amount.\n/// Next the owner allocates the total amount of tokens in the contract by calling\n/// allocate function with the calculated merkle tree root. The owner has also\n/// a possibility to define a period after which unclaimed tokens will be allowed\n/// to recover by the owner. Once tokens allocation is made recipients can call\n/// claim function to withdraw tokens to any destination address. The destination\n/// address should be signed by the recipient prior to calling the function and\n/// the signature should be provided on claim. For details of the signature see\n/// claim function documentation.\n/// Signing of destination addresses is implemented to allow cross-chain tokens\n/// distribution. It covers a situation when recipient receives a tokens assignment\n/// based on their address on some chain (A), and operates under a different address\n/// on another chain (B) where tokens distribution takes place (e.g. a recipient\n/// is as a multi-sig wallet on chain A and receives tokens assignment on chain B,\n/// they have to sign an address on chain B they control with a signature calculated\n/// with a private key controlling the address on chain A).\n/// @dev This contract is based on the Uniswap's Merkle Distributor\n/// https://github.com/Uniswap/merkle-distributor with some modifications:\n/// - added 'allocate' function that will be called to allocate tokens for a\n///   merkle root,\n/// - added a possibility for a recipient to redirect tokens withdrawal to another\n///   address by providing a signature over that address,\n/// - added a possibility for the owner to recover unclaimed tokens after the\n///   unclaimed unlock duration that is configurable on tokens allocation.\ncontract TokenDistributor is Ownable {\n    using SafeERC20 for IERC20;\n\n    // Distributed token.\n    IERC20 public token;\n\n    // Merkle tree root.\n    bytes32 public merkleRoot;\n\n    // Timestamp after which allocated and unclaimed tokens can be recovered from\n    // the contract by the owner. If the value is zero the recovery is not possible.\n    uint256 public unclaimedUnlockTimestamp;\n\n    mapping(uint256 => uint256) private claimedBitMap;\n\n    event TokensAllocated(\n        bytes32 merkleRoot,\n        uint256 amount,\n        uint256 unclaimedUnlockTimestamp\n    );\n\n    event TokensClaimed(\n        uint256 indexed index,\n        address indexed recipient,\n        address indexed destination,\n        uint256 amount\n    );\n\n    event TokensRecovered(address destination, uint256 amount);\n\n    constructor(IERC20 _token) public {\n        token = _token;\n    }\n\n    /// @notice Claim assigned tokens. The function can be used to withdraw tokens\n    /// assigned to the recipient in the merkle tree distribution. The caller has\n    /// to provide merkle data: recipient address, index, amount, and merkle proof.\n    /// Anyone can call this function. The function requires a destination address\n    /// for a transfer to be provided. The destination address should be signed\n    /// by the recipient. To construct the message to signing recipient has to\n    /// hash this contract address and destination address with keccak256 and\n    /// prefix the obtained digest with Ethereum specific `\\x19Ethereum Signed Message:\\n32`.\n    /// When using web3's signing function the prefixing is done automatically,\n    /// so the signing operation can look like:\n    /// `sign(soliditySha3(tokenDistributor, destination), privateKey)`.\n    /// The signature should be provided with the call to this function. This is\n    /// to confirm that the recipient approved the destination address for a transfer.\n    /// The solution allows cross-chain allocations, where a recipient from a\n    /// different chain does not operate under the same address on the chain\n    /// where the tokens were allocated, (e.g. recipient is a wallet)\n    /// @dev Due to the malleability concern described in EIP-2, the function expects\n    /// s values in the lower half of the secp256k1 curve's order and v value of\n    /// 27 or 28.\n    /// @param _recipient Address that received tokens assignment.\n    /// @param _destination Address to send tokens to.\n    /// @param _v Destination address signature's v parameter.\n    /// @param _r Destination address signature's r parameter.\n    /// @param _s Destination address signature's s parameter.\n    /// @param _index Merkle index.\n    /// @param _amount Assigned tokens amount.\n    /// @param _merkleProof Merkle proof.\n    function claim(\n        address _recipient,\n        address _destination,\n        uint8 _v,\n        bytes32 _r,\n        bytes32 _s,\n        uint256 _index,\n        uint256 _amount,\n        bytes32[] calldata _merkleProof\n    ) external {\n        require(_recipient != address(0), \"recipient address cannot be zero\");\n        require(\n            _destination != address(0),\n            \"destination address cannot be zero\"\n        );\n        require(merkleRoot != \"\", \"tokens were not allocated yet\");\n        require(!isClaimed(_index), \"tokens already claimed\");\n\n        // Verify the signature over destination address.\n        require(\n            _recipient == recoverSignerAddress(_destination, _v, _r, _s),\n            \"invalid signature of destination address\"\n        );\n\n        // Verify the merkle proof.\n        bytes32 node = keccak256(abi.encodePacked(_index, _recipient, _amount));\n        require(\n            MerkleProof.verify(_merkleProof, merkleRoot, node),\n            \"invalid proof\"\n        );\n\n        // Mark it claimed and send the token.\n        setClaimed(_index);\n\n        token.safeTransfer(_destination, _amount);\n\n        emit TokensClaimed(_index, _recipient, _destination, _amount);\n    }\n\n    /// Allocates amount of tokens for the merkle root.\n    /// @param _merkleRoot The merkle root.\n    /// @param _amount The amount of tokens allocated for the merkle root.\n    /// @param _unclaimedUnlockDurationSec Duration of a period (in seconds)\n    /// after which  unclaimed tokens can be recovered from the contract. If the\n    /// value is zero the recovery won't be allowed.\n    function allocate(\n        bytes32 _merkleRoot,\n        uint256 _amount,\n        uint256 _unclaimedUnlockDurationSec\n    ) public onlyOwner {\n        require(merkleRoot == \"\", \"tokens were already allocated\");\n        require(_merkleRoot != \"\", \"merkle root cannot be empty\");\n        require(_amount > 0, \"amount has to be greater than zero\");\n\n        token.safeTransferFrom(msg.sender, address(this), _amount);\n\n        merkleRoot = _merkleRoot;\n\n        // If unclaimed unlock duration was provided calculate timestamp after\n        // which unclaimed tokens will be recoverable. If the duration is set to\n        // zero the tokens won't be recoverable.\n        if (_unclaimedUnlockDurationSec > 0) {\n            unclaimedUnlockTimestamp =\n                /* solium-disable-next-line security/no-block-members */\n                block.timestamp +\n                _unclaimedUnlockDurationSec;\n        }\n\n        emit TokensAllocated(_merkleRoot, _amount, unclaimedUnlockTimestamp);\n    }\n\n    /// @notice Withdraws unclaimed tokens to the destination address. The function\n    /// can be called only by the contract owner. Tokens are recoverable after\n    /// unlock duration defined on tokens allocation.\n    /// @param _destination Address to send tokens to.\n    function recoverUnclaimed(address _destination) public onlyOwner {\n        require(\n            _destination != address(0),\n            \"destination address cannot be zero\"\n        );\n        require(unclaimedUnlockTimestamp > 0, \"token recovery is not allowed\");\n        require(\n            /* solium-disable-next-line security/no-block-members */\n            unclaimedUnlockTimestamp <= block.timestamp,\n            \"token recovery is not possible yet\"\n        );\n\n        uint256 amount = token.balanceOf(address(this));\n        token.safeTransfer(_destination, amount);\n\n        emit TokensRecovered(_destination, amount);\n    }\n\n    /// @notice Checks if tokens were claimed for the given merkle index.\n    /// @param _index Merkle index.\n    /// @return True is tokens were claimed, false otherwise.\n    function isClaimed(uint256 _index) public view returns (bool) {\n        uint256 claimedWordIndex = _index / 256;\n        uint256 claimedBitIndex = _index % 256;\n        uint256 claimedWord = claimedBitMap[claimedWordIndex];\n        uint256 mask = (1 << claimedBitIndex);\n        return claimedWord & mask == mask;\n    }\n\n    /// @notice Recovers signer's address from a signature and destination address.\n    /// @dev Destination address is a part of a message that should be signed.\n    /// To construct the message one has to hash this contract address along with\n    /// destination address with keccak256 and prefix the obtained digest with\n    /// Ethereum specific `\\x19Ethereum Signed Message:\\n32`.\n    /// Due to the malleability concern described in EIP-2, the function expects\n    /// s values in the lower half of the secp256k1 curve's order and v value of\n    /// 27 or 28.\n    function recoverSignerAddress(\n        address _destination,\n        uint8 _v,\n        bytes32 _r,\n        bytes32 _s\n    ) internal view returns (address) {\n        // Validate `s` and `v` values for a malleability concern described in EIP-2.\n        // Only signatures with `s` value in the lower half of the secp256k1\n        // curve's order and `v` value of 27 or 28 are considered valid.\n        require(\n            uint256(_s) <=\n                0x7FFFFFFFFFFFFFFFFFFFFFFFFFFFFFFF5D576E7357A4501DDFE92F46681B20A0,\n            \"Invalid signature 's' value\"\n        );\n        require(_v == 27 || _v == 28, \"Invalid signature 'v' value\");\n\n        bytes32 digest =\n            keccak256(abi.encodePacked(address(this), _destination));\n        bytes32 prefixedDigest =\n            keccak256(\n                abi.encodePacked(\"\\x19Ethereum Signed Message:\\n32\", digest)\n            );\n\n        return ecrecover(prefixedDigest, _v, _r, _s);\n    }\n\n    /// @notice Marks the given merkle index as claimed.\n    /// @param _index Merkle index.\n    function setClaimed(uint256 _index) private {\n        uint256 claimedWordIndex = _index / 256;\n        uint256 claimedBitIndex = _index % 256;\n        claimedBitMap[claimedWordIndex] =\n            claimedBitMap[claimedWordIndex] |\n            (1 << claimedBitIndex);\n    }\n}\n",
  "sourcePath": "/home/runner/work/keep-core/keep-core/solidity-v1/contracts/token-distribution/TokenDistributor.sol",
  "compiler": {
    "name": "solc",
    "version": "0.5.17+commit.d19bba13.Emscripten.clang"
  },
  "schemaVersion": "3.3.4",
  "updatedAt": "2021-11-26T17:03:20.440Z",
  "devdoc": {
    "details": "This contract is based on the Uniswap's Merkle Distributor https://github.com/Uniswap/merkle-distributor with some modifications: - added 'allocate' function that will be called to allocate tokens for a   merkle root, - added a possibility for a recipient to redirect tokens withdrawal to another   address by providing a signature over that address, - added a possibility for the owner to recover unclaimed tokens after the   unclaimed unlock duration that is configurable on tokens allocation.",
    "methods": {
      "allocate(bytes32,uint256,uint256)": {
        "params": {
          "_amount": "The amount of tokens allocated for the merkle root.",
          "_merkleRoot": "The merkle root.",
          "_unclaimedUnlockDurationSec": "Duration of a period (in seconds) after which  unclaimed tokens can be recovered from the contract. If the value is zero the recovery won't be allowed."
        }
      },
      "claim(address,address,uint8,bytes32,bytes32,uint256,uint256,bytes32[])": {
        "details": "Due to the malleability concern described in EIP-2, the function expects s values in the lower half of the secp256k1 curve's order and v value of 27 or 28.",
        "params": {
          "_amount": "Assigned tokens amount.",
          "_destination": "Address to send tokens to.",
          "_index": "Merkle index.",
          "_merkleProof": "Merkle proof.",
          "_r": "Destination address signature's r parameter.",
          "_recipient": "Address that received tokens assignment.",
          "_s": "Destination address signature's s parameter.",
          "_v": "Destination address signature's v parameter."
        }
      },
      "isClaimed(uint256)": {
        "params": {
          "_index": "Merkle index."
        },
        "return": "True is tokens were claimed, false otherwise."
      },
      "isOwner()": {
        "details": "Returns true if the caller is the current owner."
      },
      "owner()": {
        "details": "Returns the address of the current owner."
      },
      "recoverUnclaimed(address)": {
        "params": {
          "_destination": "Address to send tokens to."
        }
      },
      "renounceOwnership()": {
        "details": "Leaves the contract without owner. It will not be possible to call `onlyOwner` functions anymore. Can only be called by the current owner.     * NOTE: Renouncing ownership will leave the contract without an owner, thereby removing any functionality that is only available to the owner."
      },
      "transferOwnership(address)": {
        "details": "Transfers ownership of the contract to a new account (`newOwner`). Can only be called by the current owner."
      }
    },
    "title": "Token Distributor"
  },
  "userdoc": {
    "methods": {
      "allocate(bytes32,uint256,uint256)": {
        "notice": "Allocates amount of tokens for the merkle root."
      },
      "claim(address,address,uint8,bytes32,bytes32,uint256,uint256,bytes32[])": {
        "notice": "Claim assigned tokens. The function can be used to withdraw tokens assigned to the recipient in the merkle tree distribution. The caller has to provide merkle data: recipient address, index, amount, and merkle proof. Anyone can call this function. The function requires a destination address for a transfer to be provided. The destination address should be signed by the recipient. To construct the message to signing recipient has to hash this contract address and destination address with keccak256 and prefix the obtained digest with Ethereum specific `\\x19Ethereum Signed Message:\\n32`. When using web3's signing function the prefixing is done automatically, so the signing operation can look like: `sign(soliditySha3(tokenDistributor, destination), privateKey)`. The signature should be provided with the call to this function. This is to confirm that the recipient approved the destination address for a transfer. The solution allows cross-chain allocations, where a recipient from a different chain does not operate under the same address on the chain where the tokens were allocated, (e.g. recipient is a wallet)"
      },
      "isClaimed(uint256)": {
        "notice": "Checks if tokens were claimed for the given merkle index."
      },
      "recoverUnclaimed(address)": {
        "notice": "Withdraws unclaimed tokens to the destination address. The function can be called only by the contract owner. Tokens are recoverable after unlock duration defined on tokens allocation."
      }
    },
    "notice": "This contract can be used to distribute ERC20 tokens with a merkle tree distribution mechanism in a cross-chain environment. An owner of the contract has to calculate a merkle tree for tokens assignments based on a mapping of a recipient addresses with the assigned tokens amount. Next the owner allocates the total amount of tokens in the contract by calling allocate function with the calculated merkle tree root. The owner has also a possibility to define a period after which unclaimed tokens will be allowed to recover by the owner. Once tokens allocation is made recipients can call claim function to withdraw tokens to any destination address. The destination address should be signed by the recipient prior to calling the function and the signature should be provided on claim. For details of the signature see claim function documentation. Signing of destination addresses is implemented to allow cross-chain tokens distribution. It covers a situation when recipient receives a tokens assignment based on their address on some chain (A), and operates under a different address on another chain (B) where tokens distribution takes place (e.g. a recipient is as a multi-sig wallet on chain A and receives tokens assignment on chain B, they have to sign an address on chain B they control with a signature calculated with a private key controlling the address on chain A)."
  }
}